{
  "_format": "hh-sol-artifact-1",
  "contractName": "EthState",
  "sourceName": "contracts/EthState.sol",
  "abi": [
    {
      "anonymous": false,
      "inputs": [
        {
          "indexed": true,
          "internalType": "address",
          "name": "_seller",
          "type": "address"
        },
        {
          "indexed": false,
          "internalType": "uint256",
          "name": "_propertyId",
          "type": "uint256"
        },
        {
          "indexed": false,
          "internalType": "uint256",
          "name": "_bidPrice",
          "type": "uint256"
        }
      ],
      "name": "Accept",
      "type": "event"
    },
    {
      "anonymous": false,
      "inputs": [
        {
          "indexed": true,
          "internalType": "address",
          "name": "_owner",
          "type": "address"
        },
        {
          "indexed": false,
          "internalType": "uint256",
          "name": "_propertyId",
          "type": "uint256"
        }
      ],
      "name": "Add",
      "type": "event"
    },
    {
      "anonymous": false,
      "inputs": [
        {
          "indexed": true,
          "internalType": "address",
          "name": "owner",
          "type": "address"
        },
        {
          "indexed": true,
          "internalType": "address",
          "name": "approved",
          "type": "address"
        },
        {
          "indexed": true,
          "internalType": "uint256",
          "name": "tokenId",
          "type": "uint256"
        }
      ],
      "name": "Approval",
      "type": "event"
    },
    {
      "anonymous": false,
      "inputs": [
        {
          "indexed": true,
          "internalType": "address",
          "name": "owner",
          "type": "address"
        },
        {
          "indexed": true,
          "internalType": "address",
          "name": "operator",
          "type": "address"
        },
        {
          "indexed": false,
          "internalType": "bool",
          "name": "approved",
          "type": "bool"
        }
      ],
      "name": "ApprovalForAll",
      "type": "event"
    },
    {
      "anonymous": false,
      "inputs": [
        {
          "indexed": false,
          "internalType": "uint256",
          "name": "_fromTokenId",
          "type": "uint256"
        },
        {
          "indexed": false,
          "internalType": "uint256",
          "name": "_toTokenId",
          "type": "uint256"
        }
      ],
      "name": "BatchMetadataUpdate",
      "type": "event"
    },
    {
      "anonymous": false,
      "inputs": [
        {
          "indexed": true,
          "internalType": "address",
          "name": "_buyer",
          "type": "address"
        },
        {
          "indexed": false,
          "internalType": "uint256",
          "name": "_propertyId",
          "type": "uint256"
        },
        {
          "indexed": false,
          "internalType": "uint256",
          "name": "_buyOutPrice",
          "type": "uint256"
        }
      ],
      "name": "BuyOut",
      "type": "event"
    },
    {
      "anonymous": false,
      "inputs": [
        {
          "indexed": true,
          "internalType": "address",
          "name": "_lender",
          "type": "address"
        },
        {
          "indexed": true,
          "internalType": "address",
          "name": "_loaner",
          "type": "address"
        },
        {
          "indexed": false,
          "internalType": "uint256",
          "name": "_propertyId",
          "type": "uint256"
        },
        {
          "indexed": false,
          "internalType": "uint256",
          "name": "_financingId",
          "type": "uint256"
        }
      ],
      "name": "Default",
      "type": "event"
    },
    {
      "anonymous": false,
      "inputs": [
        {
          "indexed": true,
          "internalType": "address",
          "name": "_lender",
          "type": "address"
        },
        {
          "indexed": true,
          "internalType": "address",
          "name": "_loaner",
          "type": "address"
        },
        {
          "indexed": false,
          "internalType": "uint256",
          "name": "_propertyId",
          "type": "uint256"
        },
        {
          "indexed": false,
          "internalType": "uint256",
          "name": "financingId",
          "type": "uint256"
        }
      ],
      "name": "FinanceApproval",
      "type": "event"
    },
    {
      "anonymous": false,
      "inputs": [
        {
          "indexed": true,
          "internalType": "address",
          "name": "_lender",
          "type": "address"
        },
        {
          "indexed": true,
          "internalType": "address",
          "name": "_loaner",
          "type": "address"
        },
        {
          "indexed": false,
          "internalType": "uint256",
          "name": "_propertyId",
          "type": "uint256"
        },
        {
          "indexed": false,
          "internalType": "uint256",
          "name": "_financingId",
          "type": "uint256"
        }
      ],
      "name": "FinanceRejection",
      "type": "event"
    },
    {
      "anonymous": false,
      "inputs": [
        {
          "indexed": true,
          "internalType": "address",
          "name": "_lender",
          "type": "address"
        },
        {
          "indexed": true,
          "internalType": "address",
          "name": "_loaner",
          "type": "address"
        },
        {
          "indexed": false,
          "internalType": "uint256",
          "name": "_propertyId",
          "type": "uint256"
        },
        {
          "indexed": false,
          "internalType": "uint256",
          "name": "_financingId",
          "type": "uint256"
        }
      ],
      "name": "FinanceRequest",
      "type": "event"
    },
    {
      "anonymous": false,
      "inputs": [
        {
          "indexed": false,
          "internalType": "uint8",
          "name": "version",
          "type": "uint8"
        }
      ],
      "name": "Initialized",
      "type": "event"
    },
    {
      "anonymous": false,
      "inputs": [
        {
          "indexed": true,
          "internalType": "address",
          "name": "_seller",
          "type": "address"
        },
        {
          "indexed": false,
          "internalType": "uint256",
          "name": "_propertyId",
          "type": "uint256"
        },
        {
          "indexed": false,
          "internalType": "uint256",
          "name": "_sellPrice",
          "type": "uint256"
        }
      ],
      "name": "List",
      "type": "event"
    },
    {
      "anonymous": false,
      "inputs": [
        {
          "indexed": false,
          "internalType": "uint256",
          "name": "_tokenId",
          "type": "uint256"
        }
      ],
      "name": "MetadataUpdate",
      "type": "event"
    },
    {
      "anonymous": false,
      "inputs": [
        {
          "indexed": true,
          "internalType": "address",
          "name": "_buyer",
          "type": "address"
        },
        {
          "indexed": false,
          "internalType": "uint256",
          "name": "_propertyId",
          "type": "uint256"
        },
        {
          "indexed": false,
          "internalType": "uint256",
          "name": "_bidPrice",
          "type": "uint256"
        }
      ],
      "name": "Offer",
      "type": "event"
    },
    {
      "anonymous": false,
      "inputs": [
        {
          "indexed": true,
          "internalType": "address",
          "name": "previousOwner",
          "type": "address"
        },
        {
          "indexed": true,
          "internalType": "address",
          "name": "newOwner",
          "type": "address"
        }
      ],
      "name": "OwnershipTransferred",
      "type": "event"
    },
    {
      "anonymous": false,
      "inputs": [
        {
          "indexed": true,
          "internalType": "address",
          "name": "_lender",
          "type": "address"
        },
        {
          "indexed": true,
          "internalType": "address",
          "name": "_loaner",
          "type": "address"
        },
        {
          "indexed": false,
          "internalType": "uint256",
          "name": "_propertyId",
          "type": "uint256"
        },
        {
          "indexed": false,
          "internalType": "uint256",
          "name": "_financingId",
          "type": "uint256"
        }
      ],
      "name": "PaidOff",
      "type": "event"
    },
    {
      "anonymous": false,
      "inputs": [
        {
          "indexed": true,
          "internalType": "address",
          "name": "_lender",
          "type": "address"
        },
        {
          "indexed": true,
          "internalType": "address",
          "name": "_loaner",
          "type": "address"
        },
        {
          "indexed": false,
          "internalType": "uint256",
          "name": "_propertyId",
          "type": "uint256"
        },
        {
          "indexed": false,
          "internalType": "uint256",
          "name": "_financingId",
          "type": "uint256"
        },
        {
          "indexed": false,
          "internalType": "uint256",
          "name": "_paidMonths",
          "type": "uint256"
        },
        {
          "indexed": false,
          "internalType": "uint256",
          "name": "_monthlyPayment",
          "type": "uint256"
        }
      ],
      "name": "Payment",
      "type": "event"
    },
    {
      "anonymous": false,
      "inputs": [
        {
          "indexed": true,
          "internalType": "address",
          "name": "_owner",
          "type": "address"
        },
        {
          "indexed": false,
          "internalType": "uint256",
          "name": "_propertyId",
          "type": "uint256"
        }
      ],
      "name": "Remove",
      "type": "event"
    },
    {
      "anonymous": false,
      "inputs": [
        {
          "indexed": true,
          "internalType": "address",
          "name": "from",
          "type": "address"
        },
        {
          "indexed": true,
          "internalType": "address",
          "name": "to",
          "type": "address"
        },
        {
          "indexed": true,
          "internalType": "uint256",
          "name": "tokenId",
          "type": "uint256"
        }
      ],
      "name": "Transfer",
      "type": "event"
    },
    {
      "anonymous": false,
      "inputs": [
        {
          "indexed": true,
          "internalType": "address",
          "name": "_seller",
          "type": "address"
        },
        {
          "indexed": true,
          "internalType": "address",
          "name": "_buyer",
          "type": "address"
        },
        {
          "indexed": false,
          "internalType": "uint256",
          "name": "_propertyId",
          "type": "uint256"
        },
        {
          "indexed": false,
          "internalType": "uint256",
          "name": "_sellPrice",
          "type": "uint256"
        }
      ],
      "name": "Transfer",
      "type": "event"
    },
    {
      "anonymous": false,
      "inputs": [
        {
          "indexed": true,
          "internalType": "address",
          "name": "_seller",
          "type": "address"
        },
        {
          "indexed": false,
          "internalType": "uint256",
          "name": "_propertyId",
          "type": "uint256"
        }
      ],
      "name": "Unlist",
      "type": "event"
    },
    {
      "inputs": [
        {
          "internalType": "uint256",
          "name": "_propertyId",
          "type": "uint256"
        },
        {
          "internalType": "address",
          "name": "_buyer",
          "type": "address"
        }
      ],
      "name": "acceptOffer",
      "outputs": [],
      "stateMutability": "nonpayable",
      "type": "function"
    },
    {
      "inputs": [
        {
          "internalType": "address",
          "name": "_lender",
          "type": "address"
        }
      ],
      "name": "addLender",
      "outputs": [],
      "stateMutability": "nonpayable",
      "type": "function"
    },
    {
      "inputs": [
        {
          "internalType": "string",
          "name": "_uri",
          "type": "string"
        }
      ],
      "name": "addProperty",
      "outputs": [],
      "stateMutability": "nonpayable",
      "type": "function"
    },
    {
      "inputs": [
        {
          "internalType": "address",
          "name": "to",
          "type": "address"
        },
        {
          "internalType": "uint256",
          "name": "tokenId",
          "type": "uint256"
        }
      ],
      "name": "approve",
      "outputs": [],
      "stateMutability": "nonpayable",
      "type": "function"
    },
    {
      "inputs": [
        {
          "internalType": "uint256",
          "name": "_propertyId",
          "type": "uint256"
        },
        {
          "internalType": "uint256",
          "name": "_financingId",
          "type": "uint256"
        }
      ],
      "name": "approveFinancing",
      "outputs": [],
      "stateMutability": "nonpayable",
      "type": "function"
    },
    {
      "inputs": [
        {
          "internalType": "uint256",
          "name": "_propertyId",
          "type": "uint256"
        }
      ],
      "name": "approveTransferAsBuyer",
      "outputs": [],
      "stateMutability": "payable",
      "type": "function"
    },
    {
      "inputs": [
        {
          "internalType": "uint256",
          "name": "_propertyId",
          "type": "uint256"
        }
      ],
      "name": "approveTransferAsSeller",
      "outputs": [],
      "stateMutability": "nonpayable",
      "type": "function"
    },
    {
      "inputs": [
        {
          "internalType": "address",
          "name": "owner",
          "type": "address"
        }
      ],
      "name": "balanceOf",
      "outputs": [
        {
          "internalType": "uint256",
          "name": "",
          "type": "uint256"
        }
      ],
      "stateMutability": "view",
      "type": "function"
    },
    {
      "inputs": [
        {
          "internalType": "uint256",
          "name": "_propertyId",
          "type": "uint256"
        },
        {
          "internalType": "uint256",
          "name": "_bidPrice",
          "type": "uint256"
        }
      ],
      "name": "bid",
      "outputs": [],
      "stateMutability": "nonpayable",
      "type": "function"
    },
    {
      "inputs": [
        {
          "internalType": "uint256",
          "name": "_propertyId",
          "type": "uint256"
        }
      ],
      "name": "buyOut",
      "outputs": [],
      "stateMutability": "payable",
      "type": "function"
    },
    {
      "inputs": [],
      "name": "defaultOnFinancing",
      "outputs": [],
      "stateMutability": "nonpayable",
      "type": "function"
    },
    {
      "inputs": [
        {
          "internalType": "uint256",
          "name": "_propertyId",
          "type": "uint256"
        },
        {
          "internalType": "address",
          "name": "_lender",
          "type": "address"
        },
        {
          "internalType": "uint256",
          "name": "_loanAmount",
          "type": "uint256"
        },
        {
          "internalType": "uint256",
          "name": "_monthlyInterestRate",
          "type": "uint256"
        },
        {
          "internalType": "uint256",
          "name": "_durationInMonths",
          "type": "uint256"
        }
      ],
      "name": "financingRequest",
      "outputs": [],
      "stateMutability": "nonpayable",
      "type": "function"
    },
    {
      "inputs": [
        {
          "internalType": "uint256",
          "name": "",
          "type": "uint256"
        },
        {
          "internalType": "uint256",
          "name": "",
          "type": "uint256"
        }
      ],
      "name": "financings",
      "outputs": [
        {
          "internalType": "uint256",
          "name": "propertyId",
          "type": "uint256"
        },
        {
          "internalType": "address",
          "name": "lender",
          "type": "address"
        },
        {
          "internalType": "enum FinancingContract.FinancingStatus",
          "name": "status",
          "type": "uint8"
        },
        {
          "internalType": "uint256",
          "name": "loanAmount",
          "type": "uint256"
        },
        {
          "internalType": "uint256",
          "name": "monthlyInterestRate",
          "type": "uint256"
        },
        {
          "internalType": "uint256",
          "name": "durationInMonths",
          "type": "uint256"
        },
        {
          "internalType": "uint256",
          "name": "monthlyPayment",
          "type": "uint256"
        },
        {
          "internalType": "uint256",
          "name": "paidMonths",
          "type": "uint256"
        }
      ],
      "stateMutability": "view",
      "type": "function"
    },
    {
      "inputs": [],
      "name": "getActiveListings",
      "outputs": [
        {
          "components": [
            {
              "internalType": "uint256",
              "name": "propertyId",
              "type": "uint256"
            },
            {
              "internalType": "uint256",
              "name": "sellPrice",
              "type": "uint256"
            },
            {
              "internalType": "bool",
              "name": "buyerApproved",
              "type": "bool"
            },
            {
              "internalType": "bool",
              "name": "sellerApproved",
              "type": "bool"
            },
            {
              "components": [
                {
                  "internalType": "address",
                  "name": "buyer",
                  "type": "address"
                },
                {
                  "internalType": "uint256",
                  "name": "bidPrice",
                  "type": "uint256"
                }
              ],
              "internalType": "struct MarketplaceContract.Bid[]",
              "name": "bids",
              "type": "tuple[]"
            },
            {
              "components": [
                {
                  "internalType": "address",
                  "name": "buyer",
                  "type": "address"
                },
                {
                  "internalType": "uint256",
                  "name": "bidPrice",
                  "type": "uint256"
                }
              ],
              "internalType": "struct MarketplaceContract.Bid",
              "name": "acceptedBid",
              "type": "tuple"
            }
          ],
          "internalType": "struct MarketplaceContract.Listing[]",
          "name": "",
          "type": "tuple[]"
        }
      ],
      "stateMutability": "view",
      "type": "function"
    },
    {
      "inputs": [
        {
          "internalType": "uint256",
          "name": "tokenId",
          "type": "uint256"
        }
      ],
      "name": "getApproved",
      "outputs": [
        {
          "internalType": "address",
          "name": "",
          "type": "address"
        }
      ],
      "stateMutability": "view",
      "type": "function"
    },
    {
      "inputs": [
        {
          "internalType": "uint256",
          "name": "_propertyId",
          "type": "uint256"
        }
      ],
      "name": "getListing",
      "outputs": [
        {
          "components": [
            {
              "internalType": "uint256",
              "name": "propertyId",
              "type": "uint256"
            },
            {
              "internalType": "uint256",
              "name": "sellPrice",
              "type": "uint256"
            },
            {
              "internalType": "bool",
              "name": "buyerApproved",
              "type": "bool"
            },
            {
              "internalType": "bool",
              "name": "sellerApproved",
              "type": "bool"
            },
            {
              "components": [
                {
                  "internalType": "address",
                  "name": "buyer",
                  "type": "address"
                },
                {
                  "internalType": "uint256",
                  "name": "bidPrice",
                  "type": "uint256"
                }
              ],
              "internalType": "struct MarketplaceContract.Bid[]",
              "name": "bids",
              "type": "tuple[]"
            },
            {
              "components": [
                {
                  "internalType": "address",
                  "name": "buyer",
                  "type": "address"
                },
                {
                  "internalType": "uint256",
                  "name": "bidPrice",
                  "type": "uint256"
                }
              ],
              "internalType": "struct MarketplaceContract.Bid",
              "name": "acceptedBid",
              "type": "tuple"
            }
          ],
          "internalType": "struct MarketplaceContract.Listing",
          "name": "",
          "type": "tuple"
        }
      ],
      "stateMutability": "view",
      "type": "function"
    },
    {
      "inputs": [
        {
          "internalType": "address",
          "name": "_owner",
          "type": "address"
        }
      ],
      "name": "getPropertiesByOwner",
      "outputs": [
        {
          "components": [
            {
              "internalType": "uint256",
              "name": "propertyId",
              "type": "uint256"
            },
            {
              "internalType": "string",
              "name": "uri",
              "type": "string"
            }
          ],
          "internalType": "struct PropertyContract.Property[]",
          "name": "",
          "type": "tuple[]"
        }
      ],
      "stateMutability": "view",
      "type": "function"
    },
    {
      "inputs": [],
      "name": "initialize",
      "outputs": [],
      "stateMutability": "nonpayable",
      "type": "function"
    },
    {
      "inputs": [
        {
          "internalType": "address",
          "name": "owner",
          "type": "address"
        },
        {
          "internalType": "address",
          "name": "operator",
          "type": "address"
        }
      ],
      "name": "isApprovedForAll",
      "outputs": [
        {
          "internalType": "bool",
          "name": "",
          "type": "bool"
        }
      ],
      "stateMutability": "view",
      "type": "function"
    },
    {
      "inputs": [
        {
          "internalType": "uint256",
          "name": "",
          "type": "uint256"
        }
      ],
      "name": "lenders",
      "outputs": [
        {
          "internalType": "address",
          "name": "",
          "type": "address"
        }
      ],
      "stateMutability": "view",
      "type": "function"
    },
    {
      "inputs": [
        {
          "internalType": "uint256",
          "name": "_propertyId",
          "type": "uint256"
        },
        {
          "internalType": "uint256",
          "name": "_sellPrice",
          "type": "uint256"
        }
      ],
      "name": "listProperty",
      "outputs": [],
      "stateMutability": "nonpayable",
      "type": "function"
    },
    {
      "inputs": [],
      "name": "listingCount",
      "outputs": [
        {
          "internalType": "uint256",
          "name": "",
          "type": "uint256"
        }
      ],
      "stateMutability": "view",
      "type": "function"
    },
    {
      "inputs": [
        {
          "internalType": "uint256",
          "name": "",
          "type": "uint256"
        }
      ],
      "name": "listings",
      "outputs": [
        {
          "internalType": "uint256",
          "name": "propertyId",
          "type": "uint256"
        },
        {
          "internalType": "uint256",
          "name": "sellPrice",
          "type": "uint256"
        },
        {
          "internalType": "bool",
          "name": "buyerApproved",
          "type": "bool"
        },
        {
          "internalType": "bool",
          "name": "sellerApproved",
          "type": "bool"
        },
        {
          "components": [
            {
              "internalType": "address",
              "name": "buyer",
              "type": "address"
            },
            {
              "internalType": "uint256",
              "name": "bidPrice",
              "type": "uint256"
            }
          ],
          "internalType": "struct MarketplaceContract.Bid",
          "name": "acceptedBid",
          "type": "tuple"
        }
      ],
      "stateMutability": "view",
      "type": "function"
    },
    {
      "inputs": [],
      "name": "makePayment",
      "outputs": [],
      "stateMutability": "payable",
      "type": "function"
    },
    {
      "inputs": [],
      "name": "name",
      "outputs": [
        {
          "internalType": "string",
          "name": "",
          "type": "string"
        }
      ],
      "stateMutability": "view",
      "type": "function"
    },
    {
      "inputs": [],
      "name": "owner",
      "outputs": [
        {
          "internalType": "address",
          "name": "",
          "type": "address"
        }
      ],
      "stateMutability": "view",
      "type": "function"
    },
    {
      "inputs": [
        {
          "internalType": "uint256",
          "name": "tokenId",
          "type": "uint256"
        }
      ],
      "name": "ownerOf",
      "outputs": [
        {
          "internalType": "address",
          "name": "",
          "type": "address"
        }
      ],
      "stateMutability": "view",
      "type": "function"
    },
    {
      "inputs": [
        {
          "internalType": "uint256",
          "name": "",
          "type": "uint256"
        }
      ],
      "name": "properties",
      "outputs": [
        {
          "internalType": "uint256",
          "name": "propertyId",
          "type": "uint256"
        },
        {
          "internalType": "string",
          "name": "uri",
          "type": "string"
        }
      ],
      "stateMutability": "view",
      "type": "function"
    },
    {
      "inputs": [],
      "name": "propertyCount",
      "outputs": [
        {
          "internalType": "uint256",
          "name": "",
          "type": "uint256"
        }
      ],
      "stateMutability": "view",
      "type": "function"
    },
    {
      "inputs": [
        {
          "internalType": "uint256",
          "name": "_propertyId",
          "type": "uint256"
        },
        {
          "internalType": "uint256",
          "name": "_financingId",
          "type": "uint256"
        }
      ],
      "name": "rejectFinancing",
      "outputs": [],
      "stateMutability": "nonpayable",
      "type": "function"
    },
    {
      "inputs": [
        {
          "internalType": "uint256",
          "name": "_propertyId",
          "type": "uint256"
        },
        {
          "internalType": "address",
          "name": "_buyer",
          "type": "address"
        }
      ],
      "name": "removeBid",
      "outputs": [],
      "stateMutability": "nonpayable",
      "type": "function"
    },
    {
      "inputs": [
        {
          "internalType": "address",
          "name": "_lender",
          "type": "address"
        }
      ],
      "name": "removeLender",
      "outputs": [],
      "stateMutability": "nonpayable",
      "type": "function"
    },
    {
      "inputs": [
        {
          "internalType": "uint256",
          "name": "_propertyId",
          "type": "uint256"
        }
      ],
      "name": "removeProperty",
      "outputs": [],
      "stateMutability": "nonpayable",
      "type": "function"
    },
    {
      "inputs": [],
      "name": "renounceOwnership",
      "outputs": [],
      "stateMutability": "nonpayable",
      "type": "function"
    },
    {
      "inputs": [
        {
          "internalType": "address",
          "name": "from",
          "type": "address"
        },
        {
          "internalType": "address",
          "name": "to",
          "type": "address"
        },
        {
          "internalType": "uint256",
          "name": "tokenId",
          "type": "uint256"
        }
      ],
      "name": "safeTransferFrom",
      "outputs": [],
      "stateMutability": "nonpayable",
      "type": "function"
    },
    {
      "inputs": [
        {
          "internalType": "address",
          "name": "from",
          "type": "address"
        },
        {
          "internalType": "address",
          "name": "to",
          "type": "address"
        },
        {
          "internalType": "uint256",
          "name": "tokenId",
          "type": "uint256"
        },
        {
          "internalType": "bytes",
          "name": "data",
          "type": "bytes"
        }
      ],
      "name": "safeTransferFrom",
      "outputs": [],
      "stateMutability": "nonpayable",
      "type": "function"
    },
    {
      "inputs": [
        {
          "internalType": "address",
          "name": "operator",
          "type": "address"
        },
        {
          "internalType": "bool",
          "name": "approved",
          "type": "bool"
        }
      ],
      "name": "setApprovalForAll",
      "outputs": [],
      "stateMutability": "nonpayable",
      "type": "function"
    },
    {
      "inputs": [
        {
          "internalType": "bytes4",
          "name": "interfaceId",
          "type": "bytes4"
        }
      ],
      "name": "supportsInterface",
      "outputs": [
        {
          "internalType": "bool",
          "name": "",
          "type": "bool"
        }
      ],
      "stateMutability": "view",
      "type": "function"
    },
    {
      "inputs": [],
      "name": "symbol",
      "outputs": [
        {
          "internalType": "string",
          "name": "",
          "type": "string"
        }
      ],
      "stateMutability": "view",
      "type": "function"
    },
    {
      "inputs": [
        {
          "internalType": "uint256",
          "name": "tokenId",
          "type": "uint256"
        }
      ],
      "name": "tokenURI",
      "outputs": [
        {
          "internalType": "string",
          "name": "",
          "type": "string"
        }
      ],
      "stateMutability": "view",
      "type": "function"
    },
    {
      "inputs": [
        {
          "internalType": "address",
          "name": "from",
          "type": "address"
        },
        {
          "internalType": "address",
          "name": "to",
          "type": "address"
        },
        {
          "internalType": "uint256",
          "name": "tokenId",
          "type": "uint256"
        }
      ],
      "name": "transferFrom",
      "outputs": [],
      "stateMutability": "nonpayable",
      "type": "function"
    },
    {
      "inputs": [
        {
          "internalType": "address",
          "name": "newOwner",
          "type": "address"
        }
      ],
      "name": "transferOwnership",
      "outputs": [],
      "stateMutability": "nonpayable",
      "type": "function"
    },
    {
      "inputs": [
        {
          "internalType": "uint256",
          "name": "_propertyId",
          "type": "uint256"
        }
      ],
      "name": "unlistProperty",
      "outputs": [],
      "stateMutability": "nonpayable",
      "type": "function"
    }
  ],
  "bytecode": "0x608060405234801561001057600080fd5b50614bd5806100206000396000f3fe60806040526004361061025c5760003560e01c80638da5cb5b11610144578063be999558116100b6578063de74e57b1161007a578063de74e57b14610756578063e985e9c5146107d6578063ec7a81d0146107f6578063f2fde38b14610809578063f7b1080814610829578063fd3df1711461085757600080fd5b8063be999558146106cf578063c361a33514610703578063c87b56dd14610719578063c8efddf614610739578063d8d797001461074e57600080fd5b80639fcb2748116101085780639fcb27481461060c578063a22cb46514610639578063a9b07c2614610659578063b48cc6e51461066f578063b88d4fde1461068f578063bc43d06f146106af57600080fd5b80638da5cb5b1461052c578063918d407d1461054a578063929eea211461056a57806393084b341461058a57806395d89b41146105f757600080fd5b80635138f19f116101dd578063776a0835116101a1578063776a0835146104755780637e6b3bbf146104955780638129fc1c146104b557806384019eed146104ca578063841ad8b9146104ea57806387c35bc01461050a57600080fd5b80635138f19f146103df578063598647f8146103f25780636352211e1461041257806370a0823114610432578063715018a61461046057600080fd5b806323b872dd1161022457806323b872dd1461033f578063292588361461035f57806341c38d851461037f57806342842e0e1461039f5780634eda529b146103bf57600080fd5b806301ffc9a71461026157806306fdde0314610296578063081812fc146102b8578063095ea7b3146102f0578063107a274a14610312575b600080fd5b34801561026d57600080fd5b5061028161027c366004613f27565b610877565b60405190151581526020015b60405180910390f35b3480156102a257600080fd5b506102ab6108a2565b60405161028d9190613f94565b3480156102c457600080fd5b506102d86102d3366004613fa7565b610934565b6040516001600160a01b03909116815260200161028d565b3480156102fc57600080fd5b5061031061030b366004613fdc565b61095b565b005b34801561031e57600080fd5b5061033261032d366004613fa7565b610a75565b60405161028d91906140c5565b34801561034b57600080fd5b5061031061035a3660046140d8565b610ba3565b34801561036b57600080fd5b5061031061037a366004614114565b610bd4565b34801561038b57600080fd5b5061031061039a36600461415a565b610ee9565b3480156103ab57600080fd5b506103106103ba3660046140d8565b611197565b3480156103cb57600080fd5b506103106103da36600461415a565b6111b2565b6103106103ed366004613fa7565b61135c565b3480156103fe57600080fd5b5061031061040d36600461415a565b611576565b34801561041e57600080fd5b506102d861042d366004613fa7565b611807565b34801561043e57600080fd5b5061045261044d36600461417c565b611867565b60405190815260200161028d565b34801561046c57600080fd5b506103106118ed565b34801561048157600080fd5b50610310610490366004614197565b611901565b3480156104a157600080fd5b506103106104b0366004613fa7565b611a60565b3480156104c157600080fd5b50610310611b8c565b3480156104d657600080fd5b506103106104e536600461417c565b611cad565b3480156104f657600080fd5b50610310610505366004613fa7565b611d2d565b34801561051657600080fd5b5061051f611ef3565b60405161028d91906141c3565b34801561053857600080fd5b506033546001600160a01b03166102d8565b34801561055657600080fd5b50610310610565366004614197565b6120e3565b34801561057657600080fd5b506102d8610585366004613fa7565b612423565b34801561059657600080fd5b506103106105a536600461417c565b60ff80546001810182556000919091527fe08ec2af2cfc251225e1968fd6ca21e4044f129bffa95bac3503be8bdb30a3670180546001600160a01b0319166001600160a01b0392909216919091179055565b34801561060357600080fd5b506102ab61244d565b34801561061857600080fd5b5061062c61062736600461417c565b61245c565b60405161028d9190614227565b34801561064557600080fd5b5061031061065436600461429d565b612605565b34801561066557600080fd5b5061045260fd5481565b34801561067b57600080fd5b5061031061068a366004614365565b612610565b34801561069b57600080fd5b506103106106aa3660046143ae565b612760565b3480156106bb57600080fd5b506103106106ca366004613fa7565b612798565b3480156106db57600080fd5b506106ef6106ea36600461415a565b61288c565b60405161028d989796959493929190614440565b34801561070f57600080fd5b5061045260fb5481565b34801561072557600080fd5b506102ab610734366004613fa7565b6128fe565b34801561074557600080fd5b50610310612a0e565b610310612a16565b34801561076257600080fd5b506107c5610771366004613fa7565b60fe60209081526000918252604091829020805460018201546002830154855180870190965260048401546001600160a01b03168652600590930154938501939093529260ff808316926101009004169085565b60405161028d9594939291906144a6565b3480156107e257600080fd5b506102816107f13660046144e8565b612a50565b610310610804366004613fa7565b612a7e565b34801561081557600080fd5b5061031061082436600461417c565b612c8c565b34801561083557600080fd5b50610849610844366004613fa7565b612d02565b60405161028d929190614512565b34801561086357600080fd5b5061031061087236600461415a565b612da7565b60006001600160e01b03198216632483248360e11b148061089c575061089c8261304b565b92915050565b6060609780546108b19061452b565b80601f01602080910402602001604051908101604052809291908181526020018280546108dd9061452b565b801561092a5780601f106108ff5761010080835404028352916020019161092a565b820191906000526020600020905b81548152906001019060200180831161090d57829003601f168201915b5050505050905090565b600061093f8261309b565b506000908152609b60205260409020546001600160a01b031690565b600061096682611807565b9050806001600160a01b0316836001600160a01b0316036109d85760405162461bcd60e51b815260206004820152602160248201527f4552433732313a20617070726f76616c20746f2063757272656e74206f776e656044820152603960f91b60648201526084015b60405180910390fd5b336001600160a01b03821614806109f457506109f48133612a50565b610a665760405162461bcd60e51b815260206004820152603d60248201527f4552433732313a20617070726f76652063616c6c6572206973206e6f7420746f60448201527f6b656e206f776e6572206f7220617070726f76656420666f7220616c6c00000060648201526084016109cf565b610a7083836130eb565b505050565b610ab96040805160c081018252600080825260208083018290528284018290526060808401839052608084015283518085019094528184528301529060a082015290565b600082815260fe60209081526040808320815160c08101835281548152600182015481850152600282015460ff8082161515838601526101009091041615156060820152600382018054845181870281018701909552808552919592946080870194939192919084015b82821015610b6b576000848152602090819020604080518082019091526002850290910180546001600160a01b03168252600190810154828401529083529092019101610b23565b505050908252506040805180820190915260048301546001600160a01b03168152600590920154602083810191909152015292915050565b610bad3382613159565b610bc95760405162461bcd60e51b81526004016109cf90614565565b610a708383836131b7565b8433610bdf82611807565b6001600160a01b031614610c055760405162461bcd60e51b81526004016109cf906145b2565b856000805b60008381526101006020526040902054811015610c8a576003600084815261010060205260409020805483908110610c4457610c446145fa565b906000526020600020906007020160010160149054906101000a900460ff166005811115610c7457610c7461442a565b03610c825760019150610c8a565b600101610c0a565b508015610cd95760405162461bcd60e51b815260206004820152601f60248201527f50726f706572747920616c7265616479206265696e672066696e616e6365640060448201526064016109cf565b600088815261010060205260408120543391600187610cf88a83614626565b610d02919061471d565b610d0c9190614729565b87610d188a6001614626565b610d22919061471d565b610d2c908a61473c565b610d369190614753565b610d40908a61473c565b6040519091506001600160a01b038416908a156108fc02908b906000818181858888f19350505050158015610d79573d6000803e3d6000fd5b50610d848a8c6130eb565b60008b81526101006020818152604092839020835192830184528e83526001600160a01b038e16918301919091529181016001815260208082018d905260408083018d9052606083018c905260808301869052600060a09093018390528454600180820187559584529282902084516007909402019283559083015193820180546001600160a01b031981166001600160a01b03909616958617825591840151939492939290916001600160a81b03191617600160a01b836005811115610e4d57610e4d61442a565b0217905550606082015181600201556080820151816003015560a0820151816004015560c0820151816005015560e082015181600601555050826001600160a01b03168a6001600160a01b03167f4205b7bf0dc285765b14df5a0705e12690c033399dda27c398dd939e877444698d85604051610ed4929190918252602082015260400190565b60405180910390a35050505050505050505050565b6000828152610100602052604090205482908290610f195760405162461bcd60e51b81526004016109cf90614775565b6001600083815261010060205260409020805483908110610f3c57610f3c6145fa565b906000526020600020906007020160010160149054906101000a900460ff166005811115610f6c57610f6c61442a565b14610fb95760405162461bcd60e51b815260206004820152601d60248201527f46696e616e63696e672072657175657374206e6f742070656e64696e6700000060448201526064016109cf565b60008481526101006020526040902054610fe55760405162461bcd60e51b81526004016109cf90614775565b6001600085815261010060205260409020805485908110611008576110086145fa565b906000526020600020906007020160010160149054906101000a900460ff1660058111156110385761103861442a565b146110555760405162461bcd60e51b81526004016109cf906147bb565b600084815261010060205260409020805433919085908110611079576110796145fa565b60009182526020909120600160079092020101546001600160a01b0316146110de5760405162461bcd60e51b815260206004820152601860248201527721b0b63632b91034b9903737ba103a3432903632b73232b960411b60448201526064016109cf565b60008481526101006020526040902080546002919085908110611103576111036145fa565b60009182526020909120600160079092020101805460ff60a01b1916600160a01b8360058111156111365761113661442a565b02179055506000848152609960209081526040918290205482518781529182018690526001600160a01b03169133917fc382dc9808425d8488afd57f8db541349438287b10c168ea8c4465f171ea7a1491015b60405180910390a350505050565b610a7083838360405180602001604052806000815250612760565b816111bc8161331b565b6111d85760405162461bcd60e51b81526004016109cf90614809565b82336111e382611807565b6001600160a01b0316146112095760405162461bcd60e51b81526004016109cf906145b2565b6112128461331b565b61122e5760405162461bcd60e51b81526004016109cf90614809565b6000831161127e5760405162461bcd60e51b815260206004820152601960248201527f53656c6c2070726963652063616e6e6f74206265207a65726f0000000000000060448201526064016109cf565b600084815260fe60205260409020548490036112dc5760405162461bcd60e51b815260206004820152601a60248201527f50726f706572747920697320616c7265616479206c697374656400000000000060448201526064016109cf565b60fd80549060006112ec8361484d565b9091555050600084815260fe6020526040902084815560018101849055336001600160a01b03167f1518ffac149698f404e82117efa8b67d99c365490eefe4e0f91856a93ca8d9c1868660405161134d929190918252602082015260400190565b60405180910390a25050505050565b806113668161331b565b6113825760405162461bcd60e51b81526004016109cf90614809565b600082815260fe6020526040902054829081146113b15760405162461bcd60e51b81526004016109cf90614866565b600083815260fe60205260409020600401546001600160a01b0316331461142b5760405162461bcd60e51b815260206004820152602860248201527f43616c6c6572206973206e6f7420746865206275796572206f6620746869732060448201526770726f706572747960c01b60648201526084016109cf565b600083815260fe60205260409020600501543410156114835760405162461bcd60e51b8152602060048201526014602482015273125b9cdd59999a58da595b9d081c185e5b595b9d60621b60448201526064016109cf565b600083815260fe602052604090206002015460ff16156114f45760405162461bcd60e51b815260206004820152602660248201527f5472616e7366657220616c726561647920617070726f7665642062792074686560448201526510313abcb2b960d11b60648201526084016109cf565b600083815260fe60205260409020600201805460ff191660011790556115173390565b600084815260fe60205260409020600501546001600160a01b0391909116906108fc906115449034614729565b6040518115909202916000818181858888f1935050505015801561156c573d6000803e3d6000fd5b50610a7083613338565b816115808161331b565b61159c5760405162461bcd60e51b81526004016109cf90614809565b600083815260fe6020526040902054839081146115cb5760405162461bcd60e51b81526004016109cf90614866565b8333600080805b600085815260fe602052604090206003015481101561164a57600085815260fe6020526040902060030180546001600160a01b03861691908390811061161a5761161a6145fa565b60009182526020909120600290910201546001600160a01b031603611642576001915061164a565b6001016115d2565b50811561169d57806116985760405162461bcd60e51b81526020600482015260176024820152764275796572206e6f7420666f756e6420696e206269647360481b60448201526064016109cf565b6116bb565b80156116bb5760405162461bcd60e51b81526004016109cf90614896565b6116c488611807565b6001600160a01b0316330361170e5760405162461bcd60e51b815260206004820152601060248201526f13dddb995c8818d85b9b9bdd08189a5960821b60448201526064016109cf565b600088815260fe60205260409020600401546001600160a01b03161580156117455750600088815260fe6020526040902060050154155b6117615760405162461bcd60e51b81526004016109cf906148d8565b600088815260fe6020908152604080832081518083018352338082528185018d81526003909301805460018082018355918852968690209251600290970290920180546001600160a01b0319166001600160a01b03909716969096178655915194019390935580518b81529182018a90527f4a68fde121386ffcfc9555407bfb38625033a0d0d3726b00f56b4ab304b55447910160405180910390a25050505050505050565b6000818152609960205260408120546001600160a01b03168061089c5760405162461bcd60e51b8152602060048201526018602482015277115490cdcc8c4e881a5b9d985b1a59081d1bdad95b88125160421b60448201526064016109cf565b60006001600160a01b0382166118d15760405162461bcd60e51b815260206004820152602960248201527f4552433732313a2061646472657373207a65726f206973206e6f7420612076616044820152683634b21037bbb732b960b91b60648201526084016109cf565b506001600160a01b03166000908152609a602052604090205490565b6118f5613563565b6118ff60006135bd565b565b60005b600083815260fe6020526040902060030154811015610a7057600083815260fe6020526040902060030180546001600160a01b03841691908390811061194c5761194c6145fa565b60009182526020909120600290910201546001600160a01b031603611a5857600083815260fe60205260409020600301805461198a90600190614729565b8154811061199a5761199a6145fa565b906000526020600020906002020160fe600085815260200190815260200160002060030182815481106119cf576119cf6145fa565b60009182526020808320845460029093020180546001600160a01b0319166001600160a01b03909316929092178255600193840154939091019290925584815260fe90915260409020600301805480611a2a57611a2a614901565b60008281526020812060026000199093019283020180546001600160a01b0319168155600101559055505050565b600101611904565b80611a6a8161331b565b611a865760405162461bcd60e51b81526004016109cf90614809565b600082815260fe602052604090205482908114611ab55760405162461bcd60e51b81526004016109cf90614866565b611abe83611807565b6001600160a01b0316336001600160a01b031614611aee5760405162461bcd60e51b81526004016109cf906145b2565b600083815260fe6020526040902060020154610100900460ff1615611b655760405162461bcd60e51b815260206004820152602760248201527f5472616e7366657220616c726561647920617070726f766564206279207468656044820152661039b2b63632b960c91b60648201526084016109cf565b600083815260fe60205260409020600201805461ff001916610100179055610a7083613338565b600054610100900460ff1615808015611bac5750600054600160ff909116105b80611bc65750303b158015611bc6575060005460ff166001145b611c295760405162461bcd60e51b815260206004820152602e60248201527f496e697469616c697a61626c653a20636f6e747261637420697320616c72656160448201526d191e481a5b9a5d1a585b1a5e995960921b60648201526084016109cf565b6000805460ff191660011790558015611c4c576000805461ff0019166101001790555b611c5461360f565b611c5c61363e565b611c6461364e565b8015611caa576000805461ff0019169055604051600181527f7f26b83ff96e1f2b6a682f133852f6798a09c465da95921460cefb38474024989060200160405180910390a15b50565b60005b60ff54811015611d2957816001600160a01b031660ff8281548110611cd757611cd76145fa565b6000918252602090912001546001600160a01b031603611d215760ff8181548110611d0457611d046145fa565b600091825260209091200180546001600160a01b03191690555050565b600101611cb0565b5050565b80611d378161331b565b611d535760405162461bcd60e51b81526004016109cf90614809565b8133611d5e82611807565b6001600160a01b031614611d845760405162461bcd60e51b81526004016109cf906145b2565b600083815260fe602052604090205483908114611db35760405162461bcd60e51b81526004016109cf90614866565b600084815260fe602052604090206002015460ff16158015611dec5750600084815260fe6020526040902060020154610100900460ff16155b611e385760405162461bcd60e51b815260206004820152601a60248201527f50726f706572747920697320756e646572207472616e7366657200000000000060448201526064016109cf565b60fd8054906000611e4883614917565b9091555050600084815260fe602052604081208181556001810182905560028101805461ffff1916905590611e806003830182613e77565b506004810180546001600160a01b03191690556000600590910181905584815260fe60205260408120611eb891600390910190613e77565b60405184815233907f99700a6ee3c3e4d026c56e3d3618a8157ca8e5efc0c4a4a3e555a9744d25fdbd9060200160405180910390a250505050565b6060600060fd5467ffffffffffffffff811115611f1257611f126142d9565b604051908082528060200260200182016040528015611f8757816020015b611f746040805160c081018252600080825260208083018290528284018290526060808401839052608084015283518085019094528184528301529060a082015290565b815260200190600190039081611f305790505b509050600060015b60fb5481116120db57600081815260fe60205260409020548190036120c057600081815260fe60209081526040808320815160c08101835281548152600182015481850152600282015460ff8082161515838601526101009091041615156060820152600382018054845181870281018701909552808552919592946080870194939192919084015b82821015612060576000848152602090819020604080518082019091526002850290910180546001600160a01b03168252600190810154828401529083529092019101612018565b505050908252506040805180820190915260048301546001600160a01b03168152600590920154602083810191909152015283518490849081106120a6576120a66145fa565b602002602001018190525081806120bc9061484d565b9250505b60fd5482146120db57806120d38161484d565b915050611f8f565b509092915050565b816120ed8161331b565b6121095760405162461bcd60e51b81526004016109cf90614809565b823361211482611807565b6001600160a01b03161461213a5760405162461bcd60e51b81526004016109cf906145b2565b600084815260fe6020526040902054849081146121695760405162461bcd60e51b81526004016109cf90614866565b848460016000805b600085815260fe60205260409020600301548110156121e957600085815260fe6020526040902060030180546001600160a01b0386169190839081106121b9576121b96145fa565b60009182526020909120600290910201546001600160a01b0316036121e157600191506121e9565b600101612171565b50811561223c57806122375760405162461bcd60e51b81526020600482015260176024820152764275796572206e6f7420666f756e6420696e206269647360481b60448201526064016109cf565b61225a565b801561225a5760405162461bcd60e51b81526004016109cf90614896565b600089815260fe60205260409020600401546001600160a01b03161580156122915750600089815260fe6020526040902060050154155b6122ad5760405162461bcd60e51b81526004016109cf906148d8565b600089815260fe60205260408120600201805461ff0019166101001790555b60008a815260fe60205260409020600301548110156123af5760008a815260fe6020526040902060030180546001600160a01b038b16919083908110612314576123146145fa565b60009182526020909120600290910201546001600160a01b0316036123a75760008a815260fe60205260409020600301805482908110612356576123566145fa565b600091825260208083208d845260fe9091526040909220600290910290910180546004830180546001600160a01b0319166001600160a01b03909216919091179055600101546005909101556123af565b6001016122cc565b50600089815260fe602052604081206123cd91600390910190613e77565b600089815260fe60209081526040918290206005015482518c815291820152815133927f7d2cfbbef328a1f13d4e8eec09f7ceddde17a22a204103792e8d6ae856e4618f928290030190a2505050505050505050565b60ff818154811061243357600080fd5b6000918252602090912001546001600160a01b0316905081565b6060609880546108b19061452b565b606060008061246a84611867565b905060008167ffffffffffffffff811115612487576124876142d9565b6040519080825280602002602001820160405280156124cd57816020015b6040805180820190915260008152606060208201528152602001906001900390816124a55790505b50905060015b60fb5481116125fc57856001600160a01b03166124ef82611807565b6001600160a01b0316036125e35760fc6000828152602001908152602001600020604051806040016040529081600082015481526020016001820180546125359061452b565b80601f01602080910402602001604051908101604052809291908181526020018280546125619061452b565b80156125ae5780601f10612583576101008083540402835291602001916125ae565b820191906000526020600020905b81548152906001019060200180831161259157829003601f168201915b5050505050815250508285815181106125c9576125c96145fa565b602002602001018190525083806125df9061484d565b9450505b8383146125fc57806125f48161484d565b9150506124d3565b50949350505050565b611d2933838361365d565b60008151116126575760405162461bcd60e51b81526020600482015260136024820152725552492063616e6e6f7420626520656d70747960681b60448201526064016109cf565b60fb80549060006126678361484d565b909155505060408051808201825260fb548082526020808301858152600092835260fc90915292902081518155915190919060018201906126a8908261497e565b509050506126be6126b63390565b60fb5461372b565b6126ca60fb5482613745565b336001600160a01b03166126df60fb54611807565b6001600160a01b0316146127255760405162461bcd60e51b815260206004820152600d60248201526c13dddb995c881b9bdd081cd95d609a1b60448201526064016109cf565b60fb5460405190815233907f2728c9d3205d667bbc0eefdfeda366261b4d021949630c047f3e5834b30611ab9060200160405180910390a250565b61276a3383613159565b6127865760405162461bcd60e51b81526004016109cf90614565565b61279284848484613801565b50505050565b806127a28161331b565b6127be5760405162461bcd60e51b81526004016109cf90614809565b81336127c982611807565b6001600160a01b0316146127ef5760405162461bcd60e51b81526004016109cf906145b2565b6127f88361331b565b6128145760405162461bcd60e51b81526004016109cf90614809565b61281d83613834565b600083815260fc602052604081208181559061283c6001830182613e98565b50506128453390565b6001600160a01b03167f8e2f5fcc57c31738b03aa91accdd55b13dc355a4fa1707d953f49c973e18e6e48460405161287f91815260200190565b60405180910390a2505050565b61010060205281600052604060002081815481106128a957600080fd5b600091825260209091206007909102018054600182015460028301546003840154600485015460058601546006909601549497506001600160a01b0384169650600160a01b90930460ff169491939092919088565b60606129098261309b565b600082815260c96020526040812080546129229061452b565b80601f016020809104026020016040519081016040528092919081815260200182805461294e9061452b565b801561299b5780601f106129705761010080835404028352916020019161299b565b820191906000526020600020905b81548152906001019060200180831161297e57829003601f168201915b5050505050905060006129b960408051602081019091526000815290565b905080516000036129cb575092915050565b8151156129fd5780826040516020016129e5929190614a3e565b60405160208183030381529060405292505050919050565b612a0684613874565b949350505050565b612a16613563565b60405162461bcd60e51b815260206004820152600f60248201526e139bdd081a5b5c1b195b595b9d1959608a1b60448201526064016109cf565b6001600160a01b039182166000908152609c6020908152604080832093909416825291909152205460ff1690565b80612a888161331b565b612aa45760405162461bcd60e51b81526004016109cf90614809565b600082815260fe602052604090205482908114612ad35760405162461bcd60e51b81526004016109cf90614866565b600083815260fe60205260409020600401546001600160a01b0316158015612b0a5750600083815260fe6020526040902060050154155b612b265760405162461bcd60e51b81526004016109cf906148d8565b600083815260fe6020526040902060010154341015612b875760405162461bcd60e51b815260206004820181905260248201527f496e73756666696369656e74207061796d656e7420666f7220627579206f757460448201526064016109cf565b600083815260fe602052604090819020600201805460ff19166001179055805180820190915280612bb53390565b6001600160a01b039081168252600086815260fe60208181526040832060018101549582018690529289905290815284516004830180546001600160a01b031916919094161790925592015160059092019190915533906108fc90612c1a9034614729565b6040518115909202916000818181858888f19350505050158015612c42573d6000803e3d6000fd5b50600083815260fe60209081526040918290206001015482518681529182015233917f9823c61ba42e817a0ba73273d875528a549abe0ba50bc8ce0f7ed5a9fb86c687910161287f565b612c94613563565b6001600160a01b038116612cf95760405162461bcd60e51b815260206004820152602660248201527f4f776e61626c653a206e6577206f776e657220697320746865207a65726f206160448201526564647265737360d01b60648201526084016109cf565b611caa816135bd565b60fc6020526000908152604090208054600182018054919291612d249061452b565b80601f0160208091040260200160405190810160405280929190818152602001828054612d509061452b565b8015612d9d5780601f10612d7257610100808354040283529160200191612d9d565b820191906000526020600020905b815481529060010190602001808311612d8057829003601f168201915b5050505050905082565b6000828152610100602052604090205482908290612dd75760405162461bcd60e51b81526004016109cf90614775565b6001600083815261010060205260409020805483908110612dfa57612dfa6145fa565b906000526020600020906007020160010160149054906101000a900460ff166005811115612e2a57612e2a61442a565b14612e775760405162461bcd60e51b815260206004820152601d60248201527f46696e616e63696e672072657175657374206e6f742070656e64696e6700000060448201526064016109cf565b60008481526101006020526040902054612ea35760405162461bcd60e51b81526004016109cf90614775565b6001600085815261010060205260409020805485908110612ec657612ec66145fa565b906000526020600020906007020160010160149054906101000a900460ff166005811115612ef657612ef661442a565b14612f135760405162461bcd60e51b81526004016109cf906147bb565b600084815261010060205260409020805433919085908110612f3757612f376145fa565b60009182526020909120600160079092020101546001600160a01b031614612f9c5760405162461bcd60e51b815260206004820152601860248201527721b0b63632b91034b9903737ba103a3432903632b73232b960411b60448201526064016109cf565b60008481526101006020526040902080546003919085908110612fc157612fc16145fa565b60009182526020909120600160079092020101805460ff60a01b1916600160a01b836005811115612ff457612ff461442a565b02179055506000848152609960209081526040918290205482518781529182018690526001600160a01b03169133917fef5fb41d427f3beab94b7933990405d1ca172d79f4761fa2dad7b6b6d1481aee9101611189565b60006001600160e01b031982166380ac58cd60e01b148061307c57506001600160e01b03198216635b5e139f60e01b145b8061089c57506301ffc9a760e01b6001600160e01b031983161461089c565b6130a48161331b565b611caa5760405162461bcd60e51b8152602060048201526018602482015277115490cdcc8c4e881a5b9d985b1a59081d1bdad95b88125160421b60448201526064016109cf565b6000818152609b6020526040902080546001600160a01b0319166001600160a01b038416908117909155819061312082611807565b6001600160a01b03167f8c5be1e5ebec7d5bd14f71427d1e84f3dd0314c0f7b2291e5b200ac8c7c3b92560405160405180910390a45050565b60008061316583611807565b9050806001600160a01b0316846001600160a01b0316148061318c575061318c8185612a50565b80612a065750836001600160a01b03166131a584610934565b6001600160a01b031614949350505050565b826001600160a01b03166131ca82611807565b6001600160a01b0316146131f05760405162461bcd60e51b81526004016109cf90614a6d565b6001600160a01b0382166132525760405162461bcd60e51b8152602060048201526024808201527f4552433732313a207472616e7366657220746f20746865207a65726f206164646044820152637265737360e01b60648201526084016109cf565b826001600160a01b031661326582611807565b6001600160a01b03161461328b5760405162461bcd60e51b81526004016109cf90614a6d565b6000818152609b6020908152604080832080546001600160a01b03199081169091556001600160a01b03878116808652609a8552838620805460001901905590871680865283862080546001019055868652609990945282852080549092168417909155905184937fddf252ad1be2c89b69c2b068fc378daa952ba7f163c4a11628f55a4df523b3ef91a4505050565b6000908152609960205260409020546001600160a01b0316151590565b806133428161331b565b61335e5760405162461bcd60e51b81526004016109cf90614809565b600082815260fe602052604090206002015460ff1680156133955750600082815260fe6020526040902060020154610100900460ff165b6133ef5760405162461bcd60e51b815260206004820152602560248201527f5472616e73666572206e6f7420617070726f76656420627920626f7468207061604482015264727469657360d81b60648201526084016109cf565b600082815260fe60205260408120600401546001600160a01b03169061341484611807565b600085815260fe6020526040808220600501549051929350916001600160a01b0384169183156108fc02918491818181858888f1935050505015801561345e573d6000803e3d6000fd5b5061346a8284876131b7565b826001600160a01b031661347d86611807565b6001600160a01b0316146134c55760405162461bcd60e51b815260206004820152600f60248201526e151c985b9cd9995c8819985a5b1959608a1b60448201526064016109cf565b600085815260fe602052604081208181556001810182905560028101805461ffff19169055906134f86003830182613e77565b506004810180546001600160a01b0319169055600060059091015560408051868152602081018390526001600160a01b0385811692908516917f9ed053bb818ff08b8353cd46f78db1f0799f31c9e4458fdb425c10eccd2efc44910160405180910390a35050505050565b6033546001600160a01b031633146118ff5760405162461bcd60e51b815260206004820181905260248201527f4f776e61626c653a2063616c6c6572206973206e6f7420746865206f776e657260448201526064016109cf565b603380546001600160a01b038381166001600160a01b0319831681179093556040519116919082907f8be0079c531659141344cd1fd0a4f28419497f9722a3daafe3b4186f6b6457e090600090a35050565b600054610100900460ff166136365760405162461bcd60e51b81526004016109cf90614ab2565b6118ff6138e8565b61364661360f565b6118ff613918565b613656613918565b600060fd55565b816001600160a01b0316836001600160a01b0316036136be5760405162461bcd60e51b815260206004820152601960248201527f4552433732313a20617070726f766520746f2063616c6c65720000000000000060448201526064016109cf565b6001600160a01b038381166000818152609c6020908152604080832094871680845294825291829020805460ff191686151590811790915591519182527f17307eab39ab6107e8899845ad3d59bd9653f200f220920489ca2b5937696c31910160405180910390a3505050565b611d29828260405180602001604052806000815250613965565b61374e8261331b565b6137b15760405162461bcd60e51b815260206004820152602e60248201527f45524337323155524953746f726167653a2055524920736574206f66206e6f6e60448201526d32bc34b9ba32b73a103a37b5b2b760911b60648201526084016109cf565b600082815260c9602052604090206137c9828261497e565b506040518281527ff8e1a15aba9398e019f0b49df1a4fde98ee17ae345cb5f6b5e2c27f5033e8ce79060200160405180910390a15050565b61380c8484846131b7565b61381884848484613998565b6127925760405162461bcd60e51b81526004016109cf90614afd565b61383d81613a99565b600081815260c96020526040902080546138569061452b565b159050611caa57600081815260c960205260408120611caa91613e98565b606061387f8261309b565b600061389660408051602081019091526000815290565b905060008151116138b657604051806020016040528060008152506138e1565b806138c084613b2e565b6040516020016138d1929190614a3e565b6040516020818303038152906040525b9392505050565b600054610100900460ff1661390f5760405162461bcd60e51b81526004016109cf90614ab2565b6118ff336135bd565b61395e6040518060400160405280600881526020016750726f706572747960c01b81525060405180604001604052806004815260200163050524f560e41b815250613bc1565b600060fb55565b61396f8383613bf2565b61397c6000848484613998565b610a705760405162461bcd60e51b81526004016109cf90614afd565b60006001600160a01b0384163b15613a8e57604051630a85bd0160e11b81526001600160a01b0385169063150b7a02906139dc903390899088908890600401614b4f565b6020604051808303816000875af1925050508015613a17575060408051601f3d908101601f19168201909252613a1491810190614b82565b60015b613a74573d808015613a45576040519150601f19603f3d011682016040523d82523d6000602084013e613a4a565b606091505b508051600003613a6c5760405162461bcd60e51b81526004016109cf90614afd565b805181602001fd5b6001600160e01b031916630a85bd0160e11b149050612a06565b506001949350505050565b6000613aa482611807565b9050613aaf82611807565b6000838152609b6020908152604080832080546001600160a01b03199081169091556001600160a01b038516808552609a845282852080546000190190558785526099909352818420805490911690555192935084927fddf252ad1be2c89b69c2b068fc378daa952ba7f163c4a11628f55a4df523b3ef908390a45050565b60606000613b3b83613d5f565b600101905060008167ffffffffffffffff811115613b5b57613b5b6142d9565b6040519080825280601f01601f191660200182016040528015613b85576020820181803683370190505b5090508181016020015b600019016f181899199a1a9b1b9c1cb0b131b232b360811b600a86061a8153600a8504945084613b8f57509392505050565b600054610100900460ff16613be85760405162461bcd60e51b81526004016109cf90614ab2565b611d298282613e37565b6001600160a01b038216613c485760405162461bcd60e51b815260206004820181905260248201527f4552433732313a206d696e7420746f20746865207a65726f206164647265737360448201526064016109cf565b613c518161331b565b15613c9e5760405162461bcd60e51b815260206004820152601c60248201527f4552433732313a20746f6b656e20616c7265616479206d696e7465640000000060448201526064016109cf565b613ca78161331b565b15613cf45760405162461bcd60e51b815260206004820152601c60248201527f4552433732313a20746f6b656e20616c7265616479206d696e7465640000000060448201526064016109cf565b6001600160a01b0382166000818152609a6020908152604080832080546001019055848352609990915280822080546001600160a01b0319168417905551839291907fddf252ad1be2c89b69c2b068fc378daa952ba7f163c4a11628f55a4df523b3ef908290a45050565b60008072184f03e93ff9f4daa797ed6e38ed64bf6a1f0160401b8310613d9e5772184f03e93ff9f4daa797ed6e38ed64bf6a1f0160401b830492506040015b6d04ee2d6d415b85acef81000000008310613dca576d04ee2d6d415b85acef8100000000830492506020015b662386f26fc100008310613de857662386f26fc10000830492506010015b6305f5e1008310613e00576305f5e100830492506008015b6127108310613e1457612710830492506004015b60648310613e26576064830492506002015b600a831061089c5760010192915050565b600054610100900460ff16613e5e5760405162461bcd60e51b81526004016109cf90614ab2565b6097613e6a838261497e565b506098610a70828261497e565b5080546000825560020290600052602060002090810190611caa9190613ed2565b508054613ea49061452b565b6000825580601f10613eb4575050565b601f016020900490600052602060002090810190611caa9190613efc565b5b80821115613ef85780546001600160a01b031916815560006001820155600201613ed3565b5090565b5b80821115613ef85760008155600101613efd565b6001600160e01b031981168114611caa57600080fd5b600060208284031215613f3957600080fd5b81356138e181613f11565b60005b83811015613f5f578181015183820152602001613f47565b50506000910152565b60008151808452613f80816020860160208601613f44565b601f01601f19169290920160200192915050565b6020815260006138e16020830184613f68565b600060208284031215613fb957600080fd5b5035919050565b80356001600160a01b0381168114613fd757600080fd5b919050565b60008060408385031215613fef57600080fd5b613ff883613fc0565b946020939093013593505050565b600060e0830182518452602080840151602086015260408085015115156040870152606085015115156060870152608085015160e0608088015283815180865261010089019150602083019550600092505b808310156140925761407e82875180516001600160a01b03168252602090810151910152565b948401946001929092019190830190614058565b5060a087015194506140ba60a089018680516001600160a01b03168252602090810151910152565b979650505050505050565b6020815260006138e16020830184614006565b6000806000606084860312156140ed57600080fd5b6140f684613fc0565b925061410460208501613fc0565b9150604084013590509250925092565b600080600080600060a0868803121561412c57600080fd5b8535945061413c60208701613fc0565b94979496505050506040830135926060810135926080909101359150565b6000806040838503121561416d57600080fd5b50508035926020909101359150565b60006020828403121561418e57600080fd5b6138e182613fc0565b600080604083850312156141aa57600080fd5b823591506141ba60208401613fc0565b90509250929050565b600060208083016020845280855180835260408601915060408160051b87010192506020870160005b8281101561421a57603f19888603018452614208858351614006565b945092850192908501906001016141ec565b5092979650505050505050565b600060208083018184528085518083526040925060408601915060408160051b87010184880160005b8381101561428f57888303603f1901855281518051845287015187840187905261427c87850182613f68565b9588019593505090860190600101614250565b509098975050505050505050565b600080604083850312156142b057600080fd5b6142b983613fc0565b9150602083013580151581146142ce57600080fd5b809150509250929050565b634e487b7160e01b600052604160045260246000fd5b600067ffffffffffffffff8084111561430a5761430a6142d9565b604051601f8501601f19908116603f01168101908282118183101715614332576143326142d9565b8160405280935085815286868601111561434b57600080fd5b858560208301376000602087830101525050509392505050565b60006020828403121561437757600080fd5b813567ffffffffffffffff81111561438e57600080fd5b8201601f8101841361439f57600080fd5b612a06848235602084016142ef565b600080600080608085870312156143c457600080fd5b6143cd85613fc0565b93506143db60208601613fc0565b925060408501359150606085013567ffffffffffffffff8111156143fe57600080fd5b8501601f8101871361440f57600080fd5b61441e878235602084016142ef565b91505092959194509250565b634e487b7160e01b600052602160045260246000fd5b8881526001600160a01b038816602082015261010081016006881061447557634e487b7160e01b600052602160045260246000fd5b8760408301528660608301528560808301528460a08301528360c08301528260e08301529998505050505050505050565b85815260208082018690528415156040830152831515606083015282516001600160a01b0316608083015282015160a082015260c081015b9695505050505050565b600080604083850312156144fb57600080fd5b61450483613fc0565b91506141ba60208401613fc0565b828152604060208201526000612a066040830184613f68565b600181811c9082168061453f57607f821691505b60208210810361455f57634e487b7160e01b600052602260045260246000fd5b50919050565b6020808252602d908201527f4552433732313a2063616c6c6572206973206e6f7420746f6b656e206f776e6560408201526c1c881bdc88185c1c1c9bdd9959609a1b606082015260800190565b60208082526028908201527f43616c6c6572206973206e6f7420746865206f776e6572206f6620746869732060408201526770726f706572747960c01b606082015260800190565b634e487b7160e01b600052603260045260246000fd5b634e487b7160e01b600052601160045260246000fd5b8082018082111561089c5761089c614610565b600181815b8085111561467457816000190482111561465a5761465a614610565b8085161561466757918102915b93841c939080029061463e565b509250929050565b60008261468b5750600161089c565b816146985750600061089c565b81600181146146ae57600281146146b8576146d4565b600191505061089c565b60ff8411156146c9576146c9614610565b50506001821b61089c565b5060208310610133831016604e8410600b84101617156146f7575081810a61089c565b6147018383614639565b806000190482111561471557614715614610565b029392505050565b60006138e1838361467c565b8181038181111561089c5761089c614610565b808202811582820484141761089c5761089c614610565b60008261477057634e487b7160e01b600052601260045260246000fd5b500490565b60208082526026908201527f4e6f2066696e616e63696e67207265717565737420666f7220746869732070726040820152656f706572747960d01b606082015260800190565b6020808252602e908201527f46696e616e63696e67207265717565737420616c726561647920617070726f7660408201526d1959081bdc881c995a9958dd195960921b606082015260800190565b60208082526024908201527f50726f70657274792077697468207468697320494420646f6573206e6f7420656040820152631e1a5cdd60e21b606082015260800190565b60006001820161485f5761485f614610565b5060010190565b602080825260169082015275141c9bdc195c9d1e481a5cc81b9bdd081b1a5cdd195960521b604082015260600190565b60208082526022908201527f427579657220616c726561647920626964206f6e20746869732070726f706572604082015261747960f01b606082015260800190565b6020808252600f908201526e109a5908185b1c9958591e481cd95d608a1b604082015260600190565b634e487b7160e01b600052603160045260246000fd5b60008161492657614926614610565b506000190190565b601f821115610a70576000816000526020600020601f850160051c810160208610156149575750805b601f850160051c820191505b8181101561497657828155600101614963565b505050505050565b815167ffffffffffffffff811115614998576149986142d9565b6149ac816149a6845461452b565b8461492e565b602080601f8311600181146149e157600084156149c95750858301515b600019600386901b1c1916600185901b178555614976565b600085815260208120601f198616915b82811015614a10578886015182559484019460019091019084016149f1565b5085821015614a2e5787850151600019600388901b60f8161c191681555b5050505050600190811b01905550565b60008351614a50818460208801613f44565b835190830190614a64818360208801613f44565b01949350505050565b60208082526025908201527f4552433732313a207472616e736665722066726f6d20696e636f72726563742060408201526437bbb732b960d91b606082015260800190565b6020808252602b908201527f496e697469616c697a61626c653a20636f6e7472616374206973206e6f74206960408201526a6e697469616c697a696e6760a81b606082015260800190565b60208082526032908201527f4552433732313a207472616e7366657220746f206e6f6e20455243373231526560408201527131b2b4bb32b91034b6b83632b6b2b73a32b960711b606082015260800190565b6001600160a01b03858116825284166020820152604081018390526080606082018190526000906144de90830184613f68565b600060208284031215614b9457600080fd5b81516138e181613f1156fea2646970667358221220dcce3e025247770aa9eabe9a800f4bdc002efe8be22e0a6b18d74da8132e4f6664736f6c63430008170033",
  "linkReferences": {},
  "deployedLinkReferences": {}
}