{
  "_format": "hh-sol-artifact-1",
  "contractName": "EthState",
  "sourceName": "contracts/EthState.sol",
  "abi": [
    {
      "anonymous": false,
      "inputs": [
        {
          "indexed": true,
          "internalType": "address",
          "name": "_seller",
          "type": "address"
        },
        {
          "indexed": false,
          "internalType": "uint256",
          "name": "_propertyId",
          "type": "uint256"
        },
        {
          "indexed": false,
          "internalType": "uint256",
          "name": "_bidPrice",
          "type": "uint256"
        }
      ],
      "name": "Accept",
      "type": "event"
    },
    {
      "anonymous": false,
      "inputs": [
        {
          "indexed": true,
          "internalType": "address",
          "name": "_owner",
          "type": "address"
        },
        {
          "indexed": false,
          "internalType": "uint256",
          "name": "_propertyId",
          "type": "uint256"
        }
      ],
      "name": "Add",
      "type": "event"
    },
    {
      "anonymous": false,
      "inputs": [
        {
          "indexed": true,
          "internalType": "address",
          "name": "owner",
          "type": "address"
        },
        {
          "indexed": true,
          "internalType": "address",
          "name": "approved",
          "type": "address"
        },
        {
          "indexed": true,
          "internalType": "uint256",
          "name": "tokenId",
          "type": "uint256"
        }
      ],
      "name": "Approval",
      "type": "event"
    },
    {
      "anonymous": false,
      "inputs": [
        {
          "indexed": true,
          "internalType": "address",
          "name": "owner",
          "type": "address"
        },
        {
          "indexed": true,
          "internalType": "address",
          "name": "operator",
          "type": "address"
        },
        {
          "indexed": false,
          "internalType": "bool",
          "name": "approved",
          "type": "bool"
        }
      ],
      "name": "ApprovalForAll",
      "type": "event"
    },
    {
      "anonymous": false,
      "inputs": [
        {
          "indexed": false,
          "internalType": "uint256",
          "name": "_fromTokenId",
          "type": "uint256"
        },
        {
          "indexed": false,
          "internalType": "uint256",
          "name": "_toTokenId",
          "type": "uint256"
        }
      ],
      "name": "BatchMetadataUpdate",
      "type": "event"
    },
    {
      "anonymous": false,
      "inputs": [
        {
          "indexed": true,
          "internalType": "address",
          "name": "_buyer",
          "type": "address"
        },
        {
          "indexed": false,
          "internalType": "uint256",
          "name": "_propertyId",
          "type": "uint256"
        },
        {
          "indexed": false,
          "internalType": "uint256",
          "name": "_buyOutPrice",
          "type": "uint256"
        }
      ],
      "name": "BuyOut",
      "type": "event"
    },
    {
      "anonymous": false,
      "inputs": [
        {
          "indexed": true,
          "internalType": "address",
          "name": "_lender",
          "type": "address"
        },
        {
          "indexed": true,
          "internalType": "address",
          "name": "_loaner",
          "type": "address"
        },
        {
          "indexed": false,
          "internalType": "uint256",
          "name": "_propertyId",
          "type": "uint256"
        },
        {
          "indexed": false,
          "internalType": "uint256",
          "name": "_financingId",
          "type": "uint256"
        }
      ],
      "name": "Default",
      "type": "event"
    },
    {
      "anonymous": false,
      "inputs": [
        {
          "indexed": true,
          "internalType": "address",
          "name": "_lender",
          "type": "address"
        },
        {
          "indexed": true,
          "internalType": "address",
          "name": "_loaner",
          "type": "address"
        },
        {
          "indexed": false,
          "internalType": "uint256",
          "name": "_propertyId",
          "type": "uint256"
        },
        {
          "indexed": false,
          "internalType": "uint256",
          "name": "financingId",
          "type": "uint256"
        }
      ],
      "name": "FinanceApproval",
      "type": "event"
    },
    {
      "anonymous": false,
      "inputs": [
        {
          "indexed": true,
          "internalType": "address",
          "name": "_lender",
          "type": "address"
        },
        {
          "indexed": true,
          "internalType": "address",
          "name": "_loaner",
          "type": "address"
        },
        {
          "indexed": false,
          "internalType": "uint256",
          "name": "_propertyId",
          "type": "uint256"
        },
        {
          "indexed": false,
          "internalType": "uint256",
          "name": "_financingId",
          "type": "uint256"
        }
      ],
      "name": "FinanceRejection",
      "type": "event"
    },
    {
      "anonymous": false,
      "inputs": [
        {
          "indexed": true,
          "internalType": "address",
          "name": "_lender",
          "type": "address"
        },
        {
          "indexed": true,
          "internalType": "address",
          "name": "_loaner",
          "type": "address"
        },
        {
          "indexed": false,
          "internalType": "uint256",
          "name": "_propertyId",
          "type": "uint256"
        },
        {
          "indexed": false,
          "internalType": "uint256",
          "name": "_financingId",
          "type": "uint256"
        }
      ],
      "name": "FinanceRequest",
      "type": "event"
    },
    {
      "anonymous": false,
      "inputs": [
        {
          "indexed": false,
          "internalType": "uint8",
          "name": "version",
          "type": "uint8"
        }
      ],
      "name": "Initialized",
      "type": "event"
    },
    {
      "anonymous": false,
      "inputs": [
        {
          "indexed": true,
          "internalType": "address",
          "name": "_seller",
          "type": "address"
        },
        {
          "indexed": false,
          "internalType": "uint256",
          "name": "_propertyId",
          "type": "uint256"
        },
        {
          "indexed": false,
          "internalType": "uint256",
          "name": "_sellPrice",
          "type": "uint256"
        }
      ],
      "name": "List",
      "type": "event"
    },
    {
      "anonymous": false,
      "inputs": [
        {
          "indexed": false,
          "internalType": "uint256",
          "name": "_tokenId",
          "type": "uint256"
        }
      ],
      "name": "MetadataUpdate",
      "type": "event"
    },
    {
      "anonymous": false,
      "inputs": [
        {
          "indexed": true,
          "internalType": "address",
          "name": "_buyer",
          "type": "address"
        },
        {
          "indexed": false,
          "internalType": "uint256",
          "name": "_propertyId",
          "type": "uint256"
        },
        {
          "indexed": false,
          "internalType": "uint256",
          "name": "_bidPrice",
          "type": "uint256"
        }
      ],
      "name": "Offer",
      "type": "event"
    },
    {
      "anonymous": false,
      "inputs": [
        {
          "indexed": true,
          "internalType": "address",
          "name": "previousOwner",
          "type": "address"
        },
        {
          "indexed": true,
          "internalType": "address",
          "name": "newOwner",
          "type": "address"
        }
      ],
      "name": "OwnershipTransferred",
      "type": "event"
    },
    {
      "anonymous": false,
      "inputs": [
        {
          "indexed": true,
          "internalType": "address",
          "name": "_lender",
          "type": "address"
        },
        {
          "indexed": true,
          "internalType": "address",
          "name": "_loaner",
          "type": "address"
        },
        {
          "indexed": false,
          "internalType": "uint256",
          "name": "_propertyId",
          "type": "uint256"
        },
        {
          "indexed": false,
          "internalType": "uint256",
          "name": "_financingId",
          "type": "uint256"
        }
      ],
      "name": "PaidOff",
      "type": "event"
    },
    {
      "anonymous": false,
      "inputs": [
        {
          "indexed": true,
          "internalType": "address",
          "name": "_lender",
          "type": "address"
        },
        {
          "indexed": true,
          "internalType": "address",
          "name": "_loaner",
          "type": "address"
        },
        {
          "indexed": false,
          "internalType": "uint256",
          "name": "_propertyId",
          "type": "uint256"
        },
        {
          "indexed": false,
          "internalType": "uint256",
          "name": "_financingId",
          "type": "uint256"
        },
        {
          "indexed": false,
          "internalType": "uint256",
          "name": "_paidMonths",
          "type": "uint256"
        },
        {
          "indexed": false,
          "internalType": "uint256",
          "name": "_monthlyPayment",
          "type": "uint256"
        }
      ],
      "name": "Payment",
      "type": "event"
    },
    {
      "anonymous": false,
      "inputs": [
        {
          "indexed": true,
          "internalType": "address",
          "name": "_owner",
          "type": "address"
        },
        {
          "indexed": false,
          "internalType": "uint256",
          "name": "_propertyId",
          "type": "uint256"
        }
      ],
      "name": "Remove",
      "type": "event"
    },
    {
      "anonymous": false,
      "inputs": [
        {
          "indexed": true,
          "internalType": "address",
          "name": "from",
          "type": "address"
        },
        {
          "indexed": true,
          "internalType": "address",
          "name": "to",
          "type": "address"
        },
        {
          "indexed": true,
          "internalType": "uint256",
          "name": "tokenId",
          "type": "uint256"
        }
      ],
      "name": "Transfer",
      "type": "event"
    },
    {
      "anonymous": false,
      "inputs": [
        {
          "indexed": true,
          "internalType": "address",
          "name": "_seller",
          "type": "address"
        },
        {
          "indexed": true,
          "internalType": "address",
          "name": "_buyer",
          "type": "address"
        },
        {
          "indexed": false,
          "internalType": "uint256",
          "name": "_propertyId",
          "type": "uint256"
        },
        {
          "indexed": false,
          "internalType": "uint256",
          "name": "_sellPrice",
          "type": "uint256"
        }
      ],
      "name": "Transfer",
      "type": "event"
    },
    {
      "anonymous": false,
      "inputs": [
        {
          "indexed": true,
          "internalType": "address",
          "name": "_seller",
          "type": "address"
        },
        {
          "indexed": false,
          "internalType": "uint256",
          "name": "_propertyId",
          "type": "uint256"
        }
      ],
      "name": "Unlist",
      "type": "event"
    },
    {
      "inputs": [
        {
          "internalType": "uint256",
          "name": "_propertyId",
          "type": "uint256"
        },
        {
          "internalType": "address",
          "name": "_buyer",
          "type": "address"
        }
      ],
      "name": "acceptOffer",
      "outputs": [],
      "stateMutability": "nonpayable",
      "type": "function"
    },
    {
      "inputs": [
        {
          "internalType": "address",
          "name": "_lender",
          "type": "address"
        }
      ],
      "name": "addLender",
      "outputs": [],
      "stateMutability": "nonpayable",
      "type": "function"
    },
    {
      "inputs": [
        {
          "internalType": "string",
          "name": "_uri",
          "type": "string"
        },
        {
          "internalType": "uint256",
          "name": "_price",
          "type": "uint256"
        }
      ],
      "name": "addProperty",
      "outputs": [],
      "stateMutability": "nonpayable",
      "type": "function"
    },
    {
      "inputs": [
        {
          "internalType": "address",
          "name": "to",
          "type": "address"
        },
        {
          "internalType": "uint256",
          "name": "tokenId",
          "type": "uint256"
        }
      ],
      "name": "approve",
      "outputs": [],
      "stateMutability": "nonpayable",
      "type": "function"
    },
    {
      "inputs": [
        {
          "internalType": "uint256",
          "name": "_propertyId",
          "type": "uint256"
        },
        {
          "internalType": "uint256",
          "name": "_financingId",
          "type": "uint256"
        }
      ],
      "name": "approveFinancing",
      "outputs": [],
      "stateMutability": "nonpayable",
      "type": "function"
    },
    {
      "inputs": [
        {
          "internalType": "uint256",
          "name": "_propertyId",
          "type": "uint256"
        }
      ],
      "name": "approveTransferAsBuyer",
      "outputs": [],
      "stateMutability": "payable",
      "type": "function"
    },
    {
      "inputs": [
        {
          "internalType": "uint256",
          "name": "_propertyId",
          "type": "uint256"
        }
      ],
      "name": "approveTransferAsSeller",
      "outputs": [],
      "stateMutability": "nonpayable",
      "type": "function"
    },
    {
      "inputs": [
        {
          "internalType": "address",
          "name": "owner",
          "type": "address"
        }
      ],
      "name": "balanceOf",
      "outputs": [
        {
          "internalType": "uint256",
          "name": "",
          "type": "uint256"
        }
      ],
      "stateMutability": "view",
      "type": "function"
    },
    {
      "inputs": [
        {
          "internalType": "uint256",
          "name": "_propertyId",
          "type": "uint256"
        },
        {
          "internalType": "uint256",
          "name": "_bidPrice",
          "type": "uint256"
        }
      ],
      "name": "bid",
      "outputs": [],
      "stateMutability": "nonpayable",
      "type": "function"
    },
    {
      "inputs": [
        {
          "internalType": "uint256",
          "name": "_propertyId",
          "type": "uint256"
        }
      ],
      "name": "buyOut",
      "outputs": [],
      "stateMutability": "payable",
      "type": "function"
    },
    {
      "inputs": [
        {
          "internalType": "uint256",
          "name": "_propertyId",
          "type": "uint256"
        },
        {
          "internalType": "uint256",
          "name": "_newPrice",
          "type": "uint256"
        }
      ],
      "name": "changePrice",
      "outputs": [],
      "stateMutability": "nonpayable",
      "type": "function"
    },
    {
      "inputs": [],
      "name": "defaultOnFinancing",
      "outputs": [],
      "stateMutability": "nonpayable",
      "type": "function"
    },
    {
      "inputs": [
        {
          "internalType": "uint256",
          "name": "_propertyId",
          "type": "uint256"
        }
      ],
      "name": "endBiddingProcess",
      "outputs": [],
      "stateMutability": "nonpayable",
      "type": "function"
    },
    {
      "inputs": [
        {
          "internalType": "uint256",
          "name": "_propertyId",
          "type": "uint256"
        },
        {
          "internalType": "address",
          "name": "_lender",
          "type": "address"
        },
        {
          "internalType": "uint256",
          "name": "_loanAmount",
          "type": "uint256"
        },
        {
          "internalType": "uint256",
          "name": "_monthlyInterestRate",
          "type": "uint256"
        },
        {
          "internalType": "uint256",
          "name": "_durationInMonths",
          "type": "uint256"
        }
      ],
      "name": "financingRequest",
      "outputs": [],
      "stateMutability": "nonpayable",
      "type": "function"
    },
    {
      "inputs": [
        {
          "internalType": "uint256",
          "name": "",
          "type": "uint256"
        },
        {
          "internalType": "uint256",
          "name": "",
          "type": "uint256"
        }
      ],
      "name": "financings",
      "outputs": [
        {
          "internalType": "uint256",
          "name": "propertyId",
          "type": "uint256"
        },
        {
          "internalType": "address",
          "name": "lender",
          "type": "address"
        },
        {
          "internalType": "enum FinancingContract.FinancingStatus",
          "name": "status",
          "type": "uint8"
        },
        {
          "internalType": "uint256",
          "name": "loanAmount",
          "type": "uint256"
        },
        {
          "internalType": "uint256",
          "name": "monthlyInterestRate",
          "type": "uint256"
        },
        {
          "internalType": "uint256",
          "name": "durationInMonths",
          "type": "uint256"
        },
        {
          "internalType": "uint256",
          "name": "monthlyPayment",
          "type": "uint256"
        },
        {
          "internalType": "uint256",
          "name": "paidMonths",
          "type": "uint256"
        }
      ],
      "stateMutability": "view",
      "type": "function"
    },
    {
      "inputs": [],
      "name": "getActiveListings",
      "outputs": [
        {
          "components": [
            {
              "internalType": "uint256",
              "name": "propertyId",
              "type": "uint256"
            },
            {
              "internalType": "uint256",
              "name": "sellPrice",
              "type": "uint256"
            },
            {
              "internalType": "bool",
              "name": "buyerApproved",
              "type": "bool"
            },
            {
              "internalType": "bool",
              "name": "sellerApproved",
              "type": "bool"
            },
            {
              "components": [
                {
                  "internalType": "address",
                  "name": "buyer",
                  "type": "address"
                },
                {
                  "internalType": "uint256",
                  "name": "bidPrice",
                  "type": "uint256"
                }
              ],
              "internalType": "struct MarketplaceContract.Bid[]",
              "name": "bids",
              "type": "tuple[]"
            },
            {
              "components": [
                {
                  "internalType": "address",
                  "name": "buyer",
                  "type": "address"
                },
                {
                  "internalType": "uint256",
                  "name": "bidPrice",
                  "type": "uint256"
                }
              ],
              "internalType": "struct MarketplaceContract.Bid",
              "name": "acceptedBid",
              "type": "tuple"
            }
          ],
          "internalType": "struct MarketplaceContract.Listing[]",
          "name": "",
          "type": "tuple[]"
        }
      ],
      "stateMutability": "view",
      "type": "function"
    },
    {
      "inputs": [
        {
          "internalType": "uint256",
          "name": "tokenId",
          "type": "uint256"
        }
      ],
      "name": "getApproved",
      "outputs": [
        {
          "internalType": "address",
          "name": "",
          "type": "address"
        }
      ],
      "stateMutability": "view",
      "type": "function"
    },
    {
      "inputs": [
        {
          "internalType": "uint256",
          "name": "_propertyId",
          "type": "uint256"
        }
      ],
      "name": "getListing",
      "outputs": [
        {
          "components": [
            {
              "internalType": "uint256",
              "name": "propertyId",
              "type": "uint256"
            },
            {
              "internalType": "uint256",
              "name": "sellPrice",
              "type": "uint256"
            },
            {
              "internalType": "bool",
              "name": "buyerApproved",
              "type": "bool"
            },
            {
              "internalType": "bool",
              "name": "sellerApproved",
              "type": "bool"
            },
            {
              "components": [
                {
                  "internalType": "address",
                  "name": "buyer",
                  "type": "address"
                },
                {
                  "internalType": "uint256",
                  "name": "bidPrice",
                  "type": "uint256"
                }
              ],
              "internalType": "struct MarketplaceContract.Bid[]",
              "name": "bids",
              "type": "tuple[]"
            },
            {
              "components": [
                {
                  "internalType": "address",
                  "name": "buyer",
                  "type": "address"
                },
                {
                  "internalType": "uint256",
                  "name": "bidPrice",
                  "type": "uint256"
                }
              ],
              "internalType": "struct MarketplaceContract.Bid",
              "name": "acceptedBid",
              "type": "tuple"
            }
          ],
          "internalType": "struct MarketplaceContract.Listing",
          "name": "",
          "type": "tuple"
        }
      ],
      "stateMutability": "view",
      "type": "function"
    },
    {
      "inputs": [
        {
          "internalType": "address",
          "name": "_owner",
          "type": "address"
        }
      ],
      "name": "getPropertiesByOwner",
      "outputs": [
        {
          "components": [
            {
              "internalType": "uint256",
              "name": "propertyId",
              "type": "uint256"
            },
            {
              "internalType": "string",
              "name": "uri",
              "type": "string"
            },
            {
              "internalType": "uint256",
              "name": "price",
              "type": "uint256"
            }
          ],
          "internalType": "struct PropertyContract.Property[]",
          "name": "",
          "type": "tuple[]"
        }
      ],
      "stateMutability": "view",
      "type": "function"
    },
    {
      "inputs": [],
      "name": "initialize",
      "outputs": [],
      "stateMutability": "nonpayable",
      "type": "function"
    },
    {
      "inputs": [
        {
          "internalType": "address",
          "name": "owner",
          "type": "address"
        },
        {
          "internalType": "address",
          "name": "operator",
          "type": "address"
        }
      ],
      "name": "isApprovedForAll",
      "outputs": [
        {
          "internalType": "bool",
          "name": "",
          "type": "bool"
        }
      ],
      "stateMutability": "view",
      "type": "function"
    },
    {
      "inputs": [
        {
          "internalType": "uint256",
          "name": "",
          "type": "uint256"
        }
      ],
      "name": "lenders",
      "outputs": [
        {
          "internalType": "address",
          "name": "",
          "type": "address"
        }
      ],
      "stateMutability": "view",
      "type": "function"
    },
    {
      "inputs": [
        {
          "internalType": "uint256",
          "name": "_propertyId",
          "type": "uint256"
        },
        {
          "internalType": "uint256",
          "name": "_sellPrice",
          "type": "uint256"
        }
      ],
      "name": "listProperty",
      "outputs": [],
      "stateMutability": "nonpayable",
      "type": "function"
    },
    {
      "inputs": [],
      "name": "listingCount",
      "outputs": [
        {
          "internalType": "uint256",
          "name": "",
          "type": "uint256"
        }
      ],
      "stateMutability": "view",
      "type": "function"
    },
    {
      "inputs": [
        {
          "internalType": "uint256",
          "name": "",
          "type": "uint256"
        }
      ],
      "name": "listings",
      "outputs": [
        {
          "internalType": "uint256",
          "name": "propertyId",
          "type": "uint256"
        },
        {
          "internalType": "uint256",
          "name": "sellPrice",
          "type": "uint256"
        },
        {
          "internalType": "bool",
          "name": "buyerApproved",
          "type": "bool"
        },
        {
          "internalType": "bool",
          "name": "sellerApproved",
          "type": "bool"
        },
        {
          "components": [
            {
              "internalType": "address",
              "name": "buyer",
              "type": "address"
            },
            {
              "internalType": "uint256",
              "name": "bidPrice",
              "type": "uint256"
            }
          ],
          "internalType": "struct MarketplaceContract.Bid",
          "name": "acceptedBid",
          "type": "tuple"
        }
      ],
      "stateMutability": "view",
      "type": "function"
    },
    {
      "inputs": [],
      "name": "makePayment",
      "outputs": [],
      "stateMutability": "payable",
      "type": "function"
    },
    {
      "inputs": [],
      "name": "name",
      "outputs": [
        {
          "internalType": "string",
          "name": "",
          "type": "string"
        }
      ],
      "stateMutability": "view",
      "type": "function"
    },
    {
      "inputs": [],
      "name": "owner",
      "outputs": [
        {
          "internalType": "address",
          "name": "",
          "type": "address"
        }
      ],
      "stateMutability": "view",
      "type": "function"
    },
    {
      "inputs": [
        {
          "internalType": "uint256",
          "name": "tokenId",
          "type": "uint256"
        }
      ],
      "name": "ownerOf",
      "outputs": [
        {
          "internalType": "address",
          "name": "",
          "type": "address"
        }
      ],
      "stateMutability": "view",
      "type": "function"
    },
    {
      "inputs": [
        {
          "internalType": "uint256",
          "name": "",
          "type": "uint256"
        }
      ],
      "name": "properties",
      "outputs": [
        {
          "internalType": "uint256",
          "name": "propertyId",
          "type": "uint256"
        },
        {
          "internalType": "string",
          "name": "uri",
          "type": "string"
        },
        {
          "internalType": "uint256",
          "name": "price",
          "type": "uint256"
        }
      ],
      "stateMutability": "view",
      "type": "function"
    },
    {
      "inputs": [],
      "name": "propertyCount",
      "outputs": [
        {
          "internalType": "uint256",
          "name": "",
          "type": "uint256"
        }
      ],
      "stateMutability": "view",
      "type": "function"
    },
    {
      "inputs": [
        {
          "internalType": "uint256",
          "name": "_propertyId",
          "type": "uint256"
        },
        {
          "internalType": "uint256",
          "name": "_financingId",
          "type": "uint256"
        }
      ],
      "name": "rejectFinancing",
      "outputs": [],
      "stateMutability": "nonpayable",
      "type": "function"
    },
    {
      "inputs": [
        {
          "internalType": "uint256",
          "name": "_propertyId",
          "type": "uint256"
        },
        {
          "internalType": "address",
          "name": "_buyer",
          "type": "address"
        }
      ],
      "name": "removeBid",
      "outputs": [],
      "stateMutability": "nonpayable",
      "type": "function"
    },
    {
      "inputs": [
        {
          "internalType": "address",
          "name": "_lender",
          "type": "address"
        }
      ],
      "name": "removeLender",
      "outputs": [],
      "stateMutability": "nonpayable",
      "type": "function"
    },
    {
      "inputs": [
        {
          "internalType": "uint256",
          "name": "_propertyId",
          "type": "uint256"
        }
      ],
      "name": "removeProperty",
      "outputs": [],
      "stateMutability": "nonpayable",
      "type": "function"
    },
    {
      "inputs": [],
      "name": "renounceOwnership",
      "outputs": [],
      "stateMutability": "nonpayable",
      "type": "function"
    },
    {
      "inputs": [
        {
          "internalType": "address",
          "name": "from",
          "type": "address"
        },
        {
          "internalType": "address",
          "name": "to",
          "type": "address"
        },
        {
          "internalType": "uint256",
          "name": "tokenId",
          "type": "uint256"
        }
      ],
      "name": "safeTransferFrom",
      "outputs": [],
      "stateMutability": "nonpayable",
      "type": "function"
    },
    {
      "inputs": [
        {
          "internalType": "address",
          "name": "from",
          "type": "address"
        },
        {
          "internalType": "address",
          "name": "to",
          "type": "address"
        },
        {
          "internalType": "uint256",
          "name": "tokenId",
          "type": "uint256"
        },
        {
          "internalType": "bytes",
          "name": "data",
          "type": "bytes"
        }
      ],
      "name": "safeTransferFrom",
      "outputs": [],
      "stateMutability": "nonpayable",
      "type": "function"
    },
    {
      "inputs": [
        {
          "internalType": "address",
          "name": "operator",
          "type": "address"
        },
        {
          "internalType": "bool",
          "name": "approved",
          "type": "bool"
        }
      ],
      "name": "setApprovalForAll",
      "outputs": [],
      "stateMutability": "nonpayable",
      "type": "function"
    },
    {
      "inputs": [
        {
          "internalType": "bytes4",
          "name": "interfaceId",
          "type": "bytes4"
        }
      ],
      "name": "supportsInterface",
      "outputs": [
        {
          "internalType": "bool",
          "name": "",
          "type": "bool"
        }
      ],
      "stateMutability": "view",
      "type": "function"
    },
    {
      "inputs": [],
      "name": "symbol",
      "outputs": [
        {
          "internalType": "string",
          "name": "",
          "type": "string"
        }
      ],
      "stateMutability": "view",
      "type": "function"
    },
    {
      "inputs": [
        {
          "internalType": "uint256",
          "name": "tokenId",
          "type": "uint256"
        }
      ],
      "name": "tokenURI",
      "outputs": [
        {
          "internalType": "string",
          "name": "",
          "type": "string"
        }
      ],
      "stateMutability": "view",
      "type": "function"
    },
    {
      "inputs": [
        {
          "internalType": "address",
          "name": "from",
          "type": "address"
        },
        {
          "internalType": "address",
          "name": "to",
          "type": "address"
        },
        {
          "internalType": "uint256",
          "name": "tokenId",
          "type": "uint256"
        }
      ],
      "name": "transferFrom",
      "outputs": [],
      "stateMutability": "nonpayable",
      "type": "function"
    },
    {
      "inputs": [
        {
          "internalType": "address",
          "name": "newOwner",
          "type": "address"
        }
      ],
      "name": "transferOwnership",
      "outputs": [],
      "stateMutability": "nonpayable",
      "type": "function"
    },
    {
      "inputs": [
        {
          "internalType": "uint256",
          "name": "_propertyId",
          "type": "uint256"
        }
      ],
      "name": "unlistProperty",
      "outputs": [],
      "stateMutability": "nonpayable",
      "type": "function"
    }
  ],
  "bytecode": "0x608060405234801561001057600080fd5b50614f66806100206000396000f3fe6080604052600436106102725760003560e01c80638da5cb5b1161014f578063be999558116100c1578063e985e9c51161007a578063e985e9c51461080c578063ec7a81d01461082c578063f2fde38b1461083f578063f54e1aef1461085f578063f7b108081461087f578063fd3df171146108ae57600080fd5b8063be99955814610705578063c361a33514610739578063c87b56dd1461074f578063c8efddf61461076f578063d8d7970014610784578063de74e57b1461078c57600080fd5b80639fcb2748116101135780639fcb274814610642578063a22cb4651461066f578063a9b07c261461068f578063b3de019c146106a5578063b88d4fde146106c5578063bc43d06f146106e557600080fd5b80638da5cb5b14610562578063918d407d14610580578063929eea21146105a057806393084b34146105c057806395d89b411461062d57600080fd5b8063598647f8116101e8578063776a0835116101ac578063776a0835146104ab5780637e6b3bbf146104cb5780638129fc1c146104eb57806384019eed14610500578063841ad8b91461052057806387c35bc01461054057600080fd5b8063598647f8146104085780636352211e1461042857806370a0823114610448578063715018a6146104765780637633a0711461048b57600080fd5b806323b872dd1161023a57806323b872dd14610355578063292588361461037557806341c38d851461039557806342842e0e146103b55780634eda529b146103d55780635138f19f146103f557600080fd5b806301ffc9a71461027757806306fdde03146102ac578063081812fc146102ce578063095ea7b314610306578063107a274a14610328575b600080fd5b34801561028357600080fd5b50610297610292366004614254565b6108ce565b60405190151581526020015b60405180910390f35b3480156102b857600080fd5b506102c16108f9565b6040516102a391906142c1565b3480156102da57600080fd5b506102ee6102e93660046142d4565b61098b565b6040516001600160a01b0390911681526020016102a3565b34801561031257600080fd5b50610326610321366004614309565b6109b2565b005b34801561033457600080fd5b506103486103433660046142d4565b610acc565b6040516102a391906143f2565b34801561036157600080fd5b50610326610370366004614405565b610bfa565b34801561038157600080fd5b50610326610390366004614441565b610c2b565b3480156103a157600080fd5b506103266103b0366004614487565b610f40565b3480156103c157600080fd5b506103266103d0366004614405565b6111ee565b3480156103e157600080fd5b506103266103f0366004614487565b611209565b6103266104033660046142d4565b6113ac565b34801561041457600080fd5b50610326610423366004614487565b6115cb565b34801561043457600080fd5b506102ee6104433660046142d4565b611832565b34801561045457600080fd5b506104686104633660046144a9565b611892565b6040519081526020016102a3565b34801561048257600080fd5b50610326611918565b34801561049757600080fd5b506103266104a63660046142d4565b61192c565b3480156104b757600080fd5b506103266104c63660046144c4565b6119b6565b3480156104d757600080fd5b506103266104e63660046142d4565b611c3c565b3480156104f757600080fd5b50610326611d68565b34801561050c57600080fd5b5061032661051b3660046144a9565b611e89565b34801561052c57600080fd5b5061032661053b3660046142d4565b611f09565b34801561054c57600080fd5b506105556120cf565b6040516102a391906144f0565b34801561056e57600080fd5b506033546001600160a01b03166102ee565b34801561058c57600080fd5b5061032661059b3660046144c4565b6122bf565b3480156105ac57600080fd5b506102ee6105bb3660046142d4565b6125d5565b3480156105cc57600080fd5b506103266105db3660046144a9565b60ff80546001810182556000919091527fe08ec2af2cfc251225e1968fd6ca21e4044f129bffa95bac3503be8bdb30a3670180546001600160a01b0319166001600160a01b0392909216919091179055565b34801561063957600080fd5b506102c16125ff565b34801561064e57600080fd5b5061066261065d3660046144a9565b61260e565b6040516102a39190614554565b34801561067b57600080fd5b5061032661068a3660046145d7565b6127d0565b34801561069b57600080fd5b5061046860fd5481565b3480156106b157600080fd5b506103266106c0366004614487565b6127db565b3480156106d157600080fd5b506103266106e036600461469f565b6128f2565b3480156106f157600080fd5b506103266107003660046142d4565b612924565b34801561071157600080fd5b50610725610720366004614487565b612a35565b6040516102a3989796959493929190614731565b34801561074557600080fd5b5061046860fb5481565b34801561075b57600080fd5b506102c161076a3660046142d4565b612aa7565b34801561077b57600080fd5b50610326612bb7565b610326612bbf565b34801561079857600080fd5b506107fb6107a73660046142d4565b60fe60209081526000918252604091829020805460018201546002830154855180870190965260048401546001600160a01b03168652600590930154938501939093529260ff808316926101009004169085565b6040516102a3959493929190614797565b34801561081857600080fd5b506102976108273660046147d9565b612bf9565b61032661083a3660046142d4565b612c27565b34801561084b57600080fd5b5061032661085a3660046144a9565b612e35565b34801561086b57600080fd5b5061032661087a366004614803565b612eab565b34801561088b57600080fd5b5061089f61089a3660046142d4565b613007565b6040516102a39392919061485c565b3480156108ba57600080fd5b506103266108c9366004614487565b6130b2565b60006001600160e01b03198216632483248360e11b14806108f357506108f382613356565b92915050565b60606097805461090890614885565b80601f016020809104026020016040519081016040528092919081815260200182805461093490614885565b80156109815780601f1061095657610100808354040283529160200191610981565b820191906000526020600020905b81548152906001019060200180831161096457829003601f168201915b5050505050905090565b6000610996826133a6565b506000908152609b60205260409020546001600160a01b031690565b60006109bd82611832565b9050806001600160a01b0316836001600160a01b031603610a2f5760405162461bcd60e51b815260206004820152602160248201527f4552433732313a20617070726f76616c20746f2063757272656e74206f776e656044820152603960f91b60648201526084015b60405180910390fd5b336001600160a01b0382161480610a4b5750610a4b8133612bf9565b610abd5760405162461bcd60e51b815260206004820152603d60248201527f4552433732313a20617070726f76652063616c6c6572206973206e6f7420746f60448201527f6b656e206f776e6572206f7220617070726f76656420666f7220616c6c0000006064820152608401610a26565b610ac783836133f6565b505050565b610b106040805160c081018252600080825260208083018290528284018290526060808401839052608084015283518085019094528184528301529060a082015290565b600082815260fe60209081526040808320815160c08101835281548152600182015481850152600282015460ff8082161515838601526101009091041615156060820152600382018054845181870281018701909552808552919592946080870194939192919084015b82821015610bc2576000848152602090819020604080518082019091526002850290910180546001600160a01b03168252600190810154828401529083529092019101610b7a565b505050908252506040805180820190915260048301546001600160a01b03168152600590920154602083810191909152015292915050565b610c043382613464565b610c205760405162461bcd60e51b8152600401610a26906148bf565b610ac78383836134c2565b8433610c3682611832565b6001600160a01b031614610c5c5760405162461bcd60e51b8152600401610a269061490c565b856000805b60008381526101006020526040902054811015610ce1576003600084815261010060205260409020805483908110610c9b57610c9b614954565b906000526020600020906007020160010160149054906101000a900460ff166005811115610ccb57610ccb61471b565b03610cd95760019150610ce1565b600101610c61565b508015610d305760405162461bcd60e51b815260206004820152601f60248201527f50726f706572747920616c7265616479206265696e672066696e616e636564006044820152606401610a26565b600088815261010060205260408120543391600187610d4f8a83614980565b610d599190614a77565b610d639190614a83565b87610d6f8a6001614980565b610d799190614a77565b610d83908a614a96565b610d8d9190614aad565b610d97908a614a96565b6040519091506001600160a01b038416908a156108fc02908b906000818181858888f19350505050158015610dd0573d6000803e3d6000fd5b50610ddb8a8c6133f6565b60008b81526101006020818152604092839020835192830184528e83526001600160a01b038e16918301919091529181016001815260208082018d905260408083018d9052606083018c905260808301869052600060a09093018390528454600180820187559584529282902084516007909402019283559083015193820180546001600160a01b031981166001600160a01b03909616958617825591840151939492939290916001600160a81b03191617600160a01b836005811115610ea457610ea461471b565b0217905550606082015181600201556080820151816003015560a0820151816004015560c0820151816005015560e082015181600601555050826001600160a01b03168a6001600160a01b03167f4205b7bf0dc285765b14df5a0705e12690c033399dda27c398dd939e877444698d85604051610f2b929190918252602082015260400190565b60405180910390a35050505050505050505050565b6000828152610100602052604090205482908290610f705760405162461bcd60e51b8152600401610a2690614acf565b6001600083815261010060205260409020805483908110610f9357610f93614954565b906000526020600020906007020160010160149054906101000a900460ff166005811115610fc357610fc361471b565b146110105760405162461bcd60e51b815260206004820152601d60248201527f46696e616e63696e672072657175657374206e6f742070656e64696e670000006044820152606401610a26565b6000848152610100602052604090205461103c5760405162461bcd60e51b8152600401610a2690614acf565b600160008581526101006020526040902080548590811061105f5761105f614954565b906000526020600020906007020160010160149054906101000a900460ff16600581111561108f5761108f61471b565b146110ac5760405162461bcd60e51b8152600401610a2690614b15565b6000848152610100602052604090208054339190859081106110d0576110d0614954565b60009182526020909120600160079092020101546001600160a01b0316146111355760405162461bcd60e51b815260206004820152601860248201527721b0b63632b91034b9903737ba103a3432903632b73232b960411b6044820152606401610a26565b6000848152610100602052604090208054600291908590811061115a5761115a614954565b60009182526020909120600160079092020101805460ff60a01b1916600160a01b83600581111561118d5761118d61471b565b02179055506000848152609960209081526040918290205482518781529182018690526001600160a01b03169133917fc382dc9808425d8488afd57f8db541349438287b10c168ea8c4465f171ea7a1491015b60405180910390a350505050565b610ac7838383604051806020016040528060008152506128f2565b8161121381613626565b61122f5760405162461bcd60e51b8152600401610a2690614b63565b823361123a82611832565b6001600160a01b0316146112605760405162461bcd60e51b8152600401610a269061490c565b61126984613626565b6112855760405162461bcd60e51b8152600401610a2690614b63565b600083116112d55760405162461bcd60e51b815260206004820152601960248201527f53656c6c2070726963652063616e6e6f74206265207a65726f000000000000006044820152606401610a26565b600084815260fe60205260409020548490036113335760405162461bcd60e51b815260206004820152601a60248201527f50726f706572747920697320616c7265616479206c69737465640000000000006044820152606401610a26565b60fd805490600061134383614ba7565b9091555050600084815260fe6020908152604080832087815560fc835292819020600201546001840155805187815291820186905233917f1518ffac149698f404e82117efa8b67d99c365490eefe4e0f91856a93ca8d9c1910160405180910390a25050505050565b806113b681613626565b6113d25760405162461bcd60e51b8152600401610a2690614b63565b600082815260fe6020526040902054829081146114015760405162461bcd60e51b8152600401610a2690614bc0565b600083815260fe602052604081206005015461142590670de0b6b3a7640000614a96565b600085815260fe60205260409020600401549091506001600160a01b031633146114a25760405162461bcd60e51b815260206004820152602860248201527f43616c6c6572206973206e6f7420746865206275796572206f6620746869732060448201526770726f706572747960c01b6064820152608401610a26565b803410156114e95760405162461bcd60e51b8152602060048201526014602482015273125b9cdd59999a58da595b9d081c185e5b595b9d60621b6044820152606401610a26565b600084815260fe602052604090206002015460ff161561155a5760405162461bcd60e51b815260206004820152602660248201527f5472616e7366657220616c726561647920617070726f7665642062792074686560448201526510313abcb2b960d11b6064820152608401610a26565b600084815260fe60205260409020600201805460ff1916600117905561157d3390565b6001600160a01b03166108fc6115938334614a83565b6040518115909202916000818181858888f193505050501580156115bb573d6000803e3d6000fd5b506115c584613643565b50505050565b816115d581613626565b6115f15760405162461bcd60e51b8152600401610a2690614b63565b600083815260fe6020526040902054839081146116205760405162461bcd60e51b8152600401610a2690614bc0565b8333600080805b600085815260fe602052604090206003015481101561169f57600085815260fe6020526040902060030180546001600160a01b03861691908390811061166f5761166f614954565b60009182526020909120600290910201546001600160a01b031603611697576001915061169f565b600101611627565b5081156116c857806116c35760405162461bcd60e51b8152600401610a2690614bf0565b6116e6565b80156116e65760405162461bcd60e51b8152600401610a2690614c27565b6116ef88611832565b6001600160a01b031633036117395760405162461bcd60e51b815260206004820152601060248201526f13dddb995c8818d85b9b9bdd08189a5960821b6044820152606401610a26565b600088815260fe60205260409020600401546001600160a01b03161580156117705750600088815260fe6020526040902060050154155b61178c5760405162461bcd60e51b8152600401610a2690614c69565b600088815260fe6020908152604080832081518083018352338082528185018d81526003909301805460018082018355918852968690209251600290970290920180546001600160a01b0319166001600160a01b03909716969096178655915194019390935580518b81529182018a90527f4a68fde121386ffcfc9555407bfb38625033a0d0d3726b00f56b4ab304b55447910160405180910390a25050505050505050565b6000818152609960205260408120546001600160a01b0316806108f35760405162461bcd60e51b8152602060048201526018602482015277115490cdcc8c4e881a5b9d985b1a59081d1bdad95b88125160421b6044820152606401610a26565b60006001600160a01b0382166118fc5760405162461bcd60e51b815260206004820152602960248201527f4552433732313a2061646472657373207a65726f206973206e6f7420612076616044820152683634b21037bbb732b960b91b6064820152608401610a26565b506001600160a01b03166000908152609a602052604090205490565b611920613890565b61192a60006138ea565b565b8061193681613626565b6119525760405162461bcd60e51b8152600401610a2690614b63565b600082815260fe6020526040902054829081146119815760405162461bcd60e51b8152600401610a2690614bc0565b5050600090815260fe6020526040812060028101805461ffff191690556004810180546001600160a01b031916905560050155565b816119c081613626565b6119dc5760405162461bcd60e51b8152600401610a2690614b63565b600083815260fe602052604090205483908114611a0b5760405162461bcd60e51b8152600401610a2690614bc0565b838360016000805b600085815260fe6020526040902060030154811015611a8b57600085815260fe6020526040902060030180546001600160a01b038616919083908110611a5b57611a5b614954565b60009182526020909120600290910201546001600160a01b031603611a835760019150611a8b565b600101611a13565b508115611ab45780611aaf5760405162461bcd60e51b8152600401610a2690614bf0565b611ad2565b8015611ad25760405162461bcd60e51b8152600401610a2690614c27565b60005b600089815260fe6020526040902060030154811015611c3157600089815260fe6020526040902060030180546001600160a01b038a16919083908110611b1d57611b1d614954565b60009182526020909120600290910201546001600160a01b031603611c2957600089815260fe602052604090206003018054611b5b90600190614a83565b81548110611b6b57611b6b614954565b906000526020600020906002020160fe60008b81526020019081526020016000206003018281548110611ba057611ba0614954565b60009182526020808320845460029093020180546001600160a01b0319166001600160a01b0390931692909217825560019384015493909101929092558a815260fe90915260409020600301805480611bfb57611bfb614c92565b60008281526020812060026000199093019283020180546001600160a01b0319168155600101559055611c31565b600101611ad5565b505050505050505050565b80611c4681613626565b611c625760405162461bcd60e51b8152600401610a2690614b63565b600082815260fe602052604090205482908114611c915760405162461bcd60e51b8152600401610a2690614bc0565b611c9a83611832565b6001600160a01b0316336001600160a01b031614611cca5760405162461bcd60e51b8152600401610a269061490c565b600083815260fe6020526040902060020154610100900460ff1615611d415760405162461bcd60e51b815260206004820152602760248201527f5472616e7366657220616c726561647920617070726f766564206279207468656044820152661039b2b63632b960c91b6064820152608401610a26565b600083815260fe60205260409020600201805461ff001916610100179055610ac783613643565b600054610100900460ff1615808015611d885750600054600160ff909116105b80611da25750303b158015611da2575060005460ff166001145b611e055760405162461bcd60e51b815260206004820152602e60248201527f496e697469616c697a61626c653a20636f6e747261637420697320616c72656160448201526d191e481a5b9a5d1a585b1a5e995960921b6064820152608401610a26565b6000805460ff191660011790558015611e28576000805461ff0019166101001790555b611e3061393c565b611e3861396b565b611e4061397b565b8015611e86576000805461ff0019169055604051600181527f7f26b83ff96e1f2b6a682f133852f6798a09c465da95921460cefb38474024989060200160405180910390a15b50565b60005b60ff54811015611f0557816001600160a01b031660ff8281548110611eb357611eb3614954565b6000918252602090912001546001600160a01b031603611efd5760ff8181548110611ee057611ee0614954565b600091825260209091200180546001600160a01b03191690555050565b600101611e8c565b5050565b80611f1381613626565b611f2f5760405162461bcd60e51b8152600401610a2690614b63565b8133611f3a82611832565b6001600160a01b031614611f605760405162461bcd60e51b8152600401610a269061490c565b600083815260fe602052604090205483908114611f8f5760405162461bcd60e51b8152600401610a2690614bc0565b600084815260fe602052604090206002015460ff16158015611fc85750600084815260fe6020526040902060020154610100900460ff16155b6120145760405162461bcd60e51b815260206004820152601a60248201527f50726f706572747920697320756e646572207472616e736665720000000000006044820152606401610a26565b60fd805490600061202483614ca8565b9091555050600084815260fe602052604081208181556001810182905560028101805461ffff191690559061205c60038301826141a4565b506004810180546001600160a01b03191690556000600590910181905584815260fe60205260408120612094916003909101906141a4565b60405184815233907f99700a6ee3c3e4d026c56e3d3618a8157ca8e5efc0c4a4a3e555a9744d25fdbd9060200160405180910390a250505050565b6060600060fd5467ffffffffffffffff8111156120ee576120ee614613565b60405190808252806020026020018201604052801561216357816020015b6121506040805160c081018252600080825260208083018290528284018290526060808401839052608084015283518085019094528184528301529060a082015290565b81526020019060019003908161210c5790505b509050600060015b60fb5481116122b757600081815260fe602052604090205481900361229c57600081815260fe60209081526040808320815160c08101835281548152600182015481850152600282015460ff8082161515838601526101009091041615156060820152600382018054845181870281018701909552808552919592946080870194939192919084015b8282101561223c576000848152602090819020604080518082019091526002850290910180546001600160a01b031682526001908101548284015290835290920191016121f4565b505050908252506040805180820190915260048301546001600160a01b031681526005909201546020838101919091520152835184908490811061228257612282614954565b6020026020010181905250818061229890614ba7565b9250505b60fd5482146122b757806122af81614ba7565b91505061216b565b509092915050565b816122c981613626565b6122e55760405162461bcd60e51b8152600401610a2690614b63565b82336122f082611832565b6001600160a01b0316146123165760405162461bcd60e51b8152600401610a269061490c565b600084815260fe6020526040902054849081146123455760405162461bcd60e51b8152600401610a2690614bc0565b848460016000805b600085815260fe60205260409020600301548110156123c557600085815260fe6020526040902060030180546001600160a01b03861691908390811061239557612395614954565b60009182526020909120600290910201546001600160a01b0316036123bd57600191506123c5565b60010161234d565b5081156123ee57806123e95760405162461bcd60e51b8152600401610a2690614bf0565b61240c565b801561240c5760405162461bcd60e51b8152600401610a2690614c27565b600089815260fe60205260409020600401546001600160a01b03161580156124435750600089815260fe6020526040902060050154155b61245f5760405162461bcd60e51b8152600401610a2690614c69565b600089815260fe60205260408120600201805461ff0019166101001790555b60008a815260fe60205260409020600301548110156125615760008a815260fe6020526040902060030180546001600160a01b038b169190839081106124c6576124c6614954565b60009182526020909120600290910201546001600160a01b0316036125595760008a815260fe6020526040902060030180548290811061250857612508614954565b600091825260208083208d845260fe9091526040909220600290910290910180546004830180546001600160a01b0319166001600160a01b0390921691909117905560010154600590910155612561565b60010161247e565b50600089815260fe6020526040812061257f916003909101906141a4565b600089815260fe60209081526040918290206005015482518c815291820152815133927f7d2cfbbef328a1f13d4e8eec09f7ceddde17a22a204103792e8d6ae856e4618f928290030190a2505050505050505050565b60ff81815481106125e557600080fd5b6000918252602090912001546001600160a01b0316905081565b60606098805461090890614885565b606060008061261c84611892565b905060008167ffffffffffffffff81111561263957612639614613565b60405190808252806020026020018201604052801561268e57816020015b61267b60405180606001604052806000815260200160608152602001600081525090565b8152602001906001900390816126575790505b50905060015b60fb5481116127c757856001600160a01b03166126b082611832565b6001600160a01b0316036127ae5760fc6000828152602001908152602001600020604051806060016040529081600082015481526020016001820180546126f690614885565b80601f016020809104026020016040519081016040528092919081815260200182805461272290614885565b801561276f5780601f106127445761010080835404028352916020019161276f565b820191906000526020600020905b81548152906001019060200180831161275257829003601f168201915b5050505050815260200160028201548152505082858151811061279457612794614954565b602002602001018190525083806127aa90614ba7565b9450505b8383146127c757806127bf81614ba7565b915050612694565b50949350505050565b611f0533838361398a565b816127e581613626565b6128015760405162461bcd60e51b8152600401610a2690614b63565b600083815260fe602052604090206002015460ff1615801561283a5750600083815260fe6020526040902060020154610100900460ff16155b6128a35760405162461bcd60e51b815260206004820152603460248201527f50726f706572747920697320756e646572207472616e736665722c2070726963604482015273195cc818d85b9b9bdd0818994818da185b99d95960621b6064820152608401610a26565b6128ac83611832565b6001600160a01b0316336001600160a01b0316146128dc5760405162461bcd60e51b8152600401610a269061490c565b50600091825260fc602052604090912060020155565b6128fc3383613464565b6129185760405162461bcd60e51b8152600401610a26906148bf565b6115c584848484613a58565b8061292e81613626565b61294a5760405162461bcd60e51b8152600401610a2690614b63565b813361295582611832565b6001600160a01b03161461297b5760405162461bcd60e51b8152600401610a269061490c565b61298483613626565b6129a05760405162461bcd60e51b8152600401610a2690614b63565b6129a983613a8b565b600083815260fc60205260408120818155906129c860018301826141c5565b50600060029190910181905560fb8054916129e283614ca8565b91905055506129ee3390565b6001600160a01b03167f8e2f5fcc57c31738b03aa91accdd55b13dc355a4fa1707d953f49c973e18e6e484604051612a2891815260200190565b60405180910390a2505050565b6101006020528160005260406000208181548110612a5257600080fd5b600091825260209091206007909102018054600182015460028301546003840154600485015460058601546006909601549497506001600160a01b0384169650600160a01b90930460ff169491939092919088565b6060612ab2826133a6565b600082815260c9602052604081208054612acb90614885565b80601f0160208091040260200160405190810160405280929190818152602001828054612af790614885565b8015612b445780601f10612b1957610100808354040283529160200191612b44565b820191906000526020600020905b815481529060010190602001808311612b2757829003601f168201915b505050505090506000612b6260408051602081019091526000815290565b90508051600003612b74575092915050565b815115612ba6578082604051602001612b8e929190614cbf565b60405160208183030381529060405292505050919050565b612baf84613acb565b949350505050565b612bbf613890565b60405162461bcd60e51b815260206004820152600f60248201526e139bdd081a5b5c1b195b595b9d1959608a1b6044820152606401610a26565b6001600160a01b039182166000908152609c6020908152604080832093909416825291909152205460ff1690565b80612c3181613626565b612c4d5760405162461bcd60e51b8152600401610a2690614b63565b600082815260fe602052604090205482908114612c7c5760405162461bcd60e51b8152600401610a2690614bc0565b600083815260fe60205260409020600401546001600160a01b0316158015612cb35750600083815260fe6020526040902060050154155b612ccf5760405162461bcd60e51b8152600401610a2690614c69565b600083815260fe6020526040902060010154341015612d305760405162461bcd60e51b815260206004820181905260248201527f496e73756666696369656e74207061796d656e7420666f7220627579206f75746044820152606401610a26565b600083815260fe602052604090819020600201805460ff19166001179055805180820190915280612d5e3390565b6001600160a01b039081168252600086815260fe60208181526040832060018101549582018690529289905290815284516004830180546001600160a01b031916919094161790925592015160059092019190915533906108fc90612dc39034614a83565b6040518115909202916000818181858888f19350505050158015612deb573d6000803e3d6000fd5b50600083815260fe60209081526040918290206001015482518681529182015233917f9823c61ba42e817a0ba73273d875528a549abe0ba50bc8ce0f7ed5a9fb86c6879101612a28565b612e3d613890565b6001600160a01b038116612ea25760405162461bcd60e51b815260206004820152602660248201527f4f776e61626c653a206e6577206f776e657220697320746865207a65726f206160448201526564647265737360d01b6064820152608401610a26565b611e86816138ea565b6000825111612ef25760405162461bcd60e51b81526020600482015260136024820152725552492063616e6e6f7420626520656d70747960681b6044820152606401610a26565b60fb8054906000612f0283614ba7565b90915550506040805160608101825260fb548082526020808301868152838501869052600092835260fc9091529290208151815591519091906001820190612f4a9082614d3e565b5060409190910151600290910155612f643360fb54613b3f565b612f7060fb5483613b59565b336001600160a01b0316612f8560fb54611832565b6001600160a01b031614612fcb5760405162461bcd60e51b815260206004820152600d60248201526c13dddb995c881b9bdd081cd95d609a1b6044820152606401610a26565b60fb5460405190815233907f2728c9d3205d667bbc0eefdfeda366261b4d021949630c047f3e5834b30611ab9060200160405180910390a25050565b60fc602052600090815260409020805460018201805491929161302990614885565b80601f016020809104026020016040519081016040528092919081815260200182805461305590614885565b80156130a25780601f10613077576101008083540402835291602001916130a2565b820191906000526020600020905b81548152906001019060200180831161308557829003601f168201915b5050505050908060020154905083565b60008281526101006020526040902054829082906130e25760405162461bcd60e51b8152600401610a2690614acf565b600160008381526101006020526040902080548390811061310557613105614954565b906000526020600020906007020160010160149054906101000a900460ff1660058111156131355761313561471b565b146131825760405162461bcd60e51b815260206004820152601d60248201527f46696e616e63696e672072657175657374206e6f742070656e64696e670000006044820152606401610a26565b600084815261010060205260409020546131ae5760405162461bcd60e51b8152600401610a2690614acf565b60016000858152610100602052604090208054859081106131d1576131d1614954565b906000526020600020906007020160010160149054906101000a900460ff1660058111156132015761320161471b565b1461321e5760405162461bcd60e51b8152600401610a2690614b15565b60008481526101006020526040902080543391908590811061324257613242614954565b60009182526020909120600160079092020101546001600160a01b0316146132a75760405162461bcd60e51b815260206004820152601860248201527721b0b63632b91034b9903737ba103a3432903632b73232b960411b6044820152606401610a26565b600084815261010060205260409020805460039190859081106132cc576132cc614954565b60009182526020909120600160079092020101805460ff60a01b1916600160a01b8360058111156132ff576132ff61471b565b02179055506000848152609960209081526040918290205482518781529182018690526001600160a01b03169133917fef5fb41d427f3beab94b7933990405d1ca172d79f4761fa2dad7b6b6d1481aee91016111e0565b60006001600160e01b031982166380ac58cd60e01b148061338757506001600160e01b03198216635b5e139f60e01b145b806108f357506301ffc9a760e01b6001600160e01b03198316146108f3565b6133af81613626565b611e865760405162461bcd60e51b8152602060048201526018602482015277115490cdcc8c4e881a5b9d985b1a59081d1bdad95b88125160421b6044820152606401610a26565b6000818152609b6020526040902080546001600160a01b0319166001600160a01b038416908117909155819061342b82611832565b6001600160a01b03167f8c5be1e5ebec7d5bd14f71427d1e84f3dd0314c0f7b2291e5b200ac8c7c3b92560405160405180910390a45050565b60008061347083611832565b9050806001600160a01b0316846001600160a01b0316148061349757506134978185612bf9565b80612baf5750836001600160a01b03166134b08461098b565b6001600160a01b031614949350505050565b826001600160a01b03166134d582611832565b6001600160a01b0316146134fb5760405162461bcd60e51b8152600401610a2690614dfe565b6001600160a01b03821661355d5760405162461bcd60e51b8152602060048201526024808201527f4552433732313a207472616e7366657220746f20746865207a65726f206164646044820152637265737360e01b6064820152608401610a26565b826001600160a01b031661357082611832565b6001600160a01b0316146135965760405162461bcd60e51b8152600401610a2690614dfe565b6000818152609b6020908152604080832080546001600160a01b03199081169091556001600160a01b03878116808652609a8552838620805460001901905590871680865283862080546001019055868652609990945282852080549092168417909155905184937fddf252ad1be2c89b69c2b068fc378daa952ba7f163c4a11628f55a4df523b3ef91a4505050565b6000908152609960205260409020546001600160a01b0316151590565b8061364d81613626565b6136695760405162461bcd60e51b8152600401610a2690614b63565b600082815260fe602052604090206002015460ff1680156136a05750600082815260fe6020526040902060020154610100900460ff165b6136fa5760405162461bcd60e51b815260206004820152602560248201527f5472616e73666572206e6f7420617070726f76656420627920626f7468207061604482015264727469657360d81b6064820152608401610a26565b600082815260fe60205260408120600401546001600160a01b03169061371f84611832565b600085815260fe6020526040808220600501549051929350916001600160a01b0384169183156108fc02918491818181858888f19350505050158015613769573d6000803e3d6000fd5b506137758284876134c2565b826001600160a01b031661378886611832565b6001600160a01b0316146137d05760405162461bcd60e51b815260206004820152600f60248201526e151c985b9cd9995c8819985a5b1959608a1b6044820152606401610a26565b600085815260fe602052604081208181556001810182905560028101805461ffff191690559061380360038301826141a4565b506004810180546001600160a01b03191690556000600590910181905560fd80549161382e83614ca8565b9190505550826001600160a01b0316826001600160a01b03167f9ed053bb818ff08b8353cd46f78db1f0799f31c9e4458fdb425c10eccd2efc448784604051613881929190918252602082015260400190565b60405180910390a35050505050565b6033546001600160a01b0316331461192a5760405162461bcd60e51b815260206004820181905260248201527f4f776e61626c653a2063616c6c6572206973206e6f7420746865206f776e65726044820152606401610a26565b603380546001600160a01b038381166001600160a01b0319831681179093556040519116919082907f8be0079c531659141344cd1fd0a4f28419497f9722a3daafe3b4186f6b6457e090600090a35050565b600054610100900460ff166139635760405162461bcd60e51b8152600401610a2690614e43565b61192a613c15565b61397361393c565b61192a613c45565b613983613c45565b600060fd55565b816001600160a01b0316836001600160a01b0316036139eb5760405162461bcd60e51b815260206004820152601960248201527f4552433732313a20617070726f766520746f2063616c6c6572000000000000006044820152606401610a26565b6001600160a01b038381166000818152609c6020908152604080832094871680845294825291829020805460ff191686151590811790915591519182527f17307eab39ab6107e8899845ad3d59bd9653f200f220920489ca2b5937696c31910160405180910390a3505050565b613a638484846134c2565b613a6f84848484613c92565b6115c55760405162461bcd60e51b8152600401610a2690614e8e565b613a9481613d93565b600081815260c9602052604090208054613aad90614885565b159050611e8657600081815260c960205260408120611e86916141c5565b6060613ad6826133a6565b6000613aed60408051602081019091526000815290565b90506000815111613b0d5760405180602001604052806000815250613b38565b80613b1784613e28565b604051602001613b28929190614cbf565b6040516020818303038152906040525b9392505050565b611f05828260405180602001604052806000815250613ebb565b613b6282613626565b613bc55760405162461bcd60e51b815260206004820152602e60248201527f45524337323155524953746f726167653a2055524920736574206f66206e6f6e60448201526d32bc34b9ba32b73a103a37b5b2b760911b6064820152608401610a26565b600082815260c960205260409020613bdd8282614d3e565b506040518281527ff8e1a15aba9398e019f0b49df1a4fde98ee17ae345cb5f6b5e2c27f5033e8ce79060200160405180910390a15050565b600054610100900460ff16613c3c5760405162461bcd60e51b8152600401610a2690614e43565b61192a336138ea565b613c8b6040518060400160405280600881526020016750726f706572747960c01b81525060405180604001604052806004815260200163050524f560e41b815250613eee565b600060fb55565b60006001600160a01b0384163b15613d8857604051630a85bd0160e11b81526001600160a01b0385169063150b7a0290613cd6903390899088908890600401614ee0565b6020604051808303816000875af1925050508015613d11575060408051601f3d908101601f19168201909252613d0e91810190614f13565b60015b613d6e573d808015613d3f576040519150601f19603f3d011682016040523d82523d6000602084013e613d44565b606091505b508051600003613d665760405162461bcd60e51b8152600401610a2690614e8e565b805181602001fd5b6001600160e01b031916630a85bd0160e11b149050612baf565b506001949350505050565b6000613d9e82611832565b9050613da982611832565b6000838152609b6020908152604080832080546001600160a01b03199081169091556001600160a01b038516808552609a845282852080546000190190558785526099909352818420805490911690555192935084927fddf252ad1be2c89b69c2b068fc378daa952ba7f163c4a11628f55a4df523b3ef908390a45050565b60606000613e3583613f1f565b600101905060008167ffffffffffffffff811115613e5557613e55614613565b6040519080825280601f01601f191660200182016040528015613e7f576020820181803683370190505b5090508181016020015b600019016f181899199a1a9b1b9c1cb0b131b232b360811b600a86061a8153600a8504945084613e8957509392505050565b613ec58383613ff7565b613ed26000848484613c92565b610ac75760405162461bcd60e51b8152600401610a2690614e8e565b600054610100900460ff16613f155760405162461bcd60e51b8152600401610a2690614e43565b611f058282614164565b60008072184f03e93ff9f4daa797ed6e38ed64bf6a1f0160401b8310613f5e5772184f03e93ff9f4daa797ed6e38ed64bf6a1f0160401b830492506040015b6d04ee2d6d415b85acef81000000008310613f8a576d04ee2d6d415b85acef8100000000830492506020015b662386f26fc100008310613fa857662386f26fc10000830492506010015b6305f5e1008310613fc0576305f5e100830492506008015b6127108310613fd457612710830492506004015b60648310613fe6576064830492506002015b600a83106108f35760010192915050565b6001600160a01b03821661404d5760405162461bcd60e51b815260206004820181905260248201527f4552433732313a206d696e7420746f20746865207a65726f20616464726573736044820152606401610a26565b61405681613626565b156140a35760405162461bcd60e51b815260206004820152601c60248201527f4552433732313a20746f6b656e20616c7265616479206d696e746564000000006044820152606401610a26565b6140ac81613626565b156140f95760405162461bcd60e51b815260206004820152601c60248201527f4552433732313a20746f6b656e20616c7265616479206d696e746564000000006044820152606401610a26565b6001600160a01b0382166000818152609a6020908152604080832080546001019055848352609990915280822080546001600160a01b0319168417905551839291907fddf252ad1be2c89b69c2b068fc378daa952ba7f163c4a11628f55a4df523b3ef908290a45050565b600054610100900460ff1661418b5760405162461bcd60e51b8152600401610a2690614e43565b60976141978382614d3e565b506098610ac78282614d3e565b5080546000825560020290600052602060002090810190611e8691906141ff565b5080546141d190614885565b6000825580601f106141e1575050565b601f016020900490600052602060002090810190611e869190614229565b5b808211156142255780546001600160a01b031916815560006001820155600201614200565b5090565b5b80821115614225576000815560010161422a565b6001600160e01b031981168114611e8657600080fd5b60006020828403121561426657600080fd5b8135613b388161423e565b60005b8381101561428c578181015183820152602001614274565b50506000910152565b600081518084526142ad816020860160208601614271565b601f01601f19169290920160200192915050565b602081526000613b386020830184614295565b6000602082840312156142e657600080fd5b5035919050565b80356001600160a01b038116811461430457600080fd5b919050565b6000806040838503121561431c57600080fd5b614325836142ed565b946020939093013593505050565b600060e0830182518452602080840151602086015260408085015115156040870152606085015115156060870152608085015160e0608088015283815180865261010089019150602083019550600092505b808310156143bf576143ab82875180516001600160a01b03168252602090810151910152565b948401946001929092019190830190614385565b5060a087015194506143e760a089018680516001600160a01b03168252602090810151910152565b979650505050505050565b602081526000613b386020830184614333565b60008060006060848603121561441a57600080fd5b614423846142ed565b9250614431602085016142ed565b9150604084013590509250925092565b600080600080600060a0868803121561445957600080fd5b85359450614469602087016142ed565b94979496505050506040830135926060810135926080909101359150565b6000806040838503121561449a57600080fd5b50508035926020909101359150565b6000602082840312156144bb57600080fd5b613b38826142ed565b600080604083850312156144d757600080fd5b823591506144e7602084016142ed565b90509250929050565b600060208083016020845280855180835260408601915060408160051b87010192506020870160005b8281101561454757603f19888603018452614535858351614333565b94509285019290850190600101614519565b5092979650505050505050565b600060208083018184528085518083526040925060408601915060408160051b87010184880160005b838110156145c957603f19898403018552815160608151855288820151818a8701526145ab82870182614295565b9289015195890195909552509487019492509086019060010161457d565b509098975050505050505050565b600080604083850312156145ea57600080fd5b6145f3836142ed565b91506020830135801515811461460857600080fd5b809150509250929050565b634e487b7160e01b600052604160045260246000fd5b600067ffffffffffffffff8084111561464457614644614613565b604051601f8501601f19908116603f0116810190828211818310171561466c5761466c614613565b8160405280935085815286868601111561468557600080fd5b858560208301376000602087830101525050509392505050565b600080600080608085870312156146b557600080fd5b6146be856142ed565b93506146cc602086016142ed565b925060408501359150606085013567ffffffffffffffff8111156146ef57600080fd5b8501601f8101871361470057600080fd5b61470f87823560208401614629565b91505092959194509250565b634e487b7160e01b600052602160045260246000fd5b8881526001600160a01b038816602082015261010081016006881061476657634e487b7160e01b600052602160045260246000fd5b8760408301528660608301528560808301528460a08301528360c08301528260e08301529998505050505050505050565b85815260208082018690528415156040830152831515606083015282516001600160a01b0316608083015282015160a082015260c081015b9695505050505050565b600080604083850312156147ec57600080fd5b6147f5836142ed565b91506144e7602084016142ed565b6000806040838503121561481657600080fd5b823567ffffffffffffffff81111561482d57600080fd5b8301601f8101851361483e57600080fd5b61484d85823560208401614629565b95602094909401359450505050565b8381526060602082015260006148756060830185614295565b9050826040830152949350505050565b600181811c9082168061489957607f821691505b6020821081036148b957634e487b7160e01b600052602260045260246000fd5b50919050565b6020808252602d908201527f4552433732313a2063616c6c6572206973206e6f7420746f6b656e206f776e6560408201526c1c881bdc88185c1c1c9bdd9959609a1b606082015260800190565b60208082526028908201527f43616c6c6572206973206e6f7420746865206f776e6572206f6620746869732060408201526770726f706572747960c01b606082015260800190565b634e487b7160e01b600052603260045260246000fd5b634e487b7160e01b600052601160045260246000fd5b808201808211156108f3576108f361496a565b600181815b808511156149ce5781600019048211156149b4576149b461496a565b808516156149c157918102915b93841c9390800290614998565b509250929050565b6000826149e5575060016108f3565b816149f2575060006108f3565b8160018114614a085760028114614a1257614a2e565b60019150506108f3565b60ff841115614a2357614a2361496a565b50506001821b6108f3565b5060208310610133831016604e8410600b8410161715614a51575081810a6108f3565b614a5b8383614993565b8060001904821115614a6f57614a6f61496a565b029392505050565b6000613b3883836149d6565b818103818111156108f3576108f361496a565b80820281158282048414176108f3576108f361496a565b600082614aca57634e487b7160e01b600052601260045260246000fd5b500490565b60208082526026908201527f4e6f2066696e616e63696e67207265717565737420666f7220746869732070726040820152656f706572747960d01b606082015260800190565b6020808252602e908201527f46696e616e63696e67207265717565737420616c726561647920617070726f7660408201526d1959081bdc881c995a9958dd195960921b606082015260800190565b60208082526024908201527f50726f70657274792077697468207468697320494420646f6573206e6f7420656040820152631e1a5cdd60e21b606082015260800190565b600060018201614bb957614bb961496a565b5060010190565b602080825260169082015275141c9bdc195c9d1e481a5cc81b9bdd081b1a5cdd195960521b604082015260600190565b60208082526017908201527f4275796572206e6f7420666f756e6420696e2062696473000000000000000000604082015260600190565b60208082526022908201527f427579657220616c726561647920626964206f6e20746869732070726f706572604082015261747960f01b606082015260800190565b6020808252600f908201526e109a5908185b1c9958591e481cd95d608a1b604082015260600190565b634e487b7160e01b600052603160045260246000fd5b600081614cb757614cb761496a565b506000190190565b60008351614cd1818460208801614271565b835190830190614ce5818360208801614271565b01949350505050565b601f821115610ac7576000816000526020600020601f850160051c81016020861015614d175750805b601f850160051c820191505b81811015614d3657828155600101614d23565b505050505050565b815167ffffffffffffffff811115614d5857614d58614613565b614d6c81614d668454614885565b84614cee565b602080601f831160018114614da15760008415614d895750858301515b600019600386901b1c1916600185901b178555614d36565b600085815260208120601f198616915b82811015614dd057888601518255948401946001909101908401614db1565b5085821015614dee5787850151600019600388901b60f8161c191681555b5050505050600190811b01905550565b60208082526025908201527f4552433732313a207472616e736665722066726f6d20696e636f72726563742060408201526437bbb732b960d91b606082015260800190565b6020808252602b908201527f496e697469616c697a61626c653a20636f6e7472616374206973206e6f74206960408201526a6e697469616c697a696e6760a81b606082015260800190565b60208082526032908201527f4552433732313a207472616e7366657220746f206e6f6e20455243373231526560408201527131b2b4bb32b91034b6b83632b6b2b73a32b960711b606082015260800190565b6001600160a01b03858116825284166020820152604081018390526080606082018190526000906147cf90830184614295565b600060208284031215614f2557600080fd5b8151613b388161423e56fea26469706673582212208ea4b0fa1e526f139f5ee9be6fb934a1ddd5ab83faec173a2edaf241ae2acf2f64736f6c63430008170033",
  "linkReferences": {},
  "deployedLinkReferences": {}
}