{
  "_format": "hh-sol-artifact-1",
  "contractName": "EthState",
  "sourceName": "contracts/EthState.sol",
  "abi": [
    {
      "anonymous": false,
      "inputs": [
        {
          "indexed": true,
          "internalType": "address",
          "name": "_seller",
          "type": "address"
        },
        {
          "indexed": false,
          "internalType": "uint256",
          "name": "_propertyId",
          "type": "uint256"
        },
        {
          "indexed": false,
          "internalType": "uint256",
          "name": "_bidPrice",
          "type": "uint256"
        }
      ],
      "name": "Accept",
      "type": "event"
    },
    {
      "anonymous": false,
      "inputs": [
        {
          "indexed": true,
          "internalType": "address",
          "name": "_owner",
          "type": "address"
        },
        {
          "indexed": false,
          "internalType": "uint256",
          "name": "_propertyId",
          "type": "uint256"
        }
      ],
      "name": "Add",
      "type": "event"
    },
    {
      "anonymous": false,
      "inputs": [
        {
          "indexed": true,
          "internalType": "address",
          "name": "owner",
          "type": "address"
        },
        {
          "indexed": true,
          "internalType": "address",
          "name": "approved",
          "type": "address"
        },
        {
          "indexed": true,
          "internalType": "uint256",
          "name": "tokenId",
          "type": "uint256"
        }
      ],
      "name": "Approval",
      "type": "event"
    },
    {
      "anonymous": false,
      "inputs": [
        {
          "indexed": true,
          "internalType": "address",
          "name": "owner",
          "type": "address"
        },
        {
          "indexed": true,
          "internalType": "address",
          "name": "operator",
          "type": "address"
        },
        {
          "indexed": false,
          "internalType": "bool",
          "name": "approved",
          "type": "bool"
        }
      ],
      "name": "ApprovalForAll",
      "type": "event"
    },
    {
      "anonymous": false,
      "inputs": [
        {
          "indexed": false,
          "internalType": "uint256",
          "name": "_fromTokenId",
          "type": "uint256"
        },
        {
          "indexed": false,
          "internalType": "uint256",
          "name": "_toTokenId",
          "type": "uint256"
        }
      ],
      "name": "BatchMetadataUpdate",
      "type": "event"
    },
    {
      "anonymous": false,
      "inputs": [
        {
          "indexed": true,
          "internalType": "address",
          "name": "_buyer",
          "type": "address"
        },
        {
          "indexed": false,
          "internalType": "uint256",
          "name": "_propertyId",
          "type": "uint256"
        },
        {
          "indexed": false,
          "internalType": "uint256",
          "name": "_buyOutPrice",
          "type": "uint256"
        }
      ],
      "name": "BuyOut",
      "type": "event"
    },
    {
      "anonymous": false,
      "inputs": [
        {
          "indexed": true,
          "internalType": "address",
          "name": "_lender",
          "type": "address"
        },
        {
          "indexed": true,
          "internalType": "address",
          "name": "_loaner",
          "type": "address"
        },
        {
          "indexed": false,
          "internalType": "uint256",
          "name": "_propertyId",
          "type": "uint256"
        },
        {
          "indexed": false,
          "internalType": "uint256",
          "name": "_financingId",
          "type": "uint256"
        }
      ],
      "name": "Default",
      "type": "event"
    },
    {
      "anonymous": false,
      "inputs": [
        {
          "indexed": true,
          "internalType": "address",
          "name": "_lender",
          "type": "address"
        },
        {
          "indexed": true,
          "internalType": "address",
          "name": "_loaner",
          "type": "address"
        },
        {
          "indexed": false,
          "internalType": "uint256",
          "name": "_propertyId",
          "type": "uint256"
        },
        {
          "indexed": false,
          "internalType": "uint256",
          "name": "financingId",
          "type": "uint256"
        }
      ],
      "name": "FinanceApproval",
      "type": "event"
    },
    {
      "anonymous": false,
      "inputs": [
        {
          "indexed": true,
          "internalType": "address",
          "name": "_lender",
          "type": "address"
        },
        {
          "indexed": true,
          "internalType": "address",
          "name": "_loaner",
          "type": "address"
        },
        {
          "indexed": false,
          "internalType": "uint256",
          "name": "_propertyId",
          "type": "uint256"
        },
        {
          "indexed": false,
          "internalType": "uint256",
          "name": "_financingId",
          "type": "uint256"
        }
      ],
      "name": "FinanceRejection",
      "type": "event"
    },
    {
      "anonymous": false,
      "inputs": [
        {
          "indexed": true,
          "internalType": "address",
          "name": "_lender",
          "type": "address"
        },
        {
          "indexed": true,
          "internalType": "address",
          "name": "_loaner",
          "type": "address"
        },
        {
          "indexed": false,
          "internalType": "uint256",
          "name": "_propertyId",
          "type": "uint256"
        },
        {
          "indexed": false,
          "internalType": "uint256",
          "name": "_financingId",
          "type": "uint256"
        }
      ],
      "name": "FinanceRequest",
      "type": "event"
    },
    {
      "anonymous": false,
      "inputs": [
        {
          "indexed": false,
          "internalType": "uint8",
          "name": "version",
          "type": "uint8"
        }
      ],
      "name": "Initialized",
      "type": "event"
    },
    {
      "anonymous": false,
      "inputs": [
        {
          "indexed": true,
          "internalType": "address",
          "name": "_seller",
          "type": "address"
        },
        {
          "indexed": false,
          "internalType": "uint256",
          "name": "_propertyId",
          "type": "uint256"
        },
        {
          "indexed": false,
          "internalType": "uint256",
          "name": "_sellPrice",
          "type": "uint256"
        }
      ],
      "name": "List",
      "type": "event"
    },
    {
      "anonymous": false,
      "inputs": [
        {
          "indexed": false,
          "internalType": "uint256",
          "name": "_tokenId",
          "type": "uint256"
        }
      ],
      "name": "MetadataUpdate",
      "type": "event"
    },
    {
      "anonymous": false,
      "inputs": [
        {
          "indexed": true,
          "internalType": "address",
          "name": "_buyer",
          "type": "address"
        },
        {
          "indexed": false,
          "internalType": "uint256",
          "name": "_propertyId",
          "type": "uint256"
        },
        {
          "indexed": false,
          "internalType": "uint256",
          "name": "_bidPrice",
          "type": "uint256"
        }
      ],
      "name": "Offer",
      "type": "event"
    },
    {
      "anonymous": false,
      "inputs": [
        {
          "indexed": true,
          "internalType": "address",
          "name": "previousOwner",
          "type": "address"
        },
        {
          "indexed": true,
          "internalType": "address",
          "name": "newOwner",
          "type": "address"
        }
      ],
      "name": "OwnershipTransferred",
      "type": "event"
    },
    {
      "anonymous": false,
      "inputs": [
        {
          "indexed": true,
          "internalType": "address",
          "name": "_lender",
          "type": "address"
        },
        {
          "indexed": true,
          "internalType": "address",
          "name": "_loaner",
          "type": "address"
        },
        {
          "indexed": false,
          "internalType": "uint256",
          "name": "_propertyId",
          "type": "uint256"
        },
        {
          "indexed": false,
          "internalType": "uint256",
          "name": "_financingId",
          "type": "uint256"
        }
      ],
      "name": "PaidOff",
      "type": "event"
    },
    {
      "anonymous": false,
      "inputs": [
        {
          "indexed": true,
          "internalType": "address",
          "name": "_lender",
          "type": "address"
        },
        {
          "indexed": true,
          "internalType": "address",
          "name": "_loaner",
          "type": "address"
        },
        {
          "indexed": false,
          "internalType": "uint256",
          "name": "_propertyId",
          "type": "uint256"
        },
        {
          "indexed": false,
          "internalType": "uint256",
          "name": "_financingId",
          "type": "uint256"
        },
        {
          "indexed": false,
          "internalType": "uint256",
          "name": "_paidMonths",
          "type": "uint256"
        },
        {
          "indexed": false,
          "internalType": "uint256",
          "name": "_monthlyPayment",
          "type": "uint256"
        }
      ],
      "name": "Payment",
      "type": "event"
    },
    {
      "anonymous": false,
      "inputs": [
        {
          "indexed": true,
          "internalType": "address",
          "name": "_owner",
          "type": "address"
        },
        {
          "indexed": false,
          "internalType": "uint256",
          "name": "_propertyId",
          "type": "uint256"
        }
      ],
      "name": "Remove",
      "type": "event"
    },
    {
      "anonymous": false,
      "inputs": [
        {
          "indexed": true,
          "internalType": "address",
          "name": "from",
          "type": "address"
        },
        {
          "indexed": true,
          "internalType": "address",
          "name": "to",
          "type": "address"
        },
        {
          "indexed": true,
          "internalType": "uint256",
          "name": "tokenId",
          "type": "uint256"
        }
      ],
      "name": "Transfer",
      "type": "event"
    },
    {
      "anonymous": false,
      "inputs": [
        {
          "indexed": true,
          "internalType": "address",
          "name": "_seller",
          "type": "address"
        },
        {
          "indexed": true,
          "internalType": "address",
          "name": "_buyer",
          "type": "address"
        },
        {
          "indexed": false,
          "internalType": "uint256",
          "name": "_propertyId",
          "type": "uint256"
        },
        {
          "indexed": false,
          "internalType": "uint256",
          "name": "_sellPrice",
          "type": "uint256"
        }
      ],
      "name": "Transfer",
      "type": "event"
    },
    {
      "anonymous": false,
      "inputs": [
        {
          "indexed": true,
          "internalType": "address",
          "name": "_seller",
          "type": "address"
        },
        {
          "indexed": false,
          "internalType": "uint256",
          "name": "_propertyId",
          "type": "uint256"
        }
      ],
      "name": "Unlist",
      "type": "event"
    },
    {
      "inputs": [
        {
          "internalType": "uint256",
          "name": "_propertyId",
          "type": "uint256"
        },
        {
          "internalType": "address",
          "name": "_buyer",
          "type": "address"
        }
      ],
      "name": "acceptOffer",
      "outputs": [],
      "stateMutability": "nonpayable",
      "type": "function"
    },
    {
      "inputs": [
        {
          "internalType": "address",
          "name": "_lender",
          "type": "address"
        }
      ],
      "name": "addLender",
      "outputs": [],
      "stateMutability": "nonpayable",
      "type": "function"
    },
    {
      "inputs": [
        {
          "internalType": "string",
          "name": "_uri",
          "type": "string"
        },
        {
          "internalType": "uint256",
          "name": "_price",
          "type": "uint256"
        }
      ],
      "name": "addProperty",
      "outputs": [],
      "stateMutability": "nonpayable",
      "type": "function"
    },
    {
      "inputs": [
        {
          "internalType": "address",
          "name": "to",
          "type": "address"
        },
        {
          "internalType": "uint256",
          "name": "tokenId",
          "type": "uint256"
        }
      ],
      "name": "approve",
      "outputs": [],
      "stateMutability": "nonpayable",
      "type": "function"
    },
    {
      "inputs": [
        {
          "internalType": "uint256",
          "name": "_propertyId",
          "type": "uint256"
        },
        {
          "internalType": "uint256",
          "name": "_financingId",
          "type": "uint256"
        }
      ],
      "name": "approveFinancing",
      "outputs": [],
      "stateMutability": "nonpayable",
      "type": "function"
    },
    {
      "inputs": [
        {
          "internalType": "uint256",
          "name": "_propertyId",
          "type": "uint256"
        }
      ],
      "name": "approveTransferAsBuyer",
      "outputs": [],
      "stateMutability": "payable",
      "type": "function"
    },
    {
      "inputs": [
        {
          "internalType": "uint256",
          "name": "_propertyId",
          "type": "uint256"
        }
      ],
      "name": "approveTransferAsSeller",
      "outputs": [],
      "stateMutability": "nonpayable",
      "type": "function"
    },
    {
      "inputs": [
        {
          "internalType": "address",
          "name": "owner",
          "type": "address"
        }
      ],
      "name": "balanceOf",
      "outputs": [
        {
          "internalType": "uint256",
          "name": "",
          "type": "uint256"
        }
      ],
      "stateMutability": "view",
      "type": "function"
    },
    {
      "inputs": [
        {
          "internalType": "uint256",
          "name": "_propertyId",
          "type": "uint256"
        },
        {
          "internalType": "uint256",
          "name": "_bidPrice",
          "type": "uint256"
        }
      ],
      "name": "bid",
      "outputs": [],
      "stateMutability": "nonpayable",
      "type": "function"
    },
    {
      "inputs": [
        {
          "internalType": "uint256",
          "name": "_propertyId",
          "type": "uint256"
        }
      ],
      "name": "buyOut",
      "outputs": [],
      "stateMutability": "payable",
      "type": "function"
    },
    {
      "inputs": [
        {
          "internalType": "uint256",
          "name": "_propertyId",
          "type": "uint256"
        },
        {
          "internalType": "uint256",
          "name": "_newPrice",
          "type": "uint256"
        }
      ],
      "name": "changePrice",
      "outputs": [],
      "stateMutability": "nonpayable",
      "type": "function"
    },
    {
      "inputs": [],
      "name": "defaultOnFinancing",
      "outputs": [],
      "stateMutability": "nonpayable",
      "type": "function"
    },
    {
      "inputs": [
        {
          "internalType": "uint256",
          "name": "_propertyId",
          "type": "uint256"
        }
      ],
      "name": "endBiddingProcess",
      "outputs": [],
      "stateMutability": "nonpayable",
      "type": "function"
    },
    {
      "inputs": [
        {
          "internalType": "uint256",
          "name": "_propertyId",
          "type": "uint256"
        },
        {
          "internalType": "address",
          "name": "_lender",
          "type": "address"
        },
        {
          "internalType": "uint256",
          "name": "_loanAmount",
          "type": "uint256"
        },
        {
          "internalType": "uint256",
          "name": "_monthlyInterestRate",
          "type": "uint256"
        },
        {
          "internalType": "uint256",
          "name": "_durationInMonths",
          "type": "uint256"
        }
      ],
      "name": "financingRequest",
      "outputs": [],
      "stateMutability": "nonpayable",
      "type": "function"
    },
    {
      "inputs": [
        {
          "internalType": "uint256",
          "name": "",
          "type": "uint256"
        },
        {
          "internalType": "uint256",
          "name": "",
          "type": "uint256"
        }
      ],
      "name": "financings",
      "outputs": [
        {
          "internalType": "uint256",
          "name": "propertyId",
          "type": "uint256"
        },
        {
          "internalType": "address",
          "name": "lender",
          "type": "address"
        },
        {
          "internalType": "enum FinancingContract.FinancingStatus",
          "name": "status",
          "type": "uint8"
        },
        {
          "internalType": "uint256",
          "name": "loanAmount",
          "type": "uint256"
        },
        {
          "internalType": "uint256",
          "name": "monthlyInterestRate",
          "type": "uint256"
        },
        {
          "internalType": "uint256",
          "name": "durationInMonths",
          "type": "uint256"
        },
        {
          "internalType": "uint256",
          "name": "monthlyPayment",
          "type": "uint256"
        },
        {
          "internalType": "uint256",
          "name": "paidMonths",
          "type": "uint256"
        }
      ],
      "stateMutability": "view",
      "type": "function"
    },
    {
      "inputs": [],
      "name": "getActiveListings",
      "outputs": [
        {
          "components": [
            {
              "internalType": "uint256",
              "name": "propertyId",
              "type": "uint256"
            },
            {
              "internalType": "uint256",
              "name": "sellPrice",
              "type": "uint256"
            },
            {
              "internalType": "bool",
              "name": "buyerApproved",
              "type": "bool"
            },
            {
              "internalType": "bool",
              "name": "sellerApproved",
              "type": "bool"
            },
            {
              "components": [
                {
                  "internalType": "address",
                  "name": "buyer",
                  "type": "address"
                },
                {
                  "internalType": "uint256",
                  "name": "bidPrice",
                  "type": "uint256"
                }
              ],
              "internalType": "struct MarketplaceContract.Bid[]",
              "name": "bids",
              "type": "tuple[]"
            },
            {
              "components": [
                {
                  "internalType": "address",
                  "name": "buyer",
                  "type": "address"
                },
                {
                  "internalType": "uint256",
                  "name": "bidPrice",
                  "type": "uint256"
                }
              ],
              "internalType": "struct MarketplaceContract.Bid",
              "name": "acceptedBid",
              "type": "tuple"
            }
          ],
          "internalType": "struct MarketplaceContract.Listing[]",
          "name": "",
          "type": "tuple[]"
        }
      ],
      "stateMutability": "view",
      "type": "function"
    },
    {
      "inputs": [
        {
          "internalType": "uint256",
          "name": "tokenId",
          "type": "uint256"
        }
      ],
      "name": "getApproved",
      "outputs": [
        {
          "internalType": "address",
          "name": "",
          "type": "address"
        }
      ],
      "stateMutability": "view",
      "type": "function"
    },
    {
      "inputs": [
        {
          "internalType": "uint256",
          "name": "_propertyId",
          "type": "uint256"
        }
      ],
      "name": "getListing",
      "outputs": [
        {
          "components": [
            {
              "internalType": "uint256",
              "name": "propertyId",
              "type": "uint256"
            },
            {
              "internalType": "uint256",
              "name": "sellPrice",
              "type": "uint256"
            },
            {
              "internalType": "bool",
              "name": "buyerApproved",
              "type": "bool"
            },
            {
              "internalType": "bool",
              "name": "sellerApproved",
              "type": "bool"
            },
            {
              "components": [
                {
                  "internalType": "address",
                  "name": "buyer",
                  "type": "address"
                },
                {
                  "internalType": "uint256",
                  "name": "bidPrice",
                  "type": "uint256"
                }
              ],
              "internalType": "struct MarketplaceContract.Bid[]",
              "name": "bids",
              "type": "tuple[]"
            },
            {
              "components": [
                {
                  "internalType": "address",
                  "name": "buyer",
                  "type": "address"
                },
                {
                  "internalType": "uint256",
                  "name": "bidPrice",
                  "type": "uint256"
                }
              ],
              "internalType": "struct MarketplaceContract.Bid",
              "name": "acceptedBid",
              "type": "tuple"
            }
          ],
          "internalType": "struct MarketplaceContract.Listing",
          "name": "",
          "type": "tuple"
        }
      ],
      "stateMutability": "view",
      "type": "function"
    },
    {
      "inputs": [
        {
          "internalType": "address",
          "name": "_owner",
          "type": "address"
        }
      ],
      "name": "getPropertiesByOwner",
      "outputs": [
        {
          "components": [
            {
              "internalType": "uint256",
              "name": "propertyId",
              "type": "uint256"
            },
            {
              "internalType": "string",
              "name": "uri",
              "type": "string"
            },
            {
              "internalType": "uint256",
              "name": "price",
              "type": "uint256"
            }
          ],
          "internalType": "struct PropertyContract.Property[]",
          "name": "",
          "type": "tuple[]"
        }
      ],
      "stateMutability": "view",
      "type": "function"
    },
    {
      "inputs": [],
      "name": "initialize",
      "outputs": [],
      "stateMutability": "nonpayable",
      "type": "function"
    },
    {
      "inputs": [
        {
          "internalType": "address",
          "name": "owner",
          "type": "address"
        },
        {
          "internalType": "address",
          "name": "operator",
          "type": "address"
        }
      ],
      "name": "isApprovedForAll",
      "outputs": [
        {
          "internalType": "bool",
          "name": "",
          "type": "bool"
        }
      ],
      "stateMutability": "view",
      "type": "function"
    },
    {
      "inputs": [
        {
          "internalType": "uint256",
          "name": "",
          "type": "uint256"
        }
      ],
      "name": "lenders",
      "outputs": [
        {
          "internalType": "address",
          "name": "",
          "type": "address"
        }
      ],
      "stateMutability": "view",
      "type": "function"
    },
    {
      "inputs": [
        {
          "internalType": "uint256",
          "name": "_propertyId",
          "type": "uint256"
        },
        {
          "internalType": "uint256",
          "name": "_sellPrice",
          "type": "uint256"
        }
      ],
      "name": "listProperty",
      "outputs": [],
      "stateMutability": "nonpayable",
      "type": "function"
    },
    {
      "inputs": [],
      "name": "listingCount",
      "outputs": [
        {
          "internalType": "uint256",
          "name": "",
          "type": "uint256"
        }
      ],
      "stateMutability": "view",
      "type": "function"
    },
    {
      "inputs": [
        {
          "internalType": "uint256",
          "name": "",
          "type": "uint256"
        }
      ],
      "name": "listings",
      "outputs": [
        {
          "internalType": "uint256",
          "name": "propertyId",
          "type": "uint256"
        },
        {
          "internalType": "uint256",
          "name": "sellPrice",
          "type": "uint256"
        },
        {
          "internalType": "bool",
          "name": "buyerApproved",
          "type": "bool"
        },
        {
          "internalType": "bool",
          "name": "sellerApproved",
          "type": "bool"
        },
        {
          "components": [
            {
              "internalType": "address",
              "name": "buyer",
              "type": "address"
            },
            {
              "internalType": "uint256",
              "name": "bidPrice",
              "type": "uint256"
            }
          ],
          "internalType": "struct MarketplaceContract.Bid",
          "name": "acceptedBid",
          "type": "tuple"
        }
      ],
      "stateMutability": "view",
      "type": "function"
    },
    {
      "inputs": [],
      "name": "makePayment",
      "outputs": [],
      "stateMutability": "payable",
      "type": "function"
    },
    {
      "inputs": [],
      "name": "name",
      "outputs": [
        {
          "internalType": "string",
          "name": "",
          "type": "string"
        }
      ],
      "stateMutability": "view",
      "type": "function"
    },
    {
      "inputs": [],
      "name": "owner",
      "outputs": [
        {
          "internalType": "address",
          "name": "",
          "type": "address"
        }
      ],
      "stateMutability": "view",
      "type": "function"
    },
    {
      "inputs": [
        {
          "internalType": "uint256",
          "name": "tokenId",
          "type": "uint256"
        }
      ],
      "name": "ownerOf",
      "outputs": [
        {
          "internalType": "address",
          "name": "",
          "type": "address"
        }
      ],
      "stateMutability": "view",
      "type": "function"
    },
    {
      "inputs": [
        {
          "internalType": "uint256",
          "name": "",
          "type": "uint256"
        }
      ],
      "name": "properties",
      "outputs": [
        {
          "internalType": "uint256",
          "name": "propertyId",
          "type": "uint256"
        },
        {
          "internalType": "string",
          "name": "uri",
          "type": "string"
        },
        {
          "internalType": "uint256",
          "name": "price",
          "type": "uint256"
        }
      ],
      "stateMutability": "view",
      "type": "function"
    },
    {
      "inputs": [],
      "name": "propertyCount",
      "outputs": [
        {
          "internalType": "uint256",
          "name": "",
          "type": "uint256"
        }
      ],
      "stateMutability": "view",
      "type": "function"
    },
    {
      "inputs": [
        {
          "internalType": "uint256",
          "name": "_propertyId",
          "type": "uint256"
        },
        {
          "internalType": "uint256",
          "name": "_financingId",
          "type": "uint256"
        }
      ],
      "name": "rejectFinancing",
      "outputs": [],
      "stateMutability": "nonpayable",
      "type": "function"
    },
    {
      "inputs": [
        {
          "internalType": "uint256",
          "name": "_propertyId",
          "type": "uint256"
        },
        {
          "internalType": "address",
          "name": "_buyer",
          "type": "address"
        }
      ],
      "name": "removeBid",
      "outputs": [],
      "stateMutability": "nonpayable",
      "type": "function"
    },
    {
      "inputs": [
        {
          "internalType": "address",
          "name": "_lender",
          "type": "address"
        }
      ],
      "name": "removeLender",
      "outputs": [],
      "stateMutability": "nonpayable",
      "type": "function"
    },
    {
      "inputs": [
        {
          "internalType": "uint256",
          "name": "_propertyId",
          "type": "uint256"
        }
      ],
      "name": "removeProperty",
      "outputs": [],
      "stateMutability": "nonpayable",
      "type": "function"
    },
    {
      "inputs": [],
      "name": "renounceOwnership",
      "outputs": [],
      "stateMutability": "nonpayable",
      "type": "function"
    },
    {
      "inputs": [
        {
          "internalType": "address",
          "name": "from",
          "type": "address"
        },
        {
          "internalType": "address",
          "name": "to",
          "type": "address"
        },
        {
          "internalType": "uint256",
          "name": "tokenId",
          "type": "uint256"
        }
      ],
      "name": "safeTransferFrom",
      "outputs": [],
      "stateMutability": "nonpayable",
      "type": "function"
    },
    {
      "inputs": [
        {
          "internalType": "address",
          "name": "from",
          "type": "address"
        },
        {
          "internalType": "address",
          "name": "to",
          "type": "address"
        },
        {
          "internalType": "uint256",
          "name": "tokenId",
          "type": "uint256"
        },
        {
          "internalType": "bytes",
          "name": "data",
          "type": "bytes"
        }
      ],
      "name": "safeTransferFrom",
      "outputs": [],
      "stateMutability": "nonpayable",
      "type": "function"
    },
    {
      "inputs": [
        {
          "internalType": "address",
          "name": "operator",
          "type": "address"
        },
        {
          "internalType": "bool",
          "name": "approved",
          "type": "bool"
        }
      ],
      "name": "setApprovalForAll",
      "outputs": [],
      "stateMutability": "nonpayable",
      "type": "function"
    },
    {
      "inputs": [
        {
          "internalType": "bytes4",
          "name": "interfaceId",
          "type": "bytes4"
        }
      ],
      "name": "supportsInterface",
      "outputs": [
        {
          "internalType": "bool",
          "name": "",
          "type": "bool"
        }
      ],
      "stateMutability": "view",
      "type": "function"
    },
    {
      "inputs": [],
      "name": "symbol",
      "outputs": [
        {
          "internalType": "string",
          "name": "",
          "type": "string"
        }
      ],
      "stateMutability": "view",
      "type": "function"
    },
    {
      "inputs": [
        {
          "internalType": "uint256",
          "name": "tokenId",
          "type": "uint256"
        }
      ],
      "name": "tokenURI",
      "outputs": [
        {
          "internalType": "string",
          "name": "",
          "type": "string"
        }
      ],
      "stateMutability": "view",
      "type": "function"
    },
    {
      "inputs": [
        {
          "internalType": "address",
          "name": "from",
          "type": "address"
        },
        {
          "internalType": "address",
          "name": "to",
          "type": "address"
        },
        {
          "internalType": "uint256",
          "name": "tokenId",
          "type": "uint256"
        }
      ],
      "name": "transferFrom",
      "outputs": [],
      "stateMutability": "nonpayable",
      "type": "function"
    },
    {
      "inputs": [
        {
          "internalType": "address",
          "name": "newOwner",
          "type": "address"
        }
      ],
      "name": "transferOwnership",
      "outputs": [],
      "stateMutability": "nonpayable",
      "type": "function"
    },
    {
      "inputs": [
        {
          "internalType": "uint256",
          "name": "_propertyId",
          "type": "uint256"
        }
      ],
      "name": "unlistProperty",
      "outputs": [],
      "stateMutability": "nonpayable",
      "type": "function"
    }
  ],
  "bytecode": "0x608060405234801561001057600080fd5b50614f6d806100206000396000f3fe6080604052600436106102725760003560e01c80638da5cb5b1161014f578063be999558116100c1578063e985e9c51161007a578063e985e9c51461080c578063ec7a81d01461082c578063f2fde38b1461083f578063f54e1aef1461085f578063f7b108081461087f578063fd3df171146108ae57600080fd5b8063be99955814610705578063c361a33514610739578063c87b56dd1461074f578063c8efddf61461076f578063d8d7970014610784578063de74e57b1461078c57600080fd5b80639fcb2748116101135780639fcb274814610642578063a22cb4651461066f578063a9b07c261461068f578063b3de019c146106a5578063b88d4fde146106c5578063bc43d06f146106e557600080fd5b80638da5cb5b14610562578063918d407d14610580578063929eea21146105a057806393084b34146105c057806395d89b411461062d57600080fd5b8063598647f8116101e8578063776a0835116101ac578063776a0835146104ab5780637e6b3bbf146104cb5780638129fc1c146104eb57806384019eed14610500578063841ad8b91461052057806387c35bc01461054057600080fd5b8063598647f8146104085780636352211e1461042857806370a0823114610448578063715018a6146104765780637633a0711461048b57600080fd5b806323b872dd1161023a57806323b872dd14610355578063292588361461037557806341c38d851461039557806342842e0e146103b55780634eda529b146103d55780635138f19f146103f557600080fd5b806301ffc9a71461027757806306fdde03146102ac578063081812fc146102ce578063095ea7b314610306578063107a274a14610328575b600080fd5b34801561028357600080fd5b5061029761029236600461425b565b6108ce565b60405190151581526020015b60405180910390f35b3480156102b857600080fd5b506102c16108f9565b6040516102a391906142c8565b3480156102da57600080fd5b506102ee6102e93660046142db565b61098b565b6040516001600160a01b0390911681526020016102a3565b34801561031257600080fd5b50610326610321366004614310565b6109b2565b005b34801561033457600080fd5b506103486103433660046142db565b610acc565b6040516102a391906143f9565b34801561036157600080fd5b5061032661037036600461440c565b610bfa565b34801561038157600080fd5b50610326610390366004614448565b610c2b565b3480156103a157600080fd5b506103266103b036600461448e565b610f40565b3480156103c157600080fd5b506103266103d036600461440c565b6111ee565b3480156103e157600080fd5b506103266103f036600461448e565b611209565b6103266104033660046142db565b6113b3565b34801561041457600080fd5b5061032661042336600461448e565b6115d2565b34801561043457600080fd5b506102ee6104433660046142db565b611839565b34801561045457600080fd5b506104686104633660046144b0565b611899565b6040519081526020016102a3565b34801561048257600080fd5b5061032661191f565b34801561049757600080fd5b506103266104a63660046142db565b611933565b3480156104b757600080fd5b506103266104c63660046144cb565b6119bd565b3480156104d757600080fd5b506103266104e63660046142db565b611c43565b3480156104f757600080fd5b50610326611d6f565b34801561050c57600080fd5b5061032661051b3660046144b0565b611e90565b34801561052c57600080fd5b5061032661053b3660046142db565b611f10565b34801561054c57600080fd5b506105556120d6565b6040516102a391906144f7565b34801561056e57600080fd5b506033546001600160a01b03166102ee565b34801561058c57600080fd5b5061032661059b3660046144cb565b6122c6565b3480156105ac57600080fd5b506102ee6105bb3660046142db565b6125dc565b3480156105cc57600080fd5b506103266105db3660046144b0565b60ff80546001810182556000919091527fe08ec2af2cfc251225e1968fd6ca21e4044f129bffa95bac3503be8bdb30a3670180546001600160a01b0319166001600160a01b0392909216919091179055565b34801561063957600080fd5b506102c1612606565b34801561064e57600080fd5b5061066261065d3660046144b0565b612615565b6040516102a3919061455b565b34801561067b57600080fd5b5061032661068a3660046145de565b6127d7565b34801561069b57600080fd5b5061046860fd5481565b3480156106b157600080fd5b506103266106c036600461448e565b6127e2565b3480156106d157600080fd5b506103266106e03660046146a6565b6128f9565b3480156106f157600080fd5b506103266107003660046142db565b61292b565b34801561071157600080fd5b5061072561072036600461448e565b612a3c565b6040516102a3989796959493929190614738565b34801561074557600080fd5b5061046860fb5481565b34801561075b57600080fd5b506102c161076a3660046142db565b612aae565b34801561077b57600080fd5b50610326612bbe565b610326612bc6565b34801561079857600080fd5b506107fb6107a73660046142db565b60fe60209081526000918252604091829020805460018201546002830154855180870190965260048401546001600160a01b03168652600590930154938501939093529260ff808316926101009004169085565b6040516102a395949392919061479e565b34801561081857600080fd5b506102976108273660046147e0565b612c00565b61032661083a3660046142db565b612c2e565b34801561084b57600080fd5b5061032661085a3660046144b0565b612e3c565b34801561086b57600080fd5b5061032661087a36600461480a565b612eb2565b34801561088b57600080fd5b5061089f61089a3660046142db565b61300e565b6040516102a393929190614863565b3480156108ba57600080fd5b506103266108c936600461448e565b6130b9565b60006001600160e01b03198216632483248360e11b14806108f357506108f38261335d565b92915050565b6060609780546109089061488c565b80601f01602080910402602001604051908101604052809291908181526020018280546109349061488c565b80156109815780601f1061095657610100808354040283529160200191610981565b820191906000526020600020905b81548152906001019060200180831161096457829003601f168201915b5050505050905090565b6000610996826133ad565b506000908152609b60205260409020546001600160a01b031690565b60006109bd82611839565b9050806001600160a01b0316836001600160a01b031603610a2f5760405162461bcd60e51b815260206004820152602160248201527f4552433732313a20617070726f76616c20746f2063757272656e74206f776e656044820152603960f91b60648201526084015b60405180910390fd5b336001600160a01b0382161480610a4b5750610a4b8133612c00565b610abd5760405162461bcd60e51b815260206004820152603d60248201527f4552433732313a20617070726f76652063616c6c6572206973206e6f7420746f60448201527f6b656e206f776e6572206f7220617070726f76656420666f7220616c6c0000006064820152608401610a26565b610ac783836133fd565b505050565b610b106040805160c081018252600080825260208083018290528284018290526060808401839052608084015283518085019094528184528301529060a082015290565b600082815260fe60209081526040808320815160c08101835281548152600182015481850152600282015460ff8082161515838601526101009091041615156060820152600382018054845181870281018701909552808552919592946080870194939192919084015b82821015610bc2576000848152602090819020604080518082019091526002850290910180546001600160a01b03168252600190810154828401529083529092019101610b7a565b505050908252506040805180820190915260048301546001600160a01b03168152600590920154602083810191909152015292915050565b610c04338261346b565b610c205760405162461bcd60e51b8152600401610a26906148c6565b610ac78383836134c9565b8433610c3682611839565b6001600160a01b031614610c5c5760405162461bcd60e51b8152600401610a2690614913565b856000805b60008381526101006020526040902054811015610ce1576003600084815261010060205260409020805483908110610c9b57610c9b61495b565b906000526020600020906007020160010160149054906101000a900460ff166005811115610ccb57610ccb614722565b03610cd95760019150610ce1565b600101610c61565b508015610d305760405162461bcd60e51b815260206004820152601f60248201527f50726f706572747920616c7265616479206265696e672066696e616e636564006044820152606401610a26565b600088815261010060205260408120543391600187610d4f8a83614987565b610d599190614a7e565b610d639190614a8a565b87610d6f8a6001614987565b610d799190614a7e565b610d83908a614a9d565b610d8d9190614ab4565b610d97908a614a9d565b6040519091506001600160a01b038416908a156108fc02908b906000818181858888f19350505050158015610dd0573d6000803e3d6000fd5b50610ddb8a8c6133fd565b60008b81526101006020818152604092839020835192830184528e83526001600160a01b038e16918301919091529181016001815260208082018d905260408083018d9052606083018c905260808301869052600060a09093018390528454600180820187559584529282902084516007909402019283559083015193820180546001600160a01b031981166001600160a01b03909616958617825591840151939492939290916001600160a81b03191617600160a01b836005811115610ea457610ea4614722565b0217905550606082015181600201556080820151816003015560a0820151816004015560c0820151816005015560e082015181600601555050826001600160a01b03168a6001600160a01b03167f4205b7bf0dc285765b14df5a0705e12690c033399dda27c398dd939e877444698d85604051610f2b929190918252602082015260400190565b60405180910390a35050505050505050505050565b6000828152610100602052604090205482908290610f705760405162461bcd60e51b8152600401610a2690614ad6565b6001600083815261010060205260409020805483908110610f9357610f9361495b565b906000526020600020906007020160010160149054906101000a900460ff166005811115610fc357610fc3614722565b146110105760405162461bcd60e51b815260206004820152601d60248201527f46696e616e63696e672072657175657374206e6f742070656e64696e670000006044820152606401610a26565b6000848152610100602052604090205461103c5760405162461bcd60e51b8152600401610a2690614ad6565b600160008581526101006020526040902080548590811061105f5761105f61495b565b906000526020600020906007020160010160149054906101000a900460ff16600581111561108f5761108f614722565b146110ac5760405162461bcd60e51b8152600401610a2690614b1c565b6000848152610100602052604090208054339190859081106110d0576110d061495b565b60009182526020909120600160079092020101546001600160a01b0316146111355760405162461bcd60e51b815260206004820152601860248201527721b0b63632b91034b9903737ba103a3432903632b73232b960411b6044820152606401610a26565b6000848152610100602052604090208054600291908590811061115a5761115a61495b565b60009182526020909120600160079092020101805460ff60a01b1916600160a01b83600581111561118d5761118d614722565b02179055506000848152609960209081526040918290205482518781529182018690526001600160a01b03169133917fc382dc9808425d8488afd57f8db541349438287b10c168ea8c4465f171ea7a1491015b60405180910390a350505050565b610ac7838383604051806020016040528060008152506128f9565b816112138161362d565b61122f5760405162461bcd60e51b8152600401610a2690614b6a565b823361123a82611839565b6001600160a01b0316146112605760405162461bcd60e51b8152600401610a2690614913565b6112698461362d565b6112855760405162461bcd60e51b8152600401610a2690614b6a565b600083116112d55760405162461bcd60e51b815260206004820152601960248201527f53656c6c2070726963652063616e6e6f74206265207a65726f000000000000006044820152606401610a26565b600084815260fe60205260409020548490036113335760405162461bcd60e51b815260206004820152601a60248201527f50726f706572747920697320616c7265616479206c69737465640000000000006044820152606401610a26565b60fd805490600061134383614bae565b9091555050600084815260fe6020526040902084815560018101849055336001600160a01b03167f1518ffac149698f404e82117efa8b67d99c365490eefe4e0f91856a93ca8d9c186866040516113a4929190918252602082015260400190565b60405180910390a25050505050565b806113bd8161362d565b6113d95760405162461bcd60e51b8152600401610a2690614b6a565b600082815260fe6020526040902054829081146114085760405162461bcd60e51b8152600401610a2690614bc7565b600083815260fe602052604081206005015461142c90670de0b6b3a7640000614a9d565b600085815260fe60205260409020600401549091506001600160a01b031633146114a95760405162461bcd60e51b815260206004820152602860248201527f43616c6c6572206973206e6f7420746865206275796572206f6620746869732060448201526770726f706572747960c01b6064820152608401610a26565b803410156114f05760405162461bcd60e51b8152602060048201526014602482015273125b9cdd59999a58da595b9d081c185e5b595b9d60621b6044820152606401610a26565b600084815260fe602052604090206002015460ff16156115615760405162461bcd60e51b815260206004820152602660248201527f5472616e7366657220616c726561647920617070726f7665642062792074686560448201526510313abcb2b960d11b6064820152608401610a26565b600084815260fe60205260409020600201805460ff191660011790556115843390565b6001600160a01b03166108fc61159a8334614a8a565b6040518115909202916000818181858888f193505050501580156115c2573d6000803e3d6000fd5b506115cc8461364a565b50505050565b816115dc8161362d565b6115f85760405162461bcd60e51b8152600401610a2690614b6a565b600083815260fe6020526040902054839081146116275760405162461bcd60e51b8152600401610a2690614bc7565b8333600080805b600085815260fe60205260409020600301548110156116a657600085815260fe6020526040902060030180546001600160a01b0386169190839081106116765761167661495b565b60009182526020909120600290910201546001600160a01b03160361169e57600191506116a6565b60010161162e565b5081156116cf57806116ca5760405162461bcd60e51b8152600401610a2690614bf7565b6116ed565b80156116ed5760405162461bcd60e51b8152600401610a2690614c2e565b6116f688611839565b6001600160a01b031633036117405760405162461bcd60e51b815260206004820152601060248201526f13dddb995c8818d85b9b9bdd08189a5960821b6044820152606401610a26565b600088815260fe60205260409020600401546001600160a01b03161580156117775750600088815260fe6020526040902060050154155b6117935760405162461bcd60e51b8152600401610a2690614c70565b600088815260fe6020908152604080832081518083018352338082528185018d81526003909301805460018082018355918852968690209251600290970290920180546001600160a01b0319166001600160a01b03909716969096178655915194019390935580518b81529182018a90527f4a68fde121386ffcfc9555407bfb38625033a0d0d3726b00f56b4ab304b55447910160405180910390a25050505050505050565b6000818152609960205260408120546001600160a01b0316806108f35760405162461bcd60e51b8152602060048201526018602482015277115490cdcc8c4e881a5b9d985b1a59081d1bdad95b88125160421b6044820152606401610a26565b60006001600160a01b0382166119035760405162461bcd60e51b815260206004820152602960248201527f4552433732313a2061646472657373207a65726f206973206e6f7420612076616044820152683634b21037bbb732b960b91b6064820152608401610a26565b506001600160a01b03166000908152609a602052604090205490565b611927613897565b61193160006138f1565b565b8061193d8161362d565b6119595760405162461bcd60e51b8152600401610a2690614b6a565b600082815260fe6020526040902054829081146119885760405162461bcd60e51b8152600401610a2690614bc7565b5050600090815260fe6020526040812060028101805461ffff191690556004810180546001600160a01b031916905560050155565b816119c78161362d565b6119e35760405162461bcd60e51b8152600401610a2690614b6a565b600083815260fe602052604090205483908114611a125760405162461bcd60e51b8152600401610a2690614bc7565b838360016000805b600085815260fe6020526040902060030154811015611a9257600085815260fe6020526040902060030180546001600160a01b038616919083908110611a6257611a6261495b565b60009182526020909120600290910201546001600160a01b031603611a8a5760019150611a92565b600101611a1a565b508115611abb5780611ab65760405162461bcd60e51b8152600401610a2690614bf7565b611ad9565b8015611ad95760405162461bcd60e51b8152600401610a2690614c2e565b60005b600089815260fe6020526040902060030154811015611c3857600089815260fe6020526040902060030180546001600160a01b038a16919083908110611b2457611b2461495b565b60009182526020909120600290910201546001600160a01b031603611c3057600089815260fe602052604090206003018054611b6290600190614a8a565b81548110611b7257611b7261495b565b906000526020600020906002020160fe60008b81526020019081526020016000206003018281548110611ba757611ba761495b565b60009182526020808320845460029093020180546001600160a01b0319166001600160a01b0390931692909217825560019384015493909101929092558a815260fe90915260409020600301805480611c0257611c02614c99565b60008281526020812060026000199093019283020180546001600160a01b0319168155600101559055611c38565b600101611adc565b505050505050505050565b80611c4d8161362d565b611c695760405162461bcd60e51b8152600401610a2690614b6a565b600082815260fe602052604090205482908114611c985760405162461bcd60e51b8152600401610a2690614bc7565b611ca183611839565b6001600160a01b0316336001600160a01b031614611cd15760405162461bcd60e51b8152600401610a2690614913565b600083815260fe6020526040902060020154610100900460ff1615611d485760405162461bcd60e51b815260206004820152602760248201527f5472616e7366657220616c726561647920617070726f766564206279207468656044820152661039b2b63632b960c91b6064820152608401610a26565b600083815260fe60205260409020600201805461ff001916610100179055610ac78361364a565b600054610100900460ff1615808015611d8f5750600054600160ff909116105b80611da95750303b158015611da9575060005460ff166001145b611e0c5760405162461bcd60e51b815260206004820152602e60248201527f496e697469616c697a61626c653a20636f6e747261637420697320616c72656160448201526d191e481a5b9a5d1a585b1a5e995960921b6064820152608401610a26565b6000805460ff191660011790558015611e2f576000805461ff0019166101001790555b611e37613943565b611e3f613972565b611e47613982565b8015611e8d576000805461ff0019169055604051600181527f7f26b83ff96e1f2b6a682f133852f6798a09c465da95921460cefb38474024989060200160405180910390a15b50565b60005b60ff54811015611f0c57816001600160a01b031660ff8281548110611eba57611eba61495b565b6000918252602090912001546001600160a01b031603611f045760ff8181548110611ee757611ee761495b565b600091825260209091200180546001600160a01b03191690555050565b600101611e93565b5050565b80611f1a8161362d565b611f365760405162461bcd60e51b8152600401610a2690614b6a565b8133611f4182611839565b6001600160a01b031614611f675760405162461bcd60e51b8152600401610a2690614913565b600083815260fe602052604090205483908114611f965760405162461bcd60e51b8152600401610a2690614bc7565b600084815260fe602052604090206002015460ff16158015611fcf5750600084815260fe6020526040902060020154610100900460ff16155b61201b5760405162461bcd60e51b815260206004820152601a60248201527f50726f706572747920697320756e646572207472616e736665720000000000006044820152606401610a26565b60fd805490600061202b83614caf565b9091555050600084815260fe602052604081208181556001810182905560028101805461ffff191690559061206360038301826141ab565b506004810180546001600160a01b03191690556000600590910181905584815260fe6020526040812061209b916003909101906141ab565b60405184815233907f99700a6ee3c3e4d026c56e3d3618a8157ca8e5efc0c4a4a3e555a9744d25fdbd9060200160405180910390a250505050565b6060600060fd5467ffffffffffffffff8111156120f5576120f561461a565b60405190808252806020026020018201604052801561216a57816020015b6121576040805160c081018252600080825260208083018290528284018290526060808401839052608084015283518085019094528184528301529060a082015290565b8152602001906001900390816121135790505b509050600060015b60fb5481116122be57600081815260fe60205260409020548190036122a357600081815260fe60209081526040808320815160c08101835281548152600182015481850152600282015460ff8082161515838601526101009091041615156060820152600382018054845181870281018701909552808552919592946080870194939192919084015b82821015612243576000848152602090819020604080518082019091526002850290910180546001600160a01b031682526001908101548284015290835290920191016121fb565b505050908252506040805180820190915260048301546001600160a01b03168152600590920154602083810191909152015283518490849081106122895761228961495b565b6020026020010181905250818061229f90614bae565b9250505b60fd5482146122be57806122b681614bae565b915050612172565b509092915050565b816122d08161362d565b6122ec5760405162461bcd60e51b8152600401610a2690614b6a565b82336122f782611839565b6001600160a01b03161461231d5760405162461bcd60e51b8152600401610a2690614913565b600084815260fe60205260409020548490811461234c5760405162461bcd60e51b8152600401610a2690614bc7565b848460016000805b600085815260fe60205260409020600301548110156123cc57600085815260fe6020526040902060030180546001600160a01b03861691908390811061239c5761239c61495b565b60009182526020909120600290910201546001600160a01b0316036123c457600191506123cc565b600101612354565b5081156123f557806123f05760405162461bcd60e51b8152600401610a2690614bf7565b612413565b80156124135760405162461bcd60e51b8152600401610a2690614c2e565b600089815260fe60205260409020600401546001600160a01b031615801561244a5750600089815260fe6020526040902060050154155b6124665760405162461bcd60e51b8152600401610a2690614c70565b600089815260fe60205260408120600201805461ff0019166101001790555b60008a815260fe60205260409020600301548110156125685760008a815260fe6020526040902060030180546001600160a01b038b169190839081106124cd576124cd61495b565b60009182526020909120600290910201546001600160a01b0316036125605760008a815260fe6020526040902060030180548290811061250f5761250f61495b565b600091825260208083208d845260fe9091526040909220600290910290910180546004830180546001600160a01b0319166001600160a01b0390921691909117905560010154600590910155612568565b600101612485565b50600089815260fe60205260408120612586916003909101906141ab565b600089815260fe60209081526040918290206005015482518c815291820152815133927f7d2cfbbef328a1f13d4e8eec09f7ceddde17a22a204103792e8d6ae856e4618f928290030190a2505050505050505050565b60ff81815481106125ec57600080fd5b6000918252602090912001546001600160a01b0316905081565b6060609880546109089061488c565b606060008061262384611899565b905060008167ffffffffffffffff8111156126405761264061461a565b60405190808252806020026020018201604052801561269557816020015b61268260405180606001604052806000815260200160608152602001600081525090565b81526020019060019003908161265e5790505b50905060015b60fb5481116127ce57856001600160a01b03166126b782611839565b6001600160a01b0316036127b55760fc6000828152602001908152602001600020604051806060016040529081600082015481526020016001820180546126fd9061488c565b80601f01602080910402602001604051908101604052809291908181526020018280546127299061488c565b80156127765780601f1061274b57610100808354040283529160200191612776565b820191906000526020600020905b81548152906001019060200180831161275957829003601f168201915b5050505050815260200160028201548152505082858151811061279b5761279b61495b565b602002602001018190525083806127b190614bae565b9450505b8383146127ce57806127c681614bae565b91505061269b565b50949350505050565b611f0c338383613991565b816127ec8161362d565b6128085760405162461bcd60e51b8152600401610a2690614b6a565b600083815260fe602052604090206002015460ff161580156128415750600083815260fe6020526040902060020154610100900460ff16155b6128aa5760405162461bcd60e51b815260206004820152603460248201527f50726f706572747920697320756e646572207472616e736665722c2070726963604482015273195cc818d85b9b9bdd0818994818da185b99d95960621b6064820152608401610a26565b6128b383611839565b6001600160a01b0316336001600160a01b0316146128e35760405162461bcd60e51b8152600401610a2690614913565b50600091825260fc602052604090912060020155565b612903338361346b565b61291f5760405162461bcd60e51b8152600401610a26906148c6565b6115cc84848484613a5f565b806129358161362d565b6129515760405162461bcd60e51b8152600401610a2690614b6a565b813361295c82611839565b6001600160a01b0316146129825760405162461bcd60e51b8152600401610a2690614913565b61298b8361362d565b6129a75760405162461bcd60e51b8152600401610a2690614b6a565b6129b083613a92565b600083815260fc60205260408120818155906129cf60018301826141cc565b50600060029190910181905560fb8054916129e983614caf565b91905055506129f53390565b6001600160a01b03167f8e2f5fcc57c31738b03aa91accdd55b13dc355a4fa1707d953f49c973e18e6e484604051612a2f91815260200190565b60405180910390a2505050565b6101006020528160005260406000208181548110612a5957600080fd5b600091825260209091206007909102018054600182015460028301546003840154600485015460058601546006909601549497506001600160a01b0384169650600160a01b90930460ff169491939092919088565b6060612ab9826133ad565b600082815260c9602052604081208054612ad29061488c565b80601f0160208091040260200160405190810160405280929190818152602001828054612afe9061488c565b8015612b4b5780601f10612b2057610100808354040283529160200191612b4b565b820191906000526020600020905b815481529060010190602001808311612b2e57829003601f168201915b505050505090506000612b6960408051602081019091526000815290565b90508051600003612b7b575092915050565b815115612bad578082604051602001612b95929190614cc6565b60405160208183030381529060405292505050919050565b612bb684613ad2565b949350505050565b612bc6613897565b60405162461bcd60e51b815260206004820152600f60248201526e139bdd081a5b5c1b195b595b9d1959608a1b6044820152606401610a26565b6001600160a01b039182166000908152609c6020908152604080832093909416825291909152205460ff1690565b80612c388161362d565b612c545760405162461bcd60e51b8152600401610a2690614b6a565b600082815260fe602052604090205482908114612c835760405162461bcd60e51b8152600401610a2690614bc7565b600083815260fe60205260409020600401546001600160a01b0316158015612cba5750600083815260fe6020526040902060050154155b612cd65760405162461bcd60e51b8152600401610a2690614c70565b600083815260fe6020526040902060010154341015612d375760405162461bcd60e51b815260206004820181905260248201527f496e73756666696369656e74207061796d656e7420666f7220627579206f75746044820152606401610a26565b600083815260fe602052604090819020600201805460ff19166001179055805180820190915280612d653390565b6001600160a01b039081168252600086815260fe60208181526040832060018101549582018690529289905290815284516004830180546001600160a01b031916919094161790925592015160059092019190915533906108fc90612dca9034614a8a565b6040518115909202916000818181858888f19350505050158015612df2573d6000803e3d6000fd5b50600083815260fe60209081526040918290206001015482518681529182015233917f9823c61ba42e817a0ba73273d875528a549abe0ba50bc8ce0f7ed5a9fb86c6879101612a2f565b612e44613897565b6001600160a01b038116612ea95760405162461bcd60e51b815260206004820152602660248201527f4f776e61626c653a206e6577206f776e657220697320746865207a65726f206160448201526564647265737360d01b6064820152608401610a26565b611e8d816138f1565b6000825111612ef95760405162461bcd60e51b81526020600482015260136024820152725552492063616e6e6f7420626520656d70747960681b6044820152606401610a26565b60fb8054906000612f0983614bae565b90915550506040805160608101825260fb548082526020808301868152838501869052600092835260fc9091529290208151815591519091906001820190612f519082614d45565b5060409190910151600290910155612f6b3360fb54613b46565b612f7760fb5483613b60565b336001600160a01b0316612f8c60fb54611839565b6001600160a01b031614612fd25760405162461bcd60e51b815260206004820152600d60248201526c13dddb995c881b9bdd081cd95d609a1b6044820152606401610a26565b60fb5460405190815233907f2728c9d3205d667bbc0eefdfeda366261b4d021949630c047f3e5834b30611ab9060200160405180910390a25050565b60fc60205260009081526040902080546001820180549192916130309061488c565b80601f016020809104026020016040519081016040528092919081815260200182805461305c9061488c565b80156130a95780601f1061307e576101008083540402835291602001916130a9565b820191906000526020600020905b81548152906001019060200180831161308c57829003601f168201915b5050505050908060020154905083565b60008281526101006020526040902054829082906130e95760405162461bcd60e51b8152600401610a2690614ad6565b600160008381526101006020526040902080548390811061310c5761310c61495b565b906000526020600020906007020160010160149054906101000a900460ff16600581111561313c5761313c614722565b146131895760405162461bcd60e51b815260206004820152601d60248201527f46696e616e63696e672072657175657374206e6f742070656e64696e670000006044820152606401610a26565b600084815261010060205260409020546131b55760405162461bcd60e51b8152600401610a2690614ad6565b60016000858152610100602052604090208054859081106131d8576131d861495b565b906000526020600020906007020160010160149054906101000a900460ff16600581111561320857613208614722565b146132255760405162461bcd60e51b8152600401610a2690614b1c565b6000848152610100602052604090208054339190859081106132495761324961495b565b60009182526020909120600160079092020101546001600160a01b0316146132ae5760405162461bcd60e51b815260206004820152601860248201527721b0b63632b91034b9903737ba103a3432903632b73232b960411b6044820152606401610a26565b600084815261010060205260409020805460039190859081106132d3576132d361495b565b60009182526020909120600160079092020101805460ff60a01b1916600160a01b83600581111561330657613306614722565b02179055506000848152609960209081526040918290205482518781529182018690526001600160a01b03169133917fef5fb41d427f3beab94b7933990405d1ca172d79f4761fa2dad7b6b6d1481aee91016111e0565b60006001600160e01b031982166380ac58cd60e01b148061338e57506001600160e01b03198216635b5e139f60e01b145b806108f357506301ffc9a760e01b6001600160e01b03198316146108f3565b6133b68161362d565b611e8d5760405162461bcd60e51b8152602060048201526018602482015277115490cdcc8c4e881a5b9d985b1a59081d1bdad95b88125160421b6044820152606401610a26565b6000818152609b6020526040902080546001600160a01b0319166001600160a01b038416908117909155819061343282611839565b6001600160a01b03167f8c5be1e5ebec7d5bd14f71427d1e84f3dd0314c0f7b2291e5b200ac8c7c3b92560405160405180910390a45050565b60008061347783611839565b9050806001600160a01b0316846001600160a01b0316148061349e575061349e8185612c00565b80612bb65750836001600160a01b03166134b78461098b565b6001600160a01b031614949350505050565b826001600160a01b03166134dc82611839565b6001600160a01b0316146135025760405162461bcd60e51b8152600401610a2690614e05565b6001600160a01b0382166135645760405162461bcd60e51b8152602060048201526024808201527f4552433732313a207472616e7366657220746f20746865207a65726f206164646044820152637265737360e01b6064820152608401610a26565b826001600160a01b031661357782611839565b6001600160a01b03161461359d5760405162461bcd60e51b8152600401610a2690614e05565b6000818152609b6020908152604080832080546001600160a01b03199081169091556001600160a01b03878116808652609a8552838620805460001901905590871680865283862080546001019055868652609990945282852080549092168417909155905184937fddf252ad1be2c89b69c2b068fc378daa952ba7f163c4a11628f55a4df523b3ef91a4505050565b6000908152609960205260409020546001600160a01b0316151590565b806136548161362d565b6136705760405162461bcd60e51b8152600401610a2690614b6a565b600082815260fe602052604090206002015460ff1680156136a75750600082815260fe6020526040902060020154610100900460ff165b6137015760405162461bcd60e51b815260206004820152602560248201527f5472616e73666572206e6f7420617070726f76656420627920626f7468207061604482015264727469657360d81b6064820152608401610a26565b600082815260fe60205260408120600401546001600160a01b03169061372684611839565b600085815260fe6020526040808220600501549051929350916001600160a01b0384169183156108fc02918491818181858888f19350505050158015613770573d6000803e3d6000fd5b5061377c8284876134c9565b826001600160a01b031661378f86611839565b6001600160a01b0316146137d75760405162461bcd60e51b815260206004820152600f60248201526e151c985b9cd9995c8819985a5b1959608a1b6044820152606401610a26565b600085815260fe602052604081208181556001810182905560028101805461ffff191690559061380a60038301826141ab565b506004810180546001600160a01b03191690556000600590910181905560fd80549161383583614caf565b9190505550826001600160a01b0316826001600160a01b03167f9ed053bb818ff08b8353cd46f78db1f0799f31c9e4458fdb425c10eccd2efc448784604051613888929190918252602082015260400190565b60405180910390a35050505050565b6033546001600160a01b031633146119315760405162461bcd60e51b815260206004820181905260248201527f4f776e61626c653a2063616c6c6572206973206e6f7420746865206f776e65726044820152606401610a26565b603380546001600160a01b038381166001600160a01b0319831681179093556040519116919082907f8be0079c531659141344cd1fd0a4f28419497f9722a3daafe3b4186f6b6457e090600090a35050565b600054610100900460ff1661396a5760405162461bcd60e51b8152600401610a2690614e4a565b611931613c1c565b61397a613943565b611931613c4c565b61398a613c4c565b600060fd55565b816001600160a01b0316836001600160a01b0316036139f25760405162461bcd60e51b815260206004820152601960248201527f4552433732313a20617070726f766520746f2063616c6c6572000000000000006044820152606401610a26565b6001600160a01b038381166000818152609c6020908152604080832094871680845294825291829020805460ff191686151590811790915591519182527f17307eab39ab6107e8899845ad3d59bd9653f200f220920489ca2b5937696c31910160405180910390a3505050565b613a6a8484846134c9565b613a7684848484613c99565b6115cc5760405162461bcd60e51b8152600401610a2690614e95565b613a9b81613d9a565b600081815260c9602052604090208054613ab49061488c565b159050611e8d57600081815260c960205260408120611e8d916141cc565b6060613add826133ad565b6000613af460408051602081019091526000815290565b90506000815111613b145760405180602001604052806000815250613b3f565b80613b1e84613e2f565b604051602001613b2f929190614cc6565b6040516020818303038152906040525b9392505050565b611f0c828260405180602001604052806000815250613ec2565b613b698261362d565b613bcc5760405162461bcd60e51b815260206004820152602e60248201527f45524337323155524953746f726167653a2055524920736574206f66206e6f6e60448201526d32bc34b9ba32b73a103a37b5b2b760911b6064820152608401610a26565b600082815260c960205260409020613be48282614d45565b506040518281527ff8e1a15aba9398e019f0b49df1a4fde98ee17ae345cb5f6b5e2c27f5033e8ce79060200160405180910390a15050565b600054610100900460ff16613c435760405162461bcd60e51b8152600401610a2690614e4a565b611931336138f1565b613c926040518060400160405280600881526020016750726f706572747960c01b81525060405180604001604052806004815260200163050524f560e41b815250613ef5565b600060fb55565b60006001600160a01b0384163b15613d8f57604051630a85bd0160e11b81526001600160a01b0385169063150b7a0290613cdd903390899088908890600401614ee7565b6020604051808303816000875af1925050508015613d18575060408051601f3d908101601f19168201909252613d1591810190614f1a565b60015b613d75573d808015613d46576040519150601f19603f3d011682016040523d82523d6000602084013e613d4b565b606091505b508051600003613d6d5760405162461bcd60e51b8152600401610a2690614e95565b805181602001fd5b6001600160e01b031916630a85bd0160e11b149050612bb6565b506001949350505050565b6000613da582611839565b9050613db082611839565b6000838152609b6020908152604080832080546001600160a01b03199081169091556001600160a01b038516808552609a845282852080546000190190558785526099909352818420805490911690555192935084927fddf252ad1be2c89b69c2b068fc378daa952ba7f163c4a11628f55a4df523b3ef908390a45050565b60606000613e3c83613f26565b600101905060008167ffffffffffffffff811115613e5c57613e5c61461a565b6040519080825280601f01601f191660200182016040528015613e86576020820181803683370190505b5090508181016020015b600019016f181899199a1a9b1b9c1cb0b131b232b360811b600a86061a8153600a8504945084613e9057509392505050565b613ecc8383613ffe565b613ed96000848484613c99565b610ac75760405162461bcd60e51b8152600401610a2690614e95565b600054610100900460ff16613f1c5760405162461bcd60e51b8152600401610a2690614e4a565b611f0c828261416b565b60008072184f03e93ff9f4daa797ed6e38ed64bf6a1f0160401b8310613f655772184f03e93ff9f4daa797ed6e38ed64bf6a1f0160401b830492506040015b6d04ee2d6d415b85acef81000000008310613f91576d04ee2d6d415b85acef8100000000830492506020015b662386f26fc100008310613faf57662386f26fc10000830492506010015b6305f5e1008310613fc7576305f5e100830492506008015b6127108310613fdb57612710830492506004015b60648310613fed576064830492506002015b600a83106108f35760010192915050565b6001600160a01b0382166140545760405162461bcd60e51b815260206004820181905260248201527f4552433732313a206d696e7420746f20746865207a65726f20616464726573736044820152606401610a26565b61405d8161362d565b156140aa5760405162461bcd60e51b815260206004820152601c60248201527f4552433732313a20746f6b656e20616c7265616479206d696e746564000000006044820152606401610a26565b6140b38161362d565b156141005760405162461bcd60e51b815260206004820152601c60248201527f4552433732313a20746f6b656e20616c7265616479206d696e746564000000006044820152606401610a26565b6001600160a01b0382166000818152609a6020908152604080832080546001019055848352609990915280822080546001600160a01b0319168417905551839291907fddf252ad1be2c89b69c2b068fc378daa952ba7f163c4a11628f55a4df523b3ef908290a45050565b600054610100900460ff166141925760405162461bcd60e51b8152600401610a2690614e4a565b609761419e8382614d45565b506098610ac78282614d45565b5080546000825560020290600052602060002090810190611e8d9190614206565b5080546141d89061488c565b6000825580601f106141e8575050565b601f016020900490600052602060002090810190611e8d9190614230565b5b8082111561422c5780546001600160a01b031916815560006001820155600201614207565b5090565b5b8082111561422c5760008155600101614231565b6001600160e01b031981168114611e8d57600080fd5b60006020828403121561426d57600080fd5b8135613b3f81614245565b60005b8381101561429357818101518382015260200161427b565b50506000910152565b600081518084526142b4816020860160208601614278565b601f01601f19169290920160200192915050565b602081526000613b3f602083018461429c565b6000602082840312156142ed57600080fd5b5035919050565b80356001600160a01b038116811461430b57600080fd5b919050565b6000806040838503121561432357600080fd5b61432c836142f4565b946020939093013593505050565b600060e0830182518452602080840151602086015260408085015115156040870152606085015115156060870152608085015160e0608088015283815180865261010089019150602083019550600092505b808310156143c6576143b282875180516001600160a01b03168252602090810151910152565b94840194600192909201919083019061438c565b5060a087015194506143ee60a089018680516001600160a01b03168252602090810151910152565b979650505050505050565b602081526000613b3f602083018461433a565b60008060006060848603121561442157600080fd5b61442a846142f4565b9250614438602085016142f4565b9150604084013590509250925092565b600080600080600060a0868803121561446057600080fd5b85359450614470602087016142f4565b94979496505050506040830135926060810135926080909101359150565b600080604083850312156144a157600080fd5b50508035926020909101359150565b6000602082840312156144c257600080fd5b613b3f826142f4565b600080604083850312156144de57600080fd5b823591506144ee602084016142f4565b90509250929050565b600060208083016020845280855180835260408601915060408160051b87010192506020870160005b8281101561454e57603f1988860301845261453c85835161433a565b94509285019290850190600101614520565b5092979650505050505050565b600060208083018184528085518083526040925060408601915060408160051b87010184880160005b838110156145d057603f19898403018552815160608151855288820151818a8701526145b28287018261429c565b92890151958901959095525094870194925090860190600101614584565b509098975050505050505050565b600080604083850312156145f157600080fd5b6145fa836142f4565b91506020830135801515811461460f57600080fd5b809150509250929050565b634e487b7160e01b600052604160045260246000fd5b600067ffffffffffffffff8084111561464b5761464b61461a565b604051601f8501601f19908116603f011681019082821181831017156146735761467361461a565b8160405280935085815286868601111561468c57600080fd5b858560208301376000602087830101525050509392505050565b600080600080608085870312156146bc57600080fd5b6146c5856142f4565b93506146d3602086016142f4565b925060408501359150606085013567ffffffffffffffff8111156146f657600080fd5b8501601f8101871361470757600080fd5b61471687823560208401614630565b91505092959194509250565b634e487b7160e01b600052602160045260246000fd5b8881526001600160a01b038816602082015261010081016006881061476d57634e487b7160e01b600052602160045260246000fd5b8760408301528660608301528560808301528460a08301528360c08301528260e08301529998505050505050505050565b85815260208082018690528415156040830152831515606083015282516001600160a01b0316608083015282015160a082015260c081015b9695505050505050565b600080604083850312156147f357600080fd5b6147fc836142f4565b91506144ee602084016142f4565b6000806040838503121561481d57600080fd5b823567ffffffffffffffff81111561483457600080fd5b8301601f8101851361484557600080fd5b61485485823560208401614630565b95602094909401359450505050565b83815260606020820152600061487c606083018561429c565b9050826040830152949350505050565b600181811c908216806148a057607f821691505b6020821081036148c057634e487b7160e01b600052602260045260246000fd5b50919050565b6020808252602d908201527f4552433732313a2063616c6c6572206973206e6f7420746f6b656e206f776e6560408201526c1c881bdc88185c1c1c9bdd9959609a1b606082015260800190565b60208082526028908201527f43616c6c6572206973206e6f7420746865206f776e6572206f6620746869732060408201526770726f706572747960c01b606082015260800190565b634e487b7160e01b600052603260045260246000fd5b634e487b7160e01b600052601160045260246000fd5b808201808211156108f3576108f3614971565b600181815b808511156149d55781600019048211156149bb576149bb614971565b808516156149c857918102915b93841c939080029061499f565b509250929050565b6000826149ec575060016108f3565b816149f9575060006108f3565b8160018114614a0f5760028114614a1957614a35565b60019150506108f3565b60ff841115614a2a57614a2a614971565b50506001821b6108f3565b5060208310610133831016604e8410600b8410161715614a58575081810a6108f3565b614a62838361499a565b8060001904821115614a7657614a76614971565b029392505050565b6000613b3f83836149dd565b818103818111156108f3576108f3614971565b80820281158282048414176108f3576108f3614971565b600082614ad157634e487b7160e01b600052601260045260246000fd5b500490565b60208082526026908201527f4e6f2066696e616e63696e67207265717565737420666f7220746869732070726040820152656f706572747960d01b606082015260800190565b6020808252602e908201527f46696e616e63696e67207265717565737420616c726561647920617070726f7660408201526d1959081bdc881c995a9958dd195960921b606082015260800190565b60208082526024908201527f50726f70657274792077697468207468697320494420646f6573206e6f7420656040820152631e1a5cdd60e21b606082015260800190565b600060018201614bc057614bc0614971565b5060010190565b602080825260169082015275141c9bdc195c9d1e481a5cc81b9bdd081b1a5cdd195960521b604082015260600190565b60208082526017908201527f4275796572206e6f7420666f756e6420696e2062696473000000000000000000604082015260600190565b60208082526022908201527f427579657220616c726561647920626964206f6e20746869732070726f706572604082015261747960f01b606082015260800190565b6020808252600f908201526e109a5908185b1c9958591e481cd95d608a1b604082015260600190565b634e487b7160e01b600052603160045260246000fd5b600081614cbe57614cbe614971565b506000190190565b60008351614cd8818460208801614278565b835190830190614cec818360208801614278565b01949350505050565b601f821115610ac7576000816000526020600020601f850160051c81016020861015614d1e5750805b601f850160051c820191505b81811015614d3d57828155600101614d2a565b505050505050565b815167ffffffffffffffff811115614d5f57614d5f61461a565b614d7381614d6d845461488c565b84614cf5565b602080601f831160018114614da85760008415614d905750858301515b600019600386901b1c1916600185901b178555614d3d565b600085815260208120601f198616915b82811015614dd757888601518255948401946001909101908401614db8565b5085821015614df55787850151600019600388901b60f8161c191681555b5050505050600190811b01905550565b60208082526025908201527f4552433732313a207472616e736665722066726f6d20696e636f72726563742060408201526437bbb732b960d91b606082015260800190565b6020808252602b908201527f496e697469616c697a61626c653a20636f6e7472616374206973206e6f74206960408201526a6e697469616c697a696e6760a81b606082015260800190565b60208082526032908201527f4552433732313a207472616e7366657220746f206e6f6e20455243373231526560408201527131b2b4bb32b91034b6b83632b6b2b73a32b960711b606082015260800190565b6001600160a01b03858116825284166020820152604081018390526080606082018190526000906147d69083018461429c565b600060208284031215614f2c57600080fd5b8151613b3f8161424556fea2646970667358221220577642f20b744668655c63033558284ed0ef5d4f0cab43212593652bcfddd4d164736f6c63430008170033",
  "linkReferences": {},
  "deployedLinkReferences": {}
}