{
  "_format": "hh-sol-artifact-1",
  "contractName": "EthState",
  "sourceName": "contracts/EthState.sol",
  "abi": [
    {
      "anonymous": false,
      "inputs": [
        {
          "indexed": true,
          "internalType": "address",
          "name": "_seller",
          "type": "address"
        },
        {
          "indexed": false,
          "internalType": "uint256",
          "name": "_propertyId",
          "type": "uint256"
        },
        {
          "indexed": false,
          "internalType": "uint256",
          "name": "_bidPrice",
          "type": "uint256"
        }
      ],
      "name": "Accept",
      "type": "event"
    },
    {
      "anonymous": false,
      "inputs": [
        {
          "indexed": true,
          "internalType": "address",
          "name": "_owner",
          "type": "address"
        },
        {
          "indexed": false,
          "internalType": "uint256",
          "name": "_propertyId",
          "type": "uint256"
        }
      ],
      "name": "Add",
      "type": "event"
    },
    {
      "anonymous": false,
      "inputs": [
        {
          "indexed": true,
          "internalType": "address",
          "name": "owner",
          "type": "address"
        },
        {
          "indexed": true,
          "internalType": "address",
          "name": "approved",
          "type": "address"
        },
        {
          "indexed": true,
          "internalType": "uint256",
          "name": "tokenId",
          "type": "uint256"
        }
      ],
      "name": "Approval",
      "type": "event"
    },
    {
      "anonymous": false,
      "inputs": [
        {
          "indexed": true,
          "internalType": "address",
          "name": "owner",
          "type": "address"
        },
        {
          "indexed": true,
          "internalType": "address",
          "name": "operator",
          "type": "address"
        },
        {
          "indexed": false,
          "internalType": "bool",
          "name": "approved",
          "type": "bool"
        }
      ],
      "name": "ApprovalForAll",
      "type": "event"
    },
    {
      "anonymous": false,
      "inputs": [
        {
          "indexed": false,
          "internalType": "uint256",
          "name": "_fromTokenId",
          "type": "uint256"
        },
        {
          "indexed": false,
          "internalType": "uint256",
          "name": "_toTokenId",
          "type": "uint256"
        }
      ],
      "name": "BatchMetadataUpdate",
      "type": "event"
    },
    {
      "anonymous": false,
      "inputs": [
        {
          "indexed": true,
          "internalType": "address",
          "name": "_buyer",
          "type": "address"
        },
        {
          "indexed": false,
          "internalType": "uint256",
          "name": "_propertyId",
          "type": "uint256"
        },
        {
          "indexed": false,
          "internalType": "uint256",
          "name": "_buyOutPrice",
          "type": "uint256"
        }
      ],
      "name": "BuyOut",
      "type": "event"
    },
    {
      "anonymous": false,
      "inputs": [
        {
          "indexed": true,
          "internalType": "address",
          "name": "_lender",
          "type": "address"
        },
        {
          "indexed": true,
          "internalType": "address",
          "name": "_loaner",
          "type": "address"
        },
        {
          "indexed": false,
          "internalType": "uint256",
          "name": "_propertyId",
          "type": "uint256"
        },
        {
          "indexed": false,
          "internalType": "uint256",
          "name": "_financingId",
          "type": "uint256"
        }
      ],
      "name": "Default",
      "type": "event"
    },
    {
      "anonymous": false,
      "inputs": [
        {
          "indexed": true,
          "internalType": "address",
          "name": "_lender",
          "type": "address"
        },
        {
          "indexed": true,
          "internalType": "address",
          "name": "_loaner",
          "type": "address"
        },
        {
          "indexed": false,
          "internalType": "uint256",
          "name": "_propertyId",
          "type": "uint256"
        },
        {
          "indexed": false,
          "internalType": "uint256",
          "name": "financingId",
          "type": "uint256"
        }
      ],
      "name": "FinanceApproval",
      "type": "event"
    },
    {
      "anonymous": false,
      "inputs": [
        {
          "indexed": true,
          "internalType": "address",
          "name": "_lender",
          "type": "address"
        },
        {
          "indexed": true,
          "internalType": "address",
          "name": "_loaner",
          "type": "address"
        },
        {
          "indexed": false,
          "internalType": "uint256",
          "name": "_propertyId",
          "type": "uint256"
        },
        {
          "indexed": false,
          "internalType": "uint256",
          "name": "_financingId",
          "type": "uint256"
        }
      ],
      "name": "FinanceRejection",
      "type": "event"
    },
    {
      "anonymous": false,
      "inputs": [
        {
          "indexed": true,
          "internalType": "address",
          "name": "_lender",
          "type": "address"
        },
        {
          "indexed": true,
          "internalType": "address",
          "name": "_loaner",
          "type": "address"
        },
        {
          "indexed": false,
          "internalType": "uint256",
          "name": "_propertyId",
          "type": "uint256"
        },
        {
          "indexed": false,
          "internalType": "uint256",
          "name": "_financingId",
          "type": "uint256"
        }
      ],
      "name": "FinanceRequest",
      "type": "event"
    },
    {
      "anonymous": false,
      "inputs": [
        {
          "indexed": false,
          "internalType": "uint8",
          "name": "version",
          "type": "uint8"
        }
      ],
      "name": "Initialized",
      "type": "event"
    },
    {
      "anonymous": false,
      "inputs": [
        {
          "indexed": true,
          "internalType": "address",
          "name": "_seller",
          "type": "address"
        },
        {
          "indexed": false,
          "internalType": "uint256",
          "name": "_propertyId",
          "type": "uint256"
        },
        {
          "indexed": false,
          "internalType": "uint256",
          "name": "_sellPrice",
          "type": "uint256"
        }
      ],
      "name": "List",
      "type": "event"
    },
    {
      "anonymous": false,
      "inputs": [
        {
          "indexed": false,
          "internalType": "uint256",
          "name": "_tokenId",
          "type": "uint256"
        }
      ],
      "name": "MetadataUpdate",
      "type": "event"
    },
    {
      "anonymous": false,
      "inputs": [
        {
          "indexed": true,
          "internalType": "address",
          "name": "_buyer",
          "type": "address"
        },
        {
          "indexed": false,
          "internalType": "uint256",
          "name": "_propertyId",
          "type": "uint256"
        },
        {
          "indexed": false,
          "internalType": "uint256",
          "name": "_bidPrice",
          "type": "uint256"
        }
      ],
      "name": "Offer",
      "type": "event"
    },
    {
      "anonymous": false,
      "inputs": [
        {
          "indexed": true,
          "internalType": "address",
          "name": "previousOwner",
          "type": "address"
        },
        {
          "indexed": true,
          "internalType": "address",
          "name": "newOwner",
          "type": "address"
        }
      ],
      "name": "OwnershipTransferred",
      "type": "event"
    },
    {
      "anonymous": false,
      "inputs": [
        {
          "indexed": true,
          "internalType": "address",
          "name": "_lender",
          "type": "address"
        },
        {
          "indexed": true,
          "internalType": "address",
          "name": "_loaner",
          "type": "address"
        },
        {
          "indexed": false,
          "internalType": "uint256",
          "name": "_propertyId",
          "type": "uint256"
        },
        {
          "indexed": false,
          "internalType": "uint256",
          "name": "_financingId",
          "type": "uint256"
        }
      ],
      "name": "PaidOff",
      "type": "event"
    },
    {
      "anonymous": false,
      "inputs": [
        {
          "indexed": true,
          "internalType": "address",
          "name": "_lender",
          "type": "address"
        },
        {
          "indexed": true,
          "internalType": "address",
          "name": "_loaner",
          "type": "address"
        },
        {
          "indexed": false,
          "internalType": "uint256",
          "name": "_propertyId",
          "type": "uint256"
        },
        {
          "indexed": false,
          "internalType": "uint256",
          "name": "_financingId",
          "type": "uint256"
        },
        {
          "indexed": false,
          "internalType": "uint256",
          "name": "_paidMonths",
          "type": "uint256"
        },
        {
          "indexed": false,
          "internalType": "uint256",
          "name": "_monthlyPayment",
          "type": "uint256"
        }
      ],
      "name": "Payment",
      "type": "event"
    },
    {
      "anonymous": false,
      "inputs": [
        {
          "indexed": true,
          "internalType": "address",
          "name": "_owner",
          "type": "address"
        },
        {
          "indexed": false,
          "internalType": "uint256",
          "name": "_propertyId",
          "type": "uint256"
        }
      ],
      "name": "Remove",
      "type": "event"
    },
    {
      "anonymous": false,
      "inputs": [
        {
          "indexed": true,
          "internalType": "address",
          "name": "from",
          "type": "address"
        },
        {
          "indexed": true,
          "internalType": "address",
          "name": "to",
          "type": "address"
        },
        {
          "indexed": true,
          "internalType": "uint256",
          "name": "tokenId",
          "type": "uint256"
        }
      ],
      "name": "Transfer",
      "type": "event"
    },
    {
      "anonymous": false,
      "inputs": [
        {
          "indexed": true,
          "internalType": "address",
          "name": "_seller",
          "type": "address"
        },
        {
          "indexed": true,
          "internalType": "address",
          "name": "_buyer",
          "type": "address"
        },
        {
          "indexed": false,
          "internalType": "uint256",
          "name": "_propertyId",
          "type": "uint256"
        },
        {
          "indexed": false,
          "internalType": "uint256",
          "name": "_sellPrice",
          "type": "uint256"
        }
      ],
      "name": "Transfer",
      "type": "event"
    },
    {
      "anonymous": false,
      "inputs": [
        {
          "indexed": true,
          "internalType": "address",
          "name": "_seller",
          "type": "address"
        },
        {
          "indexed": false,
          "internalType": "uint256",
          "name": "_propertyId",
          "type": "uint256"
        }
      ],
      "name": "Unlist",
      "type": "event"
    },
    {
      "inputs": [
        {
          "internalType": "uint256",
          "name": "_propertyId",
          "type": "uint256"
        },
        {
          "internalType": "address",
          "name": "_buyer",
          "type": "address"
        }
      ],
      "name": "acceptOffer",
      "outputs": [],
      "stateMutability": "nonpayable",
      "type": "function"
    },
    {
      "inputs": [
        {
          "internalType": "address",
          "name": "_lender",
          "type": "address"
        }
      ],
      "name": "addLender",
      "outputs": [],
      "stateMutability": "nonpayable",
      "type": "function"
    },
    {
      "inputs": [
        {
          "internalType": "string",
          "name": "_uri",
          "type": "string"
        }
      ],
      "name": "addProperty",
      "outputs": [],
      "stateMutability": "nonpayable",
      "type": "function"
    },
    {
      "inputs": [
        {
          "internalType": "address",
          "name": "to",
          "type": "address"
        },
        {
          "internalType": "uint256",
          "name": "tokenId",
          "type": "uint256"
        }
      ],
      "name": "approve",
      "outputs": [],
      "stateMutability": "nonpayable",
      "type": "function"
    },
    {
      "inputs": [
        {
          "internalType": "uint256",
          "name": "_propertyId",
          "type": "uint256"
        },
        {
          "internalType": "uint256",
          "name": "_financingId",
          "type": "uint256"
        }
      ],
      "name": "approveFinancing",
      "outputs": [],
      "stateMutability": "nonpayable",
      "type": "function"
    },
    {
      "inputs": [
        {
          "internalType": "uint256",
          "name": "_propertyId",
          "type": "uint256"
        }
      ],
      "name": "approveTransferAsBuyer",
      "outputs": [],
      "stateMutability": "payable",
      "type": "function"
    },
    {
      "inputs": [
        {
          "internalType": "uint256",
          "name": "_propertyId",
          "type": "uint256"
        }
      ],
      "name": "approveTransferAsSeller",
      "outputs": [],
      "stateMutability": "nonpayable",
      "type": "function"
    },
    {
      "inputs": [
        {
          "internalType": "address",
          "name": "owner",
          "type": "address"
        }
      ],
      "name": "balanceOf",
      "outputs": [
        {
          "internalType": "uint256",
          "name": "",
          "type": "uint256"
        }
      ],
      "stateMutability": "view",
      "type": "function"
    },
    {
      "inputs": [
        {
          "internalType": "uint256",
          "name": "_propertyId",
          "type": "uint256"
        },
        {
          "internalType": "uint256",
          "name": "_bidPrice",
          "type": "uint256"
        }
      ],
      "name": "bid",
      "outputs": [],
      "stateMutability": "nonpayable",
      "type": "function"
    },
    {
      "inputs": [
        {
          "internalType": "uint256",
          "name": "_propertyId",
          "type": "uint256"
        }
      ],
      "name": "buyOut",
      "outputs": [],
      "stateMutability": "payable",
      "type": "function"
    },
    {
      "inputs": [],
      "name": "defaultOnFinancing",
      "outputs": [],
      "stateMutability": "nonpayable",
      "type": "function"
    },
    {
      "inputs": [
        {
          "internalType": "uint256",
          "name": "_propertyId",
          "type": "uint256"
        }
      ],
      "name": "endBiddingProcess",
      "outputs": [],
      "stateMutability": "nonpayable",
      "type": "function"
    },
    {
      "inputs": [
        {
          "internalType": "uint256",
          "name": "_propertyId",
          "type": "uint256"
        },
        {
          "internalType": "address",
          "name": "_lender",
          "type": "address"
        },
        {
          "internalType": "uint256",
          "name": "_loanAmount",
          "type": "uint256"
        },
        {
          "internalType": "uint256",
          "name": "_monthlyInterestRate",
          "type": "uint256"
        },
        {
          "internalType": "uint256",
          "name": "_durationInMonths",
          "type": "uint256"
        }
      ],
      "name": "financingRequest",
      "outputs": [],
      "stateMutability": "nonpayable",
      "type": "function"
    },
    {
      "inputs": [
        {
          "internalType": "uint256",
          "name": "",
          "type": "uint256"
        },
        {
          "internalType": "uint256",
          "name": "",
          "type": "uint256"
        }
      ],
      "name": "financings",
      "outputs": [
        {
          "internalType": "uint256",
          "name": "propertyId",
          "type": "uint256"
        },
        {
          "internalType": "address",
          "name": "lender",
          "type": "address"
        },
        {
          "internalType": "enum FinancingContract.FinancingStatus",
          "name": "status",
          "type": "uint8"
        },
        {
          "internalType": "uint256",
          "name": "loanAmount",
          "type": "uint256"
        },
        {
          "internalType": "uint256",
          "name": "monthlyInterestRate",
          "type": "uint256"
        },
        {
          "internalType": "uint256",
          "name": "durationInMonths",
          "type": "uint256"
        },
        {
          "internalType": "uint256",
          "name": "monthlyPayment",
          "type": "uint256"
        },
        {
          "internalType": "uint256",
          "name": "paidMonths",
          "type": "uint256"
        }
      ],
      "stateMutability": "view",
      "type": "function"
    },
    {
      "inputs": [],
      "name": "getActiveListings",
      "outputs": [
        {
          "components": [
            {
              "internalType": "uint256",
              "name": "propertyId",
              "type": "uint256"
            },
            {
              "internalType": "uint256",
              "name": "sellPrice",
              "type": "uint256"
            },
            {
              "internalType": "bool",
              "name": "buyerApproved",
              "type": "bool"
            },
            {
              "internalType": "bool",
              "name": "sellerApproved",
              "type": "bool"
            },
            {
              "components": [
                {
                  "internalType": "address",
                  "name": "buyer",
                  "type": "address"
                },
                {
                  "internalType": "uint256",
                  "name": "bidPrice",
                  "type": "uint256"
                }
              ],
              "internalType": "struct MarketplaceContract.Bid[]",
              "name": "bids",
              "type": "tuple[]"
            },
            {
              "components": [
                {
                  "internalType": "address",
                  "name": "buyer",
                  "type": "address"
                },
                {
                  "internalType": "uint256",
                  "name": "bidPrice",
                  "type": "uint256"
                }
              ],
              "internalType": "struct MarketplaceContract.Bid",
              "name": "acceptedBid",
              "type": "tuple"
            }
          ],
          "internalType": "struct MarketplaceContract.Listing[]",
          "name": "",
          "type": "tuple[]"
        }
      ],
      "stateMutability": "view",
      "type": "function"
    },
    {
      "inputs": [
        {
          "internalType": "uint256",
          "name": "tokenId",
          "type": "uint256"
        }
      ],
      "name": "getApproved",
      "outputs": [
        {
          "internalType": "address",
          "name": "",
          "type": "address"
        }
      ],
      "stateMutability": "view",
      "type": "function"
    },
    {
      "inputs": [
        {
          "internalType": "uint256",
          "name": "_propertyId",
          "type": "uint256"
        }
      ],
      "name": "getListing",
      "outputs": [
        {
          "components": [
            {
              "internalType": "uint256",
              "name": "propertyId",
              "type": "uint256"
            },
            {
              "internalType": "uint256",
              "name": "sellPrice",
              "type": "uint256"
            },
            {
              "internalType": "bool",
              "name": "buyerApproved",
              "type": "bool"
            },
            {
              "internalType": "bool",
              "name": "sellerApproved",
              "type": "bool"
            },
            {
              "components": [
                {
                  "internalType": "address",
                  "name": "buyer",
                  "type": "address"
                },
                {
                  "internalType": "uint256",
                  "name": "bidPrice",
                  "type": "uint256"
                }
              ],
              "internalType": "struct MarketplaceContract.Bid[]",
              "name": "bids",
              "type": "tuple[]"
            },
            {
              "components": [
                {
                  "internalType": "address",
                  "name": "buyer",
                  "type": "address"
                },
                {
                  "internalType": "uint256",
                  "name": "bidPrice",
                  "type": "uint256"
                }
              ],
              "internalType": "struct MarketplaceContract.Bid",
              "name": "acceptedBid",
              "type": "tuple"
            }
          ],
          "internalType": "struct MarketplaceContract.Listing",
          "name": "",
          "type": "tuple"
        }
      ],
      "stateMutability": "view",
      "type": "function"
    },
    {
      "inputs": [
        {
          "internalType": "address",
          "name": "_owner",
          "type": "address"
        }
      ],
      "name": "getPropertiesByOwner",
      "outputs": [
        {
          "components": [
            {
              "internalType": "uint256",
              "name": "propertyId",
              "type": "uint256"
            },
            {
              "internalType": "string",
              "name": "uri",
              "type": "string"
            }
          ],
          "internalType": "struct PropertyContract.Property[]",
          "name": "",
          "type": "tuple[]"
        }
      ],
      "stateMutability": "view",
      "type": "function"
    },
    {
      "inputs": [],
      "name": "initialize",
      "outputs": [],
      "stateMutability": "nonpayable",
      "type": "function"
    },
    {
      "inputs": [
        {
          "internalType": "address",
          "name": "owner",
          "type": "address"
        },
        {
          "internalType": "address",
          "name": "operator",
          "type": "address"
        }
      ],
      "name": "isApprovedForAll",
      "outputs": [
        {
          "internalType": "bool",
          "name": "",
          "type": "bool"
        }
      ],
      "stateMutability": "view",
      "type": "function"
    },
    {
      "inputs": [
        {
          "internalType": "uint256",
          "name": "",
          "type": "uint256"
        }
      ],
      "name": "lenders",
      "outputs": [
        {
          "internalType": "address",
          "name": "",
          "type": "address"
        }
      ],
      "stateMutability": "view",
      "type": "function"
    },
    {
      "inputs": [
        {
          "internalType": "uint256",
          "name": "_propertyId",
          "type": "uint256"
        },
        {
          "internalType": "uint256",
          "name": "_sellPrice",
          "type": "uint256"
        }
      ],
      "name": "listProperty",
      "outputs": [],
      "stateMutability": "nonpayable",
      "type": "function"
    },
    {
      "inputs": [],
      "name": "listingCount",
      "outputs": [
        {
          "internalType": "uint256",
          "name": "",
          "type": "uint256"
        }
      ],
      "stateMutability": "view",
      "type": "function"
    },
    {
      "inputs": [
        {
          "internalType": "uint256",
          "name": "",
          "type": "uint256"
        }
      ],
      "name": "listings",
      "outputs": [
        {
          "internalType": "uint256",
          "name": "propertyId",
          "type": "uint256"
        },
        {
          "internalType": "uint256",
          "name": "sellPrice",
          "type": "uint256"
        },
        {
          "internalType": "bool",
          "name": "buyerApproved",
          "type": "bool"
        },
        {
          "internalType": "bool",
          "name": "sellerApproved",
          "type": "bool"
        },
        {
          "components": [
            {
              "internalType": "address",
              "name": "buyer",
              "type": "address"
            },
            {
              "internalType": "uint256",
              "name": "bidPrice",
              "type": "uint256"
            }
          ],
          "internalType": "struct MarketplaceContract.Bid",
          "name": "acceptedBid",
          "type": "tuple"
        }
      ],
      "stateMutability": "view",
      "type": "function"
    },
    {
      "inputs": [],
      "name": "makePayment",
      "outputs": [],
      "stateMutability": "payable",
      "type": "function"
    },
    {
      "inputs": [],
      "name": "name",
      "outputs": [
        {
          "internalType": "string",
          "name": "",
          "type": "string"
        }
      ],
      "stateMutability": "view",
      "type": "function"
    },
    {
      "inputs": [],
      "name": "owner",
      "outputs": [
        {
          "internalType": "address",
          "name": "",
          "type": "address"
        }
      ],
      "stateMutability": "view",
      "type": "function"
    },
    {
      "inputs": [
        {
          "internalType": "uint256",
          "name": "tokenId",
          "type": "uint256"
        }
      ],
      "name": "ownerOf",
      "outputs": [
        {
          "internalType": "address",
          "name": "",
          "type": "address"
        }
      ],
      "stateMutability": "view",
      "type": "function"
    },
    {
      "inputs": [
        {
          "internalType": "uint256",
          "name": "",
          "type": "uint256"
        }
      ],
      "name": "properties",
      "outputs": [
        {
          "internalType": "uint256",
          "name": "propertyId",
          "type": "uint256"
        },
        {
          "internalType": "string",
          "name": "uri",
          "type": "string"
        }
      ],
      "stateMutability": "view",
      "type": "function"
    },
    {
      "inputs": [],
      "name": "propertyCount",
      "outputs": [
        {
          "internalType": "uint256",
          "name": "",
          "type": "uint256"
        }
      ],
      "stateMutability": "view",
      "type": "function"
    },
    {
      "inputs": [
        {
          "internalType": "uint256",
          "name": "_propertyId",
          "type": "uint256"
        },
        {
          "internalType": "uint256",
          "name": "_financingId",
          "type": "uint256"
        }
      ],
      "name": "rejectFinancing",
      "outputs": [],
      "stateMutability": "nonpayable",
      "type": "function"
    },
    {
      "inputs": [
        {
          "internalType": "uint256",
          "name": "_propertyId",
          "type": "uint256"
        },
        {
          "internalType": "address",
          "name": "_buyer",
          "type": "address"
        }
      ],
      "name": "removeBid",
      "outputs": [],
      "stateMutability": "nonpayable",
      "type": "function"
    },
    {
      "inputs": [
        {
          "internalType": "address",
          "name": "_lender",
          "type": "address"
        }
      ],
      "name": "removeLender",
      "outputs": [],
      "stateMutability": "nonpayable",
      "type": "function"
    },
    {
      "inputs": [
        {
          "internalType": "uint256",
          "name": "_propertyId",
          "type": "uint256"
        }
      ],
      "name": "removeProperty",
      "outputs": [],
      "stateMutability": "nonpayable",
      "type": "function"
    },
    {
      "inputs": [],
      "name": "renounceOwnership",
      "outputs": [],
      "stateMutability": "nonpayable",
      "type": "function"
    },
    {
      "inputs": [
        {
          "internalType": "address",
          "name": "from",
          "type": "address"
        },
        {
          "internalType": "address",
          "name": "to",
          "type": "address"
        },
        {
          "internalType": "uint256",
          "name": "tokenId",
          "type": "uint256"
        }
      ],
      "name": "safeTransferFrom",
      "outputs": [],
      "stateMutability": "nonpayable",
      "type": "function"
    },
    {
      "inputs": [
        {
          "internalType": "address",
          "name": "from",
          "type": "address"
        },
        {
          "internalType": "address",
          "name": "to",
          "type": "address"
        },
        {
          "internalType": "uint256",
          "name": "tokenId",
          "type": "uint256"
        },
        {
          "internalType": "bytes",
          "name": "data",
          "type": "bytes"
        }
      ],
      "name": "safeTransferFrom",
      "outputs": [],
      "stateMutability": "nonpayable",
      "type": "function"
    },
    {
      "inputs": [
        {
          "internalType": "address",
          "name": "operator",
          "type": "address"
        },
        {
          "internalType": "bool",
          "name": "approved",
          "type": "bool"
        }
      ],
      "name": "setApprovalForAll",
      "outputs": [],
      "stateMutability": "nonpayable",
      "type": "function"
    },
    {
      "inputs": [
        {
          "internalType": "bytes4",
          "name": "interfaceId",
          "type": "bytes4"
        }
      ],
      "name": "supportsInterface",
      "outputs": [
        {
          "internalType": "bool",
          "name": "",
          "type": "bool"
        }
      ],
      "stateMutability": "view",
      "type": "function"
    },
    {
      "inputs": [],
      "name": "symbol",
      "outputs": [
        {
          "internalType": "string",
          "name": "",
          "type": "string"
        }
      ],
      "stateMutability": "view",
      "type": "function"
    },
    {
      "inputs": [
        {
          "internalType": "uint256",
          "name": "tokenId",
          "type": "uint256"
        }
      ],
      "name": "tokenURI",
      "outputs": [
        {
          "internalType": "string",
          "name": "",
          "type": "string"
        }
      ],
      "stateMutability": "view",
      "type": "function"
    },
    {
      "inputs": [
        {
          "internalType": "address",
          "name": "from",
          "type": "address"
        },
        {
          "internalType": "address",
          "name": "to",
          "type": "address"
        },
        {
          "internalType": "uint256",
          "name": "tokenId",
          "type": "uint256"
        }
      ],
      "name": "transferFrom",
      "outputs": [],
      "stateMutability": "nonpayable",
      "type": "function"
    },
    {
      "inputs": [
        {
          "internalType": "address",
          "name": "newOwner",
          "type": "address"
        }
      ],
      "name": "transferOwnership",
      "outputs": [],
      "stateMutability": "nonpayable",
      "type": "function"
    },
    {
      "inputs": [
        {
          "internalType": "uint256",
          "name": "_propertyId",
          "type": "uint256"
        }
      ],
      "name": "unlistProperty",
      "outputs": [],
      "stateMutability": "nonpayable",
      "type": "function"
    }
  ],
  "bytecode": "0x608060405234801561001057600080fd5b50614d93806100206000396000f3fe6080604052600436106102675760003560e01c80638da5cb5b11610144578063be999558116100b6578063de74e57b1161007a578063de74e57b14610781578063e985e9c514610801578063ec7a81d014610821578063f2fde38b14610834578063f7b1080814610854578063fd3df1711461088257600080fd5b8063be999558146106fa578063c361a3351461072e578063c87b56dd14610744578063c8efddf614610764578063d8d797001461077957600080fd5b80639fcb2748116101085780639fcb274814610637578063a22cb46514610664578063a9b07c2614610684578063b48cc6e51461069a578063b88d4fde146106ba578063bc43d06f146106da57600080fd5b80638da5cb5b14610557578063918d407d14610575578063929eea211461059557806393084b34146105b557806395d89b411461062257600080fd5b8063598647f8116101dd578063776a0835116101a1578063776a0835146104a05780637e6b3bbf146104c05780638129fc1c146104e057806384019eed146104f5578063841ad8b91461051557806387c35bc01461053557600080fd5b8063598647f8146103fd5780636352211e1461041d57806370a082311461043d578063715018a61461046b5780637633a0711461048057600080fd5b806323b872dd1161022f57806323b872dd1461034a578063292588361461036a57806341c38d851461038a57806342842e0e146103aa5780634eda529b146103ca5780635138f19f146103ea57600080fd5b806301ffc9a71461026c57806306fdde03146102a1578063081812fc146102c3578063095ea7b3146102fb578063107a274a1461031d575b600080fd5b34801561027857600080fd5b5061028c6102873660046140ae565b6108a2565b60405190151581526020015b60405180910390f35b3480156102ad57600080fd5b506102b66108cd565b604051610298919061411b565b3480156102cf57600080fd5b506102e36102de36600461412e565b61095f565b6040516001600160a01b039091168152602001610298565b34801561030757600080fd5b5061031b610316366004614163565b610986565b005b34801561032957600080fd5b5061033d61033836600461412e565b610aa0565b604051610298919061424c565b34801561035657600080fd5b5061031b61036536600461425f565b610bce565b34801561037657600080fd5b5061031b61038536600461429b565b610bff565b34801561039657600080fd5b5061031b6103a53660046142e1565b610f14565b3480156103b657600080fd5b5061031b6103c536600461425f565b6111c2565b3480156103d657600080fd5b5061031b6103e53660046142e1565b6111dd565b61031b6103f836600461412e565b611387565b34801561040957600080fd5b5061031b6104183660046142e1565b6115a6565b34801561042957600080fd5b506102e361043836600461412e565b61180d565b34801561044957600080fd5b5061045d610458366004614303565b61186d565b604051908152602001610298565b34801561047757600080fd5b5061031b6118f3565b34801561048c57600080fd5b5061031b61049b36600461412e565b611907565b3480156104ac57600080fd5b5061031b6104bb36600461431e565b611991565b3480156104cc57600080fd5b5061031b6104db36600461412e565b611c17565b3480156104ec57600080fd5b5061031b611d43565b34801561050157600080fd5b5061031b610510366004614303565b611e64565b34801561052157600080fd5b5061031b61053036600461412e565b611ee4565b34801561054157600080fd5b5061054a6120aa565b604051610298919061434a565b34801561056357600080fd5b506033546001600160a01b03166102e3565b34801561058157600080fd5b5061031b61059036600461431e565b61229a565b3480156105a157600080fd5b506102e36105b036600461412e565b6125b0565b3480156105c157600080fd5b5061031b6105d0366004614303565b60ff80546001810182556000919091527fe08ec2af2cfc251225e1968fd6ca21e4044f129bffa95bac3503be8bdb30a3670180546001600160a01b0319166001600160a01b0392909216919091179055565b34801561062e57600080fd5b506102b66125da565b34801561064357600080fd5b50610657610652366004614303565b6125e9565b60405161029891906143ae565b34801561067057600080fd5b5061031b61067f366004614424565b612792565b34801561069057600080fd5b5061045d60fd5481565b3480156106a657600080fd5b5061031b6106b53660046144ec565b61279d565b3480156106c657600080fd5b5061031b6106d5366004614535565b6128ed565b3480156106e657600080fd5b5061031b6106f536600461412e565b61291f565b34801561070657600080fd5b5061071a6107153660046142e1565b612a13565b6040516102989897969594939291906145c7565b34801561073a57600080fd5b5061045d60fb5481565b34801561075057600080fd5b506102b661075f36600461412e565b612a85565b34801561077057600080fd5b5061031b612b95565b61031b612b9d565b34801561078d57600080fd5b506107f061079c36600461412e565b60fe60209081526000918252604091829020805460018201546002830154855180870190965260048401546001600160a01b03168652600590930154938501939093529260ff808316926101009004169085565b60405161029895949392919061462d565b34801561080d57600080fd5b5061028c61081c36600461466f565b612bd7565b61031b61082f36600461412e565b612c05565b34801561084057600080fd5b5061031b61084f366004614303565b612e13565b34801561086057600080fd5b5061087461086f36600461412e565b612e89565b604051610298929190614699565b34801561088e57600080fd5b5061031b61089d3660046142e1565b612f2e565b60006001600160e01b03198216632483248360e11b14806108c757506108c7826131d2565b92915050565b6060609780546108dc906146b2565b80601f0160208091040260200160405190810160405280929190818152602001828054610908906146b2565b80156109555780601f1061092a57610100808354040283529160200191610955565b820191906000526020600020905b81548152906001019060200180831161093857829003601f168201915b5050505050905090565b600061096a82613222565b506000908152609b60205260409020546001600160a01b031690565b60006109918261180d565b9050806001600160a01b0316836001600160a01b031603610a035760405162461bcd60e51b815260206004820152602160248201527f4552433732313a20617070726f76616c20746f2063757272656e74206f776e656044820152603960f91b60648201526084015b60405180910390fd5b336001600160a01b0382161480610a1f5750610a1f8133612bd7565b610a915760405162461bcd60e51b815260206004820152603d60248201527f4552433732313a20617070726f76652063616c6c6572206973206e6f7420746f60448201527f6b656e206f776e6572206f7220617070726f76656420666f7220616c6c00000060648201526084016109fa565b610a9b8383613272565b505050565b610ae46040805160c081018252600080825260208083018290528284018290526060808401839052608084015283518085019094528184528301529060a082015290565b600082815260fe60209081526040808320815160c08101835281548152600182015481850152600282015460ff8082161515838601526101009091041615156060820152600382018054845181870281018701909552808552919592946080870194939192919084015b82821015610b96576000848152602090819020604080518082019091526002850290910180546001600160a01b03168252600190810154828401529083529092019101610b4e565b505050908252506040805180820190915260048301546001600160a01b03168152600590920154602083810191909152015292915050565b610bd833826132e0565b610bf45760405162461bcd60e51b81526004016109fa906146ec565b610a9b83838361333e565b8433610c0a8261180d565b6001600160a01b031614610c305760405162461bcd60e51b81526004016109fa90614739565b856000805b60008381526101006020526040902054811015610cb5576003600084815261010060205260409020805483908110610c6f57610c6f614781565b906000526020600020906007020160010160149054906101000a900460ff166005811115610c9f57610c9f6145b1565b03610cad5760019150610cb5565b600101610c35565b508015610d045760405162461bcd60e51b815260206004820152601f60248201527f50726f706572747920616c7265616479206265696e672066696e616e6365640060448201526064016109fa565b600088815261010060205260408120543391600187610d238a836147ad565b610d2d91906148a4565b610d3791906148b0565b87610d438a60016147ad565b610d4d91906148a4565b610d57908a6148c3565b610d6191906148da565b610d6b908a6148c3565b6040519091506001600160a01b038416908a156108fc02908b906000818181858888f19350505050158015610da4573d6000803e3d6000fd5b50610daf8a8c613272565b60008b81526101006020818152604092839020835192830184528e83526001600160a01b038e16918301919091529181016001815260208082018d905260408083018d9052606083018c905260808301869052600060a09093018390528454600180820187559584529282902084516007909402019283559083015193820180546001600160a01b031981166001600160a01b03909616958617825591840151939492939290916001600160a81b03191617600160a01b836005811115610e7857610e786145b1565b0217905550606082015181600201556080820151816003015560a0820151816004015560c0820151816005015560e082015181600601555050826001600160a01b03168a6001600160a01b03167f4205b7bf0dc285765b14df5a0705e12690c033399dda27c398dd939e877444698d85604051610eff929190918252602082015260400190565b60405180910390a35050505050505050505050565b6000828152610100602052604090205482908290610f445760405162461bcd60e51b81526004016109fa906148fc565b6001600083815261010060205260409020805483908110610f6757610f67614781565b906000526020600020906007020160010160149054906101000a900460ff166005811115610f9757610f976145b1565b14610fe45760405162461bcd60e51b815260206004820152601d60248201527f46696e616e63696e672072657175657374206e6f742070656e64696e6700000060448201526064016109fa565b600084815261010060205260409020546110105760405162461bcd60e51b81526004016109fa906148fc565b600160008581526101006020526040902080548590811061103357611033614781565b906000526020600020906007020160010160149054906101000a900460ff166005811115611063576110636145b1565b146110805760405162461bcd60e51b81526004016109fa90614942565b6000848152610100602052604090208054339190859081106110a4576110a4614781565b60009182526020909120600160079092020101546001600160a01b0316146111095760405162461bcd60e51b815260206004820152601860248201527721b0b63632b91034b9903737ba103a3432903632b73232b960411b60448201526064016109fa565b6000848152610100602052604090208054600291908590811061112e5761112e614781565b60009182526020909120600160079092020101805460ff60a01b1916600160a01b836005811115611161576111616145b1565b02179055506000848152609960209081526040918290205482518781529182018690526001600160a01b03169133917fc382dc9808425d8488afd57f8db541349438287b10c168ea8c4465f171ea7a1491015b60405180910390a350505050565b610a9b838383604051806020016040528060008152506128ed565b816111e7816134a2565b6112035760405162461bcd60e51b81526004016109fa90614990565b823361120e8261180d565b6001600160a01b0316146112345760405162461bcd60e51b81526004016109fa90614739565b61123d846134a2565b6112595760405162461bcd60e51b81526004016109fa90614990565b600083116112a95760405162461bcd60e51b815260206004820152601960248201527f53656c6c2070726963652063616e6e6f74206265207a65726f0000000000000060448201526064016109fa565b600084815260fe60205260409020548490036113075760405162461bcd60e51b815260206004820152601a60248201527f50726f706572747920697320616c7265616479206c697374656400000000000060448201526064016109fa565b60fd8054906000611317836149d4565b9091555050600084815260fe6020526040902084815560018101849055336001600160a01b03167f1518ffac149698f404e82117efa8b67d99c365490eefe4e0f91856a93ca8d9c18686604051611378929190918252602082015260400190565b60405180910390a25050505050565b80611391816134a2565b6113ad5760405162461bcd60e51b81526004016109fa90614990565b600082815260fe6020526040902054829081146113dc5760405162461bcd60e51b81526004016109fa906149ed565b600083815260fe602052604081206005015461140090670de0b6b3a76400006148c3565b600085815260fe60205260409020600401549091506001600160a01b0316331461147d5760405162461bcd60e51b815260206004820152602860248201527f43616c6c6572206973206e6f7420746865206275796572206f6620746869732060448201526770726f706572747960c01b60648201526084016109fa565b803410156114c45760405162461bcd60e51b8152602060048201526014602482015273125b9cdd59999a58da595b9d081c185e5b595b9d60621b60448201526064016109fa565b600084815260fe602052604090206002015460ff16156115355760405162461bcd60e51b815260206004820152602660248201527f5472616e7366657220616c726561647920617070726f7665642062792074686560448201526510313abcb2b960d11b60648201526084016109fa565b600084815260fe60205260409020600201805460ff191660011790556115583390565b6001600160a01b03166108fc61156e83346148b0565b6040518115909202916000818181858888f19350505050158015611596573d6000803e3d6000fd5b506115a0846134bf565b50505050565b816115b0816134a2565b6115cc5760405162461bcd60e51b81526004016109fa90614990565b600083815260fe6020526040902054839081146115fb5760405162461bcd60e51b81526004016109fa906149ed565b8333600080805b600085815260fe602052604090206003015481101561167a57600085815260fe6020526040902060030180546001600160a01b03861691908390811061164a5761164a614781565b60009182526020909120600290910201546001600160a01b031603611672576001915061167a565b600101611602565b5081156116a3578061169e5760405162461bcd60e51b81526004016109fa90614a1d565b6116c1565b80156116c15760405162461bcd60e51b81526004016109fa90614a54565b6116ca8861180d565b6001600160a01b031633036117145760405162461bcd60e51b815260206004820152601060248201526f13dddb995c8818d85b9b9bdd08189a5960821b60448201526064016109fa565b600088815260fe60205260409020600401546001600160a01b031615801561174b5750600088815260fe6020526040902060050154155b6117675760405162461bcd60e51b81526004016109fa90614a96565b600088815260fe6020908152604080832081518083018352338082528185018d81526003909301805460018082018355918852968690209251600290970290920180546001600160a01b0319166001600160a01b03909716969096178655915194019390935580518b81529182018a90527f4a68fde121386ffcfc9555407bfb38625033a0d0d3726b00f56b4ab304b55447910160405180910390a25050505050505050565b6000818152609960205260408120546001600160a01b0316806108c75760405162461bcd60e51b8152602060048201526018602482015277115490cdcc8c4e881a5b9d985b1a59081d1bdad95b88125160421b60448201526064016109fa565b60006001600160a01b0382166118d75760405162461bcd60e51b815260206004820152602960248201527f4552433732313a2061646472657373207a65726f206973206e6f7420612076616044820152683634b21037bbb732b960b91b60648201526084016109fa565b506001600160a01b03166000908152609a602052604090205490565b6118fb6136ea565b6119056000613744565b565b80611911816134a2565b61192d5760405162461bcd60e51b81526004016109fa90614990565b600082815260fe60205260409020548290811461195c5760405162461bcd60e51b81526004016109fa906149ed565b5050600090815260fe6020526040812060028101805461ffff191690556004810180546001600160a01b031916905560050155565b8161199b816134a2565b6119b75760405162461bcd60e51b81526004016109fa90614990565b600083815260fe6020526040902054839081146119e65760405162461bcd60e51b81526004016109fa906149ed565b838360016000805b600085815260fe6020526040902060030154811015611a6657600085815260fe6020526040902060030180546001600160a01b038616919083908110611a3657611a36614781565b60009182526020909120600290910201546001600160a01b031603611a5e5760019150611a66565b6001016119ee565b508115611a8f5780611a8a5760405162461bcd60e51b81526004016109fa90614a1d565b611aad565b8015611aad5760405162461bcd60e51b81526004016109fa90614a54565b60005b600089815260fe6020526040902060030154811015611c0c57600089815260fe6020526040902060030180546001600160a01b038a16919083908110611af857611af8614781565b60009182526020909120600290910201546001600160a01b031603611c0457600089815260fe602052604090206003018054611b36906001906148b0565b81548110611b4657611b46614781565b906000526020600020906002020160fe60008b81526020019081526020016000206003018281548110611b7b57611b7b614781565b60009182526020808320845460029093020180546001600160a01b0319166001600160a01b0390931692909217825560019384015493909101929092558a815260fe90915260409020600301805480611bd657611bd6614abf565b60008281526020812060026000199093019283020180546001600160a01b0319168155600101559055611c0c565b600101611ab0565b505050505050505050565b80611c21816134a2565b611c3d5760405162461bcd60e51b81526004016109fa90614990565b600082815260fe602052604090205482908114611c6c5760405162461bcd60e51b81526004016109fa906149ed565b611c758361180d565b6001600160a01b0316336001600160a01b031614611ca55760405162461bcd60e51b81526004016109fa90614739565b600083815260fe6020526040902060020154610100900460ff1615611d1c5760405162461bcd60e51b815260206004820152602760248201527f5472616e7366657220616c726561647920617070726f766564206279207468656044820152661039b2b63632b960c91b60648201526084016109fa565b600083815260fe60205260409020600201805461ff001916610100179055610a9b836134bf565b600054610100900460ff1615808015611d635750600054600160ff909116105b80611d7d5750303b158015611d7d575060005460ff166001145b611de05760405162461bcd60e51b815260206004820152602e60248201527f496e697469616c697a61626c653a20636f6e747261637420697320616c72656160448201526d191e481a5b9a5d1a585b1a5e995960921b60648201526084016109fa565b6000805460ff191660011790558015611e03576000805461ff0019166101001790555b611e0b613796565b611e136137c5565b611e1b6137d5565b8015611e61576000805461ff0019169055604051600181527f7f26b83ff96e1f2b6a682f133852f6798a09c465da95921460cefb38474024989060200160405180910390a15b50565b60005b60ff54811015611ee057816001600160a01b031660ff8281548110611e8e57611e8e614781565b6000918252602090912001546001600160a01b031603611ed85760ff8181548110611ebb57611ebb614781565b600091825260209091200180546001600160a01b03191690555050565b600101611e67565b5050565b80611eee816134a2565b611f0a5760405162461bcd60e51b81526004016109fa90614990565b8133611f158261180d565b6001600160a01b031614611f3b5760405162461bcd60e51b81526004016109fa90614739565b600083815260fe602052604090205483908114611f6a5760405162461bcd60e51b81526004016109fa906149ed565b600084815260fe602052604090206002015460ff16158015611fa35750600084815260fe6020526040902060020154610100900460ff16155b611fef5760405162461bcd60e51b815260206004820152601a60248201527f50726f706572747920697320756e646572207472616e7366657200000000000060448201526064016109fa565b60fd8054906000611fff83614ad5565b9091555050600084815260fe602052604081208181556001810182905560028101805461ffff19169055906120376003830182613ffe565b506004810180546001600160a01b03191690556000600590910181905584815260fe6020526040812061206f91600390910190613ffe565b60405184815233907f99700a6ee3c3e4d026c56e3d3618a8157ca8e5efc0c4a4a3e555a9744d25fdbd9060200160405180910390a250505050565b6060600060fd5467ffffffffffffffff8111156120c9576120c9614460565b60405190808252806020026020018201604052801561213e57816020015b61212b6040805160c081018252600080825260208083018290528284018290526060808401839052608084015283518085019094528184528301529060a082015290565b8152602001906001900390816120e75790505b509050600060015b60fb54811161229257600081815260fe602052604090205481900361227757600081815260fe60209081526040808320815160c08101835281548152600182015481850152600282015460ff8082161515838601526101009091041615156060820152600382018054845181870281018701909552808552919592946080870194939192919084015b82821015612217576000848152602090819020604080518082019091526002850290910180546001600160a01b031682526001908101548284015290835290920191016121cf565b505050908252506040805180820190915260048301546001600160a01b031681526005909201546020838101919091520152835184908490811061225d5761225d614781565b60200260200101819052508180612273906149d4565b9250505b60fd548214612292578061228a816149d4565b915050612146565b509092915050565b816122a4816134a2565b6122c05760405162461bcd60e51b81526004016109fa90614990565b82336122cb8261180d565b6001600160a01b0316146122f15760405162461bcd60e51b81526004016109fa90614739565b600084815260fe6020526040902054849081146123205760405162461bcd60e51b81526004016109fa906149ed565b848460016000805b600085815260fe60205260409020600301548110156123a057600085815260fe6020526040902060030180546001600160a01b03861691908390811061237057612370614781565b60009182526020909120600290910201546001600160a01b03160361239857600191506123a0565b600101612328565b5081156123c957806123c45760405162461bcd60e51b81526004016109fa90614a1d565b6123e7565b80156123e75760405162461bcd60e51b81526004016109fa90614a54565b600089815260fe60205260409020600401546001600160a01b031615801561241e5750600089815260fe6020526040902060050154155b61243a5760405162461bcd60e51b81526004016109fa90614a96565b600089815260fe60205260408120600201805461ff0019166101001790555b60008a815260fe602052604090206003015481101561253c5760008a815260fe6020526040902060030180546001600160a01b038b169190839081106124a1576124a1614781565b60009182526020909120600290910201546001600160a01b0316036125345760008a815260fe602052604090206003018054829081106124e3576124e3614781565b600091825260208083208d845260fe9091526040909220600290910290910180546004830180546001600160a01b0319166001600160a01b039092169190911790556001015460059091015561253c565b600101612459565b50600089815260fe6020526040812061255a91600390910190613ffe565b600089815260fe60209081526040918290206005015482518c815291820152815133927f7d2cfbbef328a1f13d4e8eec09f7ceddde17a22a204103792e8d6ae856e4618f928290030190a2505050505050505050565b60ff81815481106125c057600080fd5b6000918252602090912001546001600160a01b0316905081565b6060609880546108dc906146b2565b60606000806125f78461186d565b905060008167ffffffffffffffff81111561261457612614614460565b60405190808252806020026020018201604052801561265a57816020015b6040805180820190915260008152606060208201528152602001906001900390816126325790505b50905060015b60fb54811161278957856001600160a01b031661267c8261180d565b6001600160a01b0316036127705760fc6000828152602001908152602001600020604051806040016040529081600082015481526020016001820180546126c2906146b2565b80601f01602080910402602001604051908101604052809291908181526020018280546126ee906146b2565b801561273b5780601f106127105761010080835404028352916020019161273b565b820191906000526020600020905b81548152906001019060200180831161271e57829003601f168201915b50505050508152505082858151811061275657612756614781565b6020026020010181905250838061276c906149d4565b9450505b8383146127895780612781816149d4565b915050612660565b50949350505050565b611ee03383836137e4565b60008151116127e45760405162461bcd60e51b81526020600482015260136024820152725552492063616e6e6f7420626520656d70747960681b60448201526064016109fa565b60fb80549060006127f4836149d4565b909155505060408051808201825260fb548082526020808301858152600092835260fc90915292902081518155915190919060018201906128359082614b3c565b5090505061284b6128433390565b60fb546138b2565b61285760fb54826138cc565b336001600160a01b031661286c60fb5461180d565b6001600160a01b0316146128b25760405162461bcd60e51b815260206004820152600d60248201526c13dddb995c881b9bdd081cd95d609a1b60448201526064016109fa565b60fb5460405190815233907f2728c9d3205d667bbc0eefdfeda366261b4d021949630c047f3e5834b30611ab9060200160405180910390a250565b6128f733836132e0565b6129135760405162461bcd60e51b81526004016109fa906146ec565b6115a084848484613988565b80612929816134a2565b6129455760405162461bcd60e51b81526004016109fa90614990565b81336129508261180d565b6001600160a01b0316146129765760405162461bcd60e51b81526004016109fa90614739565b61297f836134a2565b61299b5760405162461bcd60e51b81526004016109fa90614990565b6129a4836139bb565b600083815260fc60205260408120818155906129c3600183018261401f565b50506129cc3390565b6001600160a01b03167f8e2f5fcc57c31738b03aa91accdd55b13dc355a4fa1707d953f49c973e18e6e484604051612a0691815260200190565b60405180910390a2505050565b6101006020528160005260406000208181548110612a3057600080fd5b600091825260209091206007909102018054600182015460028301546003840154600485015460058601546006909601549497506001600160a01b0384169650600160a01b90930460ff169491939092919088565b6060612a9082613222565b600082815260c9602052604081208054612aa9906146b2565b80601f0160208091040260200160405190810160405280929190818152602001828054612ad5906146b2565b8015612b225780601f10612af757610100808354040283529160200191612b22565b820191906000526020600020905b815481529060010190602001808311612b0557829003601f168201915b505050505090506000612b4060408051602081019091526000815290565b90508051600003612b52575092915050565b815115612b84578082604051602001612b6c929190614bfc565b60405160208183030381529060405292505050919050565b612b8d846139fb565b949350505050565b612b9d6136ea565b60405162461bcd60e51b815260206004820152600f60248201526e139bdd081a5b5c1b195b595b9d1959608a1b60448201526064016109fa565b6001600160a01b039182166000908152609c6020908152604080832093909416825291909152205460ff1690565b80612c0f816134a2565b612c2b5760405162461bcd60e51b81526004016109fa90614990565b600082815260fe602052604090205482908114612c5a5760405162461bcd60e51b81526004016109fa906149ed565b600083815260fe60205260409020600401546001600160a01b0316158015612c915750600083815260fe6020526040902060050154155b612cad5760405162461bcd60e51b81526004016109fa90614a96565b600083815260fe6020526040902060010154341015612d0e5760405162461bcd60e51b815260206004820181905260248201527f496e73756666696369656e74207061796d656e7420666f7220627579206f757460448201526064016109fa565b600083815260fe602052604090819020600201805460ff19166001179055805180820190915280612d3c3390565b6001600160a01b039081168252600086815260fe60208181526040832060018101549582018690529289905290815284516004830180546001600160a01b031916919094161790925592015160059092019190915533906108fc90612da190346148b0565b6040518115909202916000818181858888f19350505050158015612dc9573d6000803e3d6000fd5b50600083815260fe60209081526040918290206001015482518681529182015233917f9823c61ba42e817a0ba73273d875528a549abe0ba50bc8ce0f7ed5a9fb86c6879101612a06565b612e1b6136ea565b6001600160a01b038116612e805760405162461bcd60e51b815260206004820152602660248201527f4f776e61626c653a206e6577206f776e657220697320746865207a65726f206160448201526564647265737360d01b60648201526084016109fa565b611e6181613744565b60fc6020526000908152604090208054600182018054919291612eab906146b2565b80601f0160208091040260200160405190810160405280929190818152602001828054612ed7906146b2565b8015612f245780601f10612ef957610100808354040283529160200191612f24565b820191906000526020600020905b815481529060010190602001808311612f0757829003601f168201915b5050505050905082565b6000828152610100602052604090205482908290612f5e5760405162461bcd60e51b81526004016109fa906148fc565b6001600083815261010060205260409020805483908110612f8157612f81614781565b906000526020600020906007020160010160149054906101000a900460ff166005811115612fb157612fb16145b1565b14612ffe5760405162461bcd60e51b815260206004820152601d60248201527f46696e616e63696e672072657175657374206e6f742070656e64696e6700000060448201526064016109fa565b6000848152610100602052604090205461302a5760405162461bcd60e51b81526004016109fa906148fc565b600160008581526101006020526040902080548590811061304d5761304d614781565b906000526020600020906007020160010160149054906101000a900460ff16600581111561307d5761307d6145b1565b1461309a5760405162461bcd60e51b81526004016109fa90614942565b6000848152610100602052604090208054339190859081106130be576130be614781565b60009182526020909120600160079092020101546001600160a01b0316146131235760405162461bcd60e51b815260206004820152601860248201527721b0b63632b91034b9903737ba103a3432903632b73232b960411b60448201526064016109fa565b6000848152610100602052604090208054600391908590811061314857613148614781565b60009182526020909120600160079092020101805460ff60a01b1916600160a01b83600581111561317b5761317b6145b1565b02179055506000848152609960209081526040918290205482518781529182018690526001600160a01b03169133917fef5fb41d427f3beab94b7933990405d1ca172d79f4761fa2dad7b6b6d1481aee91016111b4565b60006001600160e01b031982166380ac58cd60e01b148061320357506001600160e01b03198216635b5e139f60e01b145b806108c757506301ffc9a760e01b6001600160e01b03198316146108c7565b61322b816134a2565b611e615760405162461bcd60e51b8152602060048201526018602482015277115490cdcc8c4e881a5b9d985b1a59081d1bdad95b88125160421b60448201526064016109fa565b6000818152609b6020526040902080546001600160a01b0319166001600160a01b03841690811790915581906132a78261180d565b6001600160a01b03167f8c5be1e5ebec7d5bd14f71427d1e84f3dd0314c0f7b2291e5b200ac8c7c3b92560405160405180910390a45050565b6000806132ec8361180d565b9050806001600160a01b0316846001600160a01b0316148061331357506133138185612bd7565b80612b8d5750836001600160a01b031661332c8461095f565b6001600160a01b031614949350505050565b826001600160a01b03166133518261180d565b6001600160a01b0316146133775760405162461bcd60e51b81526004016109fa90614c2b565b6001600160a01b0382166133d95760405162461bcd60e51b8152602060048201526024808201527f4552433732313a207472616e7366657220746f20746865207a65726f206164646044820152637265737360e01b60648201526084016109fa565b826001600160a01b03166133ec8261180d565b6001600160a01b0316146134125760405162461bcd60e51b81526004016109fa90614c2b565b6000818152609b6020908152604080832080546001600160a01b03199081169091556001600160a01b03878116808652609a8552838620805460001901905590871680865283862080546001019055868652609990945282852080549092168417909155905184937fddf252ad1be2c89b69c2b068fc378daa952ba7f163c4a11628f55a4df523b3ef91a4505050565b6000908152609960205260409020546001600160a01b0316151590565b806134c9816134a2565b6134e55760405162461bcd60e51b81526004016109fa90614990565b600082815260fe602052604090206002015460ff16801561351c5750600082815260fe6020526040902060020154610100900460ff165b6135765760405162461bcd60e51b815260206004820152602560248201527f5472616e73666572206e6f7420617070726f76656420627920626f7468207061604482015264727469657360d81b60648201526084016109fa565b600082815260fe60205260408120600401546001600160a01b03169061359b8461180d565b600085815260fe6020526040808220600501549051929350916001600160a01b0384169183156108fc02918491818181858888f193505050501580156135e5573d6000803e3d6000fd5b506135f182848761333e565b826001600160a01b03166136048661180d565b6001600160a01b03161461364c5760405162461bcd60e51b815260206004820152600f60248201526e151c985b9cd9995c8819985a5b1959608a1b60448201526064016109fa565b600085815260fe602052604081208181556001810182905560028101805461ffff191690559061367f6003830182613ffe565b506004810180546001600160a01b0319169055600060059091015560408051868152602081018390526001600160a01b0385811692908516917f9ed053bb818ff08b8353cd46f78db1f0799f31c9e4458fdb425c10eccd2efc44910160405180910390a35050505050565b6033546001600160a01b031633146119055760405162461bcd60e51b815260206004820181905260248201527f4f776e61626c653a2063616c6c6572206973206e6f7420746865206f776e657260448201526064016109fa565b603380546001600160a01b038381166001600160a01b0319831681179093556040519116919082907f8be0079c531659141344cd1fd0a4f28419497f9722a3daafe3b4186f6b6457e090600090a35050565b600054610100900460ff166137bd5760405162461bcd60e51b81526004016109fa90614c70565b611905613a6f565b6137cd613796565b611905613a9f565b6137dd613a9f565b600060fd55565b816001600160a01b0316836001600160a01b0316036138455760405162461bcd60e51b815260206004820152601960248201527f4552433732313a20617070726f766520746f2063616c6c65720000000000000060448201526064016109fa565b6001600160a01b038381166000818152609c6020908152604080832094871680845294825291829020805460ff191686151590811790915591519182527f17307eab39ab6107e8899845ad3d59bd9653f200f220920489ca2b5937696c31910160405180910390a3505050565b611ee0828260405180602001604052806000815250613aec565b6138d5826134a2565b6139385760405162461bcd60e51b815260206004820152602e60248201527f45524337323155524953746f726167653a2055524920736574206f66206e6f6e60448201526d32bc34b9ba32b73a103a37b5b2b760911b60648201526084016109fa565b600082815260c9602052604090206139508282614b3c565b506040518281527ff8e1a15aba9398e019f0b49df1a4fde98ee17ae345cb5f6b5e2c27f5033e8ce79060200160405180910390a15050565b61399384848461333e565b61399f84848484613b1f565b6115a05760405162461bcd60e51b81526004016109fa90614cbb565b6139c481613c20565b600081815260c96020526040902080546139dd906146b2565b159050611e6157600081815260c960205260408120611e619161401f565b6060613a0682613222565b6000613a1d60408051602081019091526000815290565b90506000815111613a3d5760405180602001604052806000815250613a68565b80613a4784613cb5565b604051602001613a58929190614bfc565b6040516020818303038152906040525b9392505050565b600054610100900460ff16613a965760405162461bcd60e51b81526004016109fa90614c70565b61190533613744565b613ae56040518060400160405280600881526020016750726f706572747960c01b81525060405180604001604052806004815260200163050524f560e41b815250613d48565b600060fb55565b613af68383613d79565b613b036000848484613b1f565b610a9b5760405162461bcd60e51b81526004016109fa90614cbb565b60006001600160a01b0384163b15613c1557604051630a85bd0160e11b81526001600160a01b0385169063150b7a0290613b63903390899088908890600401614d0d565b6020604051808303816000875af1925050508015613b9e575060408051601f3d908101601f19168201909252613b9b91810190614d40565b60015b613bfb573d808015613bcc576040519150601f19603f3d011682016040523d82523d6000602084013e613bd1565b606091505b508051600003613bf35760405162461bcd60e51b81526004016109fa90614cbb565b805181602001fd5b6001600160e01b031916630a85bd0160e11b149050612b8d565b506001949350505050565b6000613c2b8261180d565b9050613c368261180d565b6000838152609b6020908152604080832080546001600160a01b03199081169091556001600160a01b038516808552609a845282852080546000190190558785526099909352818420805490911690555192935084927fddf252ad1be2c89b69c2b068fc378daa952ba7f163c4a11628f55a4df523b3ef908390a45050565b60606000613cc283613ee6565b600101905060008167ffffffffffffffff811115613ce257613ce2614460565b6040519080825280601f01601f191660200182016040528015613d0c576020820181803683370190505b5090508181016020015b600019016f181899199a1a9b1b9c1cb0b131b232b360811b600a86061a8153600a8504945084613d1657509392505050565b600054610100900460ff16613d6f5760405162461bcd60e51b81526004016109fa90614c70565b611ee08282613fbe565b6001600160a01b038216613dcf5760405162461bcd60e51b815260206004820181905260248201527f4552433732313a206d696e7420746f20746865207a65726f206164647265737360448201526064016109fa565b613dd8816134a2565b15613e255760405162461bcd60e51b815260206004820152601c60248201527f4552433732313a20746f6b656e20616c7265616479206d696e7465640000000060448201526064016109fa565b613e2e816134a2565b15613e7b5760405162461bcd60e51b815260206004820152601c60248201527f4552433732313a20746f6b656e20616c7265616479206d696e7465640000000060448201526064016109fa565b6001600160a01b0382166000818152609a6020908152604080832080546001019055848352609990915280822080546001600160a01b0319168417905551839291907fddf252ad1be2c89b69c2b068fc378daa952ba7f163c4a11628f55a4df523b3ef908290a45050565b60008072184f03e93ff9f4daa797ed6e38ed64bf6a1f0160401b8310613f255772184f03e93ff9f4daa797ed6e38ed64bf6a1f0160401b830492506040015b6d04ee2d6d415b85acef81000000008310613f51576d04ee2d6d415b85acef8100000000830492506020015b662386f26fc100008310613f6f57662386f26fc10000830492506010015b6305f5e1008310613f87576305f5e100830492506008015b6127108310613f9b57612710830492506004015b60648310613fad576064830492506002015b600a83106108c75760010192915050565b600054610100900460ff16613fe55760405162461bcd60e51b81526004016109fa90614c70565b6097613ff18382614b3c565b506098610a9b8282614b3c565b5080546000825560020290600052602060002090810190611e619190614059565b50805461402b906146b2565b6000825580601f1061403b575050565b601f016020900490600052602060002090810190611e619190614083565b5b8082111561407f5780546001600160a01b03191681556000600182015560020161405a565b5090565b5b8082111561407f5760008155600101614084565b6001600160e01b031981168114611e6157600080fd5b6000602082840312156140c057600080fd5b8135613a6881614098565b60005b838110156140e65781810151838201526020016140ce565b50506000910152565b600081518084526141078160208601602086016140cb565b601f01601f19169290920160200192915050565b602081526000613a6860208301846140ef565b60006020828403121561414057600080fd5b5035919050565b80356001600160a01b038116811461415e57600080fd5b919050565b6000806040838503121561417657600080fd5b61417f83614147565b946020939093013593505050565b600060e0830182518452602080840151602086015260408085015115156040870152606085015115156060870152608085015160e0608088015283815180865261010089019150602083019550600092505b808310156142195761420582875180516001600160a01b03168252602090810151910152565b9484019460019290920191908301906141df565b5060a0870151945061424160a089018680516001600160a01b03168252602090810151910152565b979650505050505050565b602081526000613a68602083018461418d565b60008060006060848603121561427457600080fd5b61427d84614147565b925061428b60208501614147565b9150604084013590509250925092565b600080600080600060a086880312156142b357600080fd5b853594506142c360208701614147565b94979496505050506040830135926060810135926080909101359150565b600080604083850312156142f457600080fd5b50508035926020909101359150565b60006020828403121561431557600080fd5b613a6882614147565b6000806040838503121561433157600080fd5b8235915061434160208401614147565b90509250929050565b600060208083016020845280855180835260408601915060408160051b87010192506020870160005b828110156143a157603f1988860301845261438f85835161418d565b94509285019290850190600101614373565b5092979650505050505050565b600060208083018184528085518083526040925060408601915060408160051b87010184880160005b8381101561441657888303603f19018552815180518452870151878401879052614403878501826140ef565b95880195935050908601906001016143d7565b509098975050505050505050565b6000806040838503121561443757600080fd5b61444083614147565b91506020830135801515811461445557600080fd5b809150509250929050565b634e487b7160e01b600052604160045260246000fd5b600067ffffffffffffffff8084111561449157614491614460565b604051601f8501601f19908116603f011681019082821181831017156144b9576144b9614460565b816040528093508581528686860111156144d257600080fd5b858560208301376000602087830101525050509392505050565b6000602082840312156144fe57600080fd5b813567ffffffffffffffff81111561451557600080fd5b8201601f8101841361452657600080fd5b612b8d84823560208401614476565b6000806000806080858703121561454b57600080fd5b61455485614147565b935061456260208601614147565b925060408501359150606085013567ffffffffffffffff81111561458557600080fd5b8501601f8101871361459657600080fd5b6145a587823560208401614476565b91505092959194509250565b634e487b7160e01b600052602160045260246000fd5b8881526001600160a01b03881660208201526101008101600688106145fc57634e487b7160e01b600052602160045260246000fd5b8760408301528660608301528560808301528460a08301528360c08301528260e08301529998505050505050505050565b85815260208082018690528415156040830152831515606083015282516001600160a01b0316608083015282015160a082015260c081015b9695505050505050565b6000806040838503121561468257600080fd5b61468b83614147565b915061434160208401614147565b828152604060208201526000612b8d60408301846140ef565b600181811c908216806146c657607f821691505b6020821081036146e657634e487b7160e01b600052602260045260246000fd5b50919050565b6020808252602d908201527f4552433732313a2063616c6c6572206973206e6f7420746f6b656e206f776e6560408201526c1c881bdc88185c1c1c9bdd9959609a1b606082015260800190565b60208082526028908201527f43616c6c6572206973206e6f7420746865206f776e6572206f6620746869732060408201526770726f706572747960c01b606082015260800190565b634e487b7160e01b600052603260045260246000fd5b634e487b7160e01b600052601160045260246000fd5b808201808211156108c7576108c7614797565b600181815b808511156147fb5781600019048211156147e1576147e1614797565b808516156147ee57918102915b93841c93908002906147c5565b509250929050565b600082614812575060016108c7565b8161481f575060006108c7565b8160018114614835576002811461483f5761485b565b60019150506108c7565b60ff84111561485057614850614797565b50506001821b6108c7565b5060208310610133831016604e8410600b841016171561487e575081810a6108c7565b61488883836147c0565b806000190482111561489c5761489c614797565b029392505050565b6000613a688383614803565b818103818111156108c7576108c7614797565b80820281158282048414176108c7576108c7614797565b6000826148f757634e487b7160e01b600052601260045260246000fd5b500490565b60208082526026908201527f4e6f2066696e616e63696e67207265717565737420666f7220746869732070726040820152656f706572747960d01b606082015260800190565b6020808252602e908201527f46696e616e63696e67207265717565737420616c726561647920617070726f7660408201526d1959081bdc881c995a9958dd195960921b606082015260800190565b60208082526024908201527f50726f70657274792077697468207468697320494420646f6573206e6f7420656040820152631e1a5cdd60e21b606082015260800190565b6000600182016149e6576149e6614797565b5060010190565b602080825260169082015275141c9bdc195c9d1e481a5cc81b9bdd081b1a5cdd195960521b604082015260600190565b60208082526017908201527f4275796572206e6f7420666f756e6420696e2062696473000000000000000000604082015260600190565b60208082526022908201527f427579657220616c726561647920626964206f6e20746869732070726f706572604082015261747960f01b606082015260800190565b6020808252600f908201526e109a5908185b1c9958591e481cd95d608a1b604082015260600190565b634e487b7160e01b600052603160045260246000fd5b600081614ae457614ae4614797565b506000190190565b601f821115610a9b576000816000526020600020601f850160051c81016020861015614b155750805b601f850160051c820191505b81811015614b3457828155600101614b21565b505050505050565b815167ffffffffffffffff811115614b5657614b56614460565b614b6a81614b6484546146b2565b84614aec565b602080601f831160018114614b9f5760008415614b875750858301515b600019600386901b1c1916600185901b178555614b34565b600085815260208120601f198616915b82811015614bce57888601518255948401946001909101908401614baf565b5085821015614bec5787850151600019600388901b60f8161c191681555b5050505050600190811b01905550565b60008351614c0e8184602088016140cb565b835190830190614c228183602088016140cb565b01949350505050565b60208082526025908201527f4552433732313a207472616e736665722066726f6d20696e636f72726563742060408201526437bbb732b960d91b606082015260800190565b6020808252602b908201527f496e697469616c697a61626c653a20636f6e7472616374206973206e6f74206960408201526a6e697469616c697a696e6760a81b606082015260800190565b60208082526032908201527f4552433732313a207472616e7366657220746f206e6f6e20455243373231526560408201527131b2b4bb32b91034b6b83632b6b2b73a32b960711b606082015260800190565b6001600160a01b0385811682528416602082015260408101839052608060608201819052600090614665908301846140ef565b600060208284031215614d5257600080fd5b8151613a688161409856fea2646970667358221220fd93f0038f89015e2cfe846fd44033145933382ee6873699ee1375b92a7fb04064736f6c63430008170033",
  "linkReferences": {},
  "deployedLinkReferences": {}
}