{
  "_format": "hh-sol-artifact-1",
  "contractName": "EthState",
  "sourceName": "contracts/EthState.sol",
  "abi": [
    {
      "anonymous": false,
      "inputs": [
        {
          "indexed": true,
          "internalType": "address",
          "name": "_seller",
          "type": "address"
        },
        {
          "indexed": false,
          "internalType": "uint256",
          "name": "_propertyId",
          "type": "uint256"
        },
        {
          "indexed": false,
          "internalType": "uint256",
          "name": "_bidPrice",
          "type": "uint256"
        }
      ],
      "name": "Accept",
      "type": "event"
    },
    {
      "anonymous": false,
      "inputs": [
        {
          "indexed": true,
          "internalType": "address",
          "name": "_owner",
          "type": "address"
        },
        {
          "indexed": false,
          "internalType": "uint256",
          "name": "_propertyId",
          "type": "uint256"
        }
      ],
      "name": "Add",
      "type": "event"
    },
    {
      "anonymous": false,
      "inputs": [
        {
          "indexed": true,
          "internalType": "address",
          "name": "owner",
          "type": "address"
        },
        {
          "indexed": true,
          "internalType": "address",
          "name": "approved",
          "type": "address"
        },
        {
          "indexed": true,
          "internalType": "uint256",
          "name": "tokenId",
          "type": "uint256"
        }
      ],
      "name": "Approval",
      "type": "event"
    },
    {
      "anonymous": false,
      "inputs": [
        {
          "indexed": true,
          "internalType": "address",
          "name": "owner",
          "type": "address"
        },
        {
          "indexed": true,
          "internalType": "address",
          "name": "operator",
          "type": "address"
        },
        {
          "indexed": false,
          "internalType": "bool",
          "name": "approved",
          "type": "bool"
        }
      ],
      "name": "ApprovalForAll",
      "type": "event"
    },
    {
      "anonymous": false,
      "inputs": [
        {
          "indexed": false,
          "internalType": "uint256",
          "name": "_fromTokenId",
          "type": "uint256"
        },
        {
          "indexed": false,
          "internalType": "uint256",
          "name": "_toTokenId",
          "type": "uint256"
        }
      ],
      "name": "BatchMetadataUpdate",
      "type": "event"
    },
    {
      "anonymous": false,
      "inputs": [
        {
          "indexed": true,
          "internalType": "address",
          "name": "_buyer",
          "type": "address"
        },
        {
          "indexed": false,
          "internalType": "uint256",
          "name": "_propertyId",
          "type": "uint256"
        },
        {
          "indexed": false,
          "internalType": "uint256",
          "name": "_buyOutPrice",
          "type": "uint256"
        }
      ],
      "name": "BuyOut",
      "type": "event"
    },
    {
      "anonymous": false,
      "inputs": [
        {
          "indexed": true,
          "internalType": "address",
          "name": "_lender",
          "type": "address"
        },
        {
          "indexed": true,
          "internalType": "address",
          "name": "_loaner",
          "type": "address"
        },
        {
          "indexed": false,
          "internalType": "uint256",
          "name": "_propertyId",
          "type": "uint256"
        },
        {
          "indexed": false,
          "internalType": "uint256",
          "name": "_financingId",
          "type": "uint256"
        }
      ],
      "name": "Default",
      "type": "event"
    },
    {
      "anonymous": false,
      "inputs": [
        {
          "indexed": true,
          "internalType": "address",
          "name": "_lender",
          "type": "address"
        },
        {
          "indexed": true,
          "internalType": "address",
          "name": "_loaner",
          "type": "address"
        },
        {
          "indexed": false,
          "internalType": "uint256",
          "name": "_propertyId",
          "type": "uint256"
        },
        {
          "indexed": false,
          "internalType": "uint256",
          "name": "financingId",
          "type": "uint256"
        }
      ],
      "name": "FinanceApproval",
      "type": "event"
    },
    {
      "anonymous": false,
      "inputs": [
        {
          "indexed": true,
          "internalType": "address",
          "name": "_lender",
          "type": "address"
        },
        {
          "indexed": true,
          "internalType": "address",
          "name": "_loaner",
          "type": "address"
        },
        {
          "indexed": false,
          "internalType": "uint256",
          "name": "_propertyId",
          "type": "uint256"
        },
        {
          "indexed": false,
          "internalType": "uint256",
          "name": "_financingId",
          "type": "uint256"
        }
      ],
      "name": "FinanceRejection",
      "type": "event"
    },
    {
      "anonymous": false,
      "inputs": [
        {
          "indexed": true,
          "internalType": "address",
          "name": "_lender",
          "type": "address"
        },
        {
          "indexed": true,
          "internalType": "address",
          "name": "_loaner",
          "type": "address"
        },
        {
          "indexed": false,
          "internalType": "uint256",
          "name": "_propertyId",
          "type": "uint256"
        },
        {
          "indexed": false,
          "internalType": "uint256",
          "name": "_financingId",
          "type": "uint256"
        }
      ],
      "name": "FinanceRequest",
      "type": "event"
    },
    {
      "anonymous": false,
      "inputs": [
        {
          "indexed": false,
          "internalType": "uint8",
          "name": "version",
          "type": "uint8"
        }
      ],
      "name": "Initialized",
      "type": "event"
    },
    {
      "anonymous": false,
      "inputs": [
        {
          "indexed": true,
          "internalType": "address",
          "name": "_seller",
          "type": "address"
        },
        {
          "indexed": false,
          "internalType": "uint256",
          "name": "_propertyId",
          "type": "uint256"
        },
        {
          "indexed": false,
          "internalType": "uint256",
          "name": "_sellPrice",
          "type": "uint256"
        }
      ],
      "name": "List",
      "type": "event"
    },
    {
      "anonymous": false,
      "inputs": [
        {
          "indexed": false,
          "internalType": "uint256",
          "name": "_tokenId",
          "type": "uint256"
        }
      ],
      "name": "MetadataUpdate",
      "type": "event"
    },
    {
      "anonymous": false,
      "inputs": [
        {
          "indexed": true,
          "internalType": "address",
          "name": "_buyer",
          "type": "address"
        },
        {
          "indexed": false,
          "internalType": "uint256",
          "name": "_propertyId",
          "type": "uint256"
        },
        {
          "indexed": false,
          "internalType": "uint256",
          "name": "_bidPrice",
          "type": "uint256"
        }
      ],
      "name": "Offer",
      "type": "event"
    },
    {
      "anonymous": false,
      "inputs": [
        {
          "indexed": true,
          "internalType": "address",
          "name": "previousOwner",
          "type": "address"
        },
        {
          "indexed": true,
          "internalType": "address",
          "name": "newOwner",
          "type": "address"
        }
      ],
      "name": "OwnershipTransferred",
      "type": "event"
    },
    {
      "anonymous": false,
      "inputs": [
        {
          "indexed": true,
          "internalType": "address",
          "name": "_lender",
          "type": "address"
        },
        {
          "indexed": true,
          "internalType": "address",
          "name": "_loaner",
          "type": "address"
        },
        {
          "indexed": false,
          "internalType": "uint256",
          "name": "_propertyId",
          "type": "uint256"
        },
        {
          "indexed": false,
          "internalType": "uint256",
          "name": "_financingId",
          "type": "uint256"
        }
      ],
      "name": "PaidOff",
      "type": "event"
    },
    {
      "anonymous": false,
      "inputs": [
        {
          "indexed": true,
          "internalType": "address",
          "name": "_lender",
          "type": "address"
        },
        {
          "indexed": true,
          "internalType": "address",
          "name": "_loaner",
          "type": "address"
        },
        {
          "indexed": false,
          "internalType": "uint256",
          "name": "_propertyId",
          "type": "uint256"
        },
        {
          "indexed": false,
          "internalType": "uint256",
          "name": "_financingId",
          "type": "uint256"
        },
        {
          "indexed": false,
          "internalType": "uint256",
          "name": "_paidMonths",
          "type": "uint256"
        },
        {
          "indexed": false,
          "internalType": "uint256",
          "name": "_monthlyPayment",
          "type": "uint256"
        }
      ],
      "name": "Payment",
      "type": "event"
    },
    {
      "anonymous": false,
      "inputs": [
        {
          "indexed": true,
          "internalType": "address",
          "name": "_owner",
          "type": "address"
        },
        {
          "indexed": false,
          "internalType": "uint256",
          "name": "_propertyId",
          "type": "uint256"
        }
      ],
      "name": "Remove",
      "type": "event"
    },
    {
      "anonymous": false,
      "inputs": [
        {
          "indexed": true,
          "internalType": "address",
          "name": "from",
          "type": "address"
        },
        {
          "indexed": true,
          "internalType": "address",
          "name": "to",
          "type": "address"
        },
        {
          "indexed": true,
          "internalType": "uint256",
          "name": "tokenId",
          "type": "uint256"
        }
      ],
      "name": "Transfer",
      "type": "event"
    },
    {
      "anonymous": false,
      "inputs": [
        {
          "indexed": true,
          "internalType": "address",
          "name": "_seller",
          "type": "address"
        },
        {
          "indexed": true,
          "internalType": "address",
          "name": "_buyer",
          "type": "address"
        },
        {
          "indexed": false,
          "internalType": "uint256",
          "name": "_propertyId",
          "type": "uint256"
        },
        {
          "indexed": false,
          "internalType": "uint256",
          "name": "_sellPrice",
          "type": "uint256"
        }
      ],
      "name": "Transfer",
      "type": "event"
    },
    {
      "anonymous": false,
      "inputs": [
        {
          "indexed": true,
          "internalType": "address",
          "name": "_seller",
          "type": "address"
        },
        {
          "indexed": false,
          "internalType": "uint256",
          "name": "_propertyId",
          "type": "uint256"
        }
      ],
      "name": "Unlist",
      "type": "event"
    },
    {
      "inputs": [
        {
          "internalType": "uint256",
          "name": "_propertyId",
          "type": "uint256"
        },
        {
          "internalType": "address",
          "name": "_buyer",
          "type": "address"
        }
      ],
      "name": "acceptOffer",
      "outputs": [],
      "stateMutability": "nonpayable",
      "type": "function"
    },
    {
      "inputs": [
        {
          "internalType": "address",
          "name": "_lender",
          "type": "address"
        }
      ],
      "name": "addLender",
      "outputs": [],
      "stateMutability": "nonpayable",
      "type": "function"
    },
    {
      "inputs": [
        {
          "internalType": "string",
          "name": "_uri",
          "type": "string"
        }
      ],
      "name": "addProperty",
      "outputs": [],
      "stateMutability": "nonpayable",
      "type": "function"
    },
    {
      "inputs": [
        {
          "internalType": "address",
          "name": "to",
          "type": "address"
        },
        {
          "internalType": "uint256",
          "name": "tokenId",
          "type": "uint256"
        }
      ],
      "name": "approve",
      "outputs": [],
      "stateMutability": "nonpayable",
      "type": "function"
    },
    {
      "inputs": [
        {
          "internalType": "uint256",
          "name": "_propertyId",
          "type": "uint256"
        },
        {
          "internalType": "uint256",
          "name": "_financingId",
          "type": "uint256"
        }
      ],
      "name": "approveFinancing",
      "outputs": [],
      "stateMutability": "nonpayable",
      "type": "function"
    },
    {
      "inputs": [
        {
          "internalType": "uint256",
          "name": "_propertyId",
          "type": "uint256"
        }
      ],
      "name": "approveTransferAsBuyer",
      "outputs": [],
      "stateMutability": "payable",
      "type": "function"
    },
    {
      "inputs": [
        {
          "internalType": "uint256",
          "name": "_propertyId",
          "type": "uint256"
        }
      ],
      "name": "approveTransferAsSeller",
      "outputs": [],
      "stateMutability": "nonpayable",
      "type": "function"
    },
    {
      "inputs": [
        {
          "internalType": "address",
          "name": "owner",
          "type": "address"
        }
      ],
      "name": "balanceOf",
      "outputs": [
        {
          "internalType": "uint256",
          "name": "",
          "type": "uint256"
        }
      ],
      "stateMutability": "view",
      "type": "function"
    },
    {
      "inputs": [
        {
          "internalType": "uint256",
          "name": "_propertyId",
          "type": "uint256"
        },
        {
          "internalType": "uint256",
          "name": "_bidPrice",
          "type": "uint256"
        }
      ],
      "name": "bid",
      "outputs": [],
      "stateMutability": "nonpayable",
      "type": "function"
    },
    {
      "inputs": [
        {
          "internalType": "uint256",
          "name": "_propertyId",
          "type": "uint256"
        }
      ],
      "name": "buyOut",
      "outputs": [],
      "stateMutability": "payable",
      "type": "function"
    },
    {
      "inputs": [],
      "name": "defaultOnFinancing",
      "outputs": [],
      "stateMutability": "nonpayable",
      "type": "function"
    },
    {
      "inputs": [
        {
          "internalType": "uint256",
          "name": "_propertyId",
          "type": "uint256"
        },
        {
          "internalType": "address",
          "name": "_lender",
          "type": "address"
        },
        {
          "internalType": "uint256",
          "name": "_loanAmount",
          "type": "uint256"
        },
        {
          "internalType": "uint256",
          "name": "_monthlyInterestRate",
          "type": "uint256"
        },
        {
          "internalType": "uint256",
          "name": "_durationInMonths",
          "type": "uint256"
        }
      ],
      "name": "financingRequest",
      "outputs": [],
      "stateMutability": "nonpayable",
      "type": "function"
    },
    {
      "inputs": [
        {
          "internalType": "uint256",
          "name": "",
          "type": "uint256"
        },
        {
          "internalType": "uint256",
          "name": "",
          "type": "uint256"
        }
      ],
      "name": "financings",
      "outputs": [
        {
          "internalType": "uint256",
          "name": "propertyId",
          "type": "uint256"
        },
        {
          "internalType": "address",
          "name": "lender",
          "type": "address"
        },
        {
          "internalType": "enum FinancingContract.FinancingStatus",
          "name": "status",
          "type": "uint8"
        },
        {
          "internalType": "uint256",
          "name": "loanAmount",
          "type": "uint256"
        },
        {
          "internalType": "uint256",
          "name": "monthlyInterestRate",
          "type": "uint256"
        },
        {
          "internalType": "uint256",
          "name": "durationInMonths",
          "type": "uint256"
        },
        {
          "internalType": "uint256",
          "name": "monthlyPayment",
          "type": "uint256"
        },
        {
          "internalType": "uint256",
          "name": "paidMonths",
          "type": "uint256"
        }
      ],
      "stateMutability": "view",
      "type": "function"
    },
    {
      "inputs": [],
      "name": "getActiveListings",
      "outputs": [
        {
          "components": [
            {
              "internalType": "uint256",
              "name": "propertyId",
              "type": "uint256"
            },
            {
              "internalType": "uint256",
              "name": "sellPrice",
              "type": "uint256"
            },
            {
              "internalType": "bool",
              "name": "buyerApproved",
              "type": "bool"
            },
            {
              "internalType": "bool",
              "name": "sellerApproved",
              "type": "bool"
            },
            {
              "components": [
                {
                  "internalType": "address",
                  "name": "buyer",
                  "type": "address"
                },
                {
                  "internalType": "uint256",
                  "name": "bidPrice",
                  "type": "uint256"
                }
              ],
              "internalType": "struct MarketplaceContract.Bid[]",
              "name": "bids",
              "type": "tuple[]"
            },
            {
              "components": [
                {
                  "internalType": "address",
                  "name": "buyer",
                  "type": "address"
                },
                {
                  "internalType": "uint256",
                  "name": "bidPrice",
                  "type": "uint256"
                }
              ],
              "internalType": "struct MarketplaceContract.Bid",
              "name": "acceptedBid",
              "type": "tuple"
            }
          ],
          "internalType": "struct MarketplaceContract.Listing[]",
          "name": "",
          "type": "tuple[]"
        }
      ],
      "stateMutability": "view",
      "type": "function"
    },
    {
      "inputs": [
        {
          "internalType": "uint256",
          "name": "tokenId",
          "type": "uint256"
        }
      ],
      "name": "getApproved",
      "outputs": [
        {
          "internalType": "address",
          "name": "",
          "type": "address"
        }
      ],
      "stateMutability": "view",
      "type": "function"
    },
    {
      "inputs": [
        {
          "internalType": "uint256",
          "name": "_propertyId",
          "type": "uint256"
        }
      ],
      "name": "getListing",
      "outputs": [
        {
          "components": [
            {
              "internalType": "uint256",
              "name": "propertyId",
              "type": "uint256"
            },
            {
              "internalType": "uint256",
              "name": "sellPrice",
              "type": "uint256"
            },
            {
              "internalType": "bool",
              "name": "buyerApproved",
              "type": "bool"
            },
            {
              "internalType": "bool",
              "name": "sellerApproved",
              "type": "bool"
            },
            {
              "components": [
                {
                  "internalType": "address",
                  "name": "buyer",
                  "type": "address"
                },
                {
                  "internalType": "uint256",
                  "name": "bidPrice",
                  "type": "uint256"
                }
              ],
              "internalType": "struct MarketplaceContract.Bid[]",
              "name": "bids",
              "type": "tuple[]"
            },
            {
              "components": [
                {
                  "internalType": "address",
                  "name": "buyer",
                  "type": "address"
                },
                {
                  "internalType": "uint256",
                  "name": "bidPrice",
                  "type": "uint256"
                }
              ],
              "internalType": "struct MarketplaceContract.Bid",
              "name": "acceptedBid",
              "type": "tuple"
            }
          ],
          "internalType": "struct MarketplaceContract.Listing",
          "name": "",
          "type": "tuple"
        }
      ],
      "stateMutability": "view",
      "type": "function"
    },
    {
      "inputs": [
        {
          "internalType": "address",
          "name": "_owner",
          "type": "address"
        }
      ],
      "name": "getPropertiesByOwner",
      "outputs": [
        {
          "components": [
            {
              "internalType": "uint256",
              "name": "propertyId",
              "type": "uint256"
            },
            {
              "internalType": "string",
              "name": "uri",
              "type": "string"
            }
          ],
          "internalType": "struct PropertyContract.Property[]",
          "name": "",
          "type": "tuple[]"
        }
      ],
      "stateMutability": "view",
      "type": "function"
    },
    {
      "inputs": [],
      "name": "initialize",
      "outputs": [],
      "stateMutability": "nonpayable",
      "type": "function"
    },
    {
      "inputs": [
        {
          "internalType": "address",
          "name": "owner",
          "type": "address"
        },
        {
          "internalType": "address",
          "name": "operator",
          "type": "address"
        }
      ],
      "name": "isApprovedForAll",
      "outputs": [
        {
          "internalType": "bool",
          "name": "",
          "type": "bool"
        }
      ],
      "stateMutability": "view",
      "type": "function"
    },
    {
      "inputs": [
        {
          "internalType": "uint256",
          "name": "",
          "type": "uint256"
        }
      ],
      "name": "lenders",
      "outputs": [
        {
          "internalType": "address",
          "name": "",
          "type": "address"
        }
      ],
      "stateMutability": "view",
      "type": "function"
    },
    {
      "inputs": [
        {
          "internalType": "uint256",
          "name": "_propertyId",
          "type": "uint256"
        },
        {
          "internalType": "uint256",
          "name": "_sellPrice",
          "type": "uint256"
        }
      ],
      "name": "listProperty",
      "outputs": [],
      "stateMutability": "nonpayable",
      "type": "function"
    },
    {
      "inputs": [],
      "name": "listingCount",
      "outputs": [
        {
          "internalType": "uint256",
          "name": "",
          "type": "uint256"
        }
      ],
      "stateMutability": "view",
      "type": "function"
    },
    {
      "inputs": [
        {
          "internalType": "uint256",
          "name": "",
          "type": "uint256"
        }
      ],
      "name": "listings",
      "outputs": [
        {
          "internalType": "uint256",
          "name": "propertyId",
          "type": "uint256"
        },
        {
          "internalType": "uint256",
          "name": "sellPrice",
          "type": "uint256"
        },
        {
          "internalType": "bool",
          "name": "buyerApproved",
          "type": "bool"
        },
        {
          "internalType": "bool",
          "name": "sellerApproved",
          "type": "bool"
        },
        {
          "components": [
            {
              "internalType": "address",
              "name": "buyer",
              "type": "address"
            },
            {
              "internalType": "uint256",
              "name": "bidPrice",
              "type": "uint256"
            }
          ],
          "internalType": "struct MarketplaceContract.Bid",
          "name": "acceptedBid",
          "type": "tuple"
        }
      ],
      "stateMutability": "view",
      "type": "function"
    },
    {
      "inputs": [],
      "name": "makePayment",
      "outputs": [],
      "stateMutability": "payable",
      "type": "function"
    },
    {
      "inputs": [],
      "name": "name",
      "outputs": [
        {
          "internalType": "string",
          "name": "",
          "type": "string"
        }
      ],
      "stateMutability": "view",
      "type": "function"
    },
    {
      "inputs": [],
      "name": "owner",
      "outputs": [
        {
          "internalType": "address",
          "name": "",
          "type": "address"
        }
      ],
      "stateMutability": "view",
      "type": "function"
    },
    {
      "inputs": [
        {
          "internalType": "uint256",
          "name": "tokenId",
          "type": "uint256"
        }
      ],
      "name": "ownerOf",
      "outputs": [
        {
          "internalType": "address",
          "name": "",
          "type": "address"
        }
      ],
      "stateMutability": "view",
      "type": "function"
    },
    {
      "inputs": [
        {
          "internalType": "uint256",
          "name": "",
          "type": "uint256"
        }
      ],
      "name": "properties",
      "outputs": [
        {
          "internalType": "uint256",
          "name": "propertyId",
          "type": "uint256"
        },
        {
          "internalType": "string",
          "name": "uri",
          "type": "string"
        }
      ],
      "stateMutability": "view",
      "type": "function"
    },
    {
      "inputs": [],
      "name": "propertyCount",
      "outputs": [
        {
          "internalType": "uint256",
          "name": "",
          "type": "uint256"
        }
      ],
      "stateMutability": "view",
      "type": "function"
    },
    {
      "inputs": [
        {
          "internalType": "uint256",
          "name": "_propertyId",
          "type": "uint256"
        },
        {
          "internalType": "uint256",
          "name": "_financingId",
          "type": "uint256"
        }
      ],
      "name": "rejectFinancing",
      "outputs": [],
      "stateMutability": "nonpayable",
      "type": "function"
    },
    {
      "inputs": [
        {
          "internalType": "address",
          "name": "_lender",
          "type": "address"
        }
      ],
      "name": "removeLender",
      "outputs": [],
      "stateMutability": "nonpayable",
      "type": "function"
    },
    {
      "inputs": [
        {
          "internalType": "uint256",
          "name": "_propertyId",
          "type": "uint256"
        }
      ],
      "name": "removeProperty",
      "outputs": [],
      "stateMutability": "nonpayable",
      "type": "function"
    },
    {
      "inputs": [],
      "name": "renounceOwnership",
      "outputs": [],
      "stateMutability": "nonpayable",
      "type": "function"
    },
    {
      "inputs": [
        {
          "internalType": "address",
          "name": "from",
          "type": "address"
        },
        {
          "internalType": "address",
          "name": "to",
          "type": "address"
        },
        {
          "internalType": "uint256",
          "name": "tokenId",
          "type": "uint256"
        }
      ],
      "name": "safeTransferFrom",
      "outputs": [],
      "stateMutability": "nonpayable",
      "type": "function"
    },
    {
      "inputs": [
        {
          "internalType": "address",
          "name": "from",
          "type": "address"
        },
        {
          "internalType": "address",
          "name": "to",
          "type": "address"
        },
        {
          "internalType": "uint256",
          "name": "tokenId",
          "type": "uint256"
        },
        {
          "internalType": "bytes",
          "name": "data",
          "type": "bytes"
        }
      ],
      "name": "safeTransferFrom",
      "outputs": [],
      "stateMutability": "nonpayable",
      "type": "function"
    },
    {
      "inputs": [
        {
          "internalType": "address",
          "name": "operator",
          "type": "address"
        },
        {
          "internalType": "bool",
          "name": "approved",
          "type": "bool"
        }
      ],
      "name": "setApprovalForAll",
      "outputs": [],
      "stateMutability": "nonpayable",
      "type": "function"
    },
    {
      "inputs": [
        {
          "internalType": "bytes4",
          "name": "interfaceId",
          "type": "bytes4"
        }
      ],
      "name": "supportsInterface",
      "outputs": [
        {
          "internalType": "bool",
          "name": "",
          "type": "bool"
        }
      ],
      "stateMutability": "view",
      "type": "function"
    },
    {
      "inputs": [],
      "name": "symbol",
      "outputs": [
        {
          "internalType": "string",
          "name": "",
          "type": "string"
        }
      ],
      "stateMutability": "view",
      "type": "function"
    },
    {
      "inputs": [
        {
          "internalType": "uint256",
          "name": "tokenId",
          "type": "uint256"
        }
      ],
      "name": "tokenURI",
      "outputs": [
        {
          "internalType": "string",
          "name": "",
          "type": "string"
        }
      ],
      "stateMutability": "view",
      "type": "function"
    },
    {
      "inputs": [
        {
          "internalType": "address",
          "name": "from",
          "type": "address"
        },
        {
          "internalType": "address",
          "name": "to",
          "type": "address"
        },
        {
          "internalType": "uint256",
          "name": "tokenId",
          "type": "uint256"
        }
      ],
      "name": "transferFrom",
      "outputs": [],
      "stateMutability": "nonpayable",
      "type": "function"
    },
    {
      "inputs": [
        {
          "internalType": "address",
          "name": "newOwner",
          "type": "address"
        }
      ],
      "name": "transferOwnership",
      "outputs": [],
      "stateMutability": "nonpayable",
      "type": "function"
    },
    {
      "inputs": [
        {
          "internalType": "uint256",
          "name": "_propertyId",
          "type": "uint256"
        }
      ],
      "name": "unlistProperty",
      "outputs": [],
      "stateMutability": "nonpayable",
      "type": "function"
    }
  ],
  "bytecode": "0x608060405234801561001057600080fd5b506149fb806100206000396000f3fe6080604052600436106102515760003560e01c8063918d407d11610139578063be999558116100b6578063de74e57b1161007a578063de74e57b1461072b578063e985e9c5146107ab578063ec7a81d0146107cb578063f2fde38b146107de578063f7b10808146107fe578063fd3df1711461082c57600080fd5b8063be999558146106a4578063c361a335146106d8578063c87b56dd146106ee578063c8efddf61461070e578063d8d797001461072357600080fd5b8063a22cb465116100fd578063a22cb4651461060e578063a9b07c261461062e578063b48cc6e514610644578063b88d4fde14610664578063bc43d06f1461068457600080fd5b8063918d407d1461051f578063929eea211461053f57806393084b341461055f57806395d89b41146105cc5780639fcb2748146105e157600080fd5b80635138f19f116101d25780637e6b3bbf116101965780637e6b3bbf1461046a5780638129fc1c1461048a57806384019eed1461049f578063841ad8b9146104bf57806387c35bc0146104df5780638da5cb5b1461050157600080fd5b80635138f19f146103d4578063598647f8146103e75780636352211e1461040757806370a0823114610427578063715018a61461045557600080fd5b806323b872dd1161021957806323b872dd14610334578063292588361461035457806341c38d851461037457806342842e0e146103945780634eda529b146103b457600080fd5b806301ffc9a71461025657806306fdde031461028b578063081812fc146102ad578063095ea7b3146102e5578063107a274a14610307575b600080fd5b34801561026257600080fd5b50610276610271366004613d63565b61084c565b60405190151581526020015b60405180910390f35b34801561029757600080fd5b506102a0610877565b6040516102829190613dd0565b3480156102b957600080fd5b506102cd6102c8366004613de3565b610909565b6040516001600160a01b039091168152602001610282565b3480156102f157600080fd5b50610305610300366004613e18565b610930565b005b34801561031357600080fd5b50610327610322366004613de3565b610a4a565b6040516102829190613f01565b34801561034057600080fd5b5061030561034f366004613f14565b610b78565b34801561036057600080fd5b5061030561036f366004613f50565b610ba9565b34801561038057600080fd5b5061030561038f366004613f96565b610ebe565b3480156103a057600080fd5b506103056103af366004613f14565b61116c565b3480156103c057600080fd5b506103056103cf366004613f96565b611187565b6103056103e2366004613de3565b611331565b3480156103f357600080fd5b50610305610402366004613f96565b61154b565b34801561041357600080fd5b506102cd610422366004613de3565b6117dc565b34801561043357600080fd5b50610447610442366004613fb8565b61183c565b604051908152602001610282565b34801561046157600080fd5b506103056118c2565b34801561047657600080fd5b50610305610485366004613de3565b6118d6565b34801561049657600080fd5b50610305611a02565b3480156104ab57600080fd5b506103056104ba366004613fb8565b611b23565b3480156104cb57600080fd5b506103056104da366004613de3565b611ba3565b3480156104eb57600080fd5b506104f4611d4c565b6040516102829190613fd3565b34801561050d57600080fd5b506033546001600160a01b03166102cd565b34801561052b57600080fd5b5061030561053a366004614037565b611f3c565b34801561054b57600080fd5b506102cd61055a366004613de3565b61225f565b34801561056b57600080fd5b5061030561057a366004613fb8565b60ff80546001810182556000919091527fe08ec2af2cfc251225e1968fd6ca21e4044f129bffa95bac3503be8bdb30a3670180546001600160a01b0319166001600160a01b0392909216919091179055565b3480156105d857600080fd5b506102a0612289565b3480156105ed57600080fd5b506106016105fc366004613fb8565b612298565b6040516102829190614063565b34801561061a57600080fd5b506103056106293660046140d9565b612441565b34801561063a57600080fd5b5061044760fd5481565b34801561065057600080fd5b5061030561065f3660046141a1565b61244c565b34801561067057600080fd5b5061030561067f3660046141ea565b61259c565b34801561069057600080fd5b5061030561069f366004613de3565b6125d4565b3480156106b057600080fd5b506106c46106bf366004613f96565b6126c8565b60405161028298979695949392919061427c565b3480156106e457600080fd5b5061044760fb5481565b3480156106fa57600080fd5b506102a0610709366004613de3565b61273a565b34801561071a57600080fd5b5061030561284a565b610305612852565b34801561073757600080fd5b5061079a610746366004613de3565b60fe60209081526000918252604091829020805460018201546002830154855180870190965260048401546001600160a01b03168652600590930154938501939093529260ff808316926101009004169085565b6040516102829594939291906142e2565b3480156107b757600080fd5b506102766107c6366004614324565b61288c565b6103056107d9366004613de3565b6128ba565b3480156107ea57600080fd5b506103056107f9366004613fb8565b612ac8565b34801561080a57600080fd5b5061081e610819366004613de3565b612b3e565b60405161028292919061434e565b34801561083857600080fd5b50610305610847366004613f96565b612be3565b60006001600160e01b03198216632483248360e11b1480610871575061087182612e87565b92915050565b60606097805461088690614367565b80601f01602080910402602001604051908101604052809291908181526020018280546108b290614367565b80156108ff5780601f106108d4576101008083540402835291602001916108ff565b820191906000526020600020905b8154815290600101906020018083116108e257829003601f168201915b5050505050905090565b600061091482612ed7565b506000908152609b60205260409020546001600160a01b031690565b600061093b826117dc565b9050806001600160a01b0316836001600160a01b0316036109ad5760405162461bcd60e51b815260206004820152602160248201527f4552433732313a20617070726f76616c20746f2063757272656e74206f776e656044820152603960f91b60648201526084015b60405180910390fd5b336001600160a01b03821614806109c957506109c9813361288c565b610a3b5760405162461bcd60e51b815260206004820152603d60248201527f4552433732313a20617070726f76652063616c6c6572206973206e6f7420746f60448201527f6b656e206f776e6572206f7220617070726f76656420666f7220616c6c00000060648201526084016109a4565b610a458383612f27565b505050565b610a8e6040805160c081018252600080825260208083018290528284018290526060808401839052608084015283518085019094528184528301529060a082015290565b600082815260fe60209081526040808320815160c08101835281548152600182015481850152600282015460ff8082161515838601526101009091041615156060820152600382018054845181870281018701909552808552919592946080870194939192919084015b82821015610b40576000848152602090819020604080518082019091526002850290910180546001600160a01b03168252600190810154828401529083529092019101610af8565b505050908252506040805180820190915260048301546001600160a01b03168152600590920154602083810191909152015292915050565b610b823382612f95565b610b9e5760405162461bcd60e51b81526004016109a4906143a1565b610a45838383612ff3565b8433610bb4826117dc565b6001600160a01b031614610bda5760405162461bcd60e51b81526004016109a4906143ee565b856000805b60008381526101006020526040902054811015610c5f576003600084815261010060205260409020805483908110610c1957610c19614436565b906000526020600020906007020160010160149054906101000a900460ff166005811115610c4957610c49614266565b03610c575760019150610c5f565b600101610bdf565b508015610cae5760405162461bcd60e51b815260206004820152601f60248201527f50726f706572747920616c7265616479206265696e672066696e616e6365640060448201526064016109a4565b600088815261010060205260408120543391600187610ccd8a83614462565b610cd79190614559565b610ce19190614565565b87610ced8a6001614462565b610cf79190614559565b610d01908a614578565b610d0b919061458f565b610d15908a614578565b6040519091506001600160a01b038416908a156108fc02908b906000818181858888f19350505050158015610d4e573d6000803e3d6000fd5b50610d598a8c612f27565b60008b81526101006020818152604092839020835192830184528e83526001600160a01b038e16918301919091529181016001815260208082018d905260408083018d9052606083018c905260808301869052600060a09093018390528454600180820187559584529282902084516007909402019283559083015193820180546001600160a01b031981166001600160a01b03909616958617825591840151939492939290916001600160a81b03191617600160a01b836005811115610e2257610e22614266565b0217905550606082015181600201556080820151816003015560a0820151816004015560c0820151816005015560e082015181600601555050826001600160a01b03168a6001600160a01b03167f4205b7bf0dc285765b14df5a0705e12690c033399dda27c398dd939e877444698d85604051610ea9929190918252602082015260400190565b60405180910390a35050505050505050505050565b6000828152610100602052604090205482908290610eee5760405162461bcd60e51b81526004016109a4906145b1565b6001600083815261010060205260409020805483908110610f1157610f11614436565b906000526020600020906007020160010160149054906101000a900460ff166005811115610f4157610f41614266565b14610f8e5760405162461bcd60e51b815260206004820152601d60248201527f46696e616e63696e672072657175657374206e6f742070656e64696e6700000060448201526064016109a4565b60008481526101006020526040902054610fba5760405162461bcd60e51b81526004016109a4906145b1565b6001600085815261010060205260409020805485908110610fdd57610fdd614436565b906000526020600020906007020160010160149054906101000a900460ff16600581111561100d5761100d614266565b1461102a5760405162461bcd60e51b81526004016109a4906145f7565b60008481526101006020526040902080543391908590811061104e5761104e614436565b60009182526020909120600160079092020101546001600160a01b0316146110b35760405162461bcd60e51b815260206004820152601860248201527721b0b63632b91034b9903737ba103a3432903632b73232b960411b60448201526064016109a4565b600084815261010060205260409020805460029190859081106110d8576110d8614436565b60009182526020909120600160079092020101805460ff60a01b1916600160a01b83600581111561110b5761110b614266565b02179055506000848152609960209081526040918290205482518781529182018690526001600160a01b03169133917fc382dc9808425d8488afd57f8db541349438287b10c168ea8c4465f171ea7a1491015b60405180910390a350505050565b610a458383836040518060200160405280600081525061259c565b8161119181613157565b6111ad5760405162461bcd60e51b81526004016109a490614645565b82336111b8826117dc565b6001600160a01b0316146111de5760405162461bcd60e51b81526004016109a4906143ee565b6111e784613157565b6112035760405162461bcd60e51b81526004016109a490614645565b600083116112535760405162461bcd60e51b815260206004820152601960248201527f53656c6c2070726963652063616e6e6f74206265207a65726f0000000000000060448201526064016109a4565b600084815260fe60205260409020548490036112b15760405162461bcd60e51b815260206004820152601a60248201527f50726f706572747920697320616c7265616479206c697374656400000000000060448201526064016109a4565b60fd80549060006112c183614689565b9091555050600084815260fe6020526040902084815560018101849055336001600160a01b03167f1518ffac149698f404e82117efa8b67d99c365490eefe4e0f91856a93ca8d9c18686604051611322929190918252602082015260400190565b60405180910390a25050505050565b8061133b81613157565b6113575760405162461bcd60e51b81526004016109a490614645565b600082815260fe6020526040902054829081146113865760405162461bcd60e51b81526004016109a4906146a2565b600083815260fe60205260409020600401546001600160a01b031633146114005760405162461bcd60e51b815260206004820152602860248201527f43616c6c6572206973206e6f7420746865206275796572206f6620746869732060448201526770726f706572747960c01b60648201526084016109a4565b600083815260fe60205260409020600501543410156114585760405162461bcd60e51b8152602060048201526014602482015273125b9cdd59999a58da595b9d081c185e5b595b9d60621b60448201526064016109a4565b600083815260fe602052604090206002015460ff16156114c95760405162461bcd60e51b815260206004820152602660248201527f5472616e7366657220616c726561647920617070726f7665642062792074686560448201526510313abcb2b960d11b60648201526084016109a4565b600083815260fe60205260409020600201805460ff191660011790556114ec3390565b600084815260fe60205260409020600501546001600160a01b0391909116906108fc906115199034614565565b6040518115909202916000818181858888f19350505050158015611541573d6000803e3d6000fd5b50610a4583613174565b8161155581613157565b6115715760405162461bcd60e51b81526004016109a490614645565b600083815260fe6020526040902054839081146115a05760405162461bcd60e51b81526004016109a4906146a2565b8333600080805b600085815260fe602052604090206003015481101561161f57600085815260fe6020526040902060030180546001600160a01b0386169190839081106115ef576115ef614436565b60009182526020909120600290910201546001600160a01b031603611617576001915061161f565b6001016115a7565b508115611672578061166d5760405162461bcd60e51b81526020600482015260176024820152764275796572206e6f7420666f756e6420696e206269647360481b60448201526064016109a4565b611690565b80156116905760405162461bcd60e51b81526004016109a4906146d2565b611699886117dc565b6001600160a01b031633036116e35760405162461bcd60e51b815260206004820152601060248201526f13dddb995c8818d85b9b9bdd08189a5960821b60448201526064016109a4565b600088815260fe60205260409020600401546001600160a01b031615801561171a5750600088815260fe6020526040902060050154155b6117365760405162461bcd60e51b81526004016109a490614714565b600088815260fe6020908152604080832081518083018352338082528185018d81526003909301805460018082018355918852968690209251600290970290920180546001600160a01b0319166001600160a01b03909716969096178655915194019390935580518b81529182018a90527f4a68fde121386ffcfc9555407bfb38625033a0d0d3726b00f56b4ab304b55447910160405180910390a25050505050505050565b6000818152609960205260408120546001600160a01b0316806108715760405162461bcd60e51b8152602060048201526018602482015277115490cdcc8c4e881a5b9d985b1a59081d1bdad95b88125160421b60448201526064016109a4565b60006001600160a01b0382166118a65760405162461bcd60e51b815260206004820152602960248201527f4552433732313a2061646472657373207a65726f206973206e6f7420612076616044820152683634b21037bbb732b960b91b60648201526084016109a4565b506001600160a01b03166000908152609a602052604090205490565b6118ca61339f565b6118d460006133f9565b565b806118e081613157565b6118fc5760405162461bcd60e51b81526004016109a490614645565b600082815260fe60205260409020548290811461192b5760405162461bcd60e51b81526004016109a4906146a2565b611934836117dc565b6001600160a01b0316336001600160a01b0316146119645760405162461bcd60e51b81526004016109a4906143ee565b600083815260fe6020526040902060020154610100900460ff16156119db5760405162461bcd60e51b815260206004820152602760248201527f5472616e7366657220616c726561647920617070726f766564206279207468656044820152661039b2b63632b960c91b60648201526084016109a4565b600083815260fe60205260409020600201805461ff001916610100179055610a4583613174565b600054610100900460ff1615808015611a225750600054600160ff909116105b80611a3c5750303b158015611a3c575060005460ff166001145b611a9f5760405162461bcd60e51b815260206004820152602e60248201527f496e697469616c697a61626c653a20636f6e747261637420697320616c72656160448201526d191e481a5b9a5d1a585b1a5e995960921b60648201526084016109a4565b6000805460ff191660011790558015611ac2576000805461ff0019166101001790555b611aca61344b565b611ad261347a565b611ada61348a565b8015611b20576000805461ff0019169055604051600181527f7f26b83ff96e1f2b6a682f133852f6798a09c465da95921460cefb38474024989060200160405180910390a15b50565b60005b60ff54811015611b9f57816001600160a01b031660ff8281548110611b4d57611b4d614436565b6000918252602090912001546001600160a01b031603611b975760ff8181548110611b7a57611b7a614436565b600091825260209091200180546001600160a01b03191690555050565b600101611b26565b5050565b80611bad81613157565b611bc95760405162461bcd60e51b81526004016109a490614645565b8133611bd4826117dc565b6001600160a01b031614611bfa5760405162461bcd60e51b81526004016109a4906143ee565b600083815260fe602052604090205483908114611c295760405162461bcd60e51b81526004016109a4906146a2565b600084815260fe602052604090206002015460ff16158015611c625750600084815260fe6020526040902060020154610100900460ff16155b611cae5760405162461bcd60e51b815260206004820152601a60248201527f50726f706572747920697320756e646572207472616e7366657200000000000060448201526064016109a4565b60fd8054906000611cbe8361473d565b9091555050600084815260fe602052604081208181556001810182905560028101805461ffff1916905590611cf66003830182613cb3565b506004810180546001600160a01b0319169055600060059091015560405184815233907f99700a6ee3c3e4d026c56e3d3618a8157ca8e5efc0c4a4a3e555a9744d25fdbd9060200160405180910390a250505050565b6060600060fd5467ffffffffffffffff811115611d6b57611d6b614115565b604051908082528060200260200182016040528015611de057816020015b611dcd6040805160c081018252600080825260208083018290528284018290526060808401839052608084015283518085019094528184528301529060a082015290565b815260200190600190039081611d895790505b509050600060015b60fb548111611f3457600081815260fe6020526040902054819003611f1957600081815260fe60209081526040808320815160c08101835281548152600182015481850152600282015460ff8082161515838601526101009091041615156060820152600382018054845181870281018701909552808552919592946080870194939192919084015b82821015611eb9576000848152602090819020604080518082019091526002850290910180546001600160a01b03168252600190810154828401529083529092019101611e71565b505050908252506040805180820190915260048301546001600160a01b0316815260059092015460208381019190915201528351849084908110611eff57611eff614436565b60200260200101819052508180611f1590614689565b9250505b60fd548214611f345780611f2c81614689565b915050611de8565b509092915050565b81611f4681613157565b611f625760405162461bcd60e51b81526004016109a490614645565b8233611f6d826117dc565b6001600160a01b031614611f935760405162461bcd60e51b81526004016109a4906143ee565b600084815260fe602052604090205484908114611fc25760405162461bcd60e51b81526004016109a4906146a2565b848460016000805b600085815260fe602052604090206003015481101561204257600085815260fe6020526040902060030180546001600160a01b03861691908390811061201257612012614436565b60009182526020909120600290910201546001600160a01b03160361203a5760019150612042565b600101611fca565b50811561209557806120905760405162461bcd60e51b81526020600482015260176024820152764275796572206e6f7420666f756e6420696e206269647360481b60448201526064016109a4565b6120b3565b80156120b35760405162461bcd60e51b81526004016109a4906146d2565b600089815260fe60205260409020600401546001600160a01b03161580156120ea5750600089815260fe6020526040902060050154155b6121065760405162461bcd60e51b81526004016109a490614714565b600089815260fe60205260408120600201805461ff0019166101001790555b60008a815260fe60205260409020600301548110156122085760008a815260fe6020526040902060030180546001600160a01b038b1691908390811061216d5761216d614436565b60009182526020909120600290910201546001600160a01b0316036122005760008a815260fe602052604090206003018054829081106121af576121af614436565b600091825260208083208d845260fe9091526040909220600290910290910180546004830180546001600160a01b0319166001600160a01b0390921691909117905560010154600590910155612208565b600101612125565b50600089815260fe60209081526040918290206005015482518c815291820152815133927f7d2cfbbef328a1f13d4e8eec09f7ceddde17a22a204103792e8d6ae856e4618f928290030190a2505050505050505050565b60ff818154811061226f57600080fd5b6000918252602090912001546001600160a01b0316905081565b60606098805461088690614367565b60606000806122a68461183c565b905060008167ffffffffffffffff8111156122c3576122c3614115565b60405190808252806020026020018201604052801561230957816020015b6040805180820190915260008152606060208201528152602001906001900390816122e15790505b50905060015b60fb54811161243857856001600160a01b031661232b826117dc565b6001600160a01b03160361241f5760fc60008281526020019081526020016000206040518060400160405290816000820154815260200160018201805461237190614367565b80601f016020809104026020016040519081016040528092919081815260200182805461239d90614367565b80156123ea5780601f106123bf576101008083540402835291602001916123ea565b820191906000526020600020905b8154815290600101906020018083116123cd57829003601f168201915b50505050508152505082858151811061240557612405614436565b6020026020010181905250838061241b90614689565b9450505b838314612438578061243081614689565b91505061230f565b50949350505050565b611b9f338383613499565b60008151116124935760405162461bcd60e51b81526020600482015260136024820152725552492063616e6e6f7420626520656d70747960681b60448201526064016109a4565b60fb80549060006124a383614689565b909155505060408051808201825260fb548082526020808301858152600092835260fc90915292902081518155915190919060018201906124e490826147a4565b509050506124fa6124f23390565b60fb54613567565b61250660fb5482613581565b336001600160a01b031661251b60fb546117dc565b6001600160a01b0316146125615760405162461bcd60e51b815260206004820152600d60248201526c13dddb995c881b9bdd081cd95d609a1b60448201526064016109a4565b60fb5460405190815233907f2728c9d3205d667bbc0eefdfeda366261b4d021949630c047f3e5834b30611ab9060200160405180910390a250565b6125a63383612f95565b6125c25760405162461bcd60e51b81526004016109a4906143a1565b6125ce8484848461363d565b50505050565b806125de81613157565b6125fa5760405162461bcd60e51b81526004016109a490614645565b8133612605826117dc565b6001600160a01b03161461262b5760405162461bcd60e51b81526004016109a4906143ee565b61263483613157565b6126505760405162461bcd60e51b81526004016109a490614645565b61265983613670565b600083815260fc60205260408120818155906126786001830182613cd4565b50506126813390565b6001600160a01b03167f8e2f5fcc57c31738b03aa91accdd55b13dc355a4fa1707d953f49c973e18e6e4846040516126bb91815260200190565b60405180910390a2505050565b61010060205281600052604060002081815481106126e557600080fd5b600091825260209091206007909102018054600182015460028301546003840154600485015460058601546006909601549497506001600160a01b0384169650600160a01b90930460ff169491939092919088565b606061274582612ed7565b600082815260c960205260408120805461275e90614367565b80601f016020809104026020016040519081016040528092919081815260200182805461278a90614367565b80156127d75780601f106127ac576101008083540402835291602001916127d7565b820191906000526020600020905b8154815290600101906020018083116127ba57829003601f168201915b5050505050905060006127f560408051602081019091526000815290565b90508051600003612807575092915050565b815115612839578082604051602001612821929190614864565b60405160208183030381529060405292505050919050565b612842846136b0565b949350505050565b61285261339f565b60405162461bcd60e51b815260206004820152600f60248201526e139bdd081a5b5c1b195b595b9d1959608a1b60448201526064016109a4565b6001600160a01b039182166000908152609c6020908152604080832093909416825291909152205460ff1690565b806128c481613157565b6128e05760405162461bcd60e51b81526004016109a490614645565b600082815260fe60205260409020548290811461290f5760405162461bcd60e51b81526004016109a4906146a2565b600083815260fe60205260409020600401546001600160a01b03161580156129465750600083815260fe6020526040902060050154155b6129625760405162461bcd60e51b81526004016109a490614714565b600083815260fe60205260409020600101543410156129c35760405162461bcd60e51b815260206004820181905260248201527f496e73756666696369656e74207061796d656e7420666f7220627579206f757460448201526064016109a4565b600083815260fe602052604090819020600201805460ff191660011790558051808201909152806129f13390565b6001600160a01b039081168252600086815260fe60208181526040832060018101549582018690529289905290815284516004830180546001600160a01b031916919094161790925592015160059092019190915533906108fc90612a569034614565565b6040518115909202916000818181858888f19350505050158015612a7e573d6000803e3d6000fd5b50600083815260fe60209081526040918290206001015482518681529182015233917f9823c61ba42e817a0ba73273d875528a549abe0ba50bc8ce0f7ed5a9fb86c68791016126bb565b612ad061339f565b6001600160a01b038116612b355760405162461bcd60e51b815260206004820152602660248201527f4f776e61626c653a206e6577206f776e657220697320746865207a65726f206160448201526564647265737360d01b60648201526084016109a4565b611b20816133f9565b60fc6020526000908152604090208054600182018054919291612b6090614367565b80601f0160208091040260200160405190810160405280929190818152602001828054612b8c90614367565b8015612bd95780601f10612bae57610100808354040283529160200191612bd9565b820191906000526020600020905b815481529060010190602001808311612bbc57829003601f168201915b5050505050905082565b6000828152610100602052604090205482908290612c135760405162461bcd60e51b81526004016109a4906145b1565b6001600083815261010060205260409020805483908110612c3657612c36614436565b906000526020600020906007020160010160149054906101000a900460ff166005811115612c6657612c66614266565b14612cb35760405162461bcd60e51b815260206004820152601d60248201527f46696e616e63696e672072657175657374206e6f742070656e64696e6700000060448201526064016109a4565b60008481526101006020526040902054612cdf5760405162461bcd60e51b81526004016109a4906145b1565b6001600085815261010060205260409020805485908110612d0257612d02614436565b906000526020600020906007020160010160149054906101000a900460ff166005811115612d3257612d32614266565b14612d4f5760405162461bcd60e51b81526004016109a4906145f7565b600084815261010060205260409020805433919085908110612d7357612d73614436565b60009182526020909120600160079092020101546001600160a01b031614612dd85760405162461bcd60e51b815260206004820152601860248201527721b0b63632b91034b9903737ba103a3432903632b73232b960411b60448201526064016109a4565b60008481526101006020526040902080546003919085908110612dfd57612dfd614436565b60009182526020909120600160079092020101805460ff60a01b1916600160a01b836005811115612e3057612e30614266565b02179055506000848152609960209081526040918290205482518781529182018690526001600160a01b03169133917fef5fb41d427f3beab94b7933990405d1ca172d79f4761fa2dad7b6b6d1481aee910161115e565b60006001600160e01b031982166380ac58cd60e01b1480612eb857506001600160e01b03198216635b5e139f60e01b145b8061087157506301ffc9a760e01b6001600160e01b0319831614610871565b612ee081613157565b611b205760405162461bcd60e51b8152602060048201526018602482015277115490cdcc8c4e881a5b9d985b1a59081d1bdad95b88125160421b60448201526064016109a4565b6000818152609b6020526040902080546001600160a01b0319166001600160a01b0384169081179091558190612f5c826117dc565b6001600160a01b03167f8c5be1e5ebec7d5bd14f71427d1e84f3dd0314c0f7b2291e5b200ac8c7c3b92560405160405180910390a45050565b600080612fa1836117dc565b9050806001600160a01b0316846001600160a01b03161480612fc85750612fc8818561288c565b806128425750836001600160a01b0316612fe184610909565b6001600160a01b031614949350505050565b826001600160a01b0316613006826117dc565b6001600160a01b03161461302c5760405162461bcd60e51b81526004016109a490614893565b6001600160a01b03821661308e5760405162461bcd60e51b8152602060048201526024808201527f4552433732313a207472616e7366657220746f20746865207a65726f206164646044820152637265737360e01b60648201526084016109a4565b826001600160a01b03166130a1826117dc565b6001600160a01b0316146130c75760405162461bcd60e51b81526004016109a490614893565b6000818152609b6020908152604080832080546001600160a01b03199081169091556001600160a01b03878116808652609a8552838620805460001901905590871680865283862080546001019055868652609990945282852080549092168417909155905184937fddf252ad1be2c89b69c2b068fc378daa952ba7f163c4a11628f55a4df523b3ef91a4505050565b6000908152609960205260409020546001600160a01b0316151590565b8061317e81613157565b61319a5760405162461bcd60e51b81526004016109a490614645565b600082815260fe602052604090206002015460ff1680156131d15750600082815260fe6020526040902060020154610100900460ff165b61322b5760405162461bcd60e51b815260206004820152602560248201527f5472616e73666572206e6f7420617070726f76656420627920626f7468207061604482015264727469657360d81b60648201526084016109a4565b600082815260fe60205260408120600401546001600160a01b031690613250846117dc565b600085815260fe6020526040808220600501549051929350916001600160a01b0384169183156108fc02918491818181858888f1935050505015801561329a573d6000803e3d6000fd5b506132a6828487612ff3565b826001600160a01b03166132b9866117dc565b6001600160a01b0316146133015760405162461bcd60e51b815260206004820152600f60248201526e151c985b9cd9995c8819985a5b1959608a1b60448201526064016109a4565b600085815260fe602052604081208181556001810182905560028101805461ffff19169055906133346003830182613cb3565b506004810180546001600160a01b0319169055600060059091015560408051868152602081018390526001600160a01b0385811692908516917f9ed053bb818ff08b8353cd46f78db1f0799f31c9e4458fdb425c10eccd2efc44910160405180910390a35050505050565b6033546001600160a01b031633146118d45760405162461bcd60e51b815260206004820181905260248201527f4f776e61626c653a2063616c6c6572206973206e6f7420746865206f776e657260448201526064016109a4565b603380546001600160a01b038381166001600160a01b0319831681179093556040519116919082907f8be0079c531659141344cd1fd0a4f28419497f9722a3daafe3b4186f6b6457e090600090a35050565b600054610100900460ff166134725760405162461bcd60e51b81526004016109a4906148d8565b6118d4613724565b61348261344b565b6118d4613754565b613492613754565b600060fd55565b816001600160a01b0316836001600160a01b0316036134fa5760405162461bcd60e51b815260206004820152601960248201527f4552433732313a20617070726f766520746f2063616c6c65720000000000000060448201526064016109a4565b6001600160a01b038381166000818152609c6020908152604080832094871680845294825291829020805460ff191686151590811790915591519182527f17307eab39ab6107e8899845ad3d59bd9653f200f220920489ca2b5937696c31910160405180910390a3505050565b611b9f8282604051806020016040528060008152506137a1565b61358a82613157565b6135ed5760405162461bcd60e51b815260206004820152602e60248201527f45524337323155524953746f726167653a2055524920736574206f66206e6f6e60448201526d32bc34b9ba32b73a103a37b5b2b760911b60648201526084016109a4565b600082815260c96020526040902061360582826147a4565b506040518281527ff8e1a15aba9398e019f0b49df1a4fde98ee17ae345cb5f6b5e2c27f5033e8ce79060200160405180910390a15050565b613648848484612ff3565b613654848484846137d4565b6125ce5760405162461bcd60e51b81526004016109a490614923565b613679816138d5565b600081815260c960205260409020805461369290614367565b159050611b2057600081815260c960205260408120611b2091613cd4565b60606136bb82612ed7565b60006136d260408051602081019091526000815290565b905060008151116136f2576040518060200160405280600081525061371d565b806136fc8461396a565b60405160200161370d929190614864565b6040516020818303038152906040525b9392505050565b600054610100900460ff1661374b5760405162461bcd60e51b81526004016109a4906148d8565b6118d4336133f9565b61379a6040518060400160405280600881526020016750726f706572747960c01b81525060405180604001604052806004815260200163050524f560e41b8152506139fd565b600060fb55565b6137ab8383613a2e565b6137b860008484846137d4565b610a455760405162461bcd60e51b81526004016109a490614923565b60006001600160a01b0384163b156138ca57604051630a85bd0160e11b81526001600160a01b0385169063150b7a0290613818903390899088908890600401614975565b6020604051808303816000875af1925050508015613853575060408051601f3d908101601f19168201909252613850918101906149a8565b60015b6138b0573d808015613881576040519150601f19603f3d011682016040523d82523d6000602084013e613886565b606091505b5080516000036138a85760405162461bcd60e51b81526004016109a490614923565b805181602001fd5b6001600160e01b031916630a85bd0160e11b149050612842565b506001949350505050565b60006138e0826117dc565b90506138eb826117dc565b6000838152609b6020908152604080832080546001600160a01b03199081169091556001600160a01b038516808552609a845282852080546000190190558785526099909352818420805490911690555192935084927fddf252ad1be2c89b69c2b068fc378daa952ba7f163c4a11628f55a4df523b3ef908390a45050565b6060600061397783613b9b565b600101905060008167ffffffffffffffff81111561399757613997614115565b6040519080825280601f01601f1916602001820160405280156139c1576020820181803683370190505b5090508181016020015b600019016f181899199a1a9b1b9c1cb0b131b232b360811b600a86061a8153600a85049450846139cb57509392505050565b600054610100900460ff16613a245760405162461bcd60e51b81526004016109a4906148d8565b611b9f8282613c73565b6001600160a01b038216613a845760405162461bcd60e51b815260206004820181905260248201527f4552433732313a206d696e7420746f20746865207a65726f206164647265737360448201526064016109a4565b613a8d81613157565b15613ada5760405162461bcd60e51b815260206004820152601c60248201527f4552433732313a20746f6b656e20616c7265616479206d696e7465640000000060448201526064016109a4565b613ae381613157565b15613b305760405162461bcd60e51b815260206004820152601c60248201527f4552433732313a20746f6b656e20616c7265616479206d696e7465640000000060448201526064016109a4565b6001600160a01b0382166000818152609a6020908152604080832080546001019055848352609990915280822080546001600160a01b0319168417905551839291907fddf252ad1be2c89b69c2b068fc378daa952ba7f163c4a11628f55a4df523b3ef908290a45050565b60008072184f03e93ff9f4daa797ed6e38ed64bf6a1f0160401b8310613bda5772184f03e93ff9f4daa797ed6e38ed64bf6a1f0160401b830492506040015b6d04ee2d6d415b85acef81000000008310613c06576d04ee2d6d415b85acef8100000000830492506020015b662386f26fc100008310613c2457662386f26fc10000830492506010015b6305f5e1008310613c3c576305f5e100830492506008015b6127108310613c5057612710830492506004015b60648310613c62576064830492506002015b600a83106108715760010192915050565b600054610100900460ff16613c9a5760405162461bcd60e51b81526004016109a4906148d8565b6097613ca683826147a4565b506098610a4582826147a4565b5080546000825560020290600052602060002090810190611b209190613d0e565b508054613ce090614367565b6000825580601f10613cf0575050565b601f016020900490600052602060002090810190611b209190613d38565b5b80821115613d345780546001600160a01b031916815560006001820155600201613d0f565b5090565b5b80821115613d345760008155600101613d39565b6001600160e01b031981168114611b2057600080fd5b600060208284031215613d7557600080fd5b813561371d81613d4d565b60005b83811015613d9b578181015183820152602001613d83565b50506000910152565b60008151808452613dbc816020860160208601613d80565b601f01601f19169290920160200192915050565b60208152600061371d6020830184613da4565b600060208284031215613df557600080fd5b5035919050565b80356001600160a01b0381168114613e1357600080fd5b919050565b60008060408385031215613e2b57600080fd5b613e3483613dfc565b946020939093013593505050565b600060e0830182518452602080840151602086015260408085015115156040870152606085015115156060870152608085015160e0608088015283815180865261010089019150602083019550600092505b80831015613ece57613eba82875180516001600160a01b03168252602090810151910152565b948401946001929092019190830190613e94565b5060a08701519450613ef660a089018680516001600160a01b03168252602090810151910152565b979650505050505050565b60208152600061371d6020830184613e42565b600080600060608486031215613f2957600080fd5b613f3284613dfc565b9250613f4060208501613dfc565b9150604084013590509250925092565b600080600080600060a08688031215613f6857600080fd5b85359450613f7860208701613dfc565b94979496505050506040830135926060810135926080909101359150565b60008060408385031215613fa957600080fd5b50508035926020909101359150565b600060208284031215613fca57600080fd5b61371d82613dfc565b600060208083016020845280855180835260408601915060408160051b87010192506020870160005b8281101561402a57603f19888603018452614018858351613e42565b94509285019290850190600101613ffc565b5092979650505050505050565b6000806040838503121561404a57600080fd5b8235915061405a60208401613dfc565b90509250929050565b600060208083018184528085518083526040925060408601915060408160051b87010184880160005b838110156140cb57888303603f190185528151805184528701518784018790526140b887850182613da4565b958801959350509086019060010161408c565b509098975050505050505050565b600080604083850312156140ec57600080fd5b6140f583613dfc565b91506020830135801515811461410a57600080fd5b809150509250929050565b634e487b7160e01b600052604160045260246000fd5b600067ffffffffffffffff8084111561414657614146614115565b604051601f8501601f19908116603f0116810190828211818310171561416e5761416e614115565b8160405280935085815286868601111561418757600080fd5b858560208301376000602087830101525050509392505050565b6000602082840312156141b357600080fd5b813567ffffffffffffffff8111156141ca57600080fd5b8201601f810184136141db57600080fd5b6128428482356020840161412b565b6000806000806080858703121561420057600080fd5b61420985613dfc565b935061421760208601613dfc565b925060408501359150606085013567ffffffffffffffff81111561423a57600080fd5b8501601f8101871361424b57600080fd5b61425a8782356020840161412b565b91505092959194509250565b634e487b7160e01b600052602160045260246000fd5b8881526001600160a01b03881660208201526101008101600688106142b157634e487b7160e01b600052602160045260246000fd5b8760408301528660608301528560808301528460a08301528360c08301528260e08301529998505050505050505050565b85815260208082018690528415156040830152831515606083015282516001600160a01b0316608083015282015160a082015260c081015b9695505050505050565b6000806040838503121561433757600080fd5b61434083613dfc565b915061405a60208401613dfc565b8281526040602082015260006128426040830184613da4565b600181811c9082168061437b57607f821691505b60208210810361439b57634e487b7160e01b600052602260045260246000fd5b50919050565b6020808252602d908201527f4552433732313a2063616c6c6572206973206e6f7420746f6b656e206f776e6560408201526c1c881bdc88185c1c1c9bdd9959609a1b606082015260800190565b60208082526028908201527f43616c6c6572206973206e6f7420746865206f776e6572206f6620746869732060408201526770726f706572747960c01b606082015260800190565b634e487b7160e01b600052603260045260246000fd5b634e487b7160e01b600052601160045260246000fd5b808201808211156108715761087161444c565b600181815b808511156144b05781600019048211156144965761449661444c565b808516156144a357918102915b93841c939080029061447a565b509250929050565b6000826144c757506001610871565b816144d457506000610871565b81600181146144ea57600281146144f457614510565b6001915050610871565b60ff8411156145055761450561444c565b50506001821b610871565b5060208310610133831016604e8410600b8410161715614533575081810a610871565b61453d8383614475565b80600019048211156145515761455161444c565b029392505050565b600061371d83836144b8565b818103818111156108715761087161444c565b80820281158282048414176108715761087161444c565b6000826145ac57634e487b7160e01b600052601260045260246000fd5b500490565b60208082526026908201527f4e6f2066696e616e63696e67207265717565737420666f7220746869732070726040820152656f706572747960d01b606082015260800190565b6020808252602e908201527f46696e616e63696e67207265717565737420616c726561647920617070726f7660408201526d1959081bdc881c995a9958dd195960921b606082015260800190565b60208082526024908201527f50726f70657274792077697468207468697320494420646f6573206e6f7420656040820152631e1a5cdd60e21b606082015260800190565b60006001820161469b5761469b61444c565b5060010190565b602080825260169082015275141c9bdc195c9d1e481a5cc81b9bdd081b1a5cdd195960521b604082015260600190565b60208082526022908201527f427579657220616c726561647920626964206f6e20746869732070726f706572604082015261747960f01b606082015260800190565b6020808252600f908201526e109a5908185b1c9958591e481cd95d608a1b604082015260600190565b60008161474c5761474c61444c565b506000190190565b601f821115610a45576000816000526020600020601f850160051c8101602086101561477d5750805b601f850160051c820191505b8181101561479c57828155600101614789565b505050505050565b815167ffffffffffffffff8111156147be576147be614115565b6147d2816147cc8454614367565b84614754565b602080601f83116001811461480757600084156147ef5750858301515b600019600386901b1c1916600185901b17855561479c565b600085815260208120601f198616915b8281101561483657888601518255948401946001909101908401614817565b50858210156148545787850151600019600388901b60f8161c191681555b5050505050600190811b01905550565b60008351614876818460208801613d80565b83519083019061488a818360208801613d80565b01949350505050565b60208082526025908201527f4552433732313a207472616e736665722066726f6d20696e636f72726563742060408201526437bbb732b960d91b606082015260800190565b6020808252602b908201527f496e697469616c697a61626c653a20636f6e7472616374206973206e6f74206960408201526a6e697469616c697a696e6760a81b606082015260800190565b60208082526032908201527f4552433732313a207472616e7366657220746f206e6f6e20455243373231526560408201527131b2b4bb32b91034b6b83632b6b2b73a32b960711b606082015260800190565b6001600160a01b038581168252841660208201526040810183905260806060820181905260009061431a90830184613da4565b6000602082840312156149ba57600080fd5b815161371d81613d4d56fea26469706673582212208d6d89ada7b0449c7f29282e54fff9fa495f102d492bd6acd8e6800a9eb4a08564736f6c63430008170033",
  "linkReferences": {},
  "deployedLinkReferences": {}
}