{
  "_format": "hh-sol-artifact-1",
  "contractName": "FinancingContract",
  "sourceName": "contracts/V2/finance/Financing.sol",
  "abi": [
    {
      "inputs": [],
      "name": "AlreadyFinanced",
      "type": "error"
    },
    {
      "inputs": [],
      "name": "FinancingNotFound",
      "type": "error"
    },
    {
      "inputs": [],
      "name": "FinancingNotPending",
      "type": "error"
    },
    {
      "inputs": [],
      "name": "InsufficientBalance",
      "type": "error"
    },
    {
      "inputs": [],
      "name": "LoanNotFound",
      "type": "error"
    },
    {
      "inputs": [],
      "name": "NotLender",
      "type": "error"
    },
    {
      "anonymous": false,
      "inputs": [
        {
          "indexed": true,
          "internalType": "address",
          "name": "_lender",
          "type": "address"
        },
        {
          "indexed": true,
          "internalType": "address",
          "name": "_loaner",
          "type": "address"
        },
        {
          "indexed": false,
          "internalType": "uint256",
          "name": "_propertyId",
          "type": "uint256"
        }
      ],
      "name": "FinanceApproval",
      "type": "event"
    },
    {
      "anonymous": false,
      "inputs": [
        {
          "indexed": true,
          "internalType": "address",
          "name": "_lender",
          "type": "address"
        },
        {
          "indexed": true,
          "internalType": "address",
          "name": "_loaner",
          "type": "address"
        },
        {
          "indexed": false,
          "internalType": "uint256",
          "name": "_propertyId",
          "type": "uint256"
        }
      ],
      "name": "FinanceRejection",
      "type": "event"
    },
    {
      "anonymous": false,
      "inputs": [
        {
          "indexed": true,
          "internalType": "address",
          "name": "_lender",
          "type": "address"
        },
        {
          "indexed": true,
          "internalType": "address",
          "name": "_loaner",
          "type": "address"
        },
        {
          "indexed": false,
          "internalType": "uint256",
          "name": "_propertyId",
          "type": "uint256"
        }
      ],
      "name": "FinanceRequest",
      "type": "event"
    },
    {
      "anonymous": false,
      "inputs": [
        {
          "indexed": false,
          "internalType": "uint8",
          "name": "version",
          "type": "uint8"
        }
      ],
      "name": "Initialized",
      "type": "event"
    },
    {
      "anonymous": false,
      "inputs": [
        {
          "indexed": false,
          "internalType": "uint256",
          "name": "loanId",
          "type": "uint256"
        }
      ],
      "name": "LoanAdded",
      "type": "event"
    },
    {
      "anonymous": false,
      "inputs": [
        {
          "indexed": false,
          "internalType": "uint256",
          "name": "loanId",
          "type": "uint256"
        }
      ],
      "name": "LoanRemoved",
      "type": "event"
    },
    {
      "anonymous": false,
      "inputs": [
        {
          "indexed": true,
          "internalType": "address",
          "name": "previousOwner",
          "type": "address"
        },
        {
          "indexed": true,
          "internalType": "address",
          "name": "newOwner",
          "type": "address"
        }
      ],
      "name": "OwnershipTransferred",
      "type": "event"
    },
    {
      "anonymous": false,
      "inputs": [
        {
          "indexed": true,
          "internalType": "address",
          "name": "_lender",
          "type": "address"
        },
        {
          "indexed": true,
          "internalType": "address",
          "name": "_loaner",
          "type": "address"
        },
        {
          "indexed": false,
          "internalType": "uint256",
          "name": "_propertyId",
          "type": "uint256"
        }
      ],
      "name": "PaidOff",
      "type": "event"
    },
    {
      "inputs": [
        {
          "internalType": "address",
          "name": "_lender",
          "type": "address"
        },
        {
          "internalType": "uint256",
          "name": "_annualInterestRate",
          "type": "uint256"
        },
        {
          "internalType": "uint256",
          "name": "_maxDurationInMonths",
          "type": "uint256"
        }
      ],
      "name": "addLoan",
      "outputs": [],
      "stateMutability": "nonpayable",
      "type": "function"
    },
    {
      "inputs": [
        {
          "internalType": "uint256",
          "name": "_financingId",
          "type": "uint256"
        }
      ],
      "name": "approveFinancing",
      "outputs": [],
      "stateMutability": "payable",
      "type": "function"
    },
    {
      "inputs": [],
      "name": "financingCount",
      "outputs": [
        {
          "internalType": "uint256",
          "name": "",
          "type": "uint256"
        }
      ],
      "stateMutability": "view",
      "type": "function"
    },
    {
      "inputs": [
        {
          "internalType": "address",
          "name": "_loaner",
          "type": "address"
        },
        {
          "internalType": "uint256",
          "name": "_loanId",
          "type": "uint256"
        },
        {
          "internalType": "uint256",
          "name": "_propertyId",
          "type": "uint256"
        },
        {
          "internalType": "uint256",
          "name": "_loanAmount",
          "type": "uint256"
        },
        {
          "internalType": "uint256",
          "name": "_durationInMonths",
          "type": "uint256"
        }
      ],
      "name": "financingRequest",
      "outputs": [
        {
          "internalType": "uint256",
          "name": "",
          "type": "uint256"
        }
      ],
      "stateMutability": "nonpayable",
      "type": "function"
    },
    {
      "inputs": [
        {
          "internalType": "uint256",
          "name": "",
          "type": "uint256"
        }
      ],
      "name": "financings",
      "outputs": [
        {
          "internalType": "uint256",
          "name": "propertyId",
          "type": "uint256"
        },
        {
          "internalType": "address",
          "name": "loaner",
          "type": "address"
        },
        {
          "internalType": "uint256",
          "name": "loanId",
          "type": "uint256"
        },
        {
          "internalType": "enum FinancingContract.FinancingStatus",
          "name": "status",
          "type": "uint8"
        },
        {
          "internalType": "uint256",
          "name": "loanAmount",
          "type": "uint256"
        },
        {
          "internalType": "uint256",
          "name": "durationInMonths",
          "type": "uint256"
        },
        {
          "internalType": "uint256",
          "name": "paidMonths",
          "type": "uint256"
        }
      ],
      "stateMutability": "view",
      "type": "function"
    },
    {
      "inputs": [],
      "name": "getAllLoans",
      "outputs": [
        {
          "components": [
            {
              "internalType": "address",
              "name": "lender",
              "type": "address"
            },
            {
              "internalType": "uint256",
              "name": "annualInterestRate",
              "type": "uint256"
            },
            {
              "internalType": "uint256",
              "name": "maxDurationInMonths",
              "type": "uint256"
            },
            {
              "internalType": "uint256",
              "name": "loanId",
              "type": "uint256"
            }
          ],
          "internalType": "struct LoaningContract.Loan[]",
          "name": "",
          "type": "tuple[]"
        }
      ],
      "stateMutability": "view",
      "type": "function"
    },
    {
      "inputs": [
        {
          "internalType": "uint256",
          "name": "_propertyId",
          "type": "uint256"
        }
      ],
      "name": "getFinancing",
      "outputs": [
        {
          "components": [
            {
              "internalType": "uint256",
              "name": "propertyId",
              "type": "uint256"
            },
            {
              "internalType": "address",
              "name": "loaner",
              "type": "address"
            },
            {
              "internalType": "uint256",
              "name": "loanId",
              "type": "uint256"
            },
            {
              "internalType": "enum FinancingContract.FinancingStatus",
              "name": "status",
              "type": "uint8"
            },
            {
              "internalType": "uint256",
              "name": "loanAmount",
              "type": "uint256"
            },
            {
              "internalType": "uint256",
              "name": "durationInMonths",
              "type": "uint256"
            },
            {
              "internalType": "uint256",
              "name": "paidMonths",
              "type": "uint256"
            }
          ],
          "internalType": "struct FinancingContract.Financing",
          "name": "",
          "type": "tuple"
        }
      ],
      "stateMutability": "view",
      "type": "function"
    },
    {
      "inputs": [
        {
          "internalType": "uint256",
          "name": "_propertyId",
          "type": "uint256"
        }
      ],
      "name": "getFinancingId",
      "outputs": [
        {
          "internalType": "uint256",
          "name": "",
          "type": "uint256"
        }
      ],
      "stateMutability": "view",
      "type": "function"
    },
    {
      "inputs": [
        {
          "internalType": "uint256",
          "name": "_financingId",
          "type": "uint256"
        }
      ],
      "name": "getFinancingWithId",
      "outputs": [
        {
          "components": [
            {
              "internalType": "uint256",
              "name": "propertyId",
              "type": "uint256"
            },
            {
              "internalType": "address",
              "name": "loaner",
              "type": "address"
            },
            {
              "internalType": "uint256",
              "name": "loanId",
              "type": "uint256"
            },
            {
              "internalType": "enum FinancingContract.FinancingStatus",
              "name": "status",
              "type": "uint8"
            },
            {
              "internalType": "uint256",
              "name": "loanAmount",
              "type": "uint256"
            },
            {
              "internalType": "uint256",
              "name": "durationInMonths",
              "type": "uint256"
            },
            {
              "internalType": "uint256",
              "name": "paidMonths",
              "type": "uint256"
            }
          ],
          "internalType": "struct FinancingContract.Financing",
          "name": "",
          "type": "tuple"
        }
      ],
      "stateMutability": "view",
      "type": "function"
    },
    {
      "inputs": [
        {
          "internalType": "uint256",
          "name": "_loanId",
          "type": "uint256"
        }
      ],
      "name": "getLoan",
      "outputs": [
        {
          "components": [
            {
              "internalType": "address",
              "name": "lender",
              "type": "address"
            },
            {
              "internalType": "uint256",
              "name": "annualInterestRate",
              "type": "uint256"
            },
            {
              "internalType": "uint256",
              "name": "maxDurationInMonths",
              "type": "uint256"
            },
            {
              "internalType": "uint256",
              "name": "loanId",
              "type": "uint256"
            }
          ],
          "internalType": "struct LoaningContract.Loan",
          "name": "",
          "type": "tuple"
        }
      ],
      "stateMutability": "view",
      "type": "function"
    },
    {
      "inputs": [],
      "name": "initialize",
      "outputs": [],
      "stateMutability": "nonpayable",
      "type": "function"
    },
    {
      "inputs": [],
      "name": "loanCount",
      "outputs": [
        {
          "internalType": "uint256",
          "name": "",
          "type": "uint256"
        }
      ],
      "stateMutability": "view",
      "type": "function"
    },
    {
      "inputs": [
        {
          "internalType": "uint256",
          "name": "",
          "type": "uint256"
        }
      ],
      "name": "loans",
      "outputs": [
        {
          "internalType": "address",
          "name": "lender",
          "type": "address"
        },
        {
          "internalType": "uint256",
          "name": "annualInterestRate",
          "type": "uint256"
        },
        {
          "internalType": "uint256",
          "name": "maxDurationInMonths",
          "type": "uint256"
        },
        {
          "internalType": "uint256",
          "name": "loanId",
          "type": "uint256"
        }
      ],
      "stateMutability": "view",
      "type": "function"
    },
    {
      "inputs": [],
      "name": "owner",
      "outputs": [
        {
          "internalType": "address",
          "name": "",
          "type": "address"
        }
      ],
      "stateMutability": "view",
      "type": "function"
    },
    {
      "inputs": [
        {
          "internalType": "uint256",
          "name": "_propertyId",
          "type": "uint256"
        }
      ],
      "name": "payOffFinancing",
      "outputs": [],
      "stateMutability": "nonpayable",
      "type": "function"
    },
    {
      "inputs": [
        {
          "internalType": "uint256",
          "name": "",
          "type": "uint256"
        }
      ],
      "name": "propertyToFinancing",
      "outputs": [
        {
          "internalType": "uint256",
          "name": "",
          "type": "uint256"
        }
      ],
      "stateMutability": "view",
      "type": "function"
    },
    {
      "inputs": [
        {
          "internalType": "uint256",
          "name": "_financingId",
          "type": "uint256"
        }
      ],
      "name": "rejectFinancing",
      "outputs": [],
      "stateMutability": "nonpayable",
      "type": "function"
    },
    {
      "inputs": [
        {
          "internalType": "uint256",
          "name": "_propertyId",
          "type": "uint256"
        }
      ],
      "name": "remainingBalance",
      "outputs": [
        {
          "internalType": "uint256",
          "name": "",
          "type": "uint256"
        }
      ],
      "stateMutability": "view",
      "type": "function"
    },
    {
      "inputs": [
        {
          "internalType": "uint256",
          "name": "_loanId",
          "type": "uint256"
        }
      ],
      "name": "removeLoan",
      "outputs": [],
      "stateMutability": "nonpayable",
      "type": "function"
    },
    {
      "inputs": [],
      "name": "renounceOwnership",
      "outputs": [],
      "stateMutability": "nonpayable",
      "type": "function"
    },
    {
      "inputs": [
        {
          "internalType": "uint256",
          "name": "_loanId",
          "type": "uint256"
        },
        {
          "internalType": "uint256",
          "name": "_annualInterestRate",
          "type": "uint256"
        }
      ],
      "name": "setAnnualInterestRate",
      "outputs": [],
      "stateMutability": "nonpayable",
      "type": "function"
    },
    {
      "inputs": [
        {
          "internalType": "uint256",
          "name": "_propertyId",
          "type": "uint256"
        },
        {
          "internalType": "uint256",
          "name": "_financingId",
          "type": "uint256"
        }
      ],
      "name": "setFinancingId",
      "outputs": [],
      "stateMutability": "nonpayable",
      "type": "function"
    },
    {
      "inputs": [
        {
          "internalType": "uint256",
          "name": "_loanId",
          "type": "uint256"
        },
        {
          "internalType": "uint256",
          "name": "_maxDurationInMonths",
          "type": "uint256"
        }
      ],
      "name": "setMaxDurationInMonths",
      "outputs": [],
      "stateMutability": "nonpayable",
      "type": "function"
    },
    {
      "inputs": [
        {
          "internalType": "address",
          "name": "newOwner",
          "type": "address"
        }
      ],
      "name": "transferOwnership",
      "outputs": [],
      "stateMutability": "nonpayable",
      "type": "function"
    }
  ],
  "bytecode": "0x608060405234801561001057600080fd5b506115e1806100206000396000f3fe60806040526004361061014b5760003560e01c8063a5bfd16a116100b6578063ce63094d1161006f578063ce63094d146103c3578063e1ec3c68146103d9578063ec58aa0d1461044f578063ecd25432146104c8578063f2fde38b146104db578063f3de41b5146104fb57600080fd5b8063a5bfd16a146102f4578063a606281c14610316578063a8818cf114610336578063b06c6f5b14610356578063c5ec752914610376578063cb7d9010146103a357600080fd5b8063622af65a11610108578063622af65a1461024c578063715018a6146102625780638129fc1c1461027757806381d49b4d1461028c5780638a195a90146102ac5780638da5cb5b146102cc57600080fd5b80630c15c77114610150578063193397331461017f578063265fa3661461019f578063274c429f146101d2578063457be68d146101ff578063504006ca1461021f575b600080fd5b34801561015c57600080fd5b5061017d61016b366004611265565b60009182526069602052604090912055565b005b34801561018b57600080fd5b5061017d61019a3660046112a3565b610528565b3480156101ab57600080fd5b506101bf6101ba3660046112d6565b6105de565b6040519081526020015b60405180910390f35b3480156101de57600080fd5b506101f26101ed3660046112d6565b61062e565b6040516101c99190611327565b34801561020b57600080fd5b5061017d61021a366004611265565b610742565b34801561022b57600080fd5b5061023f61023a3660046112d6565b610791565b6040516101c99190611384565b34801561025857600080fd5b506101bf60675481565b34801561026e57600080fd5b5061017d610813565b34801561028357600080fd5b5061017d610827565b34801561029857600080fd5b5061017d6102a73660046112d6565b61094d565b3480156102b857600080fd5b5061017d6102c7366004611265565b610a3a565b3480156102d857600080fd5b506033546040516001600160a01b0390911681526020016101c9565b34801561030057600080fd5b50610309610a89565b6040516101c991906113ba565b34801561032257600080fd5b506101f26103313660046112d6565b610bc2565b34801561034257600080fd5b5061017d6103513660046112d6565b610c6a565b34801561036257600080fd5b506101bf61037136600461142f565b610d12565b34801561038257600080fd5b506101bf6103913660046112d6565b60696020526000908152604090205481565b3480156103af57600080fd5b5061017d6103be3660046112d6565b610ef2565b3480156103cf57600080fd5b506101bf60655481565b3480156103e557600080fd5b506104256103f43660046112d6565b60666020526000908152604090208054600182015460028301546003909301546001600160a01b0390921692909184565b604080516001600160a01b03909516855260208501939093529183015260608201526080016101c9565b34801561045b57600080fd5b506104b561046a3660046112d6565b606860205260009081526040902080546001820154600283015460038401546004850154600586015460069096015494956001600160a01b0390941694929360ff9092169290919087565b6040516101c99796959493929190611471565b61017d6104d63660046112d6565b610f65565b3480156104e757600080fd5b5061017d6104f63660046114b9565b6110e9565b34801561050757600080fd5b506101bf6105163660046112d6565b60009081526069602052604090205490565b60658054906000610538836114f1565b9091555050604080516080810182526001600160a01b0385811682526020808301868152838501868152606580546060870181815260009182526066865290889020965187546001600160a01b03191696169590951786559151600186015551600285015591516003909301929092555491519182527fc6526819b79c79bca265d26d44112d2abeb9aa87aec729ae40baf6e37e8111c6910160405180910390a1505050565b6000818152606960209081526040808320548084526068909252822060038082015460ff166005811115610614576106146112ef565b14610623575060009392505050565b600401549392505050565b61066e6040805160e08101825260008082526020820181905291810182905290606082019081526020016000815260200160008152602001600081525090565b60008281526068602052604090206001015482906001600160a01b03166106a857604051637871098960e11b815260040160405180910390fd5b600083815260686020908152604091829020825160e0810184528154815260018201546001600160a01b0316928101929092526002810154928201929092526003820154909190606083019060ff166005811115610708576107086112ef565b6005811115610719576107196112ef565b815260048201546020820152600582015460408201526006909101546060909101529392505050565b60008281526066602052604090205482906001600160a01b0316331461077b57604051638c38000360e01b815260040160405180910390fd5b5060009182526066602052604090912060020155565b6107c5604051806080016040528060006001600160a01b031681526020016000815260200160008152602001600081525090565b50600090815260666020908152604091829020825160808101845281546001600160a01b03168152600182015492810192909252600281015492820192909252600390910154606082015290565b61081b61115f565b61082560006111b9565b565b600054610100900460ff16158080156108475750600054600160ff909116105b806108615750303b158015610861575060005460ff166001145b6108c95760405162461bcd60e51b815260206004820152602e60248201527f496e697469616c697a61626c653a20636f6e747261637420697320616c72656160448201526d191e481a5b9a5d1a585b1a5e995960921b60648201526084015b60405180910390fd5b6000805460ff1916600117905580156108ec576000805461ff0019166101001790555b6108f461120b565b6108fe6000606555565b6000606755801561094a576000805461ff0019169055604051600181527f7f26b83ff96e1f2b6a682f133852f6798a09c465da95921460cefb3847402498906020015b60405180910390a15b50565b60008181526068602052604090206001600382015460ff166005811115610976576109766112ef565b1461099457604051630c6caf8960e11b815260040160405180910390fd5b6002810154600090815260666020526040902054336001600160a01b03909116036109d257604051638c38000360e01b815260040160405180910390fd5b60038101805460ff1916600217905560018101546001600160a01b0316336001600160a01b03167f37843929b7dc3e6f429d72551c63a48c23271df211a56c4f8cf2dc35100fa75b8360000154604051610a2e91815260200190565b60405180910390a35050565b60008281526066602052604090205482906001600160a01b03163314610a7357604051638c38000360e01b815260040160405180910390fd5b5060009182526066602052604090912060010155565b6060600060655467ffffffffffffffff811115610aa857610aa861150a565b604051908082528060200260200182016040528015610b0d57816020015b610afa604051806080016040528060006001600160a01b031681526020016000815260200160008152602001600081525090565b815260200190600190039081610ac65790505b50905060015b6065548111610bbc576000818152606660205260409020546001600160a01b031615610baa57600081815260666020908152604091829020825160808101845281546001600160a01b03168152600180830154938201939093526002820154938101939093526003015460608301528390610b8e9084611520565b81518110610b9e57610b9e611533565b60200260200101819052505b80610bb4816114f1565b915050610b13565b50919050565b610c026040805160e08101825260008082526020820181905291810182905290606082019081526020016000815260200160008152602001600081525090565b6000828152606960209081526040808320548084526068835292819020815160e0810183528154815260018201546001600160a01b0316938101939093526002810154918301919091526003810154606083019060ff166005811115610708576107086112ef565b6000818152606660205260409020546001600160a01b0316610c9f57604051630e7e621d60e01b815260040160405180910390fd5b600081815260666020526040812080546001600160a01b031916815560018101829055600281018290556003018190556065805491610cdd83611549565b90915550506040518181527f7356c9d0d4784328d8e1a9b265f4fd6fb70c9aef871f6cb21ddce73149051af390602001610941565b6000838152606960209081526040808320548084526068909252822060010154859188916001600160a01b038084169116148015610d755750600360008481526068602052604090206003015460ff166005811115610d7357610d736112ef565b145b15610d93576040516362c0ba7160e01b815260040160405180910390fd5b60008881526066602052604081206003810154909103610dc657604051630e7e621d60e01b815260040160405180910390fd5b60678054906000610dd6836114f1565b90915550506040805160e0810182528981526001600160a01b038c811660208084019182528385018e8152600160608601818152608087018f905260a087018e9052600060c08801819052606754815260689094529690922085518155925183830180546001600160a01b03191691909516179093559151600282015592516003840180549394939192909160ff191690836005811115610e7957610e796112ef565b02179055506080820151600482015560a0820151600582015560c09091015160069091015580546040518981526001600160a01b038c81169216907fad0fa41cf886c43d6312902012a3bcf2d76435f2ab8b54c9de5aac0d04ccaa139060200160405180910390a3505060675498975050505050505050565b600081815260686020908152604080832060038101805460ff19166005179055600181015460028201548552606684529382902054915185815290936001600160a01b03908116939216917f051541fa33cdf98d82de38e13160de44730371d42552463bdc76d7ed3af5bcda9101610a2e565b60008181526068602052604090206001600382015460ff166005811115610f8e57610f8e6112ef565b14610fac57604051630c6caf8960e11b815260040160405180910390fd5b60028101546000908152606660205260409020546001600160a01b03163314610fe857604051638c38000360e01b815260040160405180910390fd5b806004015434101561100d57604051631e9acf1760e31b815260040160405180910390fd5b6003818101805460ff19169091179055600181015460048201546040516001600160a01b03909216916108fc82150291906000818181858888f1935050505015801561105d573d6000803e3d6000fd5b50600481015433906108fc906110739034611520565b6040518115909202916000818181858888f1935050505015801561109b573d6000803e3d6000fd5b5060018101546001600160a01b0316336001600160a01b03167f184ef608d8195662f17d74a525860a7d10fb379a6232f73ef6cc6250b073489b8360000154604051610a2e91815260200190565b6110f161115f565b6001600160a01b0381166111565760405162461bcd60e51b815260206004820152602660248201527f4f776e61626c653a206e6577206f776e657220697320746865207a65726f206160448201526564647265737360d01b60648201526084016108c0565b61094a816111b9565b6033546001600160a01b031633146108255760405162461bcd60e51b815260206004820181905260248201527f4f776e61626c653a2063616c6c6572206973206e6f7420746865206f776e657260448201526064016108c0565b603380546001600160a01b038381166001600160a01b0319831681179093556040519116919082907f8be0079c531659141344cd1fd0a4f28419497f9722a3daafe3b4186f6b6457e090600090a35050565b600054610100900460ff166112325760405162461bcd60e51b81526004016108c090611560565b610825600054610100900460ff1661125c5760405162461bcd60e51b81526004016108c090611560565b610825336111b9565b6000806040838503121561127857600080fd5b50508035926020909101359150565b80356001600160a01b038116811461129e57600080fd5b919050565b6000806000606084860312156112b857600080fd5b6112c184611287565b95602085013595506040909401359392505050565b6000602082840312156112e857600080fd5b5035919050565b634e487b7160e01b600052602160045260246000fd5b6006811061132357634e487b7160e01b600052602160045260246000fd5b9052565b815181526020808301516001600160a01b0316908201526040808301519082015260608083015160e083019161135f90840182611305565b506080830151608083015260a083015160a083015260c083015160c083015292915050565b81516001600160a01b03168152602080830151908201526040808301519082015260608083015190820152608081015b92915050565b6020808252825182820181905260009190848201906040850190845b818110156114235761141083855180516001600160a01b031682526020808201519083015260408082015190830152606090810151910152565b92840192608092909201916001016113d6565b50909695505050505050565b600080600080600060a0868803121561144757600080fd5b61145086611287565b97602087013597506040870135966060810135965060800135945092505050565b8781526001600160a01b03871660208201526040810186905260e0810161149b6060830187611305565b8460808301528360a08301528260c083015298975050505050505050565b6000602082840312156114cb57600080fd5b6114d482611287565b9392505050565b634e487b7160e01b600052601160045260246000fd5b600060018201611503576115036114db565b5060010190565b634e487b7160e01b600052604160045260246000fd5b818103818111156113b4576113b46114db565b634e487b7160e01b600052603260045260246000fd5b600081611558576115586114db565b506000190190565b6020808252602b908201527f496e697469616c697a61626c653a20636f6e7472616374206973206e6f74206960408201526a6e697469616c697a696e6760a81b60608201526080019056fea2646970667358221220d4924da25ac269c6196e42780763acf2f62c3b7fce11903b450d2a05d84733f064736f6c63430008170033",
  "linkReferences": {},
  "deployedLinkReferences": {}
}