{
  "_format": "hh-sol-artifact-1",
  "contractName": "FinancingContract",
  "sourceName": "contracts/V2/finance/Financing.sol",
  "abi": [
    {
      "inputs": [],
      "name": "AlreadyFinanced",
      "type": "error"
    },
    {
      "inputs": [],
      "name": "FinancingNotFound",
      "type": "error"
    },
    {
      "inputs": [],
      "name": "FinancingNotPending",
      "type": "error"
    },
    {
      "inputs": [],
      "name": "InsufficientBalance",
      "type": "error"
    },
    {
      "inputs": [],
      "name": "LoanNotFound",
      "type": "error"
    },
    {
      "inputs": [],
      "name": "NotLender",
      "type": "error"
    },
    {
      "anonymous": false,
      "inputs": [
        {
          "indexed": true,
          "internalType": "address",
          "name": "_lender",
          "type": "address"
        },
        {
          "indexed": true,
          "internalType": "address",
          "name": "_loaner",
          "type": "address"
        },
        {
          "indexed": false,
          "internalType": "uint256",
          "name": "_propertyId",
          "type": "uint256"
        }
      ],
      "name": "FinanceApproval",
      "type": "event"
    },
    {
      "anonymous": false,
      "inputs": [
        {
          "indexed": true,
          "internalType": "address",
          "name": "_lender",
          "type": "address"
        },
        {
          "indexed": true,
          "internalType": "address",
          "name": "_loaner",
          "type": "address"
        },
        {
          "indexed": false,
          "internalType": "uint256",
          "name": "_propertyId",
          "type": "uint256"
        }
      ],
      "name": "FinanceRejection",
      "type": "event"
    },
    {
      "anonymous": false,
      "inputs": [
        {
          "indexed": true,
          "internalType": "address",
          "name": "_lender",
          "type": "address"
        },
        {
          "indexed": true,
          "internalType": "address",
          "name": "_loaner",
          "type": "address"
        },
        {
          "indexed": false,
          "internalType": "uint256",
          "name": "_propertyId",
          "type": "uint256"
        }
      ],
      "name": "FinanceRequest",
      "type": "event"
    },
    {
      "anonymous": false,
      "inputs": [
        {
          "indexed": false,
          "internalType": "uint8",
          "name": "version",
          "type": "uint8"
        }
      ],
      "name": "Initialized",
      "type": "event"
    },
    {
      "anonymous": false,
      "inputs": [
        {
          "indexed": false,
          "internalType": "uint256",
          "name": "loanId",
          "type": "uint256"
        }
      ],
      "name": "LoanAdded",
      "type": "event"
    },
    {
      "anonymous": false,
      "inputs": [
        {
          "indexed": false,
          "internalType": "uint256",
          "name": "loanId",
          "type": "uint256"
        }
      ],
      "name": "LoanRemoved",
      "type": "event"
    },
    {
      "anonymous": false,
      "inputs": [
        {
          "indexed": true,
          "internalType": "address",
          "name": "previousOwner",
          "type": "address"
        },
        {
          "indexed": true,
          "internalType": "address",
          "name": "newOwner",
          "type": "address"
        }
      ],
      "name": "OwnershipTransferred",
      "type": "event"
    },
    {
      "anonymous": false,
      "inputs": [
        {
          "indexed": true,
          "internalType": "address",
          "name": "_lender",
          "type": "address"
        },
        {
          "indexed": true,
          "internalType": "address",
          "name": "_loaner",
          "type": "address"
        },
        {
          "indexed": false,
          "internalType": "uint256",
          "name": "_propertyId",
          "type": "uint256"
        }
      ],
      "name": "PaidOff",
      "type": "event"
    },
    {
      "inputs": [
        {
          "internalType": "address",
          "name": "_lender",
          "type": "address"
        },
        {
          "internalType": "uint256",
          "name": "_annualInterestRate",
          "type": "uint256"
        }
      ],
      "name": "addLoan",
      "outputs": [],
      "stateMutability": "nonpayable",
      "type": "function"
    },
    {
      "inputs": [
        {
          "internalType": "uint256",
          "name": "_financingId",
          "type": "uint256"
        }
      ],
      "name": "approveFinancing",
      "outputs": [],
      "stateMutability": "payable",
      "type": "function"
    },
    {
      "inputs": [],
      "name": "financingCount",
      "outputs": [
        {
          "internalType": "uint256",
          "name": "",
          "type": "uint256"
        }
      ],
      "stateMutability": "view",
      "type": "function"
    },
    {
      "inputs": [
        {
          "internalType": "uint256",
          "name": "_loanId",
          "type": "uint256"
        },
        {
          "internalType": "uint256",
          "name": "_propertyId",
          "type": "uint256"
        },
        {
          "internalType": "uint256",
          "name": "_loanAmount",
          "type": "uint256"
        },
        {
          "internalType": "uint256",
          "name": "_durationInMonths",
          "type": "uint256"
        }
      ],
      "name": "financingRequest",
      "outputs": [
        {
          "internalType": "uint256",
          "name": "",
          "type": "uint256"
        }
      ],
      "stateMutability": "nonpayable",
      "type": "function"
    },
    {
      "inputs": [
        {
          "internalType": "uint256",
          "name": "",
          "type": "uint256"
        }
      ],
      "name": "financings",
      "outputs": [
        {
          "internalType": "uint256",
          "name": "propertyId",
          "type": "uint256"
        },
        {
          "internalType": "address",
          "name": "loaner",
          "type": "address"
        },
        {
          "internalType": "uint256",
          "name": "loanId",
          "type": "uint256"
        },
        {
          "internalType": "enum FinancingContract.FinancingStatus",
          "name": "status",
          "type": "uint8"
        },
        {
          "internalType": "uint256",
          "name": "loanAmount",
          "type": "uint256"
        },
        {
          "internalType": "uint256",
          "name": "durationInMonths",
          "type": "uint256"
        },
        {
          "internalType": "uint256",
          "name": "paidMonths",
          "type": "uint256"
        }
      ],
      "stateMutability": "view",
      "type": "function"
    },
    {
      "inputs": [],
      "name": "getAllLoans",
      "outputs": [
        {
          "components": [
            {
              "internalType": "address",
              "name": "lender",
              "type": "address"
            },
            {
              "internalType": "uint256",
              "name": "annualInterestRate",
              "type": "uint256"
            }
          ],
          "internalType": "struct LoaningContract.Loan[]",
          "name": "",
          "type": "tuple[]"
        }
      ],
      "stateMutability": "view",
      "type": "function"
    },
    {
      "inputs": [
        {
          "internalType": "uint256",
          "name": "_propertyId",
          "type": "uint256"
        }
      ],
      "name": "getFinancing",
      "outputs": [
        {
          "components": [
            {
              "internalType": "uint256",
              "name": "propertyId",
              "type": "uint256"
            },
            {
              "internalType": "address",
              "name": "loaner",
              "type": "address"
            },
            {
              "internalType": "uint256",
              "name": "loanId",
              "type": "uint256"
            },
            {
              "internalType": "enum FinancingContract.FinancingStatus",
              "name": "status",
              "type": "uint8"
            },
            {
              "internalType": "uint256",
              "name": "loanAmount",
              "type": "uint256"
            },
            {
              "internalType": "uint256",
              "name": "durationInMonths",
              "type": "uint256"
            },
            {
              "internalType": "uint256",
              "name": "paidMonths",
              "type": "uint256"
            }
          ],
          "internalType": "struct FinancingContract.Financing",
          "name": "",
          "type": "tuple"
        }
      ],
      "stateMutability": "view",
      "type": "function"
    },
    {
      "inputs": [
        {
          "internalType": "uint256",
          "name": "_propertyId",
          "type": "uint256"
        }
      ],
      "name": "getFinancingId",
      "outputs": [
        {
          "internalType": "uint256",
          "name": "",
          "type": "uint256"
        }
      ],
      "stateMutability": "view",
      "type": "function"
    },
    {
      "inputs": [
        {
          "internalType": "uint256",
          "name": "_loanId",
          "type": "uint256"
        }
      ],
      "name": "getLoan",
      "outputs": [
        {
          "components": [
            {
              "internalType": "address",
              "name": "lender",
              "type": "address"
            },
            {
              "internalType": "uint256",
              "name": "annualInterestRate",
              "type": "uint256"
            }
          ],
          "internalType": "struct LoaningContract.Loan",
          "name": "",
          "type": "tuple"
        }
      ],
      "stateMutability": "view",
      "type": "function"
    },
    {
      "inputs": [],
      "name": "initialize",
      "outputs": [],
      "stateMutability": "nonpayable",
      "type": "function"
    },
    {
      "inputs": [],
      "name": "loanCount",
      "outputs": [
        {
          "internalType": "uint256",
          "name": "",
          "type": "uint256"
        }
      ],
      "stateMutability": "view",
      "type": "function"
    },
    {
      "inputs": [
        {
          "internalType": "uint256",
          "name": "",
          "type": "uint256"
        }
      ],
      "name": "loans",
      "outputs": [
        {
          "internalType": "address",
          "name": "lender",
          "type": "address"
        },
        {
          "internalType": "uint256",
          "name": "annualInterestRate",
          "type": "uint256"
        }
      ],
      "stateMutability": "view",
      "type": "function"
    },
    {
      "inputs": [],
      "name": "owner",
      "outputs": [
        {
          "internalType": "address",
          "name": "",
          "type": "address"
        }
      ],
      "stateMutability": "view",
      "type": "function"
    },
    {
      "inputs": [
        {
          "internalType": "uint256",
          "name": "_propertyId",
          "type": "uint256"
        }
      ],
      "name": "payOffFinancing",
      "outputs": [],
      "stateMutability": "nonpayable",
      "type": "function"
    },
    {
      "inputs": [
        {
          "internalType": "uint256",
          "name": "",
          "type": "uint256"
        }
      ],
      "name": "propertyToFinancing",
      "outputs": [
        {
          "internalType": "uint256",
          "name": "",
          "type": "uint256"
        }
      ],
      "stateMutability": "view",
      "type": "function"
    },
    {
      "inputs": [
        {
          "internalType": "uint256",
          "name": "_financingId",
          "type": "uint256"
        }
      ],
      "name": "rejectFinancing",
      "outputs": [],
      "stateMutability": "nonpayable",
      "type": "function"
    },
    {
      "inputs": [
        {
          "internalType": "uint256",
          "name": "_propertyId",
          "type": "uint256"
        }
      ],
      "name": "remainingBalance",
      "outputs": [
        {
          "internalType": "uint256",
          "name": "",
          "type": "uint256"
        }
      ],
      "stateMutability": "view",
      "type": "function"
    },
    {
      "inputs": [
        {
          "internalType": "uint256",
          "name": "_loanId",
          "type": "uint256"
        }
      ],
      "name": "removeLoan",
      "outputs": [],
      "stateMutability": "nonpayable",
      "type": "function"
    },
    {
      "inputs": [],
      "name": "renounceOwnership",
      "outputs": [],
      "stateMutability": "nonpayable",
      "type": "function"
    },
    {
      "inputs": [
        {
          "internalType": "uint256",
          "name": "_propertyId",
          "type": "uint256"
        },
        {
          "internalType": "uint256",
          "name": "_financingId",
          "type": "uint256"
        }
      ],
      "name": "setFinancingId",
      "outputs": [],
      "stateMutability": "nonpayable",
      "type": "function"
    },
    {
      "inputs": [
        {
          "internalType": "address",
          "name": "newOwner",
          "type": "address"
        }
      ],
      "name": "transferOwnership",
      "outputs": [],
      "stateMutability": "nonpayable",
      "type": "function"
    }
  ],
  "bytecode": "0x608060405234801561001057600080fd5b5061122c806100206000396000f3fe60806040526004361061012a5760003560e01c8063a5bfd16a116100ab578063ce63094d1161006f578063ce63094d14610384578063e1ec3c681461039a578063ec58aa0d146103f9578063ecd2543214610472578063f2fde38b14610485578063f3de41b5146104a557600080fd5b8063a5bfd16a146102c8578063a606281c146102ea578063a8818cf114610317578063c5ec752914610337578063cb7d90101461036457600080fd5b8063622af65a116100f2578063622af65a14610240578063715018a6146102565780638129fc1c1461026b57806381d49b4d146102805780638da5cb5b146102a057600080fd5b80630c15c7711461012f578063265fa3661461015e57806337554b8114610191578063463e074c146101b1578063504006ca146101d1575b600080fd5b34801561013b57600080fd5b5061015c61014a366004610f09565b60009182526069602052604090912055565b005b34801561016a57600080fd5b5061017e610179366004610f2b565b6104d2565b6040519081526020015b60405180910390f35b34801561019d57600080fd5b5061015c6101ac366004610f60565b610512565b3480156101bd57600080fd5b5061017e6101cc366004610f8a565b6105aa565b3480156101dd57600080fd5b506102336101ec366004610f2b565b604080518082019091526000808252602082015250600090815260666020908152604091829020825180840190935280546001600160a01b03168352600101549082015290565b6040516101889190610fbc565b34801561024c57600080fd5b5061017e60675481565b34801561026257600080fd5b5061015c610798565b34801561027757600080fd5b5061015c6107ac565b34801561028c57600080fd5b5061015c61029b366004610f2b565b6108c8565b3480156102ac57600080fd5b506033546040516001600160a01b039091168152602001610188565b3480156102d457600080fd5b506102dd6109b5565b6040516101889190610fde565b3480156102f657600080fd5b5061030a610305366004610f2b565b610ab9565b6040516101889190611076565b34801561032357600080fd5b5061015c610332366004610f2b565b610b9b565b34801561034357600080fd5b5061017e610352366004610f2b565b60696020526000908152604090205481565b34801561037057600080fd5b5061015c61037f366004610f2b565b610c24565b34801561039057600080fd5b5061017e60655481565b3480156103a657600080fd5b506103da6103b5366004610f2b565b606660205260009081526040902080546001909101546001600160a01b039091169082565b604080516001600160a01b039093168352602083019190915201610188565b34801561040557600080fd5b5061045f610414366004610f2b565b606860205260009081526040902080546001820154600283015460038401546004850154600586015460069096015494956001600160a01b0390941694929360ff9092169290919087565b60405161018897969594939291906110d3565b61015c610480366004610f2b565b610c88565b34801561049157600080fd5b5061015c6104a036600461111b565b610d8d565b3480156104b157600080fd5b5061017e6104c0366004610f2b565b60009081526069602052604090205490565b600081815260686020526040812060038082015460ff1660058111156104fa576104fa61103e565b146105085750600092915050565b6004015492915050565b6065805490600061052283611153565b90915550506040805180820182526001600160a01b038481168252602080830185815260658054600090815260668452869020945185546001600160a01b0319169416939093178455516001909301929092555491519182527fc6526819b79c79bca265d26d44112d2abeb9aa87aec729ae40baf6e37e8111c6910160405180910390a15050565b6000838152606960209081526040808320548084526068909252822060010154859133916001600160a01b03168214801561060a5750600360008481526068602052604090206003015460ff1660058111156106085761060861103e565b145b15610628576040516362c0ba7160e01b815260040160405180910390fd5b600088815260666020526040902080546001600160a01b031661065e57604051630e7e621d60e01b815260040160405180910390fd5b606780543391600061066f83611153565b90915550506040805160e0810182528a81526001600160a01b03831660208201529081018b9052606081016001815260208082018b905260408083018b9052600060609384018190528d8152606883528190208451815591840151600180840180546001600160a01b0319166001600160a01b03909316929092179091559084015160028301559183015160038201805492939192909160ff199091169083600581111561071f5761071f61103e565b02179055506080820151600482015560a0820151600582015560c09091015160069091015581546040518a81526001600160a01b038381169216907fad0fa41cf886c43d6312902012a3bcf2d76435f2ab8b54c9de5aac0d04ccaa139060200160405180910390a3505060675498975050505050505050565b6107a0610e03565b6107aa6000610e5d565b565b600054610100900460ff16158080156107cc5750600054600160ff909116105b806107e65750303b1580156107e6575060005460ff166001145b61084e5760405162461bcd60e51b815260206004820152602e60248201527f496e697469616c697a61626c653a20636f6e747261637420697320616c72656160448201526d191e481a5b9a5d1a585b1a5e995960921b60648201526084015b60405180910390fd5b6000805460ff191660011790558015610871576000805461ff0019166101001790555b610879610eaf565b600060675580156108c5576000805461ff0019169055604051600181527f7f26b83ff96e1f2b6a682f133852f6798a09c465da95921460cefb3847402498906020015b60405180910390a15b50565b60008181526068602052604090206001600382015460ff1660058111156108f1576108f161103e565b1461090f57604051630c6caf8960e11b815260040160405180910390fd5b6002810154600090815260666020526040902054336001600160a01b039091160361094d57604051638c38000360e01b815260040160405180910390fd5b60038101805460ff1916600217905560018101546001600160a01b0316336001600160a01b03167f37843929b7dc3e6f429d72551c63a48c23271df211a56c4f8cf2dc35100fa75b83600001546040516109a991815260200190565b60405180910390a35050565b6060600060655467ffffffffffffffff8111156109d4576109d461116c565b604051908082528060200260200182016040528015610a1957816020015b60408051808201909152600080825260208201528152602001906001900390816109f25790505b50905060015b6065548111610ab3576000818152606660205260409020546001600160a01b031615610aa157600081815260666020908152604091829020825180840190935280546001600160a01b03168352600190810154918301919091528390610a859084611182565b81518110610a9557610a95611195565b60200260200101819052505b80610aab81611153565b915050610a1f565b50919050565b610af96040805160e08101825260008082526020820181905291810182905290606082019081526020016000815260200160008152602001600081525090565b6000828152606960209081526040808320548084526068835292819020815160e0810183528154815260018201546001600160a01b0316938101939093526002810154918301919091526003810154606083019060ff166005811115610b6157610b6161103e565b6005811115610b7257610b7261103e565b815260048201546020820152600582015460408201526006909101546060909101529392505050565b6000818152606660205260409020546001600160a01b0316610bd057604051630e7e621d60e01b815260040160405180910390fd5b60008181526066602052604080822080546001600160a01b031916815560010191909155517f7356c9d0d4784328d8e1a9b265f4fd6fb70c9aef871f6cb21ddce73149051af3906108bc9083815260200190565b6000818152606860209081526040808320600181015460028201548552606684529382902054915185815290936001600160a01b03908116939216917f051541fa33cdf98d82de38e13160de44730371d42552463bdc76d7ed3af5bcda91016109a9565b60008181526068602052604090206001600382015460ff166005811115610cb157610cb161103e565b14610ccf57604051630c6caf8960e11b815260040160405180910390fd5b60028101546000908152606660205260409020546001600160a01b03163314610d0b57604051638c38000360e01b815260040160405180910390fd5b8060040154341015610d3057604051631e9acf1760e31b815260040160405180910390fd5b6003818101805460ff1916909117905560018101546001600160a01b0316336001600160a01b03167f184ef608d8195662f17d74a525860a7d10fb379a6232f73ef6cc6250b073489b83600001546040516109a991815260200190565b610d95610e03565b6001600160a01b038116610dfa5760405162461bcd60e51b815260206004820152602660248201527f4f776e61626c653a206e6577206f776e657220697320746865207a65726f206160448201526564647265737360d01b6064820152608401610845565b6108c581610e5d565b6033546001600160a01b031633146107aa5760405162461bcd60e51b815260206004820181905260248201527f4f776e61626c653a2063616c6c6572206973206e6f7420746865206f776e65726044820152606401610845565b603380546001600160a01b038381166001600160a01b0319831681179093556040519116919082907f8be0079c531659141344cd1fd0a4f28419497f9722a3daafe3b4186f6b6457e090600090a35050565b600054610100900460ff16610ed65760405162461bcd60e51b8152600401610845906111ab565b6107aa600054610100900460ff16610f005760405162461bcd60e51b8152600401610845906111ab565b6107aa33610e5d565b60008060408385031215610f1c57600080fd5b50508035926020909101359150565b600060208284031215610f3d57600080fd5b5035919050565b80356001600160a01b0381168114610f5b57600080fd5b919050565b60008060408385031215610f7357600080fd5b610f7c83610f44565b946020939093013593505050565b60008060008060808587031215610fa057600080fd5b5050823594602084013594506040840135936060013592509050565b81516001600160a01b0316815260208083015190820152604081015b92915050565b602080825282518282018190526000919060409081850190868401855b828110156110315761102184835180516001600160a01b03168252602090810151910152565b9284019290850190600101610ffb565b5091979650505050505050565b634e487b7160e01b600052602160045260246000fd5b6006811061107257634e487b7160e01b600052602160045260246000fd5b9052565b815181526020808301516001600160a01b0316908201526040808301519082015260608083015160e08301916110ae90840182611054565b506080830151608083015260a083015160a083015260c083015160c083015292915050565b8781526001600160a01b03871660208201526040810186905260e081016110fd6060830187611054565b8460808301528360a08301528260c083015298975050505050505050565b60006020828403121561112d57600080fd5b61113682610f44565b9392505050565b634e487b7160e01b600052601160045260246000fd5b6000600182016111655761116561113d565b5060010190565b634e487b7160e01b600052604160045260246000fd5b81810381811115610fd857610fd861113d565b634e487b7160e01b600052603260045260246000fd5b6020808252602b908201527f496e697469616c697a61626c653a20636f6e7472616374206973206e6f74206960408201526a6e697469616c697a696e6760a81b60608201526080019056fea2646970667358221220c1c3f674839e24855b5939cd5521f9042b16c489ed2897e323b392743baa672664736f6c63430008170033",
  "linkReferences": {},
  "deployedLinkReferences": {}
}