{
  "_format": "hh-sol-artifact-1",
  "contractName": "FinancingContract",
  "sourceName": "contracts/V2/finance/Financing.sol",
  "abi": [
    {
      "inputs": [],
      "name": "AlreadyFinanced",
      "type": "error"
    },
    {
      "inputs": [],
      "name": "FinancingNotFound",
      "type": "error"
    },
    {
      "inputs": [],
      "name": "FinancingNotPending",
      "type": "error"
    },
    {
      "inputs": [],
      "name": "InsufficientBalance",
      "type": "error"
    },
    {
      "inputs": [],
      "name": "LoanNotFound",
      "type": "error"
    },
    {
      "inputs": [],
      "name": "NotLender",
      "type": "error"
    },
    {
      "anonymous": false,
      "inputs": [
        {
          "indexed": true,
          "internalType": "address",
          "name": "_lender",
          "type": "address"
        },
        {
          "indexed": true,
          "internalType": "address",
          "name": "_loaner",
          "type": "address"
        },
        {
          "indexed": false,
          "internalType": "uint256",
          "name": "_propertyId",
          "type": "uint256"
        }
      ],
      "name": "FinanceApproval",
      "type": "event"
    },
    {
      "anonymous": false,
      "inputs": [
        {
          "indexed": true,
          "internalType": "address",
          "name": "_lender",
          "type": "address"
        },
        {
          "indexed": true,
          "internalType": "address",
          "name": "_loaner",
          "type": "address"
        },
        {
          "indexed": false,
          "internalType": "uint256",
          "name": "_propertyId",
          "type": "uint256"
        }
      ],
      "name": "FinanceRejection",
      "type": "event"
    },
    {
      "anonymous": false,
      "inputs": [
        {
          "indexed": true,
          "internalType": "address",
          "name": "_lender",
          "type": "address"
        },
        {
          "indexed": true,
          "internalType": "address",
          "name": "_loaner",
          "type": "address"
        },
        {
          "indexed": false,
          "internalType": "uint256",
          "name": "_propertyId",
          "type": "uint256"
        }
      ],
      "name": "FinanceRequest",
      "type": "event"
    },
    {
      "anonymous": false,
      "inputs": [
        {
          "indexed": false,
          "internalType": "uint8",
          "name": "version",
          "type": "uint8"
        }
      ],
      "name": "Initialized",
      "type": "event"
    },
    {
      "anonymous": false,
      "inputs": [
        {
          "indexed": false,
          "internalType": "uint256",
          "name": "loanId",
          "type": "uint256"
        }
      ],
      "name": "LoanAdded",
      "type": "event"
    },
    {
      "anonymous": false,
      "inputs": [
        {
          "indexed": false,
          "internalType": "uint256",
          "name": "loanId",
          "type": "uint256"
        }
      ],
      "name": "LoanRemoved",
      "type": "event"
    },
    {
      "anonymous": false,
      "inputs": [
        {
          "indexed": true,
          "internalType": "address",
          "name": "previousOwner",
          "type": "address"
        },
        {
          "indexed": true,
          "internalType": "address",
          "name": "newOwner",
          "type": "address"
        }
      ],
      "name": "OwnershipTransferred",
      "type": "event"
    },
    {
      "anonymous": false,
      "inputs": [
        {
          "indexed": true,
          "internalType": "address",
          "name": "_lender",
          "type": "address"
        },
        {
          "indexed": true,
          "internalType": "address",
          "name": "_loaner",
          "type": "address"
        },
        {
          "indexed": false,
          "internalType": "uint256",
          "name": "_propertyId",
          "type": "uint256"
        }
      ],
      "name": "PaidOff",
      "type": "event"
    },
    {
      "inputs": [
        {
          "internalType": "address",
          "name": "_lender",
          "type": "address"
        },
        {
          "internalType": "uint256",
          "name": "_annualInterestRate",
          "type": "uint256"
        },
        {
          "internalType": "uint256",
          "name": "_maxDurationInMonths",
          "type": "uint256"
        }
      ],
      "name": "addLoan",
      "outputs": [],
      "stateMutability": "nonpayable",
      "type": "function"
    },
    {
      "inputs": [
        {
          "internalType": "uint256",
          "name": "_financingId",
          "type": "uint256"
        }
      ],
      "name": "approveFinancing",
      "outputs": [],
      "stateMutability": "payable",
      "type": "function"
    },
    {
      "inputs": [],
      "name": "financingCount",
      "outputs": [
        {
          "internalType": "uint256",
          "name": "",
          "type": "uint256"
        }
      ],
      "stateMutability": "view",
      "type": "function"
    },
    {
      "inputs": [
        {
          "internalType": "uint256",
          "name": "_loanId",
          "type": "uint256"
        },
        {
          "internalType": "uint256",
          "name": "_propertyId",
          "type": "uint256"
        },
        {
          "internalType": "uint256",
          "name": "_loanAmount",
          "type": "uint256"
        },
        {
          "internalType": "uint256",
          "name": "_durationInMonths",
          "type": "uint256"
        }
      ],
      "name": "financingRequest",
      "outputs": [
        {
          "internalType": "uint256",
          "name": "",
          "type": "uint256"
        }
      ],
      "stateMutability": "nonpayable",
      "type": "function"
    },
    {
      "inputs": [
        {
          "internalType": "uint256",
          "name": "",
          "type": "uint256"
        }
      ],
      "name": "financings",
      "outputs": [
        {
          "internalType": "uint256",
          "name": "propertyId",
          "type": "uint256"
        },
        {
          "internalType": "address",
          "name": "loaner",
          "type": "address"
        },
        {
          "internalType": "uint256",
          "name": "loanId",
          "type": "uint256"
        },
        {
          "internalType": "enum FinancingContract.FinancingStatus",
          "name": "status",
          "type": "uint8"
        },
        {
          "internalType": "uint256",
          "name": "loanAmount",
          "type": "uint256"
        },
        {
          "internalType": "uint256",
          "name": "durationInMonths",
          "type": "uint256"
        },
        {
          "internalType": "uint256",
          "name": "paidMonths",
          "type": "uint256"
        }
      ],
      "stateMutability": "view",
      "type": "function"
    },
    {
      "inputs": [],
      "name": "getAllLoans",
      "outputs": [
        {
          "components": [
            {
              "internalType": "address",
              "name": "lender",
              "type": "address"
            },
            {
              "internalType": "uint256",
              "name": "annualInterestRate",
              "type": "uint256"
            },
            {
              "internalType": "uint256",
              "name": "maxDurationInMonths",
              "type": "uint256"
            }
          ],
          "internalType": "struct LoaningContract.Loan[]",
          "name": "",
          "type": "tuple[]"
        }
      ],
      "stateMutability": "view",
      "type": "function"
    },
    {
      "inputs": [
        {
          "internalType": "uint256",
          "name": "_propertyId",
          "type": "uint256"
        }
      ],
      "name": "getFinancing",
      "outputs": [
        {
          "components": [
            {
              "internalType": "uint256",
              "name": "propertyId",
              "type": "uint256"
            },
            {
              "internalType": "address",
              "name": "loaner",
              "type": "address"
            },
            {
              "internalType": "uint256",
              "name": "loanId",
              "type": "uint256"
            },
            {
              "internalType": "enum FinancingContract.FinancingStatus",
              "name": "status",
              "type": "uint8"
            },
            {
              "internalType": "uint256",
              "name": "loanAmount",
              "type": "uint256"
            },
            {
              "internalType": "uint256",
              "name": "durationInMonths",
              "type": "uint256"
            },
            {
              "internalType": "uint256",
              "name": "paidMonths",
              "type": "uint256"
            }
          ],
          "internalType": "struct FinancingContract.Financing",
          "name": "",
          "type": "tuple"
        }
      ],
      "stateMutability": "view",
      "type": "function"
    },
    {
      "inputs": [
        {
          "internalType": "uint256",
          "name": "_propertyId",
          "type": "uint256"
        }
      ],
      "name": "getFinancingId",
      "outputs": [
        {
          "internalType": "uint256",
          "name": "",
          "type": "uint256"
        }
      ],
      "stateMutability": "view",
      "type": "function"
    },
    {
      "inputs": [
        {
          "internalType": "uint256",
          "name": "_loanId",
          "type": "uint256"
        }
      ],
      "name": "getLoan",
      "outputs": [
        {
          "components": [
            {
              "internalType": "address",
              "name": "lender",
              "type": "address"
            },
            {
              "internalType": "uint256",
              "name": "annualInterestRate",
              "type": "uint256"
            },
            {
              "internalType": "uint256",
              "name": "maxDurationInMonths",
              "type": "uint256"
            }
          ],
          "internalType": "struct LoaningContract.Loan",
          "name": "",
          "type": "tuple"
        }
      ],
      "stateMutability": "view",
      "type": "function"
    },
    {
      "inputs": [],
      "name": "initialize",
      "outputs": [],
      "stateMutability": "nonpayable",
      "type": "function"
    },
    {
      "inputs": [],
      "name": "loanCount",
      "outputs": [
        {
          "internalType": "uint256",
          "name": "",
          "type": "uint256"
        }
      ],
      "stateMutability": "view",
      "type": "function"
    },
    {
      "inputs": [
        {
          "internalType": "uint256",
          "name": "",
          "type": "uint256"
        }
      ],
      "name": "loans",
      "outputs": [
        {
          "internalType": "address",
          "name": "lender",
          "type": "address"
        },
        {
          "internalType": "uint256",
          "name": "annualInterestRate",
          "type": "uint256"
        },
        {
          "internalType": "uint256",
          "name": "maxDurationInMonths",
          "type": "uint256"
        }
      ],
      "stateMutability": "view",
      "type": "function"
    },
    {
      "inputs": [],
      "name": "owner",
      "outputs": [
        {
          "internalType": "address",
          "name": "",
          "type": "address"
        }
      ],
      "stateMutability": "view",
      "type": "function"
    },
    {
      "inputs": [
        {
          "internalType": "uint256",
          "name": "_propertyId",
          "type": "uint256"
        }
      ],
      "name": "payOffFinancing",
      "outputs": [],
      "stateMutability": "nonpayable",
      "type": "function"
    },
    {
      "inputs": [
        {
          "internalType": "uint256",
          "name": "",
          "type": "uint256"
        }
      ],
      "name": "propertyToFinancing",
      "outputs": [
        {
          "internalType": "uint256",
          "name": "",
          "type": "uint256"
        }
      ],
      "stateMutability": "view",
      "type": "function"
    },
    {
      "inputs": [
        {
          "internalType": "uint256",
          "name": "_financingId",
          "type": "uint256"
        }
      ],
      "name": "rejectFinancing",
      "outputs": [],
      "stateMutability": "nonpayable",
      "type": "function"
    },
    {
      "inputs": [
        {
          "internalType": "uint256",
          "name": "_propertyId",
          "type": "uint256"
        }
      ],
      "name": "remainingBalance",
      "outputs": [
        {
          "internalType": "uint256",
          "name": "",
          "type": "uint256"
        }
      ],
      "stateMutability": "view",
      "type": "function"
    },
    {
      "inputs": [
        {
          "internalType": "uint256",
          "name": "_loanId",
          "type": "uint256"
        }
      ],
      "name": "removeLoan",
      "outputs": [],
      "stateMutability": "nonpayable",
      "type": "function"
    },
    {
      "inputs": [],
      "name": "renounceOwnership",
      "outputs": [],
      "stateMutability": "nonpayable",
      "type": "function"
    },
    {
      "inputs": [
        {
          "internalType": "uint256",
          "name": "_loanId",
          "type": "uint256"
        },
        {
          "internalType": "uint256",
          "name": "_annualInterestRate",
          "type": "uint256"
        }
      ],
      "name": "setAnnualInterestRate",
      "outputs": [],
      "stateMutability": "nonpayable",
      "type": "function"
    },
    {
      "inputs": [
        {
          "internalType": "uint256",
          "name": "_propertyId",
          "type": "uint256"
        },
        {
          "internalType": "uint256",
          "name": "_financingId",
          "type": "uint256"
        }
      ],
      "name": "setFinancingId",
      "outputs": [],
      "stateMutability": "nonpayable",
      "type": "function"
    },
    {
      "inputs": [
        {
          "internalType": "uint256",
          "name": "_loanId",
          "type": "uint256"
        },
        {
          "internalType": "uint256",
          "name": "_maxDurationInMonths",
          "type": "uint256"
        }
      ],
      "name": "setMaxDurationInMonths",
      "outputs": [],
      "stateMutability": "nonpayable",
      "type": "function"
    },
    {
      "inputs": [
        {
          "internalType": "address",
          "name": "newOwner",
          "type": "address"
        }
      ],
      "name": "transferOwnership",
      "outputs": [],
      "stateMutability": "nonpayable",
      "type": "function"
    }
  ],
  "bytecode": "0x608060405234801561001057600080fd5b506113db806100206000396000f3fe6080604052600436106101405760003560e01c80638da5cb5b116100b6578063ce63094d1161006f578063ce63094d14610398578063e1ec3c68146103ae578063ec58aa0d14610419578063ecd2543214610492578063f2fde38b146104a5578063f3de41b5146104c557600080fd5b80638da5cb5b146102b4578063a5bfd16a146102dc578063a606281c146102fe578063a8818cf11461032b578063c5ec75291461034b578063cb7d90101461037857600080fd5b8063504006ca11610108578063504006ca14610207578063622af65a14610234578063715018a61461024a5780638129fc1c1461025f57806381d49b4d146102745780638a195a901461029457600080fd5b80630c15c771146101455780631933973314610174578063265fa36614610194578063457be68d146101c7578063463e074c146101e7575b600080fd5b34801561015157600080fd5b50610172610160366004611083565b60009182526069602052604090912055565b005b34801561018057600080fd5b5061017261018f3660046110c1565b6104f2565b3480156101a057600080fd5b506101b46101af3660046110f4565b610599565b6040519081526020015b60405180910390f35b3480156101d357600080fd5b506101726101e2366004611083565b6105d9565b3480156101f357600080fd5b506101b461020236600461110d565b610628565b34801561021357600080fd5b506102276102223660046110f4565b610816565b6040516101be919061113f565b34801561024057600080fd5b506101b460675481565b34801561025657600080fd5b50610172610885565b34801561026b57600080fd5b50610172610899565b34801561028057600080fd5b5061017261028f3660046110f4565b6109b5565b3480156102a057600080fd5b506101726102af366004611083565b610aa2565b3480156102c057600080fd5b506033546040516001600160a01b0390911681526020016101be565b3480156102e857600080fd5b506102f1610af1565b6040516101be919061116b565b34801561030a57600080fd5b5061031e6103193660046110f4565b610c1b565b6040516101be919061120e565b34801561033757600080fd5b506101726103463660046110f4565b610cfd565b34801561035757600080fd5b506101b46103663660046110f4565b60696020526000908152604090205481565b34801561038457600080fd5b506101726103933660046110f4565b610d9e565b3480156103a457600080fd5b506101b460655481565b3480156103ba57600080fd5b506103f46103c93660046110f4565b6066602052600090815260409020805460018201546002909201546001600160a01b03909116919083565b604080516001600160a01b0390941684526020840192909252908201526060016101be565b34801561042557600080fd5b5061047f6104343660046110f4565b606860205260009081526040902080546001820154600283015460038401546004850154600586015460069096015494956001600160a01b0390941694929360ff9092169290919087565b6040516101be979695949392919061126b565b6101726104a03660046110f4565b610e02565b3480156104b157600080fd5b506101726104c03660046112b3565b610f07565b3480156104d157600080fd5b506101b46104e03660046110f4565b60009081526069602052604090205490565b60658054906000610502836112eb565b9091555050604080516060810182526001600160a01b038581168252602080830186815283850186815260658054600090815260668552879020955186546001600160a01b031916951694909417855590516001850155516002909301929092555491519182527fc6526819b79c79bca265d26d44112d2abeb9aa87aec729ae40baf6e37e8111c6910160405180910390a1505050565b600081815260686020526040812060038082015460ff1660058111156105c1576105c16111d6565b146105cf5750600092915050565b6004015492915050565b60008281526066602052604090205482906001600160a01b0316331461061257604051638c38000360e01b815260040160405180910390fd5b5060009182526066602052604090912060020155565b6000838152606960209081526040808320548084526068909252822060010154859133916001600160a01b0316821480156106885750600360008481526068602052604090206003015460ff166005811115610686576106866111d6565b145b156106a6576040516362c0ba7160e01b815260040160405180910390fd5b600088815260666020526040902080546001600160a01b03166106dc57604051630e7e621d60e01b815260040160405180910390fd5b60678054339160006106ed836112eb565b90915550506040805160e0810182528a81526001600160a01b03831660208201529081018b9052606081016001815260208082018b905260408083018b9052600060609384018190528d8152606883528190208451815591840151600180840180546001600160a01b0319166001600160a01b03909316929092179091559084015160028301559183015160038201805492939192909160ff199091169083600581111561079d5761079d6111d6565b02179055506080820151600482015560a0820151600582015560c09091015160069091015581546040518a81526001600160a01b038381169216907fad0fa41cf886c43d6312902012a3bcf2d76435f2ab8b54c9de5aac0d04ccaa139060200160405180910390a3505060675498975050505050505050565b610843604051806060016040528060006001600160a01b0316815260200160008152602001600081525090565b50600090815260666020908152604091829020825160608101845281546001600160a01b03168152600182015492810192909252600201549181019190915290565b61088d610f7d565b6108976000610fd7565b565b600054610100900460ff16158080156108b95750600054600160ff909116105b806108d35750303b1580156108d3575060005460ff166001145b61093b5760405162461bcd60e51b815260206004820152602e60248201527f496e697469616c697a61626c653a20636f6e747261637420697320616c72656160448201526d191e481a5b9a5d1a585b1a5e995960921b60648201526084015b60405180910390fd5b6000805460ff19166001179055801561095e576000805461ff0019166101001790555b610966611029565b600060675580156109b2576000805461ff0019169055604051600181527f7f26b83ff96e1f2b6a682f133852f6798a09c465da95921460cefb3847402498906020015b60405180910390a15b50565b60008181526068602052604090206001600382015460ff1660058111156109de576109de6111d6565b146109fc57604051630c6caf8960e11b815260040160405180910390fd5b6002810154600090815260666020526040902054336001600160a01b0390911603610a3a57604051638c38000360e01b815260040160405180910390fd5b60038101805460ff1916600217905560018101546001600160a01b0316336001600160a01b03167f37843929b7dc3e6f429d72551c63a48c23271df211a56c4f8cf2dc35100fa75b8360000154604051610a9691815260200190565b60405180910390a35050565b60008281526066602052604090205482906001600160a01b03163314610adb57604051638c38000360e01b815260040160405180910390fd5b5060009182526066602052604090912060010155565b6060600060655467ffffffffffffffff811115610b1057610b10611304565b604051908082528060200260200182016040528015610b6e57816020015b610b5b604051806060016040528060006001600160a01b0316815260200160008152602001600081525090565b815260200190600190039081610b2e5790505b50905060015b6065548111610c15576000818152606660205260409020546001600160a01b031615610c0357600081815260666020908152604091829020825160608101845281546001600160a01b0316815260018083015493820193909352600290910154928101929092528390610be7908461131a565b81518110610bf757610bf761132d565b60200260200101819052505b80610c0d816112eb565b915050610b74565b50919050565b610c5b6040805160e08101825260008082526020820181905291810182905290606082019081526020016000815260200160008152602001600081525090565b6000828152606960209081526040808320548084526068835292819020815160e0810183528154815260018201546001600160a01b0316938101939093526002810154918301919091526003810154606083019060ff166005811115610cc357610cc36111d6565b6005811115610cd457610cd46111d6565b815260048201546020820152600582015460408201526006909101546060909101529392505050565b6000818152606660205260409020546001600160a01b0316610d3257604051630e7e621d60e01b815260040160405180910390fd5b600081815260666020526040812080546001600160a01b0319168155600181018290556002018190556065805491610d6983611343565b90915550506040518181527f7356c9d0d4784328d8e1a9b265f4fd6fb70c9aef871f6cb21ddce73149051af3906020016109a9565b6000818152606860209081526040808320600181015460028201548552606684529382902054915185815290936001600160a01b03908116939216917f051541fa33cdf98d82de38e13160de44730371d42552463bdc76d7ed3af5bcda9101610a96565b60008181526068602052604090206001600382015460ff166005811115610e2b57610e2b6111d6565b14610e4957604051630c6caf8960e11b815260040160405180910390fd5b60028101546000908152606660205260409020546001600160a01b03163314610e8557604051638c38000360e01b815260040160405180910390fd5b8060040154341015610eaa57604051631e9acf1760e31b815260040160405180910390fd5b6003818101805460ff1916909117905560018101546001600160a01b0316336001600160a01b03167f184ef608d8195662f17d74a525860a7d10fb379a6232f73ef6cc6250b073489b8360000154604051610a9691815260200190565b610f0f610f7d565b6001600160a01b038116610f745760405162461bcd60e51b815260206004820152602660248201527f4f776e61626c653a206e6577206f776e657220697320746865207a65726f206160448201526564647265737360d01b6064820152608401610932565b6109b281610fd7565b6033546001600160a01b031633146108975760405162461bcd60e51b815260206004820181905260248201527f4f776e61626c653a2063616c6c6572206973206e6f7420746865206f776e65726044820152606401610932565b603380546001600160a01b038381166001600160a01b0319831681179093556040519116919082907f8be0079c531659141344cd1fd0a4f28419497f9722a3daafe3b4186f6b6457e090600090a35050565b600054610100900460ff166110505760405162461bcd60e51b81526004016109329061135a565b610897600054610100900460ff1661107a5760405162461bcd60e51b81526004016109329061135a565b61089733610fd7565b6000806040838503121561109657600080fd5b50508035926020909101359150565b80356001600160a01b03811681146110bc57600080fd5b919050565b6000806000606084860312156110d657600080fd5b6110df846110a5565b95602085013595506040909401359392505050565b60006020828403121561110657600080fd5b5035919050565b6000806000806080858703121561112357600080fd5b5050823594602084013594506040840135936060013592509050565b81516001600160a01b031681526020808301519082015260408083015190820152606081015b92915050565b6020808252825182820181905260009190848201906040850190845b818110156111ca576111b783855180516001600160a01b0316825260208082015190830152604090810151910152565b9284019260609290920191600101611187565b50909695505050505050565b634e487b7160e01b600052602160045260246000fd5b6006811061120a57634e487b7160e01b600052602160045260246000fd5b9052565b815181526020808301516001600160a01b0316908201526040808301519082015260608083015160e0830191611246908401826111ec565b506080830151608083015260a083015160a083015260c083015160c083015292915050565b8781526001600160a01b03871660208201526040810186905260e0810161129560608301876111ec565b8460808301528360a08301528260c083015298975050505050505050565b6000602082840312156112c557600080fd5b6112ce826110a5565b9392505050565b634e487b7160e01b600052601160045260246000fd5b6000600182016112fd576112fd6112d5565b5060010190565b634e487b7160e01b600052604160045260246000fd5b81810381811115611165576111656112d5565b634e487b7160e01b600052603260045260246000fd5b600081611352576113526112d5565b506000190190565b6020808252602b908201527f496e697469616c697a61626c653a20636f6e7472616374206973206e6f74206960408201526a6e697469616c697a696e6760a81b60608201526080019056fea26469706673582212203eeec3417368ea15270b357a1fdaaa7de1757047c817110280dd4b207874fa1264736f6c63430008170033",
  "linkReferences": {},
  "deployedLinkReferences": {}
}