{
  "_format": "hh-sol-artifact-1",
  "contractName": "ListingContract",
  "sourceName": "contracts/V2/marketplace/Listing.sol",
  "abi": [
    {
      "inputs": [],
      "name": "BidAlreadySet",
      "type": "error"
    },
    {
      "inputs": [],
      "name": "BidNotSet",
      "type": "error"
    },
    {
      "inputs": [],
      "name": "BuyerAlreadyApproved",
      "type": "error"
    },
    {
      "inputs": [],
      "name": "BuyerAlreadyBid",
      "type": "error"
    },
    {
      "inputs": [],
      "name": "BuyerDidNotBid",
      "type": "error"
    },
    {
      "inputs": [],
      "name": "NotAcceptedBuyer",
      "type": "error"
    },
    {
      "inputs": [],
      "name": "NotApprovedByBothParties",
      "type": "error"
    },
    {
      "inputs": [],
      "name": "NotPropertyOwner",
      "type": "error"
    },
    {
      "inputs": [],
      "name": "PriceNotMet",
      "type": "error"
    },
    {
      "inputs": [],
      "name": "PropertyAlreadyListed",
      "type": "error"
    },
    {
      "inputs": [],
      "name": "PropertyNotExists",
      "type": "error"
    },
    {
      "inputs": [],
      "name": "PropertyNotListed",
      "type": "error"
    },
    {
      "anonymous": false,
      "inputs": [
        {
          "indexed": false,
          "internalType": "uint256",
          "name": "_propertyId",
          "type": "uint256"
        }
      ],
      "name": "Accept",
      "type": "event"
    },
    {
      "anonymous": false,
      "inputs": [
        {
          "indexed": true,
          "internalType": "address",
          "name": "_owner",
          "type": "address"
        },
        {
          "indexed": false,
          "internalType": "uint256",
          "name": "_propertyId",
          "type": "uint256"
        }
      ],
      "name": "Add",
      "type": "event"
    },
    {
      "anonymous": false,
      "inputs": [
        {
          "indexed": true,
          "internalType": "address",
          "name": "owner",
          "type": "address"
        },
        {
          "indexed": true,
          "internalType": "address",
          "name": "approved",
          "type": "address"
        },
        {
          "indexed": true,
          "internalType": "uint256",
          "name": "tokenId",
          "type": "uint256"
        }
      ],
      "name": "Approval",
      "type": "event"
    },
    {
      "anonymous": false,
      "inputs": [
        {
          "indexed": true,
          "internalType": "address",
          "name": "owner",
          "type": "address"
        },
        {
          "indexed": true,
          "internalType": "address",
          "name": "operator",
          "type": "address"
        },
        {
          "indexed": false,
          "internalType": "bool",
          "name": "approved",
          "type": "bool"
        }
      ],
      "name": "ApprovalForAll",
      "type": "event"
    },
    {
      "anonymous": false,
      "inputs": [
        {
          "indexed": false,
          "internalType": "uint256",
          "name": "_fromTokenId",
          "type": "uint256"
        },
        {
          "indexed": false,
          "internalType": "uint256",
          "name": "_toTokenId",
          "type": "uint256"
        }
      ],
      "name": "BatchMetadataUpdate",
      "type": "event"
    },
    {
      "anonymous": false,
      "inputs": [
        {
          "indexed": false,
          "internalType": "uint8",
          "name": "version",
          "type": "uint8"
        }
      ],
      "name": "Initialized",
      "type": "event"
    },
    {
      "anonymous": false,
      "inputs": [
        {
          "indexed": false,
          "internalType": "uint256",
          "name": "_propertyId",
          "type": "uint256"
        }
      ],
      "name": "List",
      "type": "event"
    },
    {
      "anonymous": false,
      "inputs": [
        {
          "indexed": false,
          "internalType": "uint256",
          "name": "_tokenId",
          "type": "uint256"
        }
      ],
      "name": "MetadataUpdate",
      "type": "event"
    },
    {
      "anonymous": false,
      "inputs": [
        {
          "indexed": false,
          "internalType": "uint256",
          "name": "_propertyId",
          "type": "uint256"
        }
      ],
      "name": "Offer",
      "type": "event"
    },
    {
      "anonymous": false,
      "inputs": [
        {
          "indexed": true,
          "internalType": "address",
          "name": "previousOwner",
          "type": "address"
        },
        {
          "indexed": true,
          "internalType": "address",
          "name": "newOwner",
          "type": "address"
        }
      ],
      "name": "OwnershipTransferred",
      "type": "event"
    },
    {
      "anonymous": false,
      "inputs": [
        {
          "indexed": true,
          "internalType": "address",
          "name": "_owner",
          "type": "address"
        },
        {
          "indexed": false,
          "internalType": "uint256",
          "name": "_propertyId",
          "type": "uint256"
        }
      ],
      "name": "Remove",
      "type": "event"
    },
    {
      "anonymous": false,
      "inputs": [
        {
          "indexed": true,
          "internalType": "address",
          "name": "from",
          "type": "address"
        },
        {
          "indexed": true,
          "internalType": "address",
          "name": "to",
          "type": "address"
        },
        {
          "indexed": true,
          "internalType": "uint256",
          "name": "tokenId",
          "type": "uint256"
        }
      ],
      "name": "Transfer",
      "type": "event"
    },
    {
      "anonymous": false,
      "inputs": [
        {
          "indexed": false,
          "internalType": "uint256",
          "name": "_propertyId",
          "type": "uint256"
        }
      ],
      "name": "Unlist",
      "type": "event"
    },
    {
      "inputs": [
        {
          "internalType": "uint256",
          "name": "_propertyId",
          "type": "uint256"
        },
        {
          "internalType": "address",
          "name": "_buyer",
          "type": "address"
        }
      ],
      "name": "acceptOffer",
      "outputs": [],
      "stateMutability": "nonpayable",
      "type": "function"
    },
    {
      "inputs": [
        {
          "internalType": "string",
          "name": "_uri",
          "type": "string"
        },
        {
          "internalType": "uint256",
          "name": "_price",
          "type": "uint256"
        }
      ],
      "name": "addProperty",
      "outputs": [],
      "stateMutability": "nonpayable",
      "type": "function"
    },
    {
      "inputs": [
        {
          "internalType": "address",
          "name": "to",
          "type": "address"
        },
        {
          "internalType": "uint256",
          "name": "tokenId",
          "type": "uint256"
        }
      ],
      "name": "approve",
      "outputs": [],
      "stateMutability": "nonpayable",
      "type": "function"
    },
    {
      "inputs": [
        {
          "internalType": "uint256",
          "name": "_propertyId",
          "type": "uint256"
        }
      ],
      "name": "approveTransferAsBuyer",
      "outputs": [],
      "stateMutability": "payable",
      "type": "function"
    },
    {
      "inputs": [
        {
          "internalType": "uint256",
          "name": "_propertyId",
          "type": "uint256"
        }
      ],
      "name": "approveTransferAsSeller",
      "outputs": [],
      "stateMutability": "nonpayable",
      "type": "function"
    },
    {
      "inputs": [
        {
          "internalType": "address",
          "name": "owner",
          "type": "address"
        }
      ],
      "name": "balanceOf",
      "outputs": [
        {
          "internalType": "uint256",
          "name": "",
          "type": "uint256"
        }
      ],
      "stateMutability": "view",
      "type": "function"
    },
    {
      "inputs": [
        {
          "internalType": "uint256",
          "name": "_propertyId",
          "type": "uint256"
        },
        {
          "internalType": "uint256",
          "name": "_bidPrice",
          "type": "uint256"
        }
      ],
      "name": "bid",
      "outputs": [],
      "stateMutability": "nonpayable",
      "type": "function"
    },
    {
      "inputs": [],
      "name": "financingContract",
      "outputs": [
        {
          "internalType": "contract IFinancing",
          "name": "",
          "type": "address"
        }
      ],
      "stateMutability": "view",
      "type": "function"
    },
    {
      "inputs": [],
      "name": "getActiveListings",
      "outputs": [
        {
          "components": [
            {
              "internalType": "uint256",
              "name": "propertyId",
              "type": "uint256"
            },
            {
              "internalType": "uint256",
              "name": "sellPrice",
              "type": "uint256"
            },
            {
              "internalType": "bool",
              "name": "buyerApproved",
              "type": "bool"
            },
            {
              "internalType": "bool",
              "name": "sellerApproved",
              "type": "bool"
            },
            {
              "internalType": "uint256",
              "name": "financingId",
              "type": "uint256"
            },
            {
              "components": [
                {
                  "internalType": "address",
                  "name": "buyer",
                  "type": "address"
                },
                {
                  "internalType": "uint256",
                  "name": "bidPrice",
                  "type": "uint256"
                }
              ],
              "internalType": "struct ListingContract.Bid[]",
              "name": "bids",
              "type": "tuple[]"
            },
            {
              "components": [
                {
                  "internalType": "address",
                  "name": "buyer",
                  "type": "address"
                },
                {
                  "internalType": "uint256",
                  "name": "bidPrice",
                  "type": "uint256"
                },
                {
                  "internalType": "uint256",
                  "name": "financingId",
                  "type": "uint256"
                }
              ],
              "internalType": "struct ListingContract.AcceptedBid",
              "name": "acceptedBid",
              "type": "tuple"
            }
          ],
          "internalType": "struct ListingContract.Listing[]",
          "name": "",
          "type": "tuple[]"
        }
      ],
      "stateMutability": "view",
      "type": "function"
    },
    {
      "inputs": [
        {
          "internalType": "uint256",
          "name": "tokenId",
          "type": "uint256"
        }
      ],
      "name": "getApproved",
      "outputs": [
        {
          "internalType": "address",
          "name": "",
          "type": "address"
        }
      ],
      "stateMutability": "view",
      "type": "function"
    },
    {
      "inputs": [
        {
          "internalType": "uint256",
          "name": "_propertyId",
          "type": "uint256"
        }
      ],
      "name": "getListing",
      "outputs": [
        {
          "components": [
            {
              "internalType": "uint256",
              "name": "propertyId",
              "type": "uint256"
            },
            {
              "internalType": "uint256",
              "name": "sellPrice",
              "type": "uint256"
            },
            {
              "internalType": "bool",
              "name": "buyerApproved",
              "type": "bool"
            },
            {
              "internalType": "bool",
              "name": "sellerApproved",
              "type": "bool"
            },
            {
              "internalType": "uint256",
              "name": "financingId",
              "type": "uint256"
            },
            {
              "components": [
                {
                  "internalType": "address",
                  "name": "buyer",
                  "type": "address"
                },
                {
                  "internalType": "uint256",
                  "name": "bidPrice",
                  "type": "uint256"
                }
              ],
              "internalType": "struct ListingContract.Bid[]",
              "name": "bids",
              "type": "tuple[]"
            },
            {
              "components": [
                {
                  "internalType": "address",
                  "name": "buyer",
                  "type": "address"
                },
                {
                  "internalType": "uint256",
                  "name": "bidPrice",
                  "type": "uint256"
                },
                {
                  "internalType": "uint256",
                  "name": "financingId",
                  "type": "uint256"
                }
              ],
              "internalType": "struct ListingContract.AcceptedBid",
              "name": "acceptedBid",
              "type": "tuple"
            }
          ],
          "internalType": "struct ListingContract.Listing",
          "name": "",
          "type": "tuple"
        }
      ],
      "stateMutability": "view",
      "type": "function"
    },
    {
      "inputs": [
        {
          "internalType": "address",
          "name": "_owner",
          "type": "address"
        }
      ],
      "name": "getPropertiesByOwner",
      "outputs": [
        {
          "components": [
            {
              "internalType": "uint256",
              "name": "propertyId",
              "type": "uint256"
            },
            {
              "internalType": "uint256",
              "name": "price",
              "type": "uint256"
            },
            {
              "internalType": "string",
              "name": "uri",
              "type": "string"
            }
          ],
          "internalType": "struct PropertyContract.PropertyResult[]",
          "name": "",
          "type": "tuple[]"
        }
      ],
      "stateMutability": "view",
      "type": "function"
    },
    {
      "inputs": [
        {
          "internalType": "uint256",
          "name": "_propertyId",
          "type": "uint256"
        }
      ],
      "name": "getPropertyById",
      "outputs": [
        {
          "components": [
            {
              "internalType": "uint256",
              "name": "propertyId",
              "type": "uint256"
            },
            {
              "internalType": "uint256",
              "name": "price",
              "type": "uint256"
            },
            {
              "internalType": "string",
              "name": "uri",
              "type": "string"
            }
          ],
          "internalType": "struct PropertyContract.PropertyResult",
          "name": "",
          "type": "tuple"
        }
      ],
      "stateMutability": "view",
      "type": "function"
    },
    {
      "inputs": [
        {
          "internalType": "address",
          "name": "_financingContract",
          "type": "address"
        }
      ],
      "name": "initialize",
      "outputs": [],
      "stateMutability": "nonpayable",
      "type": "function"
    },
    {
      "inputs": [
        {
          "internalType": "address",
          "name": "owner",
          "type": "address"
        },
        {
          "internalType": "address",
          "name": "operator",
          "type": "address"
        }
      ],
      "name": "isApprovedForAll",
      "outputs": [
        {
          "internalType": "bool",
          "name": "",
          "type": "bool"
        }
      ],
      "stateMutability": "view",
      "type": "function"
    },
    {
      "inputs": [
        {
          "internalType": "uint256",
          "name": "_propertyId",
          "type": "uint256"
        }
      ],
      "name": "listProperty",
      "outputs": [],
      "stateMutability": "nonpayable",
      "type": "function"
    },
    {
      "inputs": [],
      "name": "listingCount",
      "outputs": [
        {
          "internalType": "uint256",
          "name": "",
          "type": "uint256"
        }
      ],
      "stateMutability": "view",
      "type": "function"
    },
    {
      "inputs": [
        {
          "internalType": "uint256",
          "name": "",
          "type": "uint256"
        }
      ],
      "name": "listings",
      "outputs": [
        {
          "internalType": "uint256",
          "name": "propertyId",
          "type": "uint256"
        },
        {
          "internalType": "uint256",
          "name": "sellPrice",
          "type": "uint256"
        },
        {
          "internalType": "bool",
          "name": "buyerApproved",
          "type": "bool"
        },
        {
          "internalType": "bool",
          "name": "sellerApproved",
          "type": "bool"
        },
        {
          "internalType": "uint256",
          "name": "financingId",
          "type": "uint256"
        },
        {
          "components": [
            {
              "internalType": "address",
              "name": "buyer",
              "type": "address"
            },
            {
              "internalType": "uint256",
              "name": "bidPrice",
              "type": "uint256"
            },
            {
              "internalType": "uint256",
              "name": "financingId",
              "type": "uint256"
            }
          ],
          "internalType": "struct ListingContract.AcceptedBid",
          "name": "acceptedBid",
          "type": "tuple"
        }
      ],
      "stateMutability": "view",
      "type": "function"
    },
    {
      "inputs": [],
      "name": "name",
      "outputs": [
        {
          "internalType": "string",
          "name": "",
          "type": "string"
        }
      ],
      "stateMutability": "view",
      "type": "function"
    },
    {
      "inputs": [],
      "name": "owner",
      "outputs": [
        {
          "internalType": "address",
          "name": "",
          "type": "address"
        }
      ],
      "stateMutability": "view",
      "type": "function"
    },
    {
      "inputs": [
        {
          "internalType": "uint256",
          "name": "tokenId",
          "type": "uint256"
        }
      ],
      "name": "ownerOf",
      "outputs": [
        {
          "internalType": "address",
          "name": "",
          "type": "address"
        }
      ],
      "stateMutability": "view",
      "type": "function"
    },
    {
      "inputs": [
        {
          "internalType": "uint256",
          "name": "",
          "type": "uint256"
        }
      ],
      "name": "properties",
      "outputs": [
        {
          "internalType": "uint256",
          "name": "price",
          "type": "uint256"
        }
      ],
      "stateMutability": "view",
      "type": "function"
    },
    {
      "inputs": [],
      "name": "propertyCount",
      "outputs": [
        {
          "internalType": "uint256",
          "name": "",
          "type": "uint256"
        }
      ],
      "stateMutability": "view",
      "type": "function"
    },
    {
      "inputs": [
        {
          "internalType": "uint256",
          "name": "_propertyId",
          "type": "uint256"
        }
      ],
      "name": "removeProperty",
      "outputs": [],
      "stateMutability": "nonpayable",
      "type": "function"
    },
    {
      "inputs": [],
      "name": "renounceOwnership",
      "outputs": [],
      "stateMutability": "nonpayable",
      "type": "function"
    },
    {
      "inputs": [
        {
          "internalType": "uint256",
          "name": "_loanId",
          "type": "uint256"
        },
        {
          "internalType": "uint256",
          "name": "_propertyId",
          "type": "uint256"
        },
        {
          "internalType": "uint256",
          "name": "_loanAmount",
          "type": "uint256"
        },
        {
          "internalType": "uint256",
          "name": "_durationInMonths",
          "type": "uint256"
        }
      ],
      "name": "requestFinancing",
      "outputs": [],
      "stateMutability": "nonpayable",
      "type": "function"
    },
    {
      "inputs": [
        {
          "internalType": "address",
          "name": "from",
          "type": "address"
        },
        {
          "internalType": "address",
          "name": "to",
          "type": "address"
        },
        {
          "internalType": "uint256",
          "name": "tokenId",
          "type": "uint256"
        }
      ],
      "name": "safeTransferFrom",
      "outputs": [],
      "stateMutability": "nonpayable",
      "type": "function"
    },
    {
      "inputs": [
        {
          "internalType": "address",
          "name": "from",
          "type": "address"
        },
        {
          "internalType": "address",
          "name": "to",
          "type": "address"
        },
        {
          "internalType": "uint256",
          "name": "tokenId",
          "type": "uint256"
        },
        {
          "internalType": "bytes",
          "name": "data",
          "type": "bytes"
        }
      ],
      "name": "safeTransferFrom",
      "outputs": [],
      "stateMutability": "nonpayable",
      "type": "function"
    },
    {
      "inputs": [
        {
          "internalType": "address",
          "name": "operator",
          "type": "address"
        },
        {
          "internalType": "bool",
          "name": "approved",
          "type": "bool"
        }
      ],
      "name": "setApprovalForAll",
      "outputs": [],
      "stateMutability": "nonpayable",
      "type": "function"
    },
    {
      "inputs": [
        {
          "internalType": "uint256",
          "name": "_propertyId",
          "type": "uint256"
        },
        {
          "internalType": "uint256",
          "name": "_price",
          "type": "uint256"
        }
      ],
      "name": "setPrice",
      "outputs": [],
      "stateMutability": "nonpayable",
      "type": "function"
    },
    {
      "inputs": [
        {
          "internalType": "bytes4",
          "name": "interfaceId",
          "type": "bytes4"
        }
      ],
      "name": "supportsInterface",
      "outputs": [
        {
          "internalType": "bool",
          "name": "",
          "type": "bool"
        }
      ],
      "stateMutability": "view",
      "type": "function"
    },
    {
      "inputs": [],
      "name": "symbol",
      "outputs": [
        {
          "internalType": "string",
          "name": "",
          "type": "string"
        }
      ],
      "stateMutability": "view",
      "type": "function"
    },
    {
      "inputs": [
        {
          "internalType": "uint256",
          "name": "tokenId",
          "type": "uint256"
        }
      ],
      "name": "tokenURI",
      "outputs": [
        {
          "internalType": "string",
          "name": "",
          "type": "string"
        }
      ],
      "stateMutability": "view",
      "type": "function"
    },
    {
      "inputs": [
        {
          "internalType": "address",
          "name": "from",
          "type": "address"
        },
        {
          "internalType": "address",
          "name": "to",
          "type": "address"
        },
        {
          "internalType": "uint256",
          "name": "tokenId",
          "type": "uint256"
        }
      ],
      "name": "transferFrom",
      "outputs": [],
      "stateMutability": "nonpayable",
      "type": "function"
    },
    {
      "inputs": [
        {
          "internalType": "address",
          "name": "newOwner",
          "type": "address"
        }
      ],
      "name": "transferOwnership",
      "outputs": [],
      "stateMutability": "nonpayable",
      "type": "function"
    },
    {
      "inputs": [
        {
          "internalType": "uint256",
          "name": "_propertyId",
          "type": "uint256"
        }
      ],
      "name": "unbid",
      "outputs": [],
      "stateMutability": "nonpayable",
      "type": "function"
    },
    {
      "inputs": [
        {
          "internalType": "uint256",
          "name": "_propertyId",
          "type": "uint256"
        }
      ],
      "name": "unlistProperty",
      "outputs": [],
      "stateMutability": "nonpayable",
      "type": "function"
    }
  ],
  "bytecode": "0x608060405234801561001057600080fd5b506142bf806100206000396000f3fe60806040526004361061021a5760003560e01c80638da5cb5b11610123578063c361a335116100ab578063f2fde38b1161006f578063f2fde38b146106c5578063f54e1aef146106e5578063f7b1080814610705578063f7d9757714610732578063febfa1761461075257600080fd5b8063c361a335146105b8578063c4d66de8146105ce578063c87b56dd146105ee578063de74e57b1461060e578063e985e9c5146106a557600080fd5b8063a22cb465116100f2578063a22cb46514610522578063a9b07c2614610542578063b6aee1cf14610558578063b88d4fde14610578578063bc43d06f1461059857600080fd5b80638da5cb5b146104a2578063918d407d146104c057806395d89b41146104e05780639fcb2748146104f557600080fd5b80635138f19f116101a657806370a082311161017557806370a08231146103fd578063715018a61461042b5780637e6b3bbf14610440578063841ad8b91461046057806387c35bc01461048057600080fd5b80635138f19f1461037d578063598647f81461039057806359fe18eb146103b05780636352211e146103dd57600080fd5b80630e4cfe97116101ed5780630e4cfe97146102d0578063107a274a146102f057806323b872dd1461031d5780633fb924a21461033d57806342842e0e1461035d57600080fd5b806301ffc9a71461021f57806306fdde0314610254578063081812fc14610276578063095ea7b3146102ae575b600080fd5b34801561022b57600080fd5b5061023f61023a366004613801565b610772565b60405190151581526020015b60405180910390f35b34801561026057600080fd5b5061026961079d565b60405161024b919061386e565b34801561028257600080fd5b50610296610291366004613881565b61082f565b6040516001600160a01b03909116815260200161024b565b3480156102ba57600080fd5b506102ce6102c93660046138af565b610856565b005b3480156102dc57600080fd5b506102ce6102eb366004613881565b610970565b3480156102fc57600080fd5b5061031061030b366004613881565b610c94565b60405161024b919061399e565b34801561032957600080fd5b506102ce6103383660046139b1565b610d9d565b34801561034957600080fd5b5060ff54610296906001600160a01b031681565b34801561036957600080fd5b506102ce6103783660046139b1565b610dce565b6102ce61038b366004613881565b610de9565b34801561039c57600080fd5b506102ce6103ab3660046139f2565b610f9b565b3480156103bc57600080fd5b506103d06103cb366004613881565b61125f565b60405161024b9190613a3d565b3480156103e957600080fd5b506102966103f8366004613881565b6112b9565b34801561040957600080fd5b5061041d610418366004613a50565b611319565b60405190815260200161024b565b34801561043757600080fd5b506102ce61139f565b34801561044c57600080fd5b506102ce61045b366004613881565b6113b3565b34801561046c57600080fd5b506102ce61047b366004613881565b61150f565b34801561048c57600080fd5b506104956116f6565b60405161024b9190613a6d565b3480156104ae57600080fd5b506033546001600160a01b0316610296565b3480156104cc57600080fd5b506102ce6104db366004613ad1565b6118c1565b3480156104ec57600080fd5b50610269611c14565b34801561050157600080fd5b50610515610510366004613a50565b611c23565b60405161024b9190613b01565b34801561052e57600080fd5b506102ce61053d366004613b58565b611d84565b34801561054e57600080fd5b5061041d60fd5481565b34801561056457600080fd5b506102ce610573366004613881565b611d93565b34801561058457600080fd5b506102ce610593366004613c40565b611fad565b3480156105a457600080fd5b506102ce6105b3366004613881565b611fe5565b3480156105c457600080fd5b5061041d60fb5481565b3480156105da57600080fd5b506102ce6105e9366004613a50565b61211a565b3480156105fa57600080fd5b50610269610609366004613881565b612254565b34801561061a57600080fd5b50610693610629366004613881565b60fe602090815260009182526040918290208054600182015460028301546003840154865160608101885260058601546001600160a01b03168152600686015496810196909652600790940154958501959095529093909260ff8083169361010090930416919086565b60405161024b96959493929190613cc0565b3480156106b157600080fd5b5061023f6106c0366004613d1b565b612364565b3480156106d157600080fd5b506102ce6106e0366004613a50565b612392565b3480156106f157600080fd5b506102ce610700366004613d49565b61240b565b34801561071157600080fd5b5061041d610720366004613881565b60fc6020526000908152604090205481565b34801561073e57600080fd5b506102ce61074d3660046139f2565b6124de565b34801561075e57600080fd5b506102ce61076d366004613da2565b61254b565b60006001600160e01b03198216632483248360e11b14806107975750610797826126b4565b92915050565b6060609780546107ac90613dd4565b80601f01602080910402602001604051908101604052809291908181526020018280546107d890613dd4565b80156108255780601f106107fa57610100808354040283529160200191610825565b820191906000526020600020905b81548152906001019060200180831161080857829003601f168201915b5050505050905090565b600061083a82612704565b506000908152609b60205260409020546001600160a01b031690565b6000610861826112b9565b9050806001600160a01b0316836001600160a01b0316036108d35760405162461bcd60e51b815260206004820152602160248201527f4552433732313a20617070726f76616c20746f2063757272656e74206f776e656044820152603960f91b60648201526084015b60405180910390fd5b336001600160a01b03821614806108ef57506108ef8133612364565b6109615760405162461bcd60e51b815260206004820152603d60248201527f4552433732313a20617070726f76652063616c6c6572206973206e6f7420746f60448201527f6b656e206f776e6572206f7220617070726f76656420666f7220616c6c00000060648201526084016108ca565b61096b8383612754565b505050565b8061097a816127c2565b6109975760405163b1e4c4d160e01b815260040160405180910390fd5b600082815260fe602052604090205482906001908214806109cb57604051630cdb1f4760e11b815260040160405180910390fd5b811580156109d65750805b156109f457604051630bbe4b0b60e31b815260040160405180910390fd5b843360016000805b600085815260fe6020526040902060040154811015610a7457600085815260fe6020526040902060040180546001600160a01b038616919083908110610a4457610a44613e0e565b60009182526020909120600290910201546001600160a01b031603610a6c5760019150610a74565b6001016109fc565b50818015610a80575080155b15610a9e57604051638296b48d60e01b815260040160405180910390fd5b81158015610aa95750805b15610ac7576040516314d2f4d760e01b815260040160405180910390fd5b8860008082815260fe60205260409020600501546001600160a01b031615610b025760405163928156d160e01b815260040160405180910390fd5b6000805b60008d815260fe6020526040902060040154811015610b745760008d815260fe60205260409020600401805433919083908110610b4557610b45613e0e565b60009182526020909120600290910201546001600160a01b031603610b6c57809150610b74565b600101610b06565b50805b60008d815260fe6020526040902060040154610b9590600190613e3a565b811015610c3c5760008d815260fe60205260409020600401610bb8826001613e4d565b81548110610bc857610bc8613e0e565b906000526020600020906002020160fe60008f81526020019081526020016000206004018281548110610bfd57610bfd613e0e565b60009182526020909120825460029092020180546001600160a01b0319166001600160a01b039092169190911781556001918201549082015501610b77565b5060008c815260fe60205260409020600401805480610c5d57610c5d613e60565b60008281526020812060026000199093019283020180546001600160a01b0319168155600101559055505050505050505050505050565b610c9c6136e6565b600082815260fe60209081526040808320815160e08101835281548152600182015481850152600282015460ff8082161515838601526101009091041615156060820152600382015460808201526004820180548451818702810187019095528085529195929460a0870194939192919084015b82821015610d58576000848152602090819020604080518082019091526002850290910180546001600160a01b03168252600190810154828401529083529092019101610d10565b505050908252506040805160608101825260058401546001600160a01b0316815260068401546020828101919091526007909401549181019190915291015292915050565b610da733826127df565b610dc35760405162461bcd60e51b81526004016108ca90613e76565b61096b83838361283d565b61096b83838360405180602001604052806000815250611fad565b80610df3816127c2565b610e105760405163b1e4c4d160e01b815260040160405180910390fd5b600082815260fe60205260409020548290600190821480610e4457604051630cdb1f4760e11b815260040160405180910390fd5b81158015610e4f5750805b15610e6d57604051630bbe4b0b60e31b815260040160405180910390fd5b600085815260fe6020526040902060050154859033906001600160a01b03168114610eab576040516382e464c960e01b815260040160405180910390fd5b600087815260fe6020526040902060060154341015610edd576040516351616ae360e11b815260040160405180910390fd5b600087815260fe602052604090206002015460ff1615610f1057604051630529894560e41b815260040160405180910390fd5b600087815260fe60205260409020600201805460ff19166001179055610f333390565b600088815260fe60205260409020600601546001600160a01b0391909116906108fc90610f609034613e3a565b6040518115909202916000818181858888f19350505050158015610f88573d6000803e3d6000fd5b50610f928761298f565b50505050505050565b81610fa5816127c2565b610fc25760405163b1e4c4d160e01b815260040160405180910390fd5b600083815260fe60205260409020548390600190821480610ff657604051630cdb1f4760e11b815260040160405180910390fd5b811580156110015750805b1561101f57604051630bbe4b0b60e31b815260040160405180910390fd5b8533600080805b600085815260fe602052604090206004015481101561109e57600085815260fe6020526040902060040180546001600160a01b03861691908390811061106e5761106e613e0e565b60009182526020909120600290910201546001600160a01b031603611096576001915061109e565b600101611026565b508180156110aa575080155b156110c857604051638296b48d60e01b815260040160405180910390fd5b811580156110d35750805b156110f1576040516314d2f4d760e01b815260040160405180910390fd5b6110fa8a6112b9565b6001600160a01b031633036111445760405162461bcd60e51b815260206004820152601060248201526f13dddb995c8818d85b9b9bdd08189a5960821b60448201526064016108ca565b60008a815260fe60205260409020600501546001600160a01b031615801561117b575060008a815260fe6020526040902060060154155b6111b95760405162461bcd60e51b815260206004820152600f60248201526e109a5908185b1c9958591e481cd95d608a1b60448201526064016108ca565b60008a815260fe60205260409081902081518083019092526004019080336001600160a01b03908116825260209182018d9052835460018082018655600095865294839020845160029092020180546001600160a01b031916919092161781559181015191909201556040518b81527fee046dfd9e835fa8731932677c785a4d0b621036ae894acf04d1b38ee2b6cc64910160405180910390a150505050505050505050565b61128360405180606001604052806000815260200160008152602001606081525090565b60408051606081018252838152600084815260fc60209081529083902054908201529081016112b184612254565b905292915050565b6000818152609960205260408120546001600160a01b0316806107975760405162461bcd60e51b8152602060048201526018602482015277115490cdcc8c4e881a5b9d985b1a59081d1bdad95b88125160421b60448201526064016108ca565b60006001600160a01b0382166113835760405162461bcd60e51b815260206004820152602960248201527f4552433732313a2061646472657373207a65726f206973206e6f7420612076616044820152683634b21037bbb732b960b91b60648201526084016108ca565b506001600160a01b03166000908152609a602052604090205490565b6113a7612e1b565b6113b16000612e75565b565b806113bd816127c2565b6113da5760405163b1e4c4d160e01b815260040160405180910390fd5b81336113e5826112b9565b6001600160a01b03161461140c57604051639a517dab60e01b815260040160405180910390fd5b600083815260fe6020526040902054839060019082148061144057604051630cdb1f4760e11b815260040160405180910390fd5b8115801561144b5750805b1561146957604051630bbe4b0b60e31b815260040160405180910390fd5b600086815260fe6020526040902060020154610100900460ff16156114e05760405162461bcd60e51b815260206004820152602760248201527f5472616e7366657220616c726561647920617070726f766564206279207468656044820152661039b2b63632b960c91b60648201526084016108ca565b600086815260fe60205260409020600201805461ff0019166101001790556115078661298f565b505050505050565b80611519816127c2565b6115365760405163b1e4c4d160e01b815260040160405180910390fd5b8133611541826112b9565b6001600160a01b03161461156857604051639a517dab60e01b815260040160405180910390fd5b600083815260fe6020526040902054839060019082148061159c57604051630cdb1f4760e11b815260040160405180910390fd5b811580156115a75750805b156115c557604051630bbe4b0b60e31b815260040160405180910390fd5b600086815260fe602052604090206002015460ff161580156115fe5750600086815260fe6020526040902060020154610100900460ff16155b61164a5760405162461bcd60e51b815260206004820152601a60248201527f50726f706572747920697320756e646572207472616e7366657200000000000060448201526064016108ca565b60fd805490600061165a83613ec3565b9091555050600086815260fe602052604081208181556001810182905560028101805461ffff1916905560038101829055906116996004830182613751565b506005810180546001600160a01b03191690556000600682018190556007909101556040518681527f1ab07bb87a0c78eb0f29c0162ea68b3ac8b59a655d06e64e23ec24522ec344189060200160405180910390a1505050505050565b6060600060fd5467ffffffffffffffff81111561171557611715613b8b565b60405190808252806020026020018201604052801561174e57816020015b61173b6136e6565b8152602001906001900390816117335790505b509050600060015b60fb5481116118b957600081815260fe602052604090205481900361189e57600081815260fe60209081526040808320815160e08101835281548152600182015481850152600282015460ff8082161515838601526101009091041615156060820152600382015460808201526004820180548451818702810187019095528085529195929460a0870194939192919084015b82821015611831576000848152602090819020604080518082019091526002850290910180546001600160a01b031682526001908101548284015290835290920191016117e9565b505050908252506040805160608101825260058401546001600160a01b03168152600684015460208281019190915260079094015491810191909152910152835184908490811061188457611884613e0e565b6020026020010181905250818061189a90613eda565b9250505b60fd5482146118b957806118b181613eda565b915050611756565b509092915050565b816118cb816127c2565b6118e85760405163b1e4c4d160e01b815260040160405180910390fd5b82336118f3826112b9565b6001600160a01b03161461191a57604051639a517dab60e01b815260040160405180910390fd5b600084815260fe6020526040902054849060019082148061194e57604051630cdb1f4760e11b815260040160405180910390fd5b811580156119595750805b1561197757604051630bbe4b0b60e31b815260040160405180910390fd5b8660008082815260fe60205260409020600501546001600160a01b0316156119b25760405163928156d160e01b815260040160405180910390fd5b60005b60008a815260fe6020526040902060040154811015611bef5760008a815260fe6020526040902060040180546001600160a01b038b169190839081106119fd576119fd613e0e565b60009182526020909120600290910201546001600160a01b031603611be75760ff5460008b815260fe60205260408082206003015490516329818a0760e21b815291926001600160a01b03169163a606281c91611a609160040190815260200190565b60e060405180830381865afa158015611a7d573d6000803e3d6000fd5b505050506040513d601f19601f82011682018060405250810190611aa19190613ef3565b60008c815260fe6020526040902060040180549192509083908110611ac857611ac8613e0e565b90600052602060002090600202016001015481608001511115611afe576040516351616ae360e11b815260040160405180910390fd5b60405180606001604052808b6001600160a01b0316815260200160fe60008e81526020019081526020016000206004018481548110611b3f57611b3f613e0e565b600091825260208083206002928302016001015484529283018290528e825260fe835260409182902084516005820180546001600160a01b0319166001600160a01b0390921691909117905584840151600682015593820151600785015592909201805461010061ff001990911617905590518c81527fa573f6e77cec35b255a3fb35b673473461473d63e293d50c5eba0d7d18942383910160405180910390a15050611c09565b6001016119b5565b50604051638296b48d60e01b815260040160405180910390fd5b505050505050505050565b6060609880546107ac90613dd4565b6060600080611c3184611319565b905060008167ffffffffffffffff811115611c4e57611c4e613b8b565b604051908082528060200260200182016040528015611ca357816020015b611c9060405180606001604052806000815260200160008152602001606081525090565b815260200190600190039081611c6c5790505b50905060015b60fb548111611d7b57856001600160a01b0316611cc5826112b9565b6001600160a01b031603611d625780828581518110611ce657611ce6613e0e565b60209081029190910181015191909152600082815260fc90915260409020548251839086908110611d1957611d19613e0e565b60200260200101516020018181525050611d3281612254565b828581518110611d4457611d44613e0e565b6020026020010151604001819052508380611d5e90613eda565b9450505b838314611d7b5780611d7381613eda565b915050611ca9565b50949350505050565b611d8f338383612ec7565b5050565b80611d9d816127c2565b611dba5760405163b1e4c4d160e01b815260040160405180910390fd5b8133611dc5826112b9565b6001600160a01b031614611dec57604051639a517dab60e01b815260040160405180910390fd5b600083815260fe602052604081205484919082148015611e1f57604051630bbe4b0b60e31b815260040160405180910390fd5b600086815260fc60205260409020548690801580611ea8575060ff5460405163132fd1b360e11b8152600481018490526001600160a01b039091169063265fa36690602401602060405180830381865afa158015611e81573d6000803e3d6000fd5b505050506040513d601f19601f82011682018060405250810190611ea59190613f6f565b81105b15611ec6576040516351616ae360e11b815260040160405180910390fd5b60fd8054906000611ed683613eda565b9091555050600088815260fe602090815260408083208b815560fc9092529182902054600182015560ff54915163f3de41b560e01b8152600481018b905290916001600160a01b03169063f3de41b590602401602060405180830381865afa158015611f46573d6000803e3d6000fd5b505050506040513d601f19601f82011682018060405250810190611f6a9190613f6f565b60038201556040518981527fdd11eaf2db1c16b640194c05b02faa4b8bc4abf29c61428e990e72c6c15cff779060200160405180910390a1505050505050505050565b611fb733836127df565b611fd35760405162461bcd60e51b81526004016108ca90613e76565b611fdf84848484612f95565b50505050565b80611fef816127c2565b61200c5760405163b1e4c4d160e01b815260040160405180910390fd5b8133612017826112b9565b6001600160a01b03161461203e57604051639a517dab60e01b815260040160405180910390fd5b612047836127c2565b61209f5760405162461bcd60e51b8152602060048201526024808201527f50726f70657274792077697468207468697320494420646f6573206e6f7420656044820152631e1a5cdd60e21b60648201526084016108ca565b6120a883612fc8565b600083815260fc6020526040812081905560fb8054916120c783613ec3565b91905055506120d33390565b6001600160a01b03167f8e2f5fcc57c31738b03aa91accdd55b13dc355a4fa1707d953f49c973e18e6e48460405161210d91815260200190565b60405180910390a2505050565b600054610100900460ff161580801561213a5750600054600160ff909116105b806121545750303b158015612154575060005460ff166001145b6121b75760405162461bcd60e51b815260206004820152602e60248201527f496e697469616c697a61626c653a20636f6e747261637420697320616c72656160448201526d191e481a5b9a5d1a585b1a5e995960921b60648201526084016108ca565b6000805460ff1916600117905580156121da576000805461ff0019166101001790555b6121e2613008565b6121ea613037565b600060fd5560ff80546001600160a01b0319166001600160a01b0384161790558015611d8f576000805461ff0019169055604051600181527f7f26b83ff96e1f2b6a682f133852f6798a09c465da95921460cefb3847402498906020015b60405180910390a15050565b606061225f82612704565b600082815260c960205260408120805461227890613dd4565b80601f01602080910402602001604051908101604052809291908181526020018280546122a490613dd4565b80156122f15780601f106122c6576101008083540402835291602001916122f1565b820191906000526020600020905b8154815290600101906020018083116122d457829003601f168201915b50505050509050600061230f60408051602081019091526000815290565b90508051600003612321575092915050565b81511561235357808260405160200161233b929190613f88565b60405160208183030381529060405292505050919050565b61235c84613084565b949350505050565b6001600160a01b039182166000908152609c6020908152604080832093909416825291909152205460ff1690565b61239a612e1b565b6001600160a01b0381166123ff5760405162461bcd60e51b815260206004820152602660248201527f4f776e61626c653a206e6577206f776e657220697320746865207a65726f206160448201526564647265737360d01b60648201526084016108ca565b61240881612e75565b50565b60008251116124525760405162461bcd60e51b81526020600482015260136024820152725552492063616e6e6f7420626520656d70747960681b60448201526064016108ca565b60fb805490600061246283613eda565b9091555050604080516020808201835283825260fb54600090815260fc90915291909120905190556124963360fb546130f8565b6124a260fb5483613112565b60fb5460405190815233907f2728c9d3205d667bbc0eefdfeda366261b4d021949630c047f3e5834b30611ab9060200160405180910390a25050565b816124e8816127c2565b6125055760405163b1e4c4d160e01b815260040160405180910390fd5b8233612510826112b9565b6001600160a01b03161461253757604051639a517dab60e01b815260040160405180910390fd5b5050600091825260fc602052604090912055565b82612555816127c2565b6125725760405163b1e4c4d160e01b815260040160405180910390fd5b600084815260fe602052604090205484906001908214806125a657604051630cdb1f4760e11b815260040160405180910390fd5b811580156125b15750805b156125cf57604051630bbe4b0b60e31b815260040160405180910390fd5b600087815260fe6020526040902060050154879033906001600160a01b0316811461260d576040516382e464c960e01b815260040160405180910390fd5b60ff5460405163118f81d360e21b8152600481018c9052602481018b9052604481018a9052606481018990526000916001600160a01b03169063463e074c906084016020604051808303816000875af115801561266e573d6000803e3d6000fd5b505050506040513d601f19601f820116820180604052508101906126929190613f6f565b60009a8b5260fe6020526040909a206007019990995550505050505050505050565b60006001600160e01b031982166380ac58cd60e01b14806126e557506001600160e01b03198216635b5e139f60e01b145b8061079757506301ffc9a760e01b6001600160e01b0319831614610797565b61270d816127c2565b6124085760405162461bcd60e51b8152602060048201526018602482015277115490cdcc8c4e881a5b9d985b1a59081d1bdad95b88125160421b60448201526064016108ca565b6000818152609b6020526040902080546001600160a01b0319166001600160a01b0384169081179091558190612789826112b9565b6001600160a01b03167f8c5be1e5ebec7d5bd14f71427d1e84f3dd0314c0f7b2291e5b200ac8c7c3b92560405160405180910390a45050565b6000908152609960205260409020546001600160a01b0316151590565b6000806127eb836112b9565b9050806001600160a01b0316846001600160a01b0316148061281257506128128185612364565b8061235c5750836001600160a01b031661282b8461082f565b6001600160a01b031614949350505050565b826001600160a01b0316612850826112b9565b6001600160a01b0316146128765760405162461bcd60e51b81526004016108ca90613fb7565b6001600160a01b0382166128d85760405162461bcd60e51b8152602060048201526024808201527f4552433732313a207472616e7366657220746f20746865207a65726f206164646044820152637265737360e01b60648201526084016108ca565b826001600160a01b03166128eb826112b9565b6001600160a01b0316146129115760405162461bcd60e51b81526004016108ca90613fb7565b6000818152609b6020908152604080832080546001600160a01b03199081169091556001600160a01b03878116808652609a85528386208054600019019055908716808652838620805460010190558686526099909452828520805490921684179091559051849360008051602061426a83398151915291a4505050565b80612999816127c2565b6129b65760405163b1e4c4d160e01b815260040160405180910390fd5b600082815260fe6020526040902060020154829060ff1615806129f05750600081815260fe6020526040902060020154610100900460ff16155b15612a0e57604051637c3e890960e11b815260040160405180910390fd5b600083815260fe60205260408120600501546001600160a01b031690612a33856112b9565b600086815260fe60205260408082206006015460ff5491516329818a0760e21b8152600481018a9052939450926001600160a01b039091169063a606281c9060240160e060405180830381865afa158015612a92573d6000803e3d6000fd5b505050506040513d601f19601f82011682018060405250810190612ab69190613ef3565b9050600381606001516005811115612ad057612ad0613ffc565b03612ca65760ff5460405163132fd1b360e11b8152600481018990526000916001600160a01b03169063265fa36690602401602060405180830381865afa158015612b1f573d6000803e3d6000fd5b505050506040513d601f19601f82011682018060405250810190612b439190613f6f565b90506000612b518285613e3a565b60ff546040808601519051632820036560e11b81529293506000926001600160a01b039092169163504006ca91612b8e9160040190815260200190565b6040805180830381865afa158015612baa573d6000803e3d6000fd5b505050506040513d601f19601f82011682018060405250810190612bce9190614012565b516040519091506001600160a01b0382169084156108fc029085906000818181858888f19350505050158015612c08573d6000803e3d6000fd5b506040516001600160a01b0387169083156108fc029084906000818181858888f19350505050158015612c3f573d6000803e3d6000fd5b5060ff54604051630cb7d90160e41b8152600481018c90526001600160a01b039091169063cb7d901090602401600060405180830381600087803b158015612c8657600080fd5b505af1158015612c9a573d6000803e3d6000fd5b50505050505050612cee565b600087815260fe60205260408082206006015490516001600160a01b0386169282156108fc02929190818181858888f19350505050158015612cec573d6000803e3d6000fd5b505b612cf983858961283d565b60ff54600088815260fe602052604090819020600301549051630c15c77160e01b8152600481018a905260248101919091526001600160a01b0390911690630c15c77190604401600060405180830381600087803b158015612d5a57600080fd5b505af1158015612d6e573d6000803e3d6000fd5b505050600088815260fe602052604081208181556001810182905560028101805461ffff19169055600381018290559150612dac6004830182613751565b506005810180546001600160a01b0319169055600060068201819055600790910181905560fd805491612dde83613ec3565b919050555086846001600160a01b0316846001600160a01b031660008051602061426a83398151915260405160405180910390a450505050505050565b6033546001600160a01b031633146113b15760405162461bcd60e51b815260206004820181905260248201527f4f776e61626c653a2063616c6c6572206973206e6f7420746865206f776e657260448201526064016108ca565b603380546001600160a01b038381166001600160a01b0319831681179093556040519116919082907f8be0079c531659141344cd1fd0a4f28419497f9722a3daafe3b4186f6b6457e090600090a35050565b816001600160a01b0316836001600160a01b031603612f285760405162461bcd60e51b815260206004820152601960248201527f4552433732313a20617070726f766520746f2063616c6c65720000000000000060448201526064016108ca565b6001600160a01b038381166000818152609c6020908152604080832094871680845294825291829020805460ff191686151590811790915591519182527f17307eab39ab6107e8899845ad3d59bd9653f200f220920489ca2b5937696c31910160405180910390a3505050565b612fa084848461283d565b612fac848484846131c7565b611fdf5760405162461bcd60e51b81526004016108ca9061406a565b612fd1816132c8565b600081815260c9602052604090208054612fea90613dd4565b15905061240857600081815260c96020526040812061240891613772565b600054610100900460ff1661302f5760405162461bcd60e51b81526004016108ca906140bc565b6113b161334b565b61307d6040518060400160405280600881526020016750726f706572747960c01b81525060405180604001604052806004815260200163050524f560e41b81525061337b565b600060fb55565b606061308f82612704565b60006130a660408051602081019091526000815290565b905060008151116130c657604051806020016040528060008152506130f1565b806130d0846133ac565b6040516020016130e1929190613f88565b6040516020818303038152906040525b9392505050565b611d8f828260405180602001604052806000815250613440565b61311b826127c2565b61317e5760405162461bcd60e51b815260206004820152602e60248201527f45524337323155524953746f726167653a2055524920736574206f66206e6f6e60448201526d32bc34b9ba32b73a103a37b5b2b760911b60648201526084016108ca565b600082815260c960205260409020613196828261414f565b506040518281527ff8e1a15aba9398e019f0b49df1a4fde98ee17ae345cb5f6b5e2c27f5033e8ce790602001612248565b60006001600160a01b0384163b156132bd57604051630a85bd0160e11b81526001600160a01b0385169063150b7a029061320b90339089908890889060040161420f565b6020604051808303816000875af1925050508015613246575060408051601f3d908101601f191682019092526132439181019061424c565b60015b6132a3573d808015613274576040519150601f19603f3d011682016040523d82523d6000602084013e613279565b606091505b50805160000361329b5760405162461bcd60e51b81526004016108ca9061406a565b805181602001fd5b6001600160e01b031916630a85bd0160e11b14905061235c565b506001949350505050565b60006132d3826112b9565b90506132de826112b9565b6000838152609b6020908152604080832080546001600160a01b03199081169091556001600160a01b038516808552609a8452828520805460001901905587855260999093528184208054909116905551929350849260008051602061426a833981519152908390a45050565b600054610100900460ff166133725760405162461bcd60e51b81526004016108ca906140bc565b6113b133612e75565b600054610100900460ff166133a25760405162461bcd60e51b81526004016108ca906140bc565b611d8f8282613473565b606060006133b9836134b3565b600101905060008167ffffffffffffffff8111156133d9576133d9613b8b565b6040519080825280601f01601f191660200182016040528015613403576020820181803683370190505b5090508181016020015b600019016f181899199a1a9b1b9c1cb0b131b232b360811b600a86061a8153600a850494508461340d575b509392505050565b61344a838361358b565b61345760008484846131c7565b61096b5760405162461bcd60e51b81526004016108ca9061406a565b600054610100900460ff1661349a5760405162461bcd60e51b81526004016108ca906140bc565b60976134a6838261414f565b50609861096b828261414f565b60008072184f03e93ff9f4daa797ed6e38ed64bf6a1f0160401b83106134f25772184f03e93ff9f4daa797ed6e38ed64bf6a1f0160401b830492506040015b6d04ee2d6d415b85acef8100000000831061351e576d04ee2d6d415b85acef8100000000830492506020015b662386f26fc10000831061353c57662386f26fc10000830492506010015b6305f5e1008310613554576305f5e100830492506008015b612710831061356857612710830492506004015b6064831061357a576064830492506002015b600a83106107975760010192915050565b6001600160a01b0382166135e15760405162461bcd60e51b815260206004820181905260248201527f4552433732313a206d696e7420746f20746865207a65726f206164647265737360448201526064016108ca565b6135ea816127c2565b156136375760405162461bcd60e51b815260206004820152601c60248201527f4552433732313a20746f6b656e20616c7265616479206d696e7465640000000060448201526064016108ca565b613640816127c2565b1561368d5760405162461bcd60e51b815260206004820152601c60248201527f4552433732313a20746f6b656e20616c7265616479206d696e7465640000000060448201526064016108ca565b6001600160a01b0382166000818152609a6020908152604080832080546001019055848352609990915280822080546001600160a01b03191684179055518392919060008051602061426a833981519152908290a45050565b6040518060e001604052806000815260200160008152602001600015158152602001600015158152602001600081526020016060815260200161374c604051806060016040528060006001600160a01b0316815260200160008152602001600081525090565b905290565b508054600082556002029060005260206000209081019061240891906137ac565b50805461377e90613dd4565b6000825580601f1061378e575050565b601f01602090049060005260206000209081019061240891906137d6565b5b808211156137d25780546001600160a01b0319168155600060018201556002016137ad565b5090565b5b808211156137d257600081556001016137d7565b6001600160e01b03198116811461240857600080fd5b60006020828403121561381357600080fd5b81356130f1816137eb565b60005b83811015613839578181015183820152602001613821565b50506000910152565b6000815180845261385a81602086016020860161381e565b601f01601f19169290920160200192915050565b6020815260006130f16020830184613842565b60006020828403121561389357600080fd5b5035919050565b6001600160a01b038116811461240857600080fd5b600080604083850312156138c257600080fd5b82356138cd8161389a565b946020939093013593505050565b60006101208084018351855260208085015181870152604080860151151560408801526060860151151560608801526080860151608088015260a08601518460a08901528394508051808552610140890195508382019450600091505b8082101561396a57845180516001600160a01b0316875284015184870152948201949383019360019190910190613938565b505050505060c083015161343860c086018280516001600160a01b0316825260208082015190830152604090810151910152565b6020815260006130f160208301846138db565b6000806000606084860312156139c657600080fd5b83356139d18161389a565b925060208401356139e18161389a565b929592945050506040919091013590565b60008060408385031215613a0557600080fd5b50508035926020909101359150565b8051825260208101516020830152600060408201516060604085015261235c6060850182613842565b6020815260006130f16020830184613a14565b600060208284031215613a6257600080fd5b81356130f18161389a565b600060208083016020845280855180835260408601915060408160051b87010192506020870160005b82811015613ac457603f19888603018452613ab28583516138db565b94509285019290850190600101613a96565b5092979650505050505050565b60008060408385031215613ae457600080fd5b823591506020830135613af68161389a565b809150509250929050565b600060208083016020845280855180835260408601915060408160051b87010192506020870160005b82811015613ac457603f19888603018452613b46858351613a14565b94509285019290850190600101613b2a565b60008060408385031215613b6b57600080fd5b8235613b768161389a565b915060208301358015158114613af657600080fd5b634e487b7160e01b600052604160045260246000fd5b60405160e0810167ffffffffffffffff81118282101715613bc457613bc4613b8b565b60405290565b600067ffffffffffffffff80841115613be557613be5613b8b565b604051601f8501601f19908116603f01168101908282118183101715613c0d57613c0d613b8b565b81604052809350858152868686011115613c2657600080fd5b858560208301376000602087830101525050509392505050565b60008060008060808587031215613c5657600080fd5b8435613c618161389a565b93506020850135613c718161389a565b925060408501359150606085013567ffffffffffffffff811115613c9457600080fd5b8501601f81018713613ca557600080fd5b613cb487823560208401613bca565b91505092959194509250565b8681526020810186905284151560408201528315156060820152608081018390526101008101613d1060a083018480516001600160a01b0316825260208082015190830152604090810151910152565b979650505050505050565b60008060408385031215613d2e57600080fd5b8235613d398161389a565b91506020830135613af68161389a565b60008060408385031215613d5c57600080fd5b823567ffffffffffffffff811115613d7357600080fd5b8301601f81018513613d8457600080fd5b613d9385823560208401613bca565b95602094909401359450505050565b60008060008060808587031215613db857600080fd5b5050823594602084013594506040840135936060013592509050565b600181811c90821680613de857607f821691505b602082108103613e0857634e487b7160e01b600052602260045260246000fd5b50919050565b634e487b7160e01b600052603260045260246000fd5b634e487b7160e01b600052601160045260246000fd5b8181038181111561079757610797613e24565b8082018082111561079757610797613e24565b634e487b7160e01b600052603160045260246000fd5b6020808252602d908201527f4552433732313a2063616c6c6572206973206e6f7420746f6b656e206f776e6560408201526c1c881bdc88185c1c1c9bdd9959609a1b606082015260800190565b600081613ed257613ed2613e24565b506000190190565b600060018201613eec57613eec613e24565b5060010190565b600060e08284031215613f0557600080fd5b613f0d613ba1565b825181526020830151613f1f8161389a565b602082015260408381015190820152606083015160068110613f4057600080fd5b806060830152506080830151608082015260a083015160a082015260c083015160c08201528091505092915050565b600060208284031215613f8157600080fd5b5051919050565b60008351613f9a81846020880161381e565b835190830190613fae81836020880161381e565b01949350505050565b60208082526025908201527f4552433732313a207472616e736665722066726f6d20696e636f72726563742060408201526437bbb732b960d91b606082015260800190565b634e487b7160e01b600052602160045260246000fd5b60006040828403121561402457600080fd5b6040516040810181811067ffffffffffffffff8211171561404757614047613b8b565b60405282516140558161389a565b81526020928301519281019290925250919050565b60208082526032908201527f4552433732313a207472616e7366657220746f206e6f6e20455243373231526560408201527131b2b4bb32b91034b6b83632b6b2b73a32b960711b606082015260800190565b6020808252602b908201527f496e697469616c697a61626c653a20636f6e7472616374206973206e6f74206960408201526a6e697469616c697a696e6760a81b606082015260800190565b601f82111561096b576000816000526020600020601f850160051c810160208610156141305750805b601f850160051c820191505b818110156115075782815560010161413c565b815167ffffffffffffffff81111561416957614169613b8b565b61417d816141778454613dd4565b84614107565b602080601f8311600181146141b2576000841561419a5750858301515b600019600386901b1c1916600185901b178555611507565b600085815260208120601f198616915b828110156141e1578886015182559484019460019091019084016141c2565b50858210156141ff5787850151600019600388901b60f8161c191681555b5050505050600190811b01905550565b6001600160a01b038581168252841660208201526040810183905260806060820181905260009061424290830184613842565b9695505050505050565b60006020828403121561425e57600080fd5b81516130f1816137eb56feddf252ad1be2c89b69c2b068fc378daa952ba7f163c4a11628f55a4df523b3efa2646970667358221220ca998ff324f76523e3d3ec18765b39953d5079b2f35e1bf8158c1c680bf6cf7e64736f6c63430008170033",
  "linkReferences": {},
  "deployedLinkReferences": {}
}