{
  "_format": "hh-sol-artifact-1",
  "contractName": "ListingContract",
  "sourceName": "contracts/V2/marketplace/Listing.sol",
  "abi": [
    {
      "inputs": [],
      "name": "BidAlreadySet",
      "type": "error"
    },
    {
      "inputs": [],
      "name": "BidNotSet",
      "type": "error"
    },
    {
      "inputs": [],
      "name": "BuyerAlreadyApproved",
      "type": "error"
    },
    {
      "inputs": [],
      "name": "BuyerAlreadyBid",
      "type": "error"
    },
    {
      "inputs": [],
      "name": "BuyerDidNotBid",
      "type": "error"
    },
    {
      "inputs": [],
      "name": "NotAcceptedBuyer",
      "type": "error"
    },
    {
      "inputs": [],
      "name": "NotApprovedByBothParties",
      "type": "error"
    },
    {
      "inputs": [],
      "name": "NotPropertyOwner",
      "type": "error"
    },
    {
      "inputs": [],
      "name": "PriceNotMet",
      "type": "error"
    },
    {
      "inputs": [],
      "name": "PropertyAlreadyListed",
      "type": "error"
    },
    {
      "inputs": [],
      "name": "PropertyNotExists",
      "type": "error"
    },
    {
      "inputs": [],
      "name": "PropertyNotListed",
      "type": "error"
    },
    {
      "anonymous": false,
      "inputs": [
        {
          "indexed": false,
          "internalType": "uint256",
          "name": "_propertyId",
          "type": "uint256"
        }
      ],
      "name": "Accept",
      "type": "event"
    },
    {
      "anonymous": false,
      "inputs": [
        {
          "indexed": true,
          "internalType": "address",
          "name": "_owner",
          "type": "address"
        },
        {
          "indexed": false,
          "internalType": "uint256",
          "name": "_propertyId",
          "type": "uint256"
        }
      ],
      "name": "Add",
      "type": "event"
    },
    {
      "anonymous": false,
      "inputs": [
        {
          "indexed": true,
          "internalType": "address",
          "name": "owner",
          "type": "address"
        },
        {
          "indexed": true,
          "internalType": "address",
          "name": "approved",
          "type": "address"
        },
        {
          "indexed": true,
          "internalType": "uint256",
          "name": "tokenId",
          "type": "uint256"
        }
      ],
      "name": "Approval",
      "type": "event"
    },
    {
      "anonymous": false,
      "inputs": [
        {
          "indexed": true,
          "internalType": "address",
          "name": "owner",
          "type": "address"
        },
        {
          "indexed": true,
          "internalType": "address",
          "name": "operator",
          "type": "address"
        },
        {
          "indexed": false,
          "internalType": "bool",
          "name": "approved",
          "type": "bool"
        }
      ],
      "name": "ApprovalForAll",
      "type": "event"
    },
    {
      "anonymous": false,
      "inputs": [
        {
          "indexed": false,
          "internalType": "uint256",
          "name": "_fromTokenId",
          "type": "uint256"
        },
        {
          "indexed": false,
          "internalType": "uint256",
          "name": "_toTokenId",
          "type": "uint256"
        }
      ],
      "name": "BatchMetadataUpdate",
      "type": "event"
    },
    {
      "anonymous": false,
      "inputs": [
        {
          "indexed": false,
          "internalType": "uint8",
          "name": "version",
          "type": "uint8"
        }
      ],
      "name": "Initialized",
      "type": "event"
    },
    {
      "anonymous": false,
      "inputs": [
        {
          "indexed": false,
          "internalType": "uint256",
          "name": "_propertyId",
          "type": "uint256"
        }
      ],
      "name": "List",
      "type": "event"
    },
    {
      "anonymous": false,
      "inputs": [
        {
          "indexed": false,
          "internalType": "uint256",
          "name": "_tokenId",
          "type": "uint256"
        }
      ],
      "name": "MetadataUpdate",
      "type": "event"
    },
    {
      "anonymous": false,
      "inputs": [
        {
          "indexed": false,
          "internalType": "uint256",
          "name": "_propertyId",
          "type": "uint256"
        }
      ],
      "name": "Offer",
      "type": "event"
    },
    {
      "anonymous": false,
      "inputs": [
        {
          "indexed": true,
          "internalType": "address",
          "name": "previousOwner",
          "type": "address"
        },
        {
          "indexed": true,
          "internalType": "address",
          "name": "newOwner",
          "type": "address"
        }
      ],
      "name": "OwnershipTransferred",
      "type": "event"
    },
    {
      "anonymous": false,
      "inputs": [
        {
          "indexed": true,
          "internalType": "address",
          "name": "_owner",
          "type": "address"
        },
        {
          "indexed": false,
          "internalType": "uint256",
          "name": "_propertyId",
          "type": "uint256"
        }
      ],
      "name": "Remove",
      "type": "event"
    },
    {
      "anonymous": false,
      "inputs": [
        {
          "indexed": true,
          "internalType": "address",
          "name": "from",
          "type": "address"
        },
        {
          "indexed": true,
          "internalType": "address",
          "name": "to",
          "type": "address"
        },
        {
          "indexed": true,
          "internalType": "uint256",
          "name": "tokenId",
          "type": "uint256"
        }
      ],
      "name": "Transfer",
      "type": "event"
    },
    {
      "anonymous": false,
      "inputs": [
        {
          "indexed": false,
          "internalType": "uint256",
          "name": "_propertyId",
          "type": "uint256"
        }
      ],
      "name": "Unlist",
      "type": "event"
    },
    {
      "inputs": [
        {
          "internalType": "uint256",
          "name": "_propertyId",
          "type": "uint256"
        },
        {
          "internalType": "address",
          "name": "_buyer",
          "type": "address"
        }
      ],
      "name": "acceptOffer",
      "outputs": [],
      "stateMutability": "nonpayable",
      "type": "function"
    },
    {
      "inputs": [
        {
          "internalType": "string",
          "name": "_uri",
          "type": "string"
        },
        {
          "internalType": "uint256",
          "name": "_price",
          "type": "uint256"
        }
      ],
      "name": "addProperty",
      "outputs": [],
      "stateMutability": "nonpayable",
      "type": "function"
    },
    {
      "inputs": [
        {
          "internalType": "address",
          "name": "to",
          "type": "address"
        },
        {
          "internalType": "uint256",
          "name": "tokenId",
          "type": "uint256"
        }
      ],
      "name": "approve",
      "outputs": [],
      "stateMutability": "nonpayable",
      "type": "function"
    },
    {
      "inputs": [
        {
          "internalType": "uint256",
          "name": "_propertyId",
          "type": "uint256"
        }
      ],
      "name": "approveTransferAsBuyer",
      "outputs": [],
      "stateMutability": "payable",
      "type": "function"
    },
    {
      "inputs": [
        {
          "internalType": "uint256",
          "name": "_propertyId",
          "type": "uint256"
        }
      ],
      "name": "approveTransferAsSeller",
      "outputs": [],
      "stateMutability": "nonpayable",
      "type": "function"
    },
    {
      "inputs": [
        {
          "internalType": "address",
          "name": "owner",
          "type": "address"
        }
      ],
      "name": "balanceOf",
      "outputs": [
        {
          "internalType": "uint256",
          "name": "",
          "type": "uint256"
        }
      ],
      "stateMutability": "view",
      "type": "function"
    },
    {
      "inputs": [
        {
          "internalType": "uint256",
          "name": "_propertyId",
          "type": "uint256"
        },
        {
          "internalType": "uint256",
          "name": "_bidPrice",
          "type": "uint256"
        }
      ],
      "name": "bid",
      "outputs": [],
      "stateMutability": "nonpayable",
      "type": "function"
    },
    {
      "inputs": [],
      "name": "financingContract",
      "outputs": [
        {
          "internalType": "contract IFinancing",
          "name": "",
          "type": "address"
        }
      ],
      "stateMutability": "view",
      "type": "function"
    },
    {
      "inputs": [],
      "name": "getActiveListings",
      "outputs": [
        {
          "components": [
            {
              "internalType": "uint256",
              "name": "propertyId",
              "type": "uint256"
            },
            {
              "internalType": "uint256",
              "name": "sellPrice",
              "type": "uint256"
            },
            {
              "internalType": "bool",
              "name": "buyerApproved",
              "type": "bool"
            },
            {
              "internalType": "bool",
              "name": "sellerApproved",
              "type": "bool"
            },
            {
              "internalType": "uint256",
              "name": "financingId",
              "type": "uint256"
            },
            {
              "components": [
                {
                  "internalType": "address",
                  "name": "buyer",
                  "type": "address"
                },
                {
                  "internalType": "uint256",
                  "name": "bidPrice",
                  "type": "uint256"
                }
              ],
              "internalType": "struct ListingContract.Bid[]",
              "name": "bids",
              "type": "tuple[]"
            },
            {
              "components": [
                {
                  "internalType": "address",
                  "name": "buyer",
                  "type": "address"
                },
                {
                  "internalType": "uint256",
                  "name": "bidPrice",
                  "type": "uint256"
                },
                {
                  "internalType": "uint256",
                  "name": "financingId",
                  "type": "uint256"
                }
              ],
              "internalType": "struct ListingContract.AcceptedBid",
              "name": "acceptedBid",
              "type": "tuple"
            }
          ],
          "internalType": "struct ListingContract.Listing[]",
          "name": "",
          "type": "tuple[]"
        }
      ],
      "stateMutability": "view",
      "type": "function"
    },
    {
      "inputs": [
        {
          "internalType": "uint256",
          "name": "tokenId",
          "type": "uint256"
        }
      ],
      "name": "getApproved",
      "outputs": [
        {
          "internalType": "address",
          "name": "",
          "type": "address"
        }
      ],
      "stateMutability": "view",
      "type": "function"
    },
    {
      "inputs": [
        {
          "internalType": "uint256",
          "name": "_propertyId",
          "type": "uint256"
        }
      ],
      "name": "getListing",
      "outputs": [
        {
          "components": [
            {
              "internalType": "uint256",
              "name": "propertyId",
              "type": "uint256"
            },
            {
              "internalType": "uint256",
              "name": "sellPrice",
              "type": "uint256"
            },
            {
              "internalType": "bool",
              "name": "buyerApproved",
              "type": "bool"
            },
            {
              "internalType": "bool",
              "name": "sellerApproved",
              "type": "bool"
            },
            {
              "internalType": "uint256",
              "name": "financingId",
              "type": "uint256"
            },
            {
              "components": [
                {
                  "internalType": "address",
                  "name": "buyer",
                  "type": "address"
                },
                {
                  "internalType": "uint256",
                  "name": "bidPrice",
                  "type": "uint256"
                }
              ],
              "internalType": "struct ListingContract.Bid[]",
              "name": "bids",
              "type": "tuple[]"
            },
            {
              "components": [
                {
                  "internalType": "address",
                  "name": "buyer",
                  "type": "address"
                },
                {
                  "internalType": "uint256",
                  "name": "bidPrice",
                  "type": "uint256"
                },
                {
                  "internalType": "uint256",
                  "name": "financingId",
                  "type": "uint256"
                }
              ],
              "internalType": "struct ListingContract.AcceptedBid",
              "name": "acceptedBid",
              "type": "tuple"
            }
          ],
          "internalType": "struct ListingContract.Listing",
          "name": "",
          "type": "tuple"
        }
      ],
      "stateMutability": "view",
      "type": "function"
    },
    {
      "inputs": [
        {
          "internalType": "address",
          "name": "_owner",
          "type": "address"
        }
      ],
      "name": "getPropertiesByOwner",
      "outputs": [
        {
          "components": [
            {
              "internalType": "uint256",
              "name": "propertyId",
              "type": "uint256"
            },
            {
              "internalType": "uint256",
              "name": "price",
              "type": "uint256"
            },
            {
              "internalType": "string",
              "name": "uri",
              "type": "string"
            }
          ],
          "internalType": "struct PropertyContract.PropertyResult[]",
          "name": "",
          "type": "tuple[]"
        }
      ],
      "stateMutability": "view",
      "type": "function"
    },
    {
      "inputs": [
        {
          "internalType": "uint256",
          "name": "_propertyId",
          "type": "uint256"
        }
      ],
      "name": "getPropertyById",
      "outputs": [
        {
          "components": [
            {
              "internalType": "uint256",
              "name": "propertyId",
              "type": "uint256"
            },
            {
              "internalType": "uint256",
              "name": "price",
              "type": "uint256"
            },
            {
              "internalType": "string",
              "name": "uri",
              "type": "string"
            }
          ],
          "internalType": "struct PropertyContract.PropertyResult",
          "name": "",
          "type": "tuple"
        }
      ],
      "stateMutability": "view",
      "type": "function"
    },
    {
      "inputs": [
        {
          "internalType": "address",
          "name": "_financingContract",
          "type": "address"
        }
      ],
      "name": "initialize",
      "outputs": [],
      "stateMutability": "nonpayable",
      "type": "function"
    },
    {
      "inputs": [
        {
          "internalType": "address",
          "name": "owner",
          "type": "address"
        },
        {
          "internalType": "address",
          "name": "operator",
          "type": "address"
        }
      ],
      "name": "isApprovedForAll",
      "outputs": [
        {
          "internalType": "bool",
          "name": "",
          "type": "bool"
        }
      ],
      "stateMutability": "view",
      "type": "function"
    },
    {
      "inputs": [
        {
          "internalType": "uint256",
          "name": "_propertyId",
          "type": "uint256"
        }
      ],
      "name": "listProperty",
      "outputs": [],
      "stateMutability": "nonpayable",
      "type": "function"
    },
    {
      "inputs": [],
      "name": "listingCount",
      "outputs": [
        {
          "internalType": "uint256",
          "name": "",
          "type": "uint256"
        }
      ],
      "stateMutability": "view",
      "type": "function"
    },
    {
      "inputs": [
        {
          "internalType": "uint256",
          "name": "",
          "type": "uint256"
        }
      ],
      "name": "listings",
      "outputs": [
        {
          "internalType": "uint256",
          "name": "propertyId",
          "type": "uint256"
        },
        {
          "internalType": "uint256",
          "name": "sellPrice",
          "type": "uint256"
        },
        {
          "internalType": "bool",
          "name": "buyerApproved",
          "type": "bool"
        },
        {
          "internalType": "bool",
          "name": "sellerApproved",
          "type": "bool"
        },
        {
          "internalType": "uint256",
          "name": "financingId",
          "type": "uint256"
        },
        {
          "components": [
            {
              "internalType": "address",
              "name": "buyer",
              "type": "address"
            },
            {
              "internalType": "uint256",
              "name": "bidPrice",
              "type": "uint256"
            },
            {
              "internalType": "uint256",
              "name": "financingId",
              "type": "uint256"
            }
          ],
          "internalType": "struct ListingContract.AcceptedBid",
          "name": "acceptedBid",
          "type": "tuple"
        }
      ],
      "stateMutability": "view",
      "type": "function"
    },
    {
      "inputs": [],
      "name": "name",
      "outputs": [
        {
          "internalType": "string",
          "name": "",
          "type": "string"
        }
      ],
      "stateMutability": "view",
      "type": "function"
    },
    {
      "inputs": [],
      "name": "owner",
      "outputs": [
        {
          "internalType": "address",
          "name": "",
          "type": "address"
        }
      ],
      "stateMutability": "view",
      "type": "function"
    },
    {
      "inputs": [
        {
          "internalType": "uint256",
          "name": "tokenId",
          "type": "uint256"
        }
      ],
      "name": "ownerOf",
      "outputs": [
        {
          "internalType": "address",
          "name": "",
          "type": "address"
        }
      ],
      "stateMutability": "view",
      "type": "function"
    },
    {
      "inputs": [
        {
          "internalType": "uint256",
          "name": "",
          "type": "uint256"
        }
      ],
      "name": "properties",
      "outputs": [
        {
          "internalType": "uint256",
          "name": "price",
          "type": "uint256"
        }
      ],
      "stateMutability": "view",
      "type": "function"
    },
    {
      "inputs": [],
      "name": "propertyCount",
      "outputs": [
        {
          "internalType": "uint256",
          "name": "",
          "type": "uint256"
        }
      ],
      "stateMutability": "view",
      "type": "function"
    },
    {
      "inputs": [
        {
          "internalType": "uint256",
          "name": "_propertyId",
          "type": "uint256"
        },
        {
          "internalType": "address",
          "name": "_buyer",
          "type": "address"
        }
      ],
      "name": "removeBid",
      "outputs": [],
      "stateMutability": "nonpayable",
      "type": "function"
    },
    {
      "inputs": [
        {
          "internalType": "uint256",
          "name": "_propertyId",
          "type": "uint256"
        }
      ],
      "name": "removeProperty",
      "outputs": [],
      "stateMutability": "nonpayable",
      "type": "function"
    },
    {
      "inputs": [],
      "name": "renounceOwnership",
      "outputs": [],
      "stateMutability": "nonpayable",
      "type": "function"
    },
    {
      "inputs": [
        {
          "internalType": "uint256",
          "name": "_loanId",
          "type": "uint256"
        },
        {
          "internalType": "uint256",
          "name": "_propertyId",
          "type": "uint256"
        },
        {
          "internalType": "uint256",
          "name": "_loanAmount",
          "type": "uint256"
        },
        {
          "internalType": "uint256",
          "name": "_durationInMonths",
          "type": "uint256"
        }
      ],
      "name": "requestFinancing",
      "outputs": [],
      "stateMutability": "nonpayable",
      "type": "function"
    },
    {
      "inputs": [
        {
          "internalType": "address",
          "name": "from",
          "type": "address"
        },
        {
          "internalType": "address",
          "name": "to",
          "type": "address"
        },
        {
          "internalType": "uint256",
          "name": "tokenId",
          "type": "uint256"
        }
      ],
      "name": "safeTransferFrom",
      "outputs": [],
      "stateMutability": "nonpayable",
      "type": "function"
    },
    {
      "inputs": [
        {
          "internalType": "address",
          "name": "from",
          "type": "address"
        },
        {
          "internalType": "address",
          "name": "to",
          "type": "address"
        },
        {
          "internalType": "uint256",
          "name": "tokenId",
          "type": "uint256"
        },
        {
          "internalType": "bytes",
          "name": "data",
          "type": "bytes"
        }
      ],
      "name": "safeTransferFrom",
      "outputs": [],
      "stateMutability": "nonpayable",
      "type": "function"
    },
    {
      "inputs": [
        {
          "internalType": "address",
          "name": "operator",
          "type": "address"
        },
        {
          "internalType": "bool",
          "name": "approved",
          "type": "bool"
        }
      ],
      "name": "setApprovalForAll",
      "outputs": [],
      "stateMutability": "nonpayable",
      "type": "function"
    },
    {
      "inputs": [
        {
          "internalType": "uint256",
          "name": "_propertyId",
          "type": "uint256"
        },
        {
          "internalType": "uint256",
          "name": "_price",
          "type": "uint256"
        }
      ],
      "name": "setPrice",
      "outputs": [],
      "stateMutability": "nonpayable",
      "type": "function"
    },
    {
      "inputs": [
        {
          "internalType": "bytes4",
          "name": "interfaceId",
          "type": "bytes4"
        }
      ],
      "name": "supportsInterface",
      "outputs": [
        {
          "internalType": "bool",
          "name": "",
          "type": "bool"
        }
      ],
      "stateMutability": "view",
      "type": "function"
    },
    {
      "inputs": [],
      "name": "symbol",
      "outputs": [
        {
          "internalType": "string",
          "name": "",
          "type": "string"
        }
      ],
      "stateMutability": "view",
      "type": "function"
    },
    {
      "inputs": [
        {
          "internalType": "uint256",
          "name": "tokenId",
          "type": "uint256"
        }
      ],
      "name": "tokenURI",
      "outputs": [
        {
          "internalType": "string",
          "name": "",
          "type": "string"
        }
      ],
      "stateMutability": "view",
      "type": "function"
    },
    {
      "inputs": [
        {
          "internalType": "address",
          "name": "from",
          "type": "address"
        },
        {
          "internalType": "address",
          "name": "to",
          "type": "address"
        },
        {
          "internalType": "uint256",
          "name": "tokenId",
          "type": "uint256"
        }
      ],
      "name": "transferFrom",
      "outputs": [],
      "stateMutability": "nonpayable",
      "type": "function"
    },
    {
      "inputs": [
        {
          "internalType": "address",
          "name": "newOwner",
          "type": "address"
        }
      ],
      "name": "transferOwnership",
      "outputs": [],
      "stateMutability": "nonpayable",
      "type": "function"
    },
    {
      "inputs": [
        {
          "internalType": "uint256",
          "name": "_propertyId",
          "type": "uint256"
        }
      ],
      "name": "unlistProperty",
      "outputs": [],
      "stateMutability": "nonpayable",
      "type": "function"
    }
  ],
  "bytecode": "0x608060405234801561001057600080fd5b5061408a806100206000396000f3fe60806040526004361061021a5760003560e01c80638da5cb5b11610123578063c361a335116100ab578063f2fde38b1161006f578063f2fde38b146106c5578063f54e1aef146106e5578063f7b1080814610705578063f7d9757714610732578063febfa1761461075257600080fd5b8063c361a335146105b8578063c4d66de8146105ce578063c87b56dd146105ee578063de74e57b1461060e578063e985e9c5146106a557600080fd5b8063a22cb465116100f2578063a22cb46514610522578063a9b07c2614610542578063b6aee1cf14610558578063b88d4fde14610578578063bc43d06f1461059857600080fd5b80638da5cb5b146104a2578063918d407d146104c057806395d89b41146104e05780639fcb2748146104f557600080fd5b8063598647f8116101a6578063715018a611610175578063715018a61461040b578063776a0835146104205780637e6b3bbf14610440578063841ad8b91461046057806387c35bc01461048057600080fd5b8063598647f81461037057806359fe18eb146103905780636352211e146103bd57806370a08231146103dd57600080fd5b8063107a274a116101ed578063107a274a146102d057806323b872dd146102fd5780633fb924a21461031d57806342842e0e1461033d5780635138f19f1461035d57600080fd5b806301ffc9a71461021f57806306fdde0314610254578063081812fc14610276578063095ea7b3146102ae575b600080fd5b34801561022b57600080fd5b5061023f61023a3660046135df565b610772565b60405190151581526020015b60405180910390f35b34801561026057600080fd5b5061026961079d565b60405161024b919061364c565b34801561028257600080fd5b5061029661029136600461365f565b61082f565b6040516001600160a01b03909116815260200161024b565b3480156102ba57600080fd5b506102ce6102c936600461368d565b610856565b005b3480156102dc57600080fd5b506102f06102eb36600461365f565b610970565b60405161024b919061377c565b34801561030957600080fd5b506102ce61031836600461378f565b610a79565b34801561032957600080fd5b5060ff54610296906001600160a01b031681565b34801561034957600080fd5b506102ce61035836600461378f565b610aaa565b6102ce61036b36600461365f565b610ac5565b34801561037c57600080fd5b506102ce61038b3660046137d0565b610c1a565b34801561039c57600080fd5b506103b06103ab36600461365f565b610ede565b60405161024b919061381b565b3480156103c957600080fd5b506102966103d836600461365f565b610f38565b3480156103e957600080fd5b506103fd6103f836600461382e565b610f98565b60405190815260200161024b565b34801561041757600080fd5b506102ce61101e565b34801561042c57600080fd5b506102ce61043b36600461384b565b611032565b34801561044c57600080fd5b506102ce61045b36600461365f565b611191565b34801561046c57600080fd5b506102ce61047b36600461365f565b6112ed565b34801561048c57600080fd5b506104956114d4565b60405161024b919061387b565b3480156104ae57600080fd5b506033546001600160a01b0316610296565b3480156104cc57600080fd5b506102ce6104db36600461384b565b61169f565b3480156104ec57600080fd5b506102696119f2565b34801561050157600080fd5b5061051561051036600461382e565b611a01565b60405161024b91906138df565b34801561052e57600080fd5b506102ce61053d366004613936565b611b62565b34801561054e57600080fd5b506103fd60fd5481565b34801561056457600080fd5b506102ce61057336600461365f565b611b71565b34801561058457600080fd5b506102ce610593366004613a1e565b611d8b565b3480156105a457600080fd5b506102ce6105b336600461365f565b611dc3565b3480156105c457600080fd5b506103fd60fb5481565b3480156105da57600080fd5b506102ce6105e936600461382e565b611ef8565b3480156105fa57600080fd5b5061026961060936600461365f565b612032565b34801561061a57600080fd5b5061069361062936600461365f565b60fe602090815260009182526040918290208054600182015460028301546003840154865160608101885260058601546001600160a01b03168152600686015496810196909652600790940154958501959095529093909260ff8083169361010090930416919086565b60405161024b96959493929190613a9e565b3480156106b157600080fd5b5061023f6106c0366004613af9565b612142565b3480156106d157600080fd5b506102ce6106e036600461382e565b612170565b3480156106f157600080fd5b506102ce610700366004613b27565b6121e9565b34801561071157600080fd5b506103fd61072036600461365f565b60fc6020526000908152604090205481565b34801561073e57600080fd5b506102ce61074d3660046137d0565b6122bc565b34801561075e57600080fd5b506102ce61076d366004613b80565b612329565b60006001600160e01b03198216632483248360e11b1480610797575061079782612492565b92915050565b6060609780546107ac90613bb2565b80601f01602080910402602001604051908101604052809291908181526020018280546107d890613bb2565b80156108255780601f106107fa57610100808354040283529160200191610825565b820191906000526020600020905b81548152906001019060200180831161080857829003601f168201915b5050505050905090565b600061083a826124e2565b506000908152609b60205260409020546001600160a01b031690565b600061086182610f38565b9050806001600160a01b0316836001600160a01b0316036108d35760405162461bcd60e51b815260206004820152602160248201527f4552433732313a20617070726f76616c20746f2063757272656e74206f776e656044820152603960f91b60648201526084015b60405180910390fd5b336001600160a01b03821614806108ef57506108ef8133612142565b6109615760405162461bcd60e51b815260206004820152603d60248201527f4552433732313a20617070726f76652063616c6c6572206973206e6f7420746f60448201527f6b656e206f776e6572206f7220617070726f76656420666f7220616c6c00000060648201526084016108ca565b61096b8383612532565b505050565b6109786134c4565b600082815260fe60209081526040808320815160e08101835281548152600182015481850152600282015460ff8082161515838601526101009091041615156060820152600382015460808201526004820180548451818702810187019095528085529195929460a0870194939192919084015b82821015610a34576000848152602090819020604080518082019091526002850290910180546001600160a01b031682526001908101548284015290835290920191016109ec565b505050908252506040805160608101825260058401546001600160a01b0316815260068401546020828101919091526007909401549181019190915291015292915050565b610a8333826125a0565b610a9f5760405162461bcd60e51b81526004016108ca90613bec565b61096b8383836125fe565b61096b83838360405180602001604052806000815250611d8b565b80610acf81612750565b610aec5760405163b1e4c4d160e01b815260040160405180910390fd5b600082815260fe60205260409020548290600190821480610b2057604051630cdb1f4760e11b815260040160405180910390fd5b81158015610b2b5750805b15610b4957604051630bbe4b0b60e31b815260040160405180910390fd5b600085815260fe6020526040902060050154859033906001600160a01b03168114610b87576040516382e464c960e01b815260040160405180910390fd5b600087815260fe6020526040902060060154341015610bb9576040516351616ae360e11b815260040160405180910390fd5b600087815260fe602052604090206002015460ff1615610bec57604051630529894560e41b815260040160405180910390fd5b600087815260fe60205260409020600201805460ff19166001179055610c118761276d565b50505050505050565b81610c2481612750565b610c415760405163b1e4c4d160e01b815260040160405180910390fd5b600083815260fe60205260409020548390600190821480610c7557604051630cdb1f4760e11b815260040160405180910390fd5b81158015610c805750805b15610c9e57604051630bbe4b0b60e31b815260040160405180910390fd5b8533600080805b600085815260fe6020526040902060040154811015610d1d57600085815260fe6020526040902060040180546001600160a01b038616919083908110610ced57610ced613c39565b60009182526020909120600290910201546001600160a01b031603610d155760019150610d1d565b600101610ca5565b50818015610d29575080155b15610d4757604051638296b48d60e01b815260040160405180910390fd5b81158015610d525750805b15610d70576040516314d2f4d760e01b815260040160405180910390fd5b610d798a610f38565b6001600160a01b03163303610dc35760405162461bcd60e51b815260206004820152601060248201526f13dddb995c8818d85b9b9bdd08189a5960821b60448201526064016108ca565b60008a815260fe60205260409020600501546001600160a01b0316158015610dfa575060008a815260fe6020526040902060060154155b610e385760405162461bcd60e51b815260206004820152600f60248201526e109a5908185b1c9958591e481cd95d608a1b60448201526064016108ca565b60008a815260fe60205260409081902081518083019092526004019080336001600160a01b03908116825260209182018d9052835460018082018655600095865294839020845160029092020180546001600160a01b031916919092161781559181015191909201556040518b81527fee046dfd9e835fa8731932677c785a4d0b621036ae894acf04d1b38ee2b6cc64910160405180910390a150505050505050505050565b610f0260405180606001604052806000815260200160008152602001606081525090565b60408051606081018252838152600084815260fc6020908152908390205490820152908101610f3084612032565b905292915050565b6000818152609960205260408120546001600160a01b0316806107975760405162461bcd60e51b8152602060048201526018602482015277115490cdcc8c4e881a5b9d985b1a59081d1bdad95b88125160421b60448201526064016108ca565b60006001600160a01b0382166110025760405162461bcd60e51b815260206004820152602960248201527f4552433732313a2061646472657373207a65726f206973206e6f7420612076616044820152683634b21037bbb732b960b91b60648201526084016108ca565b506001600160a01b03166000908152609a602052604090205490565b611026612bf9565b6110306000612c53565b565b60005b600083815260fe602052604090206004015481101561096b57600083815260fe6020526040902060040180546001600160a01b03841691908390811061107d5761107d613c39565b60009182526020909120600290910201546001600160a01b03160361118957600083815260fe6020526040902060040180546110bb90600190613c65565b815481106110cb576110cb613c39565b906000526020600020906002020160fe6000858152602001908152602001600020600401828154811061110057611100613c39565b60009182526020808320845460029093020180546001600160a01b0319166001600160a01b03909316929092178255600193840154939091019290925584815260fe9091526040902060040180548061115b5761115b613c78565b60008281526020812060026000199093019283020180546001600160a01b0319168155600101559055505050565b600101611035565b8061119b81612750565b6111b85760405163b1e4c4d160e01b815260040160405180910390fd5b81336111c382610f38565b6001600160a01b0316146111ea57604051639a517dab60e01b815260040160405180910390fd5b600083815260fe6020526040902054839060019082148061121e57604051630cdb1f4760e11b815260040160405180910390fd5b811580156112295750805b1561124757604051630bbe4b0b60e31b815260040160405180910390fd5b600086815260fe6020526040902060020154610100900460ff16156112be5760405162461bcd60e51b815260206004820152602760248201527f5472616e7366657220616c726561647920617070726f766564206279207468656044820152661039b2b63632b960c91b60648201526084016108ca565b600086815260fe60205260409020600201805461ff0019166101001790556112e58661276d565b505050505050565b806112f781612750565b6113145760405163b1e4c4d160e01b815260040160405180910390fd5b813361131f82610f38565b6001600160a01b03161461134657604051639a517dab60e01b815260040160405180910390fd5b600083815260fe6020526040902054839060019082148061137a57604051630cdb1f4760e11b815260040160405180910390fd5b811580156113855750805b156113a357604051630bbe4b0b60e31b815260040160405180910390fd5b600086815260fe602052604090206002015460ff161580156113dc5750600086815260fe6020526040902060020154610100900460ff16155b6114285760405162461bcd60e51b815260206004820152601a60248201527f50726f706572747920697320756e646572207472616e7366657200000000000060448201526064016108ca565b60fd805490600061143883613c8e565b9091555050600086815260fe602052604081208181556001810182905560028101805461ffff191690556003810182905590611477600483018261352f565b506005810180546001600160a01b03191690556000600682018190556007909101556040518681527f1ab07bb87a0c78eb0f29c0162ea68b3ac8b59a655d06e64e23ec24522ec344189060200160405180910390a1505050505050565b6060600060fd5467ffffffffffffffff8111156114f3576114f3613969565b60405190808252806020026020018201604052801561152c57816020015b6115196134c4565b8152602001906001900390816115115790505b509050600060015b60fb54811161169757600081815260fe602052604090205481900361167c57600081815260fe60209081526040808320815160e08101835281548152600182015481850152600282015460ff8082161515838601526101009091041615156060820152600382015460808201526004820180548451818702810187019095528085529195929460a0870194939192919084015b8282101561160f576000848152602090819020604080518082019091526002850290910180546001600160a01b031682526001908101548284015290835290920191016115c7565b505050908252506040805160608101825260058401546001600160a01b03168152600684015460208281019190915260079094015491810191909152910152835184908490811061166257611662613c39565b6020026020010181905250818061167890613ca5565b9250505b60fd548214611697578061168f81613ca5565b915050611534565b509092915050565b816116a981612750565b6116c65760405163b1e4c4d160e01b815260040160405180910390fd5b82336116d182610f38565b6001600160a01b0316146116f857604051639a517dab60e01b815260040160405180910390fd5b600084815260fe6020526040902054849060019082148061172c57604051630cdb1f4760e11b815260040160405180910390fd5b811580156117375750805b1561175557604051630bbe4b0b60e31b815260040160405180910390fd5b8660008082815260fe60205260409020600501546001600160a01b0316156117905760405163928156d160e01b815260040160405180910390fd5b60005b60008a815260fe60205260409020600401548110156119cd5760008a815260fe6020526040902060040180546001600160a01b038b169190839081106117db576117db613c39565b60009182526020909120600290910201546001600160a01b0316036119c55760ff5460008b815260fe60205260408082206003015490516329818a0760e21b815291926001600160a01b03169163a606281c9161183e9160040190815260200190565b60e060405180830381865afa15801561185b573d6000803e3d6000fd5b505050506040513d601f19601f8201168201806040525081019061187f9190613cbe565b60008c815260fe60205260409020600401805491925090839081106118a6576118a6613c39565b906000526020600020906002020160010154816080015111156118dc576040516351616ae360e11b815260040160405180910390fd5b60405180606001604052808b6001600160a01b0316815260200160fe60008e8152602001908152602001600020600401848154811061191d5761191d613c39565b600091825260208083206002928302016001015484529283018290528e825260fe835260409182902084516005820180546001600160a01b0319166001600160a01b0390921691909117905584840151600682015593820151600785015592909201805461010061ff001990911617905590518c81527fa573f6e77cec35b255a3fb35b673473461473d63e293d50c5eba0d7d18942383910160405180910390a150506119e7565b600101611793565b50604051638296b48d60e01b815260040160405180910390fd5b505050505050505050565b6060609880546107ac90613bb2565b6060600080611a0f84610f98565b905060008167ffffffffffffffff811115611a2c57611a2c613969565b604051908082528060200260200182016040528015611a8157816020015b611a6e60405180606001604052806000815260200160008152602001606081525090565b815260200190600190039081611a4a5790505b50905060015b60fb548111611b5957856001600160a01b0316611aa382610f38565b6001600160a01b031603611b405780828581518110611ac457611ac4613c39565b60209081029190910181015191909152600082815260fc90915260409020548251839086908110611af757611af7613c39565b60200260200101516020018181525050611b1081612032565b828581518110611b2257611b22613c39565b6020026020010151604001819052508380611b3c90613ca5565b9450505b838314611b595780611b5181613ca5565b915050611a87565b50949350505050565b611b6d338383612ca5565b5050565b80611b7b81612750565b611b985760405163b1e4c4d160e01b815260040160405180910390fd5b8133611ba382610f38565b6001600160a01b031614611bca57604051639a517dab60e01b815260040160405180910390fd5b600083815260fe602052604081205484919082148015611bfd57604051630bbe4b0b60e31b815260040160405180910390fd5b600086815260fc60205260409020548690801580611c86575060ff5460405163132fd1b360e11b8152600481018490526001600160a01b039091169063265fa36690602401602060405180830381865afa158015611c5f573d6000803e3d6000fd5b505050506040513d601f19601f82011682018060405250810190611c839190613d3a565b81105b15611ca4576040516351616ae360e11b815260040160405180910390fd5b60fd8054906000611cb483613ca5565b9091555050600088815260fe602090815260408083208b815560fc9092529182902054600182015560ff54915163f3de41b560e01b8152600481018b905290916001600160a01b03169063f3de41b590602401602060405180830381865afa158015611d24573d6000803e3d6000fd5b505050506040513d601f19601f82011682018060405250810190611d489190613d3a565b60038201556040518981527fdd11eaf2db1c16b640194c05b02faa4b8bc4abf29c61428e990e72c6c15cff779060200160405180910390a1505050505050505050565b611d9533836125a0565b611db15760405162461bcd60e51b81526004016108ca90613bec565b611dbd84848484612d73565b50505050565b80611dcd81612750565b611dea5760405163b1e4c4d160e01b815260040160405180910390fd5b8133611df582610f38565b6001600160a01b031614611e1c57604051639a517dab60e01b815260040160405180910390fd5b611e2583612750565b611e7d5760405162461bcd60e51b8152602060048201526024808201527f50726f70657274792077697468207468697320494420646f6573206e6f7420656044820152631e1a5cdd60e21b60648201526084016108ca565b611e8683612da6565b600083815260fc6020526040812081905560fb805491611ea583613c8e565b9190505550611eb13390565b6001600160a01b03167f8e2f5fcc57c31738b03aa91accdd55b13dc355a4fa1707d953f49c973e18e6e484604051611eeb91815260200190565b60405180910390a2505050565b600054610100900460ff1615808015611f185750600054600160ff909116105b80611f325750303b158015611f32575060005460ff166001145b611f955760405162461bcd60e51b815260206004820152602e60248201527f496e697469616c697a61626c653a20636f6e747261637420697320616c72656160448201526d191e481a5b9a5d1a585b1a5e995960921b60648201526084016108ca565b6000805460ff191660011790558015611fb8576000805461ff0019166101001790555b611fc0612de6565b611fc8612e15565b600060fd5560ff80546001600160a01b0319166001600160a01b0384161790558015611b6d576000805461ff0019169055604051600181527f7f26b83ff96e1f2b6a682f133852f6798a09c465da95921460cefb3847402498906020015b60405180910390a15050565b606061203d826124e2565b600082815260c960205260408120805461205690613bb2565b80601f016020809104026020016040519081016040528092919081815260200182805461208290613bb2565b80156120cf5780601f106120a4576101008083540402835291602001916120cf565b820191906000526020600020905b8154815290600101906020018083116120b257829003601f168201915b5050505050905060006120ed60408051602081019091526000815290565b905080516000036120ff575092915050565b815115612131578082604051602001612119929190613d53565b60405160208183030381529060405292505050919050565b61213a84612e62565b949350505050565b6001600160a01b039182166000908152609c6020908152604080832093909416825291909152205460ff1690565b612178612bf9565b6001600160a01b0381166121dd5760405162461bcd60e51b815260206004820152602660248201527f4f776e61626c653a206e6577206f776e657220697320746865207a65726f206160448201526564647265737360d01b60648201526084016108ca565b6121e681612c53565b50565b60008251116122305760405162461bcd60e51b81526020600482015260136024820152725552492063616e6e6f7420626520656d70747960681b60448201526064016108ca565b60fb805490600061224083613ca5565b9091555050604080516020808201835283825260fb54600090815260fc90915291909120905190556122743360fb54612ed6565b61228060fb5483612ef0565b60fb5460405190815233907f2728c9d3205d667bbc0eefdfeda366261b4d021949630c047f3e5834b30611ab9060200160405180910390a25050565b816122c681612750565b6122e35760405163b1e4c4d160e01b815260040160405180910390fd5b82336122ee82610f38565b6001600160a01b03161461231557604051639a517dab60e01b815260040160405180910390fd5b5050600091825260fc602052604090912055565b8261233381612750565b6123505760405163b1e4c4d160e01b815260040160405180910390fd5b600084815260fe6020526040902054849060019082148061238457604051630cdb1f4760e11b815260040160405180910390fd5b8115801561238f5750805b156123ad57604051630bbe4b0b60e31b815260040160405180910390fd5b600087815260fe6020526040902060050154879033906001600160a01b031681146123eb576040516382e464c960e01b815260040160405180910390fd5b60ff5460405163118f81d360e21b8152600481018c9052602481018b9052604481018a9052606481018990526000916001600160a01b03169063463e074c906084016020604051808303816000875af115801561244c573d6000803e3d6000fd5b505050506040513d601f19601f820116820180604052508101906124709190613d3a565b60009a8b5260fe6020526040909a206007019990995550505050505050505050565b60006001600160e01b031982166380ac58cd60e01b14806124c357506001600160e01b03198216635b5e139f60e01b145b8061079757506301ffc9a760e01b6001600160e01b0319831614610797565b6124eb81612750565b6121e65760405162461bcd60e51b8152602060048201526018602482015277115490cdcc8c4e881a5b9d985b1a59081d1bdad95b88125160421b60448201526064016108ca565b6000818152609b6020526040902080546001600160a01b0319166001600160a01b038416908117909155819061256782610f38565b6001600160a01b03167f8c5be1e5ebec7d5bd14f71427d1e84f3dd0314c0f7b2291e5b200ac8c7c3b92560405160405180910390a45050565b6000806125ac83610f38565b9050806001600160a01b0316846001600160a01b031614806125d357506125d38185612142565b8061213a5750836001600160a01b03166125ec8461082f565b6001600160a01b031614949350505050565b826001600160a01b031661261182610f38565b6001600160a01b0316146126375760405162461bcd60e51b81526004016108ca90613d82565b6001600160a01b0382166126995760405162461bcd60e51b8152602060048201526024808201527f4552433732313a207472616e7366657220746f20746865207a65726f206164646044820152637265737360e01b60648201526084016108ca565b826001600160a01b03166126ac82610f38565b6001600160a01b0316146126d25760405162461bcd60e51b81526004016108ca90613d82565b6000818152609b6020908152604080832080546001600160a01b03199081169091556001600160a01b03878116808652609a85528386208054600019019055908716808652838620805460010190558686526099909452828520805490921684179091559051849360008051602061403583398151915291a4505050565b6000908152609960205260409020546001600160a01b0316151590565b8061277781612750565b6127945760405163b1e4c4d160e01b815260040160405180910390fd5b600082815260fe6020526040902060020154829060ff1615806127ce5750600081815260fe6020526040902060020154610100900460ff16155b156127ec57604051637c3e890960e11b815260040160405180910390fd5b600083815260fe60205260408120600501546001600160a01b03169061281185610f38565b600086815260fe60205260408082206006015460ff5491516329818a0760e21b8152600481018a9052939450926001600160a01b039091169063a606281c9060240160e060405180830381865afa158015612870573d6000803e3d6000fd5b505050506040513d601f19601f820116820180604052508101906128949190613cbe565b90506003816060015160058111156128ae576128ae613dc7565b03612a845760ff5460405163132fd1b360e11b8152600481018990526000916001600160a01b03169063265fa36690602401602060405180830381865afa1580156128fd573d6000803e3d6000fd5b505050506040513d601f19601f820116820180604052508101906129219190613d3a565b9050600061292f8285613c65565b60ff546040808601519051632820036560e11b81529293506000926001600160a01b039092169163504006ca9161296c9160040190815260200190565b6040805180830381865afa158015612988573d6000803e3d6000fd5b505050506040513d601f19601f820116820180604052508101906129ac9190613ddd565b516040519091506001600160a01b0382169084156108fc029085906000818181858888f193505050501580156129e6573d6000803e3d6000fd5b506040516001600160a01b0387169083156108fc029084906000818181858888f19350505050158015612a1d573d6000803e3d6000fd5b5060ff54604051630cb7d90160e41b8152600481018c90526001600160a01b039091169063cb7d901090602401600060405180830381600087803b158015612a6457600080fd5b505af1158015612a78573d6000803e3d6000fd5b50505050505050612acc565b600087815260fe60205260408082206006015490516001600160a01b0386169282156108fc02929190818181858888f19350505050158015612aca573d6000803e3d6000fd5b505b612ad78385896125fe565b60ff54600088815260fe602052604090819020600301549051630c15c77160e01b8152600481018a905260248101919091526001600160a01b0390911690630c15c77190604401600060405180830381600087803b158015612b3857600080fd5b505af1158015612b4c573d6000803e3d6000fd5b505050600088815260fe602052604081208181556001810182905560028101805461ffff19169055600381018290559150612b8a600483018261352f565b506005810180546001600160a01b0319169055600060068201819055600790910181905560fd805491612bbc83613c8e565b919050555086846001600160a01b0316846001600160a01b031660008051602061403583398151915260405160405180910390a450505050505050565b6033546001600160a01b031633146110305760405162461bcd60e51b815260206004820181905260248201527f4f776e61626c653a2063616c6c6572206973206e6f7420746865206f776e657260448201526064016108ca565b603380546001600160a01b038381166001600160a01b0319831681179093556040519116919082907f8be0079c531659141344cd1fd0a4f28419497f9722a3daafe3b4186f6b6457e090600090a35050565b816001600160a01b0316836001600160a01b031603612d065760405162461bcd60e51b815260206004820152601960248201527f4552433732313a20617070726f766520746f2063616c6c65720000000000000060448201526064016108ca565b6001600160a01b038381166000818152609c6020908152604080832094871680845294825291829020805460ff191686151590811790915591519182527f17307eab39ab6107e8899845ad3d59bd9653f200f220920489ca2b5937696c31910160405180910390a3505050565b612d7e8484846125fe565b612d8a84848484612fa5565b611dbd5760405162461bcd60e51b81526004016108ca90613e35565b612daf816130a6565b600081815260c9602052604090208054612dc890613bb2565b1590506121e657600081815260c9602052604081206121e691613550565b600054610100900460ff16612e0d5760405162461bcd60e51b81526004016108ca90613e87565b611030613129565b612e5b6040518060400160405280600881526020016750726f706572747960c01b81525060405180604001604052806004815260200163050524f560e41b815250613159565b600060fb55565b6060612e6d826124e2565b6000612e8460408051602081019091526000815290565b90506000815111612ea45760405180602001604052806000815250612ecf565b80612eae8461318a565b604051602001612ebf929190613d53565b6040516020818303038152906040525b9392505050565b611b6d82826040518060200160405280600081525061321e565b612ef982612750565b612f5c5760405162461bcd60e51b815260206004820152602e60248201527f45524337323155524953746f726167653a2055524920736574206f66206e6f6e60448201526d32bc34b9ba32b73a103a37b5b2b760911b60648201526084016108ca565b600082815260c960205260409020612f748282613f1a565b506040518281527ff8e1a15aba9398e019f0b49df1a4fde98ee17ae345cb5f6b5e2c27f5033e8ce790602001612026565b60006001600160a01b0384163b1561309b57604051630a85bd0160e11b81526001600160a01b0385169063150b7a0290612fe9903390899088908890600401613fda565b6020604051808303816000875af1925050508015613024575060408051601f3d908101601f1916820190925261302191810190614017565b60015b613081573d808015613052576040519150601f19603f3d011682016040523d82523d6000602084013e613057565b606091505b5080516000036130795760405162461bcd60e51b81526004016108ca90613e35565b805181602001fd5b6001600160e01b031916630a85bd0160e11b14905061213a565b506001949350505050565b60006130b182610f38565b90506130bc82610f38565b6000838152609b6020908152604080832080546001600160a01b03199081169091556001600160a01b038516808552609a84528285208054600019019055878552609990935281842080549091169055519293508492600080516020614035833981519152908390a45050565b600054610100900460ff166131505760405162461bcd60e51b81526004016108ca90613e87565b61103033612c53565b600054610100900460ff166131805760405162461bcd60e51b81526004016108ca90613e87565b611b6d8282613251565b6060600061319783613291565b600101905060008167ffffffffffffffff8111156131b7576131b7613969565b6040519080825280601f01601f1916602001820160405280156131e1576020820181803683370190505b5090508181016020015b600019016f181899199a1a9b1b9c1cb0b131b232b360811b600a86061a8153600a85049450846131eb575b509392505050565b6132288383613369565b6132356000848484612fa5565b61096b5760405162461bcd60e51b81526004016108ca90613e35565b600054610100900460ff166132785760405162461bcd60e51b81526004016108ca90613e87565b60976132848382613f1a565b50609861096b8282613f1a565b60008072184f03e93ff9f4daa797ed6e38ed64bf6a1f0160401b83106132d05772184f03e93ff9f4daa797ed6e38ed64bf6a1f0160401b830492506040015b6d04ee2d6d415b85acef810000000083106132fc576d04ee2d6d415b85acef8100000000830492506020015b662386f26fc10000831061331a57662386f26fc10000830492506010015b6305f5e1008310613332576305f5e100830492506008015b612710831061334657612710830492506004015b60648310613358576064830492506002015b600a83106107975760010192915050565b6001600160a01b0382166133bf5760405162461bcd60e51b815260206004820181905260248201527f4552433732313a206d696e7420746f20746865207a65726f206164647265737360448201526064016108ca565b6133c881612750565b156134155760405162461bcd60e51b815260206004820152601c60248201527f4552433732313a20746f6b656e20616c7265616479206d696e7465640000000060448201526064016108ca565b61341e81612750565b1561346b5760405162461bcd60e51b815260206004820152601c60248201527f4552433732313a20746f6b656e20616c7265616479206d696e7465640000000060448201526064016108ca565b6001600160a01b0382166000818152609a6020908152604080832080546001019055848352609990915280822080546001600160a01b031916841790555183929190600080516020614035833981519152908290a45050565b6040518060e001604052806000815260200160008152602001600015158152602001600015158152602001600081526020016060815260200161352a604051806060016040528060006001600160a01b0316815260200160008152602001600081525090565b905290565b50805460008255600202906000526020600020908101906121e6919061358a565b50805461355c90613bb2565b6000825580601f1061356c575050565b601f0160209004906000526020600020908101906121e691906135b4565b5b808211156135b05780546001600160a01b03191681556000600182015560020161358b565b5090565b5b808211156135b057600081556001016135b5565b6001600160e01b0319811681146121e657600080fd5b6000602082840312156135f157600080fd5b8135612ecf816135c9565b60005b838110156136175781810151838201526020016135ff565b50506000910152565b600081518084526136388160208601602086016135fc565b601f01601f19169290920160200192915050565b602081526000612ecf6020830184613620565b60006020828403121561367157600080fd5b5035919050565b6001600160a01b03811681146121e657600080fd5b600080604083850312156136a057600080fd5b82356136ab81613678565b946020939093013593505050565b60006101208084018351855260208085015181870152604080860151151560408801526060860151151560608801526080860151608088015260a08601518460a08901528394508051808552610140890195508382019450600091505b8082101561374857845180516001600160a01b0316875284015184870152948201949383019360019190910190613716565b505050505060c083015161321660c086018280516001600160a01b0316825260208082015190830152604090810151910152565b602081526000612ecf60208301846136b9565b6000806000606084860312156137a457600080fd5b83356137af81613678565b925060208401356137bf81613678565b929592945050506040919091013590565b600080604083850312156137e357600080fd5b50508035926020909101359150565b8051825260208101516020830152600060408201516060604085015261213a6060850182613620565b602081526000612ecf60208301846137f2565b60006020828403121561384057600080fd5b8135612ecf81613678565b6000806040838503121561385e57600080fd5b82359150602083013561387081613678565b809150509250929050565b600060208083016020845280855180835260408601915060408160051b87010192506020870160005b828110156138d257603f198886030184526138c08583516136b9565b945092850192908501906001016138a4565b5092979650505050505050565b600060208083016020845280855180835260408601915060408160051b87010192506020870160005b828110156138d257603f198886030184526139248583516137f2565b94509285019290850190600101613908565b6000806040838503121561394957600080fd5b823561395481613678565b91506020830135801515811461387057600080fd5b634e487b7160e01b600052604160045260246000fd5b60405160e0810167ffffffffffffffff811182821017156139a2576139a2613969565b60405290565b600067ffffffffffffffff808411156139c3576139c3613969565b604051601f8501601f19908116603f011681019082821181831017156139eb576139eb613969565b81604052809350858152868686011115613a0457600080fd5b858560208301376000602087830101525050509392505050565b60008060008060808587031215613a3457600080fd5b8435613a3f81613678565b93506020850135613a4f81613678565b925060408501359150606085013567ffffffffffffffff811115613a7257600080fd5b8501601f81018713613a8357600080fd5b613a92878235602084016139a8565b91505092959194509250565b8681526020810186905284151560408201528315156060820152608081018390526101008101613aee60a083018480516001600160a01b0316825260208082015190830152604090810151910152565b979650505050505050565b60008060408385031215613b0c57600080fd5b8235613b1781613678565b9150602083013561387081613678565b60008060408385031215613b3a57600080fd5b823567ffffffffffffffff811115613b5157600080fd5b8301601f81018513613b6257600080fd5b613b71858235602084016139a8565b95602094909401359450505050565b60008060008060808587031215613b9657600080fd5b5050823594602084013594506040840135936060013592509050565b600181811c90821680613bc657607f821691505b602082108103613be657634e487b7160e01b600052602260045260246000fd5b50919050565b6020808252602d908201527f4552433732313a2063616c6c6572206973206e6f7420746f6b656e206f776e6560408201526c1c881bdc88185c1c1c9bdd9959609a1b606082015260800190565b634e487b7160e01b600052603260045260246000fd5b634e487b7160e01b600052601160045260246000fd5b8181038181111561079757610797613c4f565b634e487b7160e01b600052603160045260246000fd5b600081613c9d57613c9d613c4f565b506000190190565b600060018201613cb757613cb7613c4f565b5060010190565b600060e08284031215613cd057600080fd5b613cd861397f565b825181526020830151613cea81613678565b602082015260408381015190820152606083015160068110613d0b57600080fd5b806060830152506080830151608082015260a083015160a082015260c083015160c08201528091505092915050565b600060208284031215613d4c57600080fd5b5051919050565b60008351613d658184602088016135fc565b835190830190613d798183602088016135fc565b01949350505050565b60208082526025908201527f4552433732313a207472616e736665722066726f6d20696e636f72726563742060408201526437bbb732b960d91b606082015260800190565b634e487b7160e01b600052602160045260246000fd5b600060408284031215613def57600080fd5b6040516040810181811067ffffffffffffffff82111715613e1257613e12613969565b6040528251613e2081613678565b81526020928301519281019290925250919050565b60208082526032908201527f4552433732313a207472616e7366657220746f206e6f6e20455243373231526560408201527131b2b4bb32b91034b6b83632b6b2b73a32b960711b606082015260800190565b6020808252602b908201527f496e697469616c697a61626c653a20636f6e7472616374206973206e6f74206960408201526a6e697469616c697a696e6760a81b606082015260800190565b601f82111561096b576000816000526020600020601f850160051c81016020861015613efb5750805b601f850160051c820191505b818110156112e557828155600101613f07565b815167ffffffffffffffff811115613f3457613f34613969565b613f4881613f428454613bb2565b84613ed2565b602080601f831160018114613f7d5760008415613f655750858301515b600019600386901b1c1916600185901b1785556112e5565b600085815260208120601f198616915b82811015613fac57888601518255948401946001909101908401613f8d565b5085821015613fca5787850151600019600388901b60f8161c191681555b5050505050600190811b01905550565b6001600160a01b038581168252841660208201526040810183905260806060820181905260009061400d90830184613620565b9695505050505050565b60006020828403121561402957600080fd5b8151612ecf816135c956feddf252ad1be2c89b69c2b068fc378daa952ba7f163c4a11628f55a4df523b3efa264697066735822122062c49232b796955655b9fa81f83dccd9014bb779028ea18cd787d61258c98a6264736f6c63430008170033",
  "linkReferences": {},
  "deployedLinkReferences": {}
}