{
  "_format": "hh-sol-artifact-1",
  "contractName": "ListingContract",
  "sourceName": "contracts/V2/marketplace/Listing.sol",
  "abi": [
    {
      "inputs": [],
      "name": "BidAlreadySet",
      "type": "error"
    },
    {
      "inputs": [],
      "name": "BidNotSet",
      "type": "error"
    },
    {
      "inputs": [],
      "name": "BuyerAlreadyApproved",
      "type": "error"
    },
    {
      "inputs": [],
      "name": "BuyerAlreadyBid",
      "type": "error"
    },
    {
      "inputs": [],
      "name": "BuyerDidNotBid",
      "type": "error"
    },
    {
      "inputs": [],
      "name": "NotAcceptedBuyer",
      "type": "error"
    },
    {
      "inputs": [],
      "name": "NotApprovedByBothParties",
      "type": "error"
    },
    {
      "inputs": [],
      "name": "NotPropertyOwner",
      "type": "error"
    },
    {
      "inputs": [],
      "name": "PriceNotMet",
      "type": "error"
    },
    {
      "inputs": [],
      "name": "PropertyAlreadyListed",
      "type": "error"
    },
    {
      "inputs": [],
      "name": "PropertyNotExists",
      "type": "error"
    },
    {
      "inputs": [],
      "name": "PropertyNotListed",
      "type": "error"
    },
    {
      "anonymous": false,
      "inputs": [
        {
          "indexed": false,
          "internalType": "uint256",
          "name": "_propertyId",
          "type": "uint256"
        }
      ],
      "name": "Accept",
      "type": "event"
    },
    {
      "anonymous": false,
      "inputs": [
        {
          "indexed": true,
          "internalType": "address",
          "name": "_owner",
          "type": "address"
        },
        {
          "indexed": false,
          "internalType": "uint256",
          "name": "_propertyId",
          "type": "uint256"
        }
      ],
      "name": "Add",
      "type": "event"
    },
    {
      "anonymous": false,
      "inputs": [
        {
          "indexed": true,
          "internalType": "address",
          "name": "owner",
          "type": "address"
        },
        {
          "indexed": true,
          "internalType": "address",
          "name": "approved",
          "type": "address"
        },
        {
          "indexed": true,
          "internalType": "uint256",
          "name": "tokenId",
          "type": "uint256"
        }
      ],
      "name": "Approval",
      "type": "event"
    },
    {
      "anonymous": false,
      "inputs": [
        {
          "indexed": true,
          "internalType": "address",
          "name": "owner",
          "type": "address"
        },
        {
          "indexed": true,
          "internalType": "address",
          "name": "operator",
          "type": "address"
        },
        {
          "indexed": false,
          "internalType": "bool",
          "name": "approved",
          "type": "bool"
        }
      ],
      "name": "ApprovalForAll",
      "type": "event"
    },
    {
      "anonymous": false,
      "inputs": [
        {
          "indexed": false,
          "internalType": "uint256",
          "name": "_fromTokenId",
          "type": "uint256"
        },
        {
          "indexed": false,
          "internalType": "uint256",
          "name": "_toTokenId",
          "type": "uint256"
        }
      ],
      "name": "BatchMetadataUpdate",
      "type": "event"
    },
    {
      "anonymous": false,
      "inputs": [
        {
          "indexed": false,
          "internalType": "uint8",
          "name": "version",
          "type": "uint8"
        }
      ],
      "name": "Initialized",
      "type": "event"
    },
    {
      "anonymous": false,
      "inputs": [
        {
          "indexed": false,
          "internalType": "uint256",
          "name": "_propertyId",
          "type": "uint256"
        }
      ],
      "name": "List",
      "type": "event"
    },
    {
      "anonymous": false,
      "inputs": [
        {
          "indexed": false,
          "internalType": "uint256",
          "name": "_tokenId",
          "type": "uint256"
        }
      ],
      "name": "MetadataUpdate",
      "type": "event"
    },
    {
      "anonymous": false,
      "inputs": [
        {
          "indexed": false,
          "internalType": "uint256",
          "name": "_propertyId",
          "type": "uint256"
        }
      ],
      "name": "Offer",
      "type": "event"
    },
    {
      "anonymous": false,
      "inputs": [
        {
          "indexed": true,
          "internalType": "address",
          "name": "previousOwner",
          "type": "address"
        },
        {
          "indexed": true,
          "internalType": "address",
          "name": "newOwner",
          "type": "address"
        }
      ],
      "name": "OwnershipTransferred",
      "type": "event"
    },
    {
      "anonymous": false,
      "inputs": [
        {
          "indexed": true,
          "internalType": "address",
          "name": "_owner",
          "type": "address"
        },
        {
          "indexed": false,
          "internalType": "uint256",
          "name": "_propertyId",
          "type": "uint256"
        }
      ],
      "name": "Remove",
      "type": "event"
    },
    {
      "anonymous": false,
      "inputs": [
        {
          "indexed": true,
          "internalType": "address",
          "name": "from",
          "type": "address"
        },
        {
          "indexed": true,
          "internalType": "address",
          "name": "to",
          "type": "address"
        },
        {
          "indexed": true,
          "internalType": "uint256",
          "name": "tokenId",
          "type": "uint256"
        }
      ],
      "name": "Transfer",
      "type": "event"
    },
    {
      "anonymous": false,
      "inputs": [
        {
          "indexed": false,
          "internalType": "uint256",
          "name": "_propertyId",
          "type": "uint256"
        }
      ],
      "name": "Unlist",
      "type": "event"
    },
    {
      "inputs": [
        {
          "internalType": "uint256",
          "name": "_propertyId",
          "type": "uint256"
        },
        {
          "internalType": "address",
          "name": "_buyer",
          "type": "address"
        }
      ],
      "name": "acceptOffer",
      "outputs": [],
      "stateMutability": "nonpayable",
      "type": "function"
    },
    {
      "inputs": [
        {
          "internalType": "string",
          "name": "_uri",
          "type": "string"
        },
        {
          "internalType": "uint256",
          "name": "_price",
          "type": "uint256"
        }
      ],
      "name": "addProperty",
      "outputs": [],
      "stateMutability": "nonpayable",
      "type": "function"
    },
    {
      "inputs": [
        {
          "internalType": "address",
          "name": "to",
          "type": "address"
        },
        {
          "internalType": "uint256",
          "name": "tokenId",
          "type": "uint256"
        }
      ],
      "name": "approve",
      "outputs": [],
      "stateMutability": "nonpayable",
      "type": "function"
    },
    {
      "inputs": [
        {
          "internalType": "uint256",
          "name": "_propertyId",
          "type": "uint256"
        }
      ],
      "name": "approveTransferAsBuyer",
      "outputs": [],
      "stateMutability": "payable",
      "type": "function"
    },
    {
      "inputs": [
        {
          "internalType": "uint256",
          "name": "_propertyId",
          "type": "uint256"
        }
      ],
      "name": "approveTransferAsSeller",
      "outputs": [],
      "stateMutability": "nonpayable",
      "type": "function"
    },
    {
      "inputs": [
        {
          "internalType": "address",
          "name": "owner",
          "type": "address"
        }
      ],
      "name": "balanceOf",
      "outputs": [
        {
          "internalType": "uint256",
          "name": "",
          "type": "uint256"
        }
      ],
      "stateMutability": "view",
      "type": "function"
    },
    {
      "inputs": [
        {
          "internalType": "uint256",
          "name": "_propertyId",
          "type": "uint256"
        },
        {
          "internalType": "uint256",
          "name": "_bidPrice",
          "type": "uint256"
        }
      ],
      "name": "bid",
      "outputs": [],
      "stateMutability": "nonpayable",
      "type": "function"
    },
    {
      "inputs": [],
      "name": "financingContract",
      "outputs": [
        {
          "internalType": "contract IFinancing",
          "name": "",
          "type": "address"
        }
      ],
      "stateMutability": "view",
      "type": "function"
    },
    {
      "inputs": [],
      "name": "getActiveListings",
      "outputs": [
        {
          "components": [
            {
              "internalType": "uint256",
              "name": "propertyId",
              "type": "uint256"
            },
            {
              "internalType": "uint256",
              "name": "sellPrice",
              "type": "uint256"
            },
            {
              "internalType": "bool",
              "name": "buyerApproved",
              "type": "bool"
            },
            {
              "internalType": "bool",
              "name": "sellerApproved",
              "type": "bool"
            },
            {
              "internalType": "uint256",
              "name": "financingId",
              "type": "uint256"
            },
            {
              "components": [
                {
                  "internalType": "address",
                  "name": "buyer",
                  "type": "address"
                },
                {
                  "internalType": "uint256",
                  "name": "bidPrice",
                  "type": "uint256"
                }
              ],
              "internalType": "struct ListingContract.Bid[]",
              "name": "bids",
              "type": "tuple[]"
            },
            {
              "components": [
                {
                  "internalType": "address",
                  "name": "buyer",
                  "type": "address"
                },
                {
                  "internalType": "uint256",
                  "name": "bidPrice",
                  "type": "uint256"
                },
                {
                  "internalType": "uint256",
                  "name": "financingId",
                  "type": "uint256"
                }
              ],
              "internalType": "struct ListingContract.AcceptedBid",
              "name": "acceptedBid",
              "type": "tuple"
            }
          ],
          "internalType": "struct ListingContract.Listing[]",
          "name": "",
          "type": "tuple[]"
        }
      ],
      "stateMutability": "view",
      "type": "function"
    },
    {
      "inputs": [
        {
          "internalType": "uint256",
          "name": "tokenId",
          "type": "uint256"
        }
      ],
      "name": "getApproved",
      "outputs": [
        {
          "internalType": "address",
          "name": "",
          "type": "address"
        }
      ],
      "stateMutability": "view",
      "type": "function"
    },
    {
      "inputs": [
        {
          "internalType": "uint256",
          "name": "_propertyId",
          "type": "uint256"
        }
      ],
      "name": "getListing",
      "outputs": [
        {
          "components": [
            {
              "internalType": "uint256",
              "name": "propertyId",
              "type": "uint256"
            },
            {
              "internalType": "uint256",
              "name": "sellPrice",
              "type": "uint256"
            },
            {
              "internalType": "bool",
              "name": "buyerApproved",
              "type": "bool"
            },
            {
              "internalType": "bool",
              "name": "sellerApproved",
              "type": "bool"
            },
            {
              "internalType": "uint256",
              "name": "financingId",
              "type": "uint256"
            },
            {
              "components": [
                {
                  "internalType": "address",
                  "name": "buyer",
                  "type": "address"
                },
                {
                  "internalType": "uint256",
                  "name": "bidPrice",
                  "type": "uint256"
                }
              ],
              "internalType": "struct ListingContract.Bid[]",
              "name": "bids",
              "type": "tuple[]"
            },
            {
              "components": [
                {
                  "internalType": "address",
                  "name": "buyer",
                  "type": "address"
                },
                {
                  "internalType": "uint256",
                  "name": "bidPrice",
                  "type": "uint256"
                },
                {
                  "internalType": "uint256",
                  "name": "financingId",
                  "type": "uint256"
                }
              ],
              "internalType": "struct ListingContract.AcceptedBid",
              "name": "acceptedBid",
              "type": "tuple"
            }
          ],
          "internalType": "struct ListingContract.Listing",
          "name": "",
          "type": "tuple"
        }
      ],
      "stateMutability": "view",
      "type": "function"
    },
    {
      "inputs": [
        {
          "internalType": "address",
          "name": "_owner",
          "type": "address"
        }
      ],
      "name": "getPropertiesByOwner",
      "outputs": [
        {
          "components": [
            {
              "internalType": "uint256",
              "name": "propertyId",
              "type": "uint256"
            },
            {
              "internalType": "uint256",
              "name": "price",
              "type": "uint256"
            },
            {
              "internalType": "string",
              "name": "uri",
              "type": "string"
            }
          ],
          "internalType": "struct PropertyContract.PropertyResult[]",
          "name": "",
          "type": "tuple[]"
        }
      ],
      "stateMutability": "view",
      "type": "function"
    },
    {
      "inputs": [
        {
          "internalType": "uint256",
          "name": "_propertyId",
          "type": "uint256"
        }
      ],
      "name": "getPropertyById",
      "outputs": [
        {
          "components": [
            {
              "internalType": "uint256",
              "name": "propertyId",
              "type": "uint256"
            },
            {
              "internalType": "uint256",
              "name": "price",
              "type": "uint256"
            },
            {
              "internalType": "string",
              "name": "uri",
              "type": "string"
            }
          ],
          "internalType": "struct PropertyContract.PropertyResult",
          "name": "",
          "type": "tuple"
        }
      ],
      "stateMutability": "view",
      "type": "function"
    },
    {
      "inputs": [
        {
          "internalType": "address",
          "name": "_financingContract",
          "type": "address"
        }
      ],
      "name": "initialize",
      "outputs": [],
      "stateMutability": "nonpayable",
      "type": "function"
    },
    {
      "inputs": [
        {
          "internalType": "address",
          "name": "owner",
          "type": "address"
        },
        {
          "internalType": "address",
          "name": "operator",
          "type": "address"
        }
      ],
      "name": "isApprovedForAll",
      "outputs": [
        {
          "internalType": "bool",
          "name": "",
          "type": "bool"
        }
      ],
      "stateMutability": "view",
      "type": "function"
    },
    {
      "inputs": [
        {
          "internalType": "uint256",
          "name": "_propertyId",
          "type": "uint256"
        }
      ],
      "name": "listProperty",
      "outputs": [],
      "stateMutability": "nonpayable",
      "type": "function"
    },
    {
      "inputs": [],
      "name": "listingCount",
      "outputs": [
        {
          "internalType": "uint256",
          "name": "",
          "type": "uint256"
        }
      ],
      "stateMutability": "view",
      "type": "function"
    },
    {
      "inputs": [
        {
          "internalType": "uint256",
          "name": "",
          "type": "uint256"
        }
      ],
      "name": "listings",
      "outputs": [
        {
          "internalType": "uint256",
          "name": "propertyId",
          "type": "uint256"
        },
        {
          "internalType": "uint256",
          "name": "sellPrice",
          "type": "uint256"
        },
        {
          "internalType": "bool",
          "name": "buyerApproved",
          "type": "bool"
        },
        {
          "internalType": "bool",
          "name": "sellerApproved",
          "type": "bool"
        },
        {
          "internalType": "uint256",
          "name": "financingId",
          "type": "uint256"
        },
        {
          "components": [
            {
              "internalType": "address",
              "name": "buyer",
              "type": "address"
            },
            {
              "internalType": "uint256",
              "name": "bidPrice",
              "type": "uint256"
            },
            {
              "internalType": "uint256",
              "name": "financingId",
              "type": "uint256"
            }
          ],
          "internalType": "struct ListingContract.AcceptedBid",
          "name": "acceptedBid",
          "type": "tuple"
        }
      ],
      "stateMutability": "view",
      "type": "function"
    },
    {
      "inputs": [],
      "name": "name",
      "outputs": [
        {
          "internalType": "string",
          "name": "",
          "type": "string"
        }
      ],
      "stateMutability": "view",
      "type": "function"
    },
    {
      "inputs": [],
      "name": "owner",
      "outputs": [
        {
          "internalType": "address",
          "name": "",
          "type": "address"
        }
      ],
      "stateMutability": "view",
      "type": "function"
    },
    {
      "inputs": [
        {
          "internalType": "uint256",
          "name": "tokenId",
          "type": "uint256"
        }
      ],
      "name": "ownerOf",
      "outputs": [
        {
          "internalType": "address",
          "name": "",
          "type": "address"
        }
      ],
      "stateMutability": "view",
      "type": "function"
    },
    {
      "inputs": [
        {
          "internalType": "uint256",
          "name": "",
          "type": "uint256"
        }
      ],
      "name": "properties",
      "outputs": [
        {
          "internalType": "uint256",
          "name": "price",
          "type": "uint256"
        }
      ],
      "stateMutability": "view",
      "type": "function"
    },
    {
      "inputs": [],
      "name": "propertyCount",
      "outputs": [
        {
          "internalType": "uint256",
          "name": "",
          "type": "uint256"
        }
      ],
      "stateMutability": "view",
      "type": "function"
    },
    {
      "inputs": [
        {
          "internalType": "uint256",
          "name": "_propertyId",
          "type": "uint256"
        }
      ],
      "name": "removeProperty",
      "outputs": [],
      "stateMutability": "nonpayable",
      "type": "function"
    },
    {
      "inputs": [],
      "name": "renounceOwnership",
      "outputs": [],
      "stateMutability": "nonpayable",
      "type": "function"
    },
    {
      "inputs": [
        {
          "internalType": "uint256",
          "name": "_loanId",
          "type": "uint256"
        },
        {
          "internalType": "uint256",
          "name": "_propertyId",
          "type": "uint256"
        },
        {
          "internalType": "uint256",
          "name": "_loanAmount",
          "type": "uint256"
        },
        {
          "internalType": "uint256",
          "name": "_durationInMonths",
          "type": "uint256"
        }
      ],
      "name": "requestFinancing",
      "outputs": [],
      "stateMutability": "nonpayable",
      "type": "function"
    },
    {
      "inputs": [
        {
          "internalType": "address",
          "name": "from",
          "type": "address"
        },
        {
          "internalType": "address",
          "name": "to",
          "type": "address"
        },
        {
          "internalType": "uint256",
          "name": "tokenId",
          "type": "uint256"
        }
      ],
      "name": "safeTransferFrom",
      "outputs": [],
      "stateMutability": "nonpayable",
      "type": "function"
    },
    {
      "inputs": [
        {
          "internalType": "address",
          "name": "from",
          "type": "address"
        },
        {
          "internalType": "address",
          "name": "to",
          "type": "address"
        },
        {
          "internalType": "uint256",
          "name": "tokenId",
          "type": "uint256"
        },
        {
          "internalType": "bytes",
          "name": "data",
          "type": "bytes"
        }
      ],
      "name": "safeTransferFrom",
      "outputs": [],
      "stateMutability": "nonpayable",
      "type": "function"
    },
    {
      "inputs": [
        {
          "internalType": "address",
          "name": "operator",
          "type": "address"
        },
        {
          "internalType": "bool",
          "name": "approved",
          "type": "bool"
        }
      ],
      "name": "setApprovalForAll",
      "outputs": [],
      "stateMutability": "nonpayable",
      "type": "function"
    },
    {
      "inputs": [
        {
          "internalType": "uint256",
          "name": "_propertyId",
          "type": "uint256"
        },
        {
          "internalType": "uint256",
          "name": "_price",
          "type": "uint256"
        }
      ],
      "name": "setPrice",
      "outputs": [],
      "stateMutability": "nonpayable",
      "type": "function"
    },
    {
      "inputs": [
        {
          "internalType": "bytes4",
          "name": "interfaceId",
          "type": "bytes4"
        }
      ],
      "name": "supportsInterface",
      "outputs": [
        {
          "internalType": "bool",
          "name": "",
          "type": "bool"
        }
      ],
      "stateMutability": "view",
      "type": "function"
    },
    {
      "inputs": [],
      "name": "symbol",
      "outputs": [
        {
          "internalType": "string",
          "name": "",
          "type": "string"
        }
      ],
      "stateMutability": "view",
      "type": "function"
    },
    {
      "inputs": [
        {
          "internalType": "uint256",
          "name": "tokenId",
          "type": "uint256"
        }
      ],
      "name": "tokenURI",
      "outputs": [
        {
          "internalType": "string",
          "name": "",
          "type": "string"
        }
      ],
      "stateMutability": "view",
      "type": "function"
    },
    {
      "inputs": [
        {
          "internalType": "address",
          "name": "from",
          "type": "address"
        },
        {
          "internalType": "address",
          "name": "to",
          "type": "address"
        },
        {
          "internalType": "uint256",
          "name": "tokenId",
          "type": "uint256"
        }
      ],
      "name": "transferFrom",
      "outputs": [],
      "stateMutability": "nonpayable",
      "type": "function"
    },
    {
      "inputs": [
        {
          "internalType": "address",
          "name": "newOwner",
          "type": "address"
        }
      ],
      "name": "transferOwnership",
      "outputs": [],
      "stateMutability": "nonpayable",
      "type": "function"
    },
    {
      "inputs": [
        {
          "internalType": "uint256",
          "name": "_propertyId",
          "type": "uint256"
        }
      ],
      "name": "unbid",
      "outputs": [],
      "stateMutability": "nonpayable",
      "type": "function"
    },
    {
      "inputs": [
        {
          "internalType": "uint256",
          "name": "_propertyId",
          "type": "uint256"
        }
      ],
      "name": "undoAcceptOffer",
      "outputs": [],
      "stateMutability": "nonpayable",
      "type": "function"
    },
    {
      "inputs": [
        {
          "internalType": "uint256",
          "name": "_propertyId",
          "type": "uint256"
        }
      ],
      "name": "unlistProperty",
      "outputs": [],
      "stateMutability": "nonpayable",
      "type": "function"
    }
  ],
  "bytecode": "0x608060405234801561001057600080fd5b5061438c806100206000396000f3fe6080604052600436106102255760003560e01c80638da5cb5b11610123578063c361a335116100ab578063f2fde38b1161006f578063f2fde38b146106f0578063f54e1aef14610710578063f7b1080814610730578063f7d975771461075d578063febfa1761461077d57600080fd5b8063c361a335146105e3578063c4d66de8146105f9578063c87b56dd14610619578063de74e57b14610639578063e985e9c5146106d057600080fd5b8063a22cb465116100f2578063a22cb4651461054d578063a9b07c261461056d578063b6aee1cf14610583578063b88d4fde146105a3578063bc43d06f146105c357600080fd5b80638da5cb5b146104cd578063918d407d146104eb57806395d89b411461050b5780639fcb27481461052057600080fd5b806342842e0e116101b157806370a082311161017557806370a0823114610428578063715018a6146104565780637e6b3bbf1461046b578063841ad8b91461048b57806387c35bc0146104ab57600080fd5b806342842e0e146103885780635138f19f146103a8578063598647f8146103bb57806359fe18eb146103db5780636352211e1461040857600080fd5b80630e4cfe97116101f85780630e4cfe97146102db578063107a274a146102fb578063177d58101461032857806323b872dd146103485780633fb924a21461036857600080fd5b806301ffc9a71461022a57806306fdde031461025f578063081812fc14610281578063095ea7b3146102b9575b600080fd5b34801561023657600080fd5b5061024a6102453660046138ee565b61079d565b60405190151581526020015b60405180910390f35b34801561026b57600080fd5b506102746107c8565b604051610256919061395b565b34801561028d57600080fd5b506102a161029c36600461396e565b61085a565b6040516001600160a01b039091168152602001610256565b3480156102c557600080fd5b506102d96102d436600461399c565b610881565b005b3480156102e757600080fd5b506102d96102f636600461396e565b61099b565b34801561030757600080fd5b5061031b61031636600461396e565b610cbf565b6040516102569190613a8b565b34801561033457600080fd5b506102d961034336600461396e565b610dc8565b34801561035457600080fd5b506102d9610363366004613a9e565b610fa1565b34801561037457600080fd5b5060ff546102a1906001600160a01b031681565b34801561039457600080fd5b506102d96103a3366004613a9e565b610fd2565b6102d96103b636600461396e565b610fed565b3480156103c757600080fd5b506102d96103d6366004613adf565b61119f565b3480156103e757600080fd5b506103fb6103f636600461396e565b611463565b6040516102569190613b2a565b34801561041457600080fd5b506102a161042336600461396e565b6114bd565b34801561043457600080fd5b50610448610443366004613b3d565b61151d565b604051908152602001610256565b34801561046257600080fd5b506102d96115a3565b34801561047757600080fd5b506102d961048636600461396e565b6115b7565b34801561049757600080fd5b506102d96104a636600461396e565b611713565b3480156104b757600080fd5b506104c06118fa565b6040516102569190613b5a565b3480156104d957600080fd5b506033546001600160a01b03166102a1565b3480156104f757600080fd5b506102d9610506366004613bbe565b611ac5565b34801561051757600080fd5b50610274611e18565b34801561052c57600080fd5b5061054061053b366004613b3d565b611e27565b6040516102569190613bee565b34801561055957600080fd5b506102d9610568366004613c45565b611f88565b34801561057957600080fd5b5061044860fd5481565b34801561058f57600080fd5b506102d961059e36600461396e565b611f97565b3480156105af57600080fd5b506102d96105be366004613d2d565b6121b1565b3480156105cf57600080fd5b506102d96105de36600461396e565b6121e9565b3480156105ef57600080fd5b5061044860fb5481565b34801561060557600080fd5b506102d9610614366004613b3d565b6122e8565b34801561062557600080fd5b5061027461063436600461396e565b612422565b34801561064557600080fd5b506106be61065436600461396e565b60fe602090815260009182526040918290208054600182015460028301546003840154865160608101885260058601546001600160a01b03168152600686015496810196909652600790940154958501959095529093909260ff8083169361010090930416919086565b60405161025696959493929190613dad565b3480156106dc57600080fd5b5061024a6106eb366004613e08565b612532565b3480156106fc57600080fd5b506102d961070b366004613b3d565b612560565b34801561071c57600080fd5b506102d961072b366004613e36565b6125d9565b34801561073c57600080fd5b5061044861074b36600461396e565b60fc6020526000908152604090205481565b34801561076957600080fd5b506102d9610778366004613adf565b6126ac565b34801561078957600080fd5b506102d9610798366004613e8f565b612719565b60006001600160e01b03198216632483248360e11b14806107c257506107c282612882565b92915050565b6060609780546107d790613ec1565b80601f016020809104026020016040519081016040528092919081815260200182805461080390613ec1565b80156108505780601f1061082557610100808354040283529160200191610850565b820191906000526020600020905b81548152906001019060200180831161083357829003601f168201915b5050505050905090565b6000610865826128d2565b506000908152609b60205260409020546001600160a01b031690565b600061088c826114bd565b9050806001600160a01b0316836001600160a01b0316036108fe5760405162461bcd60e51b815260206004820152602160248201527f4552433732313a20617070726f76616c20746f2063757272656e74206f776e656044820152603960f91b60648201526084015b60405180910390fd5b336001600160a01b038216148061091a575061091a8133612532565b61098c5760405162461bcd60e51b815260206004820152603d60248201527f4552433732313a20617070726f76652063616c6c6572206973206e6f7420746f60448201527f6b656e206f776e6572206f7220617070726f76656420666f7220616c6c00000060648201526084016108f5565b6109968383612922565b505050565b806109a581612990565b6109c25760405163b1e4c4d160e01b815260040160405180910390fd5b600082815260fe602052604090205482906001908214806109f657604051630cdb1f4760e11b815260040160405180910390fd5b81158015610a015750805b15610a1f57604051630bbe4b0b60e31b815260040160405180910390fd5b843360016000805b600085815260fe6020526040902060040154811015610a9f57600085815260fe6020526040902060040180546001600160a01b038616919083908110610a6f57610a6f613efb565b60009182526020909120600290910201546001600160a01b031603610a975760019150610a9f565b600101610a27565b50818015610aab575080155b15610ac957604051638296b48d60e01b815260040160405180910390fd5b81158015610ad45750805b15610af2576040516314d2f4d760e01b815260040160405180910390fd5b8860008082815260fe60205260409020600501546001600160a01b031615610b2d5760405163928156d160e01b815260040160405180910390fd5b6000805b60008d815260fe6020526040902060040154811015610b9f5760008d815260fe60205260409020600401805433919083908110610b7057610b70613efb565b60009182526020909120600290910201546001600160a01b031603610b9757809150610b9f565b600101610b31565b50805b60008d815260fe6020526040902060040154610bc090600190613f27565b811015610c675760008d815260fe60205260409020600401610be3826001613f3a565b81548110610bf357610bf3613efb565b906000526020600020906002020160fe60008f81526020019081526020016000206004018281548110610c2857610c28613efb565b60009182526020909120825460029092020180546001600160a01b0319166001600160a01b039092169190911781556001918201549082015501610ba2565b5060008c815260fe60205260409020600401805480610c8857610c88613f4d565b60008281526020812060026000199093019283020180546001600160a01b0319168155600101559055505050505050505050505050565b610cc7613827565b600082815260fe60209081526040808320815160e08101835281548152600182015481850152600282015460ff8082161515838601526101009091041615156060820152600382015460808201526004820180548451818702810187019095528085529195929460a0870194939192919084015b82821015610d83576000848152602090819020604080518082019091526002850290910180546001600160a01b03168252600190810154828401529083529092019101610d3b565b505050908252506040805160608101825260058401546001600160a01b0316815260068401546020828101919091526007909401549181019190915291015292915050565b80610dd281612990565b610def5760405163b1e4c4d160e01b815260040160405180910390fd5b8133610dfa826114bd565b6001600160a01b031614610e2157604051639a517dab60e01b815260040160405180910390fd5b600083815260fe60205260409020548390600190821480610e5557604051630cdb1f4760e11b815260040160405180910390fd5b81158015610e605750805b15610e7e57604051630bbe4b0b60e31b815260040160405180910390fd5b856001600082815260fe60205260409020600501546001600160a01b0316610eb95760405163a6b330ad60e01b815260040160405180910390fd5b80158015610ee05750600082815260fe60205260409020600501546001600160a01b031615155b15610efe5760405163928156d160e01b815260040160405180910390fd5b600088815260fe602052604090206002015460ff1615610f3157604051630529894560e41b815260040160405180910390fd5b505060408051606081018252600080825260208083018281528385018381529a835260fe90915292902090516005820180546001600160a01b0319166001600160a01b0390921691909117905590516006820155955160078701555050506002909201805461ff00191690555050565b610fab33826129ad565b610fc75760405162461bcd60e51b81526004016108f590613f63565b610996838383612a0b565b610996838383604051806020016040528060008152506121b1565b80610ff781612990565b6110145760405163b1e4c4d160e01b815260040160405180910390fd5b600082815260fe6020526040902054829060019082148061104857604051630cdb1f4760e11b815260040160405180910390fd5b811580156110535750805b1561107157604051630bbe4b0b60e31b815260040160405180910390fd5b600085815260fe6020526040902060050154859033906001600160a01b031681146110af576040516382e464c960e01b815260040160405180910390fd5b600087815260fe60205260409020600601543410156110e1576040516351616ae360e11b815260040160405180910390fd5b600087815260fe602052604090206002015460ff161561111457604051630529894560e41b815260040160405180910390fd5b600087815260fe60205260409020600201805460ff191660011790556111373390565b600088815260fe60205260409020600601546001600160a01b0391909116906108fc906111649034613f27565b6040518115909202916000818181858888f1935050505015801561118c573d6000803e3d6000fd5b5061119687612b6f565b50505050505050565b816111a981612990565b6111c65760405163b1e4c4d160e01b815260040160405180910390fd5b600083815260fe602052604090205483906001908214806111fa57604051630cdb1f4760e11b815260040160405180910390fd5b811580156112055750805b1561122357604051630bbe4b0b60e31b815260040160405180910390fd5b8533600080805b600085815260fe60205260409020600401548110156112a257600085815260fe6020526040902060040180546001600160a01b03861691908390811061127257611272613efb565b60009182526020909120600290910201546001600160a01b03160361129a57600191506112a2565b60010161122a565b508180156112ae575080155b156112cc57604051638296b48d60e01b815260040160405180910390fd5b811580156112d75750805b156112f5576040516314d2f4d760e01b815260040160405180910390fd5b6112fe8a6114bd565b6001600160a01b031633036113485760405162461bcd60e51b815260206004820152601060248201526f13dddb995c8818d85b9b9bdd08189a5960821b60448201526064016108f5565b60008a815260fe60205260409020600501546001600160a01b031615801561137f575060008a815260fe6020526040902060060154155b6113bd5760405162461bcd60e51b815260206004820152600f60248201526e109a5908185b1c9958591e481cd95d608a1b60448201526064016108f5565b60008a815260fe60205260409081902081518083019092526004019080336001600160a01b03908116825260209182018d9052835460018082018655600095865294839020845160029092020180546001600160a01b031916919092161781559181015191909201556040518b81527fee046dfd9e835fa8731932677c785a4d0b621036ae894acf04d1b38ee2b6cc64910160405180910390a150505050505050505050565b61148760405180606001604052806000815260200160008152602001606081525090565b60408051606081018252838152600084815260fc60209081529083902054908201529081016114b584612422565b905292915050565b6000818152609960205260408120546001600160a01b0316806107c25760405162461bcd60e51b8152602060048201526018602482015277115490cdcc8c4e881a5b9d985b1a59081d1bdad95b88125160421b60448201526064016108f5565b60006001600160a01b0382166115875760405162461bcd60e51b815260206004820152602960248201527f4552433732313a2061646472657373207a65726f206973206e6f7420612076616044820152683634b21037bbb732b960b91b60648201526084016108f5565b506001600160a01b03166000908152609a602052604090205490565b6115ab61300d565b6115b56000613067565b565b806115c181612990565b6115de5760405163b1e4c4d160e01b815260040160405180910390fd5b81336115e9826114bd565b6001600160a01b03161461161057604051639a517dab60e01b815260040160405180910390fd5b600083815260fe6020526040902054839060019082148061164457604051630cdb1f4760e11b815260040160405180910390fd5b8115801561164f5750805b1561166d57604051630bbe4b0b60e31b815260040160405180910390fd5b600086815260fe6020526040902060020154610100900460ff16156116e45760405162461bcd60e51b815260206004820152602760248201527f5472616e7366657220616c726561647920617070726f766564206279207468656044820152661039b2b63632b960c91b60648201526084016108f5565b600086815260fe60205260409020600201805461ff00191661010017905561170b86612b6f565b505050505050565b8061171d81612990565b61173a5760405163b1e4c4d160e01b815260040160405180910390fd5b8133611745826114bd565b6001600160a01b03161461176c57604051639a517dab60e01b815260040160405180910390fd5b600083815260fe602052604090205483906001908214806117a057604051630cdb1f4760e11b815260040160405180910390fd5b811580156117ab5750805b156117c957604051630bbe4b0b60e31b815260040160405180910390fd5b600086815260fe602052604090206002015460ff161580156118025750600086815260fe6020526040902060020154610100900460ff16155b61184e5760405162461bcd60e51b815260206004820152601a60248201527f50726f706572747920697320756e646572207472616e7366657200000000000060448201526064016108f5565b60fd805490600061185e83613fb0565b9091555050600086815260fe602052604081208181556001810182905560028101805461ffff19169055600381018290559061189d6004830182613892565b506005810180546001600160a01b03191690556000600682018190556007909101556040518681527f1ab07bb87a0c78eb0f29c0162ea68b3ac8b59a655d06e64e23ec24522ec344189060200160405180910390a1505050505050565b6060600060fd5467ffffffffffffffff81111561191957611919613c78565b60405190808252806020026020018201604052801561195257816020015b61193f613827565b8152602001906001900390816119375790505b509050600060015b60fb548111611abd57600081815260fe6020526040902054819003611aa257600081815260fe60209081526040808320815160e08101835281548152600182015481850152600282015460ff8082161515838601526101009091041615156060820152600382015460808201526004820180548451818702810187019095528085529195929460a0870194939192919084015b82821015611a35576000848152602090819020604080518082019091526002850290910180546001600160a01b031682526001908101548284015290835290920191016119ed565b505050908252506040805160608101825260058401546001600160a01b031681526006840154602082810191909152600790940154918101919091529101528351849084908110611a8857611a88613efb565b60200260200101819052508180611a9e90613fc7565b9250505b60fd548214611abd5780611ab581613fc7565b91505061195a565b509092915050565b81611acf81612990565b611aec5760405163b1e4c4d160e01b815260040160405180910390fd5b8233611af7826114bd565b6001600160a01b031614611b1e57604051639a517dab60e01b815260040160405180910390fd5b600084815260fe60205260409020548490600190821480611b5257604051630cdb1f4760e11b815260040160405180910390fd5b81158015611b5d5750805b15611b7b57604051630bbe4b0b60e31b815260040160405180910390fd5b8660008082815260fe60205260409020600501546001600160a01b031615611bb65760405163928156d160e01b815260040160405180910390fd5b60005b60008a815260fe6020526040902060040154811015611df35760008a815260fe6020526040902060040180546001600160a01b038b16919083908110611c0157611c01613efb565b60009182526020909120600290910201546001600160a01b031603611deb5760ff5460008b815260fe60205260408082206003015490516329818a0760e21b815291926001600160a01b03169163a606281c91611c649160040190815260200190565b60e060405180830381865afa158015611c81573d6000803e3d6000fd5b505050506040513d601f19601f82011682018060405250810190611ca59190613fe0565b60008c815260fe6020526040902060040180549192509083908110611ccc57611ccc613efb565b90600052602060002090600202016001015481608001511115611d02576040516351616ae360e11b815260040160405180910390fd5b60405180606001604052808b6001600160a01b0316815260200160fe60008e81526020019081526020016000206004018481548110611d4357611d43613efb565b600091825260208083206002928302016001015484529283018290528e825260fe835260409182902084516005820180546001600160a01b0319166001600160a01b0390921691909117905584840151600682015593820151600785015592909201805461010061ff001990911617905590518c81527fa573f6e77cec35b255a3fb35b673473461473d63e293d50c5eba0d7d18942383910160405180910390a15050611e0d565b600101611bb9565b50604051638296b48d60e01b815260040160405180910390fd5b505050505050505050565b6060609880546107d790613ec1565b6060600080611e358461151d565b905060008167ffffffffffffffff811115611e5257611e52613c78565b604051908082528060200260200182016040528015611ea757816020015b611e9460405180606001604052806000815260200160008152602001606081525090565b815260200190600190039081611e705790505b50905060015b60fb548111611f7f57856001600160a01b0316611ec9826114bd565b6001600160a01b031603611f665780828581518110611eea57611eea613efb565b60209081029190910181015191909152600082815260fc90915260409020548251839086908110611f1d57611f1d613efb565b60200260200101516020018181525050611f3681612422565b828581518110611f4857611f48613efb565b6020026020010151604001819052508380611f6290613fc7565b9450505b838314611f7f5780611f7781613fc7565b915050611ead565b50949350505050565b611f933383836130b9565b5050565b80611fa181612990565b611fbe5760405163b1e4c4d160e01b815260040160405180910390fd5b8133611fc9826114bd565b6001600160a01b031614611ff057604051639a517dab60e01b815260040160405180910390fd5b600083815260fe60205260408120548491908214801561202357604051630bbe4b0b60e31b815260040160405180910390fd5b600086815260fc602052604090205486908015806120ac575060ff5460405163132fd1b360e11b8152600481018490526001600160a01b039091169063265fa36690602401602060405180830381865afa158015612085573d6000803e3d6000fd5b505050506040513d601f19601f820116820180604052508101906120a9919061405c565b81105b156120ca576040516351616ae360e11b815260040160405180910390fd5b60fd80549060006120da83613fc7565b9091555050600088815260fe602090815260408083208b815560fc9092529182902054600182015560ff54915163f3de41b560e01b8152600481018b905290916001600160a01b03169063f3de41b590602401602060405180830381865afa15801561214a573d6000803e3d6000fd5b505050506040513d601f19601f8201168201806040525081019061216e919061405c565b60038201556040518981527fdd11eaf2db1c16b640194c05b02faa4b8bc4abf29c61428e990e72c6c15cff779060200160405180910390a1505050505050505050565b6121bb33836129ad565b6121d75760405162461bcd60e51b81526004016108f590613f63565b6121e384848484613187565b50505050565b806121f381612990565b6122105760405163b1e4c4d160e01b815260040160405180910390fd5b813361221b826114bd565b6001600160a01b03161461224257604051639a517dab60e01b815260040160405180910390fd5b61224b83612990565b6122a35760405162461bcd60e51b8152602060048201526024808201527f50726f70657274792077697468207468697320494420646f6573206e6f7420656044820152631e1a5cdd60e21b60648201526084016108f5565b6122ae333085612a0b565b60405183815233907f8e2f5fcc57c31738b03aa91accdd55b13dc355a4fa1707d953f49c973e18e6e49060200160405180910390a2505050565b600054610100900460ff16158080156123085750600054600160ff909116105b806123225750303b158015612322575060005460ff166001145b6123855760405162461bcd60e51b815260206004820152602e60248201527f496e697469616c697a61626c653a20636f6e747261637420697320616c72656160448201526d191e481a5b9a5d1a585b1a5e995960921b60648201526084016108f5565b6000805460ff1916600117905580156123a8576000805461ff0019166101001790555b6123b06131ba565b6123b86131e9565b600060fd5560ff80546001600160a01b0319166001600160a01b0384161790558015611f93576000805461ff0019169055604051600181527f7f26b83ff96e1f2b6a682f133852f6798a09c465da95921460cefb3847402498906020015b60405180910390a15050565b606061242d826128d2565b600082815260c960205260408120805461244690613ec1565b80601f016020809104026020016040519081016040528092919081815260200182805461247290613ec1565b80156124bf5780601f10612494576101008083540402835291602001916124bf565b820191906000526020600020905b8154815290600101906020018083116124a257829003601f168201915b5050505050905060006124dd60408051602081019091526000815290565b905080516000036124ef575092915050565b815115612521578082604051602001612509929190614075565b60405160208183030381529060405292505050919050565b61252a84613236565b949350505050565b6001600160a01b039182166000908152609c6020908152604080832093909416825291909152205460ff1690565b61256861300d565b6001600160a01b0381166125cd5760405162461bcd60e51b815260206004820152602660248201527f4f776e61626c653a206e6577206f776e657220697320746865207a65726f206160448201526564647265737360d01b60648201526084016108f5565b6125d681613067565b50565b60008251116126205760405162461bcd60e51b81526020600482015260136024820152725552492063616e6e6f7420626520656d70747960681b60448201526064016108f5565b60fb805490600061263083613fc7565b9091555050604080516020808201835283825260fb54600090815260fc90915291909120905190556126643360fb546132aa565b61267060fb54836132c4565b60fb5460405190815233907f2728c9d3205d667bbc0eefdfeda366261b4d021949630c047f3e5834b30611ab9060200160405180910390a25050565b816126b681612990565b6126d35760405163b1e4c4d160e01b815260040160405180910390fd5b82336126de826114bd565b6001600160a01b03161461270557604051639a517dab60e01b815260040160405180910390fd5b5050600091825260fc602052604090912055565b8261272381612990565b6127405760405163b1e4c4d160e01b815260040160405180910390fd5b600084815260fe6020526040902054849060019082148061277457604051630cdb1f4760e11b815260040160405180910390fd5b8115801561277f5750805b1561279d57604051630bbe4b0b60e31b815260040160405180910390fd5b600087815260fe6020526040902060050154879033906001600160a01b031681146127db576040516382e464c960e01b815260040160405180910390fd5b60ff5460405163118f81d360e21b8152600481018c9052602481018b9052604481018a9052606481018990526000916001600160a01b03169063463e074c906084016020604051808303816000875af115801561283c573d6000803e3d6000fd5b505050506040513d601f19601f82011682018060405250810190612860919061405c565b60009a8b5260fe6020526040909a206007019990995550505050505050505050565b60006001600160e01b031982166380ac58cd60e01b14806128b357506001600160e01b03198216635b5e139f60e01b145b806107c257506301ffc9a760e01b6001600160e01b03198316146107c2565b6128db81612990565b6125d65760405162461bcd60e51b8152602060048201526018602482015277115490cdcc8c4e881a5b9d985b1a59081d1bdad95b88125160421b60448201526064016108f5565b6000818152609b6020526040902080546001600160a01b0319166001600160a01b0384169081179091558190612957826114bd565b6001600160a01b03167f8c5be1e5ebec7d5bd14f71427d1e84f3dd0314c0f7b2291e5b200ac8c7c3b92560405160405180910390a45050565b6000908152609960205260409020546001600160a01b0316151590565b6000806129b9836114bd565b9050806001600160a01b0316846001600160a01b031614806129e057506129e08185612532565b8061252a5750836001600160a01b03166129f98461085a565b6001600160a01b031614949350505050565b826001600160a01b0316612a1e826114bd565b6001600160a01b031614612a445760405162461bcd60e51b81526004016108f5906140a4565b6001600160a01b038216612aa65760405162461bcd60e51b8152602060048201526024808201527f4552433732313a207472616e7366657220746f20746865207a65726f206164646044820152637265737360e01b60648201526084016108f5565b826001600160a01b0316612ab9826114bd565b6001600160a01b031614612adf5760405162461bcd60e51b81526004016108f5906140a4565b6000818152609b6020908152604080832080546001600160a01b03199081169091556001600160a01b03878116808652609a8552838620805460001901905590871680865283862080546001019055868652609990945282852080549092168417909155905184937fddf252ad1be2c89b69c2b068fc378daa952ba7f163c4a11628f55a4df523b3ef91a4505050565b80612b7981612990565b612b965760405163b1e4c4d160e01b815260040160405180910390fd5b600082815260fe6020526040902060020154829060ff161580612bd05750600081815260fe6020526040902060020154610100900460ff16155b15612bee57604051637c3e890960e11b815260040160405180910390fd5b600083815260fe60205260408120600501546001600160a01b031690612c13856114bd565b600086815260fe60205260408082206006015460ff5491516329818a0760e21b8152600481018a9052939450926001600160a01b039091169063a606281c9060240160e060405180830381865afa158015612c72573d6000803e3d6000fd5b505050506040513d601f19601f82011682018060405250810190612c969190613fe0565b9050600381606001516005811115612cb057612cb06140e9565b03612e865760ff5460405163132fd1b360e11b8152600481018990526000916001600160a01b03169063265fa36690602401602060405180830381865afa158015612cff573d6000803e3d6000fd5b505050506040513d601f19601f82011682018060405250810190612d23919061405c565b90506000612d318285613f27565b60ff546040808601519051632820036560e11b81529293506000926001600160a01b039092169163504006ca91612d6e9160040190815260200190565b6040805180830381865afa158015612d8a573d6000803e3d6000fd5b505050506040513d601f19601f82011682018060405250810190612dae91906140ff565b516040519091506001600160a01b0382169084156108fc029085906000818181858888f19350505050158015612de8573d6000803e3d6000fd5b506040516001600160a01b0387169083156108fc029084906000818181858888f19350505050158015612e1f573d6000803e3d6000fd5b5060ff54604051630cb7d90160e41b8152600481018c90526001600160a01b039091169063cb7d901090602401600060405180830381600087803b158015612e6657600080fd5b505af1158015612e7a573d6000803e3d6000fd5b50505050505050612ece565b600087815260fe60205260408082206006015490516001600160a01b0386169282156108fc02929190818181858888f19350505050158015612ecc573d6000803e3d6000fd5b505b612ed9838589612a0b565b60ff54600088815260fe602052604090819020600301549051630c15c77160e01b8152600481018a905260248101919091526001600160a01b0390911690630c15c77190604401600060405180830381600087803b158015612f3a57600080fd5b505af1158015612f4e573d6000803e3d6000fd5b505050600088815260fe602052604081208181556001810182905560028101805461ffff19169055600381018290559150612f8c6004830182613892565b506005810180546001600160a01b0319169055600060068201819055600790910181905560fd805491612fbe83613fb0565b919050555086846001600160a01b0316846001600160a01b03167fddf252ad1be2c89b69c2b068fc378daa952ba7f163c4a11628f55a4df523b3ef60405160405180910390a450505050505050565b6033546001600160a01b031633146115b55760405162461bcd60e51b815260206004820181905260248201527f4f776e61626c653a2063616c6c6572206973206e6f7420746865206f776e657260448201526064016108f5565b603380546001600160a01b038381166001600160a01b0319831681179093556040519116919082907f8be0079c531659141344cd1fd0a4f28419497f9722a3daafe3b4186f6b6457e090600090a35050565b816001600160a01b0316836001600160a01b03160361311a5760405162461bcd60e51b815260206004820152601960248201527f4552433732313a20617070726f766520746f2063616c6c65720000000000000060448201526064016108f5565b6001600160a01b038381166000818152609c6020908152604080832094871680845294825291829020805460ff191686151590811790915591519182527f17307eab39ab6107e8899845ad3d59bd9653f200f220920489ca2b5937696c31910160405180910390a3505050565b613192848484612a0b565b61319e84848484613379565b6121e35760405162461bcd60e51b81526004016108f590614157565b600054610100900460ff166131e15760405162461bcd60e51b81526004016108f5906141a9565b6115b561347a565b61322f6040518060400160405280600881526020016750726f706572747960c01b81525060405180604001604052806004815260200163050524f560e41b8152506134aa565b600060fb55565b6060613241826128d2565b600061325860408051602081019091526000815290565b9050600081511161327857604051806020016040528060008152506132a3565b80613282846134db565b604051602001613293929190614075565b6040516020818303038152906040525b9392505050565b611f9382826040518060200160405280600081525061356f565b6132cd82612990565b6133305760405162461bcd60e51b815260206004820152602e60248201527f45524337323155524953746f726167653a2055524920736574206f66206e6f6e60448201526d32bc34b9ba32b73a103a37b5b2b760911b60648201526084016108f5565b600082815260c960205260409020613348828261423c565b506040518281527ff8e1a15aba9398e019f0b49df1a4fde98ee17ae345cb5f6b5e2c27f5033e8ce790602001612416565b60006001600160a01b0384163b1561346f57604051630a85bd0160e11b81526001600160a01b0385169063150b7a02906133bd9033908990889088906004016142fc565b6020604051808303816000875af19250505080156133f8575060408051601f3d908101601f191682019092526133f591810190614339565b60015b613455573d808015613426576040519150601f19603f3d011682016040523d82523d6000602084013e61342b565b606091505b50805160000361344d5760405162461bcd60e51b81526004016108f590614157565b805181602001fd5b6001600160e01b031916630a85bd0160e11b14905061252a565b506001949350505050565b600054610100900460ff166134a15760405162461bcd60e51b81526004016108f5906141a9565b6115b533613067565b600054610100900460ff166134d15760405162461bcd60e51b81526004016108f5906141a9565b611f9382826135a2565b606060006134e8836135e2565b600101905060008167ffffffffffffffff81111561350857613508613c78565b6040519080825280601f01601f191660200182016040528015613532576020820181803683370190505b5090508181016020015b600019016f181899199a1a9b1b9c1cb0b131b232b360811b600a86061a8153600a850494508461353c575b509392505050565b61357983836136ba565b6135866000848484613379565b6109965760405162461bcd60e51b81526004016108f590614157565b600054610100900460ff166135c95760405162461bcd60e51b81526004016108f5906141a9565b60976135d5838261423c565b506098610996828261423c565b60008072184f03e93ff9f4daa797ed6e38ed64bf6a1f0160401b83106136215772184f03e93ff9f4daa797ed6e38ed64bf6a1f0160401b830492506040015b6d04ee2d6d415b85acef8100000000831061364d576d04ee2d6d415b85acef8100000000830492506020015b662386f26fc10000831061366b57662386f26fc10000830492506010015b6305f5e1008310613683576305f5e100830492506008015b612710831061369757612710830492506004015b606483106136a9576064830492506002015b600a83106107c25760010192915050565b6001600160a01b0382166137105760405162461bcd60e51b815260206004820181905260248201527f4552433732313a206d696e7420746f20746865207a65726f206164647265737360448201526064016108f5565b61371981612990565b156137665760405162461bcd60e51b815260206004820152601c60248201527f4552433732313a20746f6b656e20616c7265616479206d696e7465640000000060448201526064016108f5565b61376f81612990565b156137bc5760405162461bcd60e51b815260206004820152601c60248201527f4552433732313a20746f6b656e20616c7265616479206d696e7465640000000060448201526064016108f5565b6001600160a01b0382166000818152609a6020908152604080832080546001019055848352609990915280822080546001600160a01b0319168417905551839291907fddf252ad1be2c89b69c2b068fc378daa952ba7f163c4a11628f55a4df523b3ef908290a45050565b6040518060e001604052806000815260200160008152602001600015158152602001600015158152602001600081526020016060815260200161388d604051806060016040528060006001600160a01b0316815260200160008152602001600081525090565b905290565b50805460008255600202906000526020600020908101906125d691905b808211156138d45780546001600160a01b0319168155600060018201556002016138af565b5090565b6001600160e01b0319811681146125d657600080fd5b60006020828403121561390057600080fd5b81356132a3816138d8565b60005b8381101561392657818101518382015260200161390e565b50506000910152565b6000815180845261394781602086016020860161390b565b601f01601f19169290920160200192915050565b6020815260006132a3602083018461392f565b60006020828403121561398057600080fd5b5035919050565b6001600160a01b03811681146125d657600080fd5b600080604083850312156139af57600080fd5b82356139ba81613987565b946020939093013593505050565b60006101208084018351855260208085015181870152604080860151151560408801526060860151151560608801526080860151608088015260a08601518460a08901528394508051808552610140890195508382019450600091505b80821015613a5757845180516001600160a01b0316875284015184870152948201949383019360019190910190613a25565b505050505060c083015161356760c086018280516001600160a01b0316825260208082015190830152604090810151910152565b6020815260006132a360208301846139c8565b600080600060608486031215613ab357600080fd5b8335613abe81613987565b92506020840135613ace81613987565b929592945050506040919091013590565b60008060408385031215613af257600080fd5b50508035926020909101359150565b8051825260208101516020830152600060408201516060604085015261252a606085018261392f565b6020815260006132a36020830184613b01565b600060208284031215613b4f57600080fd5b81356132a381613987565b600060208083016020845280855180835260408601915060408160051b87010192506020870160005b82811015613bb157603f19888603018452613b9f8583516139c8565b94509285019290850190600101613b83565b5092979650505050505050565b60008060408385031215613bd157600080fd5b823591506020830135613be381613987565b809150509250929050565b600060208083016020845280855180835260408601915060408160051b87010192506020870160005b82811015613bb157603f19888603018452613c33858351613b01565b94509285019290850190600101613c17565b60008060408385031215613c5857600080fd5b8235613c6381613987565b915060208301358015158114613be357600080fd5b634e487b7160e01b600052604160045260246000fd5b60405160e0810167ffffffffffffffff81118282101715613cb157613cb1613c78565b60405290565b600067ffffffffffffffff80841115613cd257613cd2613c78565b604051601f8501601f19908116603f01168101908282118183101715613cfa57613cfa613c78565b81604052809350858152868686011115613d1357600080fd5b858560208301376000602087830101525050509392505050565b60008060008060808587031215613d4357600080fd5b8435613d4e81613987565b93506020850135613d5e81613987565b925060408501359150606085013567ffffffffffffffff811115613d8157600080fd5b8501601f81018713613d9257600080fd5b613da187823560208401613cb7565b91505092959194509250565b8681526020810186905284151560408201528315156060820152608081018390526101008101613dfd60a083018480516001600160a01b0316825260208082015190830152604090810151910152565b979650505050505050565b60008060408385031215613e1b57600080fd5b8235613e2681613987565b91506020830135613be381613987565b60008060408385031215613e4957600080fd5b823567ffffffffffffffff811115613e6057600080fd5b8301601f81018513613e7157600080fd5b613e8085823560208401613cb7565b95602094909401359450505050565b60008060008060808587031215613ea557600080fd5b5050823594602084013594506040840135936060013592509050565b600181811c90821680613ed557607f821691505b602082108103613ef557634e487b7160e01b600052602260045260246000fd5b50919050565b634e487b7160e01b600052603260045260246000fd5b634e487b7160e01b600052601160045260246000fd5b818103818111156107c2576107c2613f11565b808201808211156107c2576107c2613f11565b634e487b7160e01b600052603160045260246000fd5b6020808252602d908201527f4552433732313a2063616c6c6572206973206e6f7420746f6b656e206f776e6560408201526c1c881bdc88185c1c1c9bdd9959609a1b606082015260800190565b600081613fbf57613fbf613f11565b506000190190565b600060018201613fd957613fd9613f11565b5060010190565b600060e08284031215613ff257600080fd5b613ffa613c8e565b82518152602083015161400c81613987565b60208201526040838101519082015260608301516006811061402d57600080fd5b806060830152506080830151608082015260a083015160a082015260c083015160c08201528091505092915050565b60006020828403121561406e57600080fd5b5051919050565b6000835161408781846020880161390b565b83519083019061409b81836020880161390b565b01949350505050565b60208082526025908201527f4552433732313a207472616e736665722066726f6d20696e636f72726563742060408201526437bbb732b960d91b606082015260800190565b634e487b7160e01b600052602160045260246000fd5b60006040828403121561411157600080fd5b6040516040810181811067ffffffffffffffff8211171561413457614134613c78565b604052825161414281613987565b81526020928301519281019290925250919050565b60208082526032908201527f4552433732313a207472616e7366657220746f206e6f6e20455243373231526560408201527131b2b4bb32b91034b6b83632b6b2b73a32b960711b606082015260800190565b6020808252602b908201527f496e697469616c697a61626c653a20636f6e7472616374206973206e6f74206960408201526a6e697469616c697a696e6760a81b606082015260800190565b601f821115610996576000816000526020600020601f850160051c8101602086101561421d5750805b601f850160051c820191505b8181101561170b57828155600101614229565b815167ffffffffffffffff81111561425657614256613c78565b61426a816142648454613ec1565b846141f4565b602080601f83116001811461429f57600084156142875750858301515b600019600386901b1c1916600185901b17855561170b565b600085815260208120601f198616915b828110156142ce578886015182559484019460019091019084016142af565b50858210156142ec5787850151600019600388901b60f8161c191681555b5050505050600190811b01905550565b6001600160a01b038581168252841660208201526040810183905260806060820181905260009061432f9083018461392f565b9695505050505050565b60006020828403121561434b57600080fd5b81516132a3816138d856fea2646970667358221220d81d38870d27c2ec72bd2cf36faf2406a0d092327e7fbc23f6d41cd54c399b2164736f6c63430008170033",
  "linkReferences": {},
  "deployedLinkReferences": {}
}