{
  "_format": "hh-sol-artifact-1",
  "contractName": "ListingContract",
  "sourceName": "contracts/V2/marketplace/Listing.sol",
  "abi": [
    {
      "inputs": [],
      "name": "BidAlreadySet",
      "type": "error"
    },
    {
      "inputs": [],
      "name": "BidNotSet",
      "type": "error"
    },
    {
      "inputs": [],
      "name": "BuyerAlreadyBid",
      "type": "error"
    },
    {
      "inputs": [],
      "name": "BuyerDidNotBid",
      "type": "error"
    },
    {
      "inputs": [],
      "name": "NotAcceptedBuyer",
      "type": "error"
    },
    {
      "inputs": [],
      "name": "NotApprovedByBothParties",
      "type": "error"
    },
    {
      "inputs": [],
      "name": "NotPropertyOwner",
      "type": "error"
    },
    {
      "inputs": [],
      "name": "PriceNotMet",
      "type": "error"
    },
    {
      "inputs": [],
      "name": "PropertyAlreadyListed",
      "type": "error"
    },
    {
      "inputs": [],
      "name": "PropertyNotExists",
      "type": "error"
    },
    {
      "inputs": [],
      "name": "PropertyNotListed",
      "type": "error"
    },
    {
      "anonymous": false,
      "inputs": [
        {
          "indexed": false,
          "internalType": "uint256",
          "name": "_propertyId",
          "type": "uint256"
        }
      ],
      "name": "Accept",
      "type": "event"
    },
    {
      "anonymous": false,
      "inputs": [
        {
          "indexed": true,
          "internalType": "address",
          "name": "_owner",
          "type": "address"
        },
        {
          "indexed": false,
          "internalType": "uint256",
          "name": "_propertyId",
          "type": "uint256"
        }
      ],
      "name": "Add",
      "type": "event"
    },
    {
      "anonymous": false,
      "inputs": [
        {
          "indexed": true,
          "internalType": "address",
          "name": "owner",
          "type": "address"
        },
        {
          "indexed": true,
          "internalType": "address",
          "name": "approved",
          "type": "address"
        },
        {
          "indexed": true,
          "internalType": "uint256",
          "name": "tokenId",
          "type": "uint256"
        }
      ],
      "name": "Approval",
      "type": "event"
    },
    {
      "anonymous": false,
      "inputs": [
        {
          "indexed": true,
          "internalType": "address",
          "name": "owner",
          "type": "address"
        },
        {
          "indexed": true,
          "internalType": "address",
          "name": "operator",
          "type": "address"
        },
        {
          "indexed": false,
          "internalType": "bool",
          "name": "approved",
          "type": "bool"
        }
      ],
      "name": "ApprovalForAll",
      "type": "event"
    },
    {
      "anonymous": false,
      "inputs": [
        {
          "indexed": false,
          "internalType": "uint256",
          "name": "_fromTokenId",
          "type": "uint256"
        },
        {
          "indexed": false,
          "internalType": "uint256",
          "name": "_toTokenId",
          "type": "uint256"
        }
      ],
      "name": "BatchMetadataUpdate",
      "type": "event"
    },
    {
      "anonymous": false,
      "inputs": [
        {
          "indexed": false,
          "internalType": "uint8",
          "name": "version",
          "type": "uint8"
        }
      ],
      "name": "Initialized",
      "type": "event"
    },
    {
      "anonymous": false,
      "inputs": [
        {
          "indexed": false,
          "internalType": "uint256",
          "name": "_propertyId",
          "type": "uint256"
        }
      ],
      "name": "List",
      "type": "event"
    },
    {
      "anonymous": false,
      "inputs": [
        {
          "indexed": false,
          "internalType": "uint256",
          "name": "_tokenId",
          "type": "uint256"
        }
      ],
      "name": "MetadataUpdate",
      "type": "event"
    },
    {
      "anonymous": false,
      "inputs": [
        {
          "indexed": false,
          "internalType": "uint256",
          "name": "_propertyId",
          "type": "uint256"
        }
      ],
      "name": "Offer",
      "type": "event"
    },
    {
      "anonymous": false,
      "inputs": [
        {
          "indexed": true,
          "internalType": "address",
          "name": "previousOwner",
          "type": "address"
        },
        {
          "indexed": true,
          "internalType": "address",
          "name": "newOwner",
          "type": "address"
        }
      ],
      "name": "OwnershipTransferred",
      "type": "event"
    },
    {
      "anonymous": false,
      "inputs": [
        {
          "indexed": true,
          "internalType": "address",
          "name": "_owner",
          "type": "address"
        },
        {
          "indexed": false,
          "internalType": "uint256",
          "name": "_propertyId",
          "type": "uint256"
        }
      ],
      "name": "Remove",
      "type": "event"
    },
    {
      "anonymous": false,
      "inputs": [
        {
          "indexed": true,
          "internalType": "address",
          "name": "from",
          "type": "address"
        },
        {
          "indexed": true,
          "internalType": "address",
          "name": "to",
          "type": "address"
        },
        {
          "indexed": true,
          "internalType": "uint256",
          "name": "tokenId",
          "type": "uint256"
        }
      ],
      "name": "Transfer",
      "type": "event"
    },
    {
      "anonymous": false,
      "inputs": [
        {
          "indexed": false,
          "internalType": "uint256",
          "name": "_propertyId",
          "type": "uint256"
        }
      ],
      "name": "Unlist",
      "type": "event"
    },
    {
      "inputs": [
        {
          "internalType": "uint256",
          "name": "_propertyId",
          "type": "uint256"
        },
        {
          "internalType": "address",
          "name": "_buyer",
          "type": "address"
        }
      ],
      "name": "acceptOffer",
      "outputs": [],
      "stateMutability": "nonpayable",
      "type": "function"
    },
    {
      "inputs": [
        {
          "internalType": "string",
          "name": "_uri",
          "type": "string"
        },
        {
          "internalType": "uint256",
          "name": "_price",
          "type": "uint256"
        }
      ],
      "name": "addProperty",
      "outputs": [],
      "stateMutability": "nonpayable",
      "type": "function"
    },
    {
      "inputs": [
        {
          "internalType": "address",
          "name": "to",
          "type": "address"
        },
        {
          "internalType": "uint256",
          "name": "tokenId",
          "type": "uint256"
        }
      ],
      "name": "approve",
      "outputs": [],
      "stateMutability": "nonpayable",
      "type": "function"
    },
    {
      "inputs": [
        {
          "internalType": "uint256",
          "name": "_propertyId",
          "type": "uint256"
        }
      ],
      "name": "approveTransferAsBuyer",
      "outputs": [],
      "stateMutability": "payable",
      "type": "function"
    },
    {
      "inputs": [
        {
          "internalType": "uint256",
          "name": "_propertyId",
          "type": "uint256"
        }
      ],
      "name": "approveTransferAsSeller",
      "outputs": [],
      "stateMutability": "nonpayable",
      "type": "function"
    },
    {
      "inputs": [
        {
          "internalType": "address",
          "name": "owner",
          "type": "address"
        }
      ],
      "name": "balanceOf",
      "outputs": [
        {
          "internalType": "uint256",
          "name": "",
          "type": "uint256"
        }
      ],
      "stateMutability": "view",
      "type": "function"
    },
    {
      "inputs": [
        {
          "internalType": "uint256",
          "name": "_propertyId",
          "type": "uint256"
        },
        {
          "internalType": "uint256",
          "name": "_bidPrice",
          "type": "uint256"
        }
      ],
      "name": "bid",
      "outputs": [],
      "stateMutability": "nonpayable",
      "type": "function"
    },
    {
      "inputs": [],
      "name": "financingContract",
      "outputs": [
        {
          "internalType": "contract IFinancing",
          "name": "",
          "type": "address"
        }
      ],
      "stateMutability": "view",
      "type": "function"
    },
    {
      "inputs": [],
      "name": "getActiveListings",
      "outputs": [
        {
          "components": [
            {
              "internalType": "uint256",
              "name": "propertyId",
              "type": "uint256"
            },
            {
              "internalType": "uint256",
              "name": "sellPrice",
              "type": "uint256"
            },
            {
              "internalType": "bool",
              "name": "buyerApproved",
              "type": "bool"
            },
            {
              "internalType": "bool",
              "name": "sellerApproved",
              "type": "bool"
            },
            {
              "internalType": "uint256",
              "name": "financingId",
              "type": "uint256"
            },
            {
              "components": [
                {
                  "internalType": "address",
                  "name": "buyer",
                  "type": "address"
                },
                {
                  "internalType": "uint256",
                  "name": "bidPrice",
                  "type": "uint256"
                }
              ],
              "internalType": "struct ListingContract.Bid[]",
              "name": "bids",
              "type": "tuple[]"
            },
            {
              "components": [
                {
                  "internalType": "address",
                  "name": "buyer",
                  "type": "address"
                },
                {
                  "internalType": "uint256",
                  "name": "bidPrice",
                  "type": "uint256"
                },
                {
                  "internalType": "uint256",
                  "name": "financingId",
                  "type": "uint256"
                }
              ],
              "internalType": "struct ListingContract.AcceptedBid",
              "name": "acceptedBid",
              "type": "tuple"
            }
          ],
          "internalType": "struct ListingContract.Listing[]",
          "name": "",
          "type": "tuple[]"
        }
      ],
      "stateMutability": "view",
      "type": "function"
    },
    {
      "inputs": [
        {
          "internalType": "uint256",
          "name": "tokenId",
          "type": "uint256"
        }
      ],
      "name": "getApproved",
      "outputs": [
        {
          "internalType": "address",
          "name": "",
          "type": "address"
        }
      ],
      "stateMutability": "view",
      "type": "function"
    },
    {
      "inputs": [
        {
          "internalType": "uint256",
          "name": "_propertyId",
          "type": "uint256"
        }
      ],
      "name": "getListing",
      "outputs": [
        {
          "components": [
            {
              "internalType": "uint256",
              "name": "propertyId",
              "type": "uint256"
            },
            {
              "internalType": "uint256",
              "name": "sellPrice",
              "type": "uint256"
            },
            {
              "internalType": "bool",
              "name": "buyerApproved",
              "type": "bool"
            },
            {
              "internalType": "bool",
              "name": "sellerApproved",
              "type": "bool"
            },
            {
              "internalType": "uint256",
              "name": "financingId",
              "type": "uint256"
            },
            {
              "components": [
                {
                  "internalType": "address",
                  "name": "buyer",
                  "type": "address"
                },
                {
                  "internalType": "uint256",
                  "name": "bidPrice",
                  "type": "uint256"
                }
              ],
              "internalType": "struct ListingContract.Bid[]",
              "name": "bids",
              "type": "tuple[]"
            },
            {
              "components": [
                {
                  "internalType": "address",
                  "name": "buyer",
                  "type": "address"
                },
                {
                  "internalType": "uint256",
                  "name": "bidPrice",
                  "type": "uint256"
                },
                {
                  "internalType": "uint256",
                  "name": "financingId",
                  "type": "uint256"
                }
              ],
              "internalType": "struct ListingContract.AcceptedBid",
              "name": "acceptedBid",
              "type": "tuple"
            }
          ],
          "internalType": "struct ListingContract.Listing",
          "name": "",
          "type": "tuple"
        }
      ],
      "stateMutability": "view",
      "type": "function"
    },
    {
      "inputs": [
        {
          "internalType": "address",
          "name": "_owner",
          "type": "address"
        }
      ],
      "name": "getPropertiesByOwner",
      "outputs": [
        {
          "components": [
            {
              "internalType": "uint256",
              "name": "propertyId",
              "type": "uint256"
            },
            {
              "internalType": "uint256",
              "name": "price",
              "type": "uint256"
            },
            {
              "internalType": "string",
              "name": "uri",
              "type": "string"
            }
          ],
          "internalType": "struct PropertyContract.PropertyResult[]",
          "name": "",
          "type": "tuple[]"
        }
      ],
      "stateMutability": "view",
      "type": "function"
    },
    {
      "inputs": [
        {
          "internalType": "uint256",
          "name": "_propertyId",
          "type": "uint256"
        }
      ],
      "name": "getPropertyById",
      "outputs": [
        {
          "components": [
            {
              "internalType": "uint256",
              "name": "propertyId",
              "type": "uint256"
            },
            {
              "internalType": "uint256",
              "name": "price",
              "type": "uint256"
            },
            {
              "internalType": "string",
              "name": "uri",
              "type": "string"
            }
          ],
          "internalType": "struct PropertyContract.PropertyResult",
          "name": "",
          "type": "tuple"
        }
      ],
      "stateMutability": "view",
      "type": "function"
    },
    {
      "inputs": [
        {
          "internalType": "address",
          "name": "_financingContract",
          "type": "address"
        }
      ],
      "name": "initialize",
      "outputs": [],
      "stateMutability": "nonpayable",
      "type": "function"
    },
    {
      "inputs": [
        {
          "internalType": "address",
          "name": "owner",
          "type": "address"
        },
        {
          "internalType": "address",
          "name": "operator",
          "type": "address"
        }
      ],
      "name": "isApprovedForAll",
      "outputs": [
        {
          "internalType": "bool",
          "name": "",
          "type": "bool"
        }
      ],
      "stateMutability": "view",
      "type": "function"
    },
    {
      "inputs": [
        {
          "internalType": "uint256",
          "name": "_propertyId",
          "type": "uint256"
        }
      ],
      "name": "listProperty",
      "outputs": [],
      "stateMutability": "nonpayable",
      "type": "function"
    },
    {
      "inputs": [],
      "name": "listingCount",
      "outputs": [
        {
          "internalType": "uint256",
          "name": "",
          "type": "uint256"
        }
      ],
      "stateMutability": "view",
      "type": "function"
    },
    {
      "inputs": [
        {
          "internalType": "uint256",
          "name": "",
          "type": "uint256"
        }
      ],
      "name": "listings",
      "outputs": [
        {
          "internalType": "uint256",
          "name": "propertyId",
          "type": "uint256"
        },
        {
          "internalType": "uint256",
          "name": "sellPrice",
          "type": "uint256"
        },
        {
          "internalType": "bool",
          "name": "buyerApproved",
          "type": "bool"
        },
        {
          "internalType": "bool",
          "name": "sellerApproved",
          "type": "bool"
        },
        {
          "internalType": "uint256",
          "name": "financingId",
          "type": "uint256"
        },
        {
          "components": [
            {
              "internalType": "address",
              "name": "buyer",
              "type": "address"
            },
            {
              "internalType": "uint256",
              "name": "bidPrice",
              "type": "uint256"
            },
            {
              "internalType": "uint256",
              "name": "financingId",
              "type": "uint256"
            }
          ],
          "internalType": "struct ListingContract.AcceptedBid",
          "name": "acceptedBid",
          "type": "tuple"
        }
      ],
      "stateMutability": "view",
      "type": "function"
    },
    {
      "inputs": [],
      "name": "name",
      "outputs": [
        {
          "internalType": "string",
          "name": "",
          "type": "string"
        }
      ],
      "stateMutability": "view",
      "type": "function"
    },
    {
      "inputs": [],
      "name": "owner",
      "outputs": [
        {
          "internalType": "address",
          "name": "",
          "type": "address"
        }
      ],
      "stateMutability": "view",
      "type": "function"
    },
    {
      "inputs": [
        {
          "internalType": "uint256",
          "name": "tokenId",
          "type": "uint256"
        }
      ],
      "name": "ownerOf",
      "outputs": [
        {
          "internalType": "address",
          "name": "",
          "type": "address"
        }
      ],
      "stateMutability": "view",
      "type": "function"
    },
    {
      "inputs": [
        {
          "internalType": "uint256",
          "name": "",
          "type": "uint256"
        }
      ],
      "name": "properties",
      "outputs": [
        {
          "internalType": "uint256",
          "name": "price",
          "type": "uint256"
        }
      ],
      "stateMutability": "view",
      "type": "function"
    },
    {
      "inputs": [],
      "name": "propertyCount",
      "outputs": [
        {
          "internalType": "uint256",
          "name": "",
          "type": "uint256"
        }
      ],
      "stateMutability": "view",
      "type": "function"
    },
    {
      "inputs": [
        {
          "internalType": "uint256",
          "name": "_propertyId",
          "type": "uint256"
        }
      ],
      "name": "removeProperty",
      "outputs": [],
      "stateMutability": "nonpayable",
      "type": "function"
    },
    {
      "inputs": [],
      "name": "renounceOwnership",
      "outputs": [],
      "stateMutability": "nonpayable",
      "type": "function"
    },
    {
      "inputs": [
        {
          "internalType": "uint256",
          "name": "_loanId",
          "type": "uint256"
        },
        {
          "internalType": "uint256",
          "name": "_propertyId",
          "type": "uint256"
        },
        {
          "internalType": "uint256",
          "name": "_loanAmount",
          "type": "uint256"
        },
        {
          "internalType": "uint256",
          "name": "_durationInMonths",
          "type": "uint256"
        }
      ],
      "name": "requestFinancing",
      "outputs": [],
      "stateMutability": "nonpayable",
      "type": "function"
    },
    {
      "inputs": [
        {
          "internalType": "address",
          "name": "from",
          "type": "address"
        },
        {
          "internalType": "address",
          "name": "to",
          "type": "address"
        },
        {
          "internalType": "uint256",
          "name": "tokenId",
          "type": "uint256"
        }
      ],
      "name": "safeTransferFrom",
      "outputs": [],
      "stateMutability": "nonpayable",
      "type": "function"
    },
    {
      "inputs": [
        {
          "internalType": "address",
          "name": "from",
          "type": "address"
        },
        {
          "internalType": "address",
          "name": "to",
          "type": "address"
        },
        {
          "internalType": "uint256",
          "name": "tokenId",
          "type": "uint256"
        },
        {
          "internalType": "bytes",
          "name": "data",
          "type": "bytes"
        }
      ],
      "name": "safeTransferFrom",
      "outputs": [],
      "stateMutability": "nonpayable",
      "type": "function"
    },
    {
      "inputs": [
        {
          "internalType": "address",
          "name": "operator",
          "type": "address"
        },
        {
          "internalType": "bool",
          "name": "approved",
          "type": "bool"
        }
      ],
      "name": "setApprovalForAll",
      "outputs": [],
      "stateMutability": "nonpayable",
      "type": "function"
    },
    {
      "inputs": [
        {
          "internalType": "uint256",
          "name": "_propertyId",
          "type": "uint256"
        },
        {
          "internalType": "uint256",
          "name": "_price",
          "type": "uint256"
        }
      ],
      "name": "setPrice",
      "outputs": [],
      "stateMutability": "nonpayable",
      "type": "function"
    },
    {
      "inputs": [
        {
          "internalType": "bytes4",
          "name": "interfaceId",
          "type": "bytes4"
        }
      ],
      "name": "supportsInterface",
      "outputs": [
        {
          "internalType": "bool",
          "name": "",
          "type": "bool"
        }
      ],
      "stateMutability": "view",
      "type": "function"
    },
    {
      "inputs": [],
      "name": "symbol",
      "outputs": [
        {
          "internalType": "string",
          "name": "",
          "type": "string"
        }
      ],
      "stateMutability": "view",
      "type": "function"
    },
    {
      "inputs": [
        {
          "internalType": "uint256",
          "name": "tokenId",
          "type": "uint256"
        }
      ],
      "name": "tokenURI",
      "outputs": [
        {
          "internalType": "string",
          "name": "",
          "type": "string"
        }
      ],
      "stateMutability": "view",
      "type": "function"
    },
    {
      "inputs": [
        {
          "internalType": "address",
          "name": "from",
          "type": "address"
        },
        {
          "internalType": "address",
          "name": "to",
          "type": "address"
        },
        {
          "internalType": "uint256",
          "name": "tokenId",
          "type": "uint256"
        }
      ],
      "name": "transferFrom",
      "outputs": [],
      "stateMutability": "nonpayable",
      "type": "function"
    },
    {
      "inputs": [
        {
          "internalType": "address",
          "name": "newOwner",
          "type": "address"
        }
      ],
      "name": "transferOwnership",
      "outputs": [],
      "stateMutability": "nonpayable",
      "type": "function"
    },
    {
      "inputs": [
        {
          "internalType": "uint256",
          "name": "_propertyId",
          "type": "uint256"
        }
      ],
      "name": "unlistProperty",
      "outputs": [],
      "stateMutability": "nonpayable",
      "type": "function"
    }
  ],
  "bytecode": "0x608060405234801561001057600080fd5b50613f74806100206000396000f3fe60806040526004361061020f5760003560e01c8063918d407d11610118578063c4d66de8116100a0578063f2fde38b1161006f578063f2fde38b1461069a578063f54e1aef146106ba578063f7b10808146106da578063f7d9757714610707578063febfa1761461072757600080fd5b8063c4d66de8146105a3578063c87b56dd146105c3578063de74e57b146105e3578063e985e9c51461067a57600080fd5b8063a9b07c26116100e7578063a9b07c2614610517578063b6aee1cf1461052d578063b88d4fde1461054d578063bc43d06f1461056d578063c361a3351461058d57600080fd5b8063918d407d1461049557806395d89b41146104b55780639fcb2748146104ca578063a22cb465146104f757600080fd5b8063598647f81161019b578063715018a61161016a578063715018a6146104005780637e6b3bbf14610415578063841ad8b91461043557806387c35bc0146104555780638da5cb5b1461047757600080fd5b8063598647f81461036557806359fe18eb146103855780636352211e146103b257806370a08231146103d257600080fd5b8063107a274a116101e2578063107a274a146102c557806323b872dd146102f25780633fb924a21461031257806342842e0e146103325780635138f19f1461035257600080fd5b806301ffc9a71461021457806306fdde0314610249578063081812fc1461026b578063095ea7b3146102a3575b600080fd5b34801561022057600080fd5b5061023461022f3660046134df565b610747565b60405190151581526020015b60405180910390f35b34801561025557600080fd5b5061025e610772565b604051610240919061354c565b34801561027757600080fd5b5061028b61028636600461355f565b610804565b6040516001600160a01b039091168152602001610240565b3480156102af57600080fd5b506102c36102be36600461358d565b61082b565b005b3480156102d157600080fd5b506102e56102e036600461355f565b610945565b604051610240919061367c565b3480156102fe57600080fd5b506102c361030d36600461368f565b610a4e565b34801561031e57600080fd5b5060ff5461028b906001600160a01b031681565b34801561033e57600080fd5b506102c361034d36600461368f565b610a7f565b6102c361036036600461355f565b610a9a565b34801561037157600080fd5b506102c36103803660046136d0565b610cb0565b34801561039157600080fd5b506103a56103a036600461355f565b610f74565b604051610240919061371b565b3480156103be57600080fd5b5061028b6103cd36600461355f565b610fce565b3480156103de57600080fd5b506103f26103ed36600461372e565b61102e565b604051908152602001610240565b34801561040c57600080fd5b506102c36110b4565b34801561042157600080fd5b506102c361043036600461355f565b6110c8565b34801561044157600080fd5b506102c361045036600461355f565b611224565b34801561046157600080fd5b5061046a61140b565b604051610240919061374b565b34801561048357600080fd5b506033546001600160a01b031661028b565b3480156104a157600080fd5b506102c36104b03660046137af565b6115d6565b3480156104c157600080fd5b5061025e611929565b3480156104d657600080fd5b506104ea6104e536600461372e565b611938565b60405161024091906137df565b34801561050357600080fd5b506102c3610512366004613836565b611a99565b34801561052357600080fd5b506103f260fd5481565b34801561053957600080fd5b506102c361054836600461355f565b611aa8565b34801561055957600080fd5b506102c361056836600461391e565b611cc2565b34801561057957600080fd5b506102c361058836600461355f565b611cfa565b34801561059957600080fd5b506103f260fb5481565b3480156105af57600080fd5b506102c36105be36600461372e565b611e14565b3480156105cf57600080fd5b5061025e6105de36600461355f565b611f4e565b3480156105ef57600080fd5b506106686105fe36600461355f565b60fe602090815260009182526040918290208054600182015460028301546003840154865160608101885260058601546001600160a01b03168152600686015496810196909652600790940154958501959095529093909260ff8083169361010090930416919086565b6040516102409695949392919061399e565b34801561068657600080fd5b506102346106953660046139f9565b61205e565b3480156106a657600080fd5b506102c36106b536600461372e565b61208c565b3480156106c657600080fd5b506102c36106d5366004613a27565b612105565b3480156106e657600080fd5b506103f26106f536600461355f565b60fc6020526000908152604090205481565b34801561071357600080fd5b506102c36107223660046136d0565b6121d8565b34801561073357600080fd5b506102c3610742366004613a80565b612245565b60006001600160e01b03198216632483248360e11b148061076c575061076c826123ae565b92915050565b60606097805461078190613ab2565b80601f01602080910402602001604051908101604052809291908181526020018280546107ad90613ab2565b80156107fa5780601f106107cf576101008083540402835291602001916107fa565b820191906000526020600020905b8154815290600101906020018083116107dd57829003601f168201915b5050505050905090565b600061080f826123fe565b506000908152609b60205260409020546001600160a01b031690565b600061083682610fce565b9050806001600160a01b0316836001600160a01b0316036108a85760405162461bcd60e51b815260206004820152602160248201527f4552433732313a20617070726f76616c20746f2063757272656e74206f776e656044820152603960f91b60648201526084015b60405180910390fd5b336001600160a01b03821614806108c457506108c4813361205e565b6109365760405162461bcd60e51b815260206004820152603d60248201527f4552433732313a20617070726f76652063616c6c6572206973206e6f7420746f60448201527f6b656e206f776e6572206f7220617070726f76656420666f7220616c6c000000606482015260840161089f565b610940838361244e565b505050565b61094d6133c4565b600082815260fe60209081526040808320815160e08101835281548152600182015481850152600282015460ff8082161515838601526101009091041615156060820152600382015460808201526004820180548451818702810187019095528085529195929460a0870194939192919084015b82821015610a09576000848152602090819020604080518082019091526002850290910180546001600160a01b031682526001908101548284015290835290920191016109c1565b505050908252506040805160608101825260058401546001600160a01b0316815260068401546020828101919091526007909401549181019190915291015292915050565b610a5833826124bc565b610a745760405162461bcd60e51b815260040161089f90613aec565b61094083838361251a565b61094083838360405180602001604052806000815250611cc2565b80610aa48161266c565b610ac15760405163b1e4c4d160e01b815260040160405180910390fd5b600082815260fe60205260409020548290600190821480610af557604051630cdb1f4760e11b815260040160405180910390fd5b81158015610b005750805b15610b1e57604051630bbe4b0b60e31b815260040160405180910390fd5b600085815260fe6020526040902060050154859033906001600160a01b03168114610b5c576040516382e464c960e01b815260040160405180910390fd5b600087815260fe6020526040902060060154341015610bb45760405162461bcd60e51b8152602060048201526014602482015273125b9cdd59999a58da595b9d081c185e5b595b9d60621b604482015260640161089f565b600087815260fe602052604090206002015460ff1615610c255760405162461bcd60e51b815260206004820152602660248201527f5472616e7366657220616c726561647920617070726f7665642062792074686560448201526510313abcb2b960d11b606482015260840161089f565b600087815260fe60205260409020600201805460ff19166001179055610c483390565b600088815260fe60205260409020600601546001600160a01b0391909116906108fc90610c759034613b4f565b6040518115909202916000818181858888f19350505050158015610c9d573d6000803e3d6000fd5b50610ca787612689565b50505050505050565b81610cba8161266c565b610cd75760405163b1e4c4d160e01b815260040160405180910390fd5b600083815260fe60205260409020548390600190821480610d0b57604051630cdb1f4760e11b815260040160405180910390fd5b81158015610d165750805b15610d3457604051630bbe4b0b60e31b815260040160405180910390fd5b8533600080805b600085815260fe6020526040902060040154811015610db357600085815260fe6020526040902060040180546001600160a01b038616919083908110610d8357610d83613b62565b60009182526020909120600290910201546001600160a01b031603610dab5760019150610db3565b600101610d3b565b50818015610dbf575080155b15610ddd57604051638296b48d60e01b815260040160405180910390fd5b81158015610de85750805b15610e06576040516314d2f4d760e01b815260040160405180910390fd5b610e0f8a610fce565b6001600160a01b03163303610e595760405162461bcd60e51b815260206004820152601060248201526f13dddb995c8818d85b9b9bdd08189a5960821b604482015260640161089f565b60008a815260fe60205260409020600501546001600160a01b0316158015610e90575060008a815260fe6020526040902060060154155b610ece5760405162461bcd60e51b815260206004820152600f60248201526e109a5908185b1c9958591e481cd95d608a1b604482015260640161089f565b60008a815260fe60205260409081902081518083019092526004019080336001600160a01b03908116825260209182018d9052835460018082018655600095865294839020845160029092020180546001600160a01b031916919092161781559181015191909201556040518b81527fee046dfd9e835fa8731932677c785a4d0b621036ae894acf04d1b38ee2b6cc64910160405180910390a150505050505050505050565b610f9860405180606001604052806000815260200160008152602001606081525090565b60408051606081018252838152600084815260fc6020908152908390205490820152908101610fc684611f4e565b905292915050565b6000818152609960205260408120546001600160a01b03168061076c5760405162461bcd60e51b8152602060048201526018602482015277115490cdcc8c4e881a5b9d985b1a59081d1bdad95b88125160421b604482015260640161089f565b60006001600160a01b0382166110985760405162461bcd60e51b815260206004820152602960248201527f4552433732313a2061646472657373207a65726f206973206e6f7420612076616044820152683634b21037bbb732b960b91b606482015260840161089f565b506001600160a01b03166000908152609a602052604090205490565b6110bc612af9565b6110c66000612b53565b565b806110d28161266c565b6110ef5760405163b1e4c4d160e01b815260040160405180910390fd5b81336110fa82610fce565b6001600160a01b03161461112157604051639a517dab60e01b815260040160405180910390fd5b600083815260fe6020526040902054839060019082148061115557604051630cdb1f4760e11b815260040160405180910390fd5b811580156111605750805b1561117e57604051630bbe4b0b60e31b815260040160405180910390fd5b600086815260fe6020526040902060020154610100900460ff16156111f55760405162461bcd60e51b815260206004820152602760248201527f5472616e7366657220616c726561647920617070726f766564206279207468656044820152661039b2b63632b960c91b606482015260840161089f565b600086815260fe60205260409020600201805461ff00191661010017905561121c86612689565b505050505050565b8061122e8161266c565b61124b5760405163b1e4c4d160e01b815260040160405180910390fd5b813361125682610fce565b6001600160a01b03161461127d57604051639a517dab60e01b815260040160405180910390fd5b600083815260fe602052604090205483906001908214806112b157604051630cdb1f4760e11b815260040160405180910390fd5b811580156112bc5750805b156112da57604051630bbe4b0b60e31b815260040160405180910390fd5b600086815260fe602052604090206002015460ff161580156113135750600086815260fe6020526040902060020154610100900460ff16155b61135f5760405162461bcd60e51b815260206004820152601a60248201527f50726f706572747920697320756e646572207472616e73666572000000000000604482015260640161089f565b60fd805490600061136f83613b78565b9091555050600086815260fe602052604081208181556001810182905560028101805461ffff1916905560038101829055906113ae600483018261342f565b506005810180546001600160a01b03191690556000600682018190556007909101556040518681527f1ab07bb87a0c78eb0f29c0162ea68b3ac8b59a655d06e64e23ec24522ec344189060200160405180910390a1505050505050565b6060600060fd5467ffffffffffffffff81111561142a5761142a613869565b60405190808252806020026020018201604052801561146357816020015b6114506133c4565b8152602001906001900390816114485790505b509050600060015b60fb5481116115ce57600081815260fe60205260409020548190036115b357600081815260fe60209081526040808320815160e08101835281548152600182015481850152600282015460ff8082161515838601526101009091041615156060820152600382015460808201526004820180548451818702810187019095528085529195929460a0870194939192919084015b82821015611546576000848152602090819020604080518082019091526002850290910180546001600160a01b031682526001908101548284015290835290920191016114fe565b505050908252506040805160608101825260058401546001600160a01b03168152600684015460208281019190915260079094015491810191909152910152835184908490811061159957611599613b62565b602002602001018190525081806115af90613b8f565b9250505b60fd5482146115ce57806115c681613b8f565b91505061146b565b509092915050565b816115e08161266c565b6115fd5760405163b1e4c4d160e01b815260040160405180910390fd5b823361160882610fce565b6001600160a01b03161461162f57604051639a517dab60e01b815260040160405180910390fd5b600084815260fe6020526040902054849060019082148061166357604051630cdb1f4760e11b815260040160405180910390fd5b8115801561166e5750805b1561168c57604051630bbe4b0b60e31b815260040160405180910390fd5b8660008082815260fe60205260409020600501546001600160a01b0316156116c75760405163928156d160e01b815260040160405180910390fd5b60005b60008a815260fe60205260409020600401548110156119045760008a815260fe6020526040902060040180546001600160a01b038b1691908390811061171257611712613b62565b60009182526020909120600290910201546001600160a01b0316036118fc5760ff5460008b815260fe60205260408082206003015490516329818a0760e21b815291926001600160a01b03169163a606281c916117759160040190815260200190565b60e060405180830381865afa158015611792573d6000803e3d6000fd5b505050506040513d601f19601f820116820180604052508101906117b69190613ba8565b60008c815260fe60205260409020600401805491925090839081106117dd576117dd613b62565b90600052602060002090600202016001015481608001511115611813576040516351616ae360e11b815260040160405180910390fd5b60405180606001604052808b6001600160a01b0316815260200160fe60008e8152602001908152602001600020600401848154811061185457611854613b62565b600091825260208083206002928302016001015484529283018290528e825260fe835260409182902084516005820180546001600160a01b0319166001600160a01b0390921691909117905584840151600682015593820151600785015592909201805461010061ff001990911617905590518c81527fa573f6e77cec35b255a3fb35b673473461473d63e293d50c5eba0d7d18942383910160405180910390a1505061191e565b6001016116ca565b50604051638296b48d60e01b815260040160405180910390fd5b505050505050505050565b60606098805461078190613ab2565b60606000806119468461102e565b905060008167ffffffffffffffff81111561196357611963613869565b6040519080825280602002602001820160405280156119b857816020015b6119a560405180606001604052806000815260200160008152602001606081525090565b8152602001906001900390816119815790505b50905060015b60fb548111611a9057856001600160a01b03166119da82610fce565b6001600160a01b031603611a7757808285815181106119fb576119fb613b62565b60209081029190910181015191909152600082815260fc90915260409020548251839086908110611a2e57611a2e613b62565b60200260200101516020018181525050611a4781611f4e565b828581518110611a5957611a59613b62565b6020026020010151604001819052508380611a7390613b8f565b9450505b838314611a905780611a8881613b8f565b9150506119be565b50949350505050565b611aa4338383612ba5565b5050565b80611ab28161266c565b611acf5760405163b1e4c4d160e01b815260040160405180910390fd5b8133611ada82610fce565b6001600160a01b031614611b0157604051639a517dab60e01b815260040160405180910390fd5b600083815260fe602052604081205484919082148015611b3457604051630bbe4b0b60e31b815260040160405180910390fd5b600086815260fc60205260409020548690801580611bbd575060ff5460405163132fd1b360e11b8152600481018490526001600160a01b039091169063265fa36690602401602060405180830381865afa158015611b96573d6000803e3d6000fd5b505050506040513d601f19601f82011682018060405250810190611bba9190613c24565b81105b15611bdb576040516351616ae360e11b815260040160405180910390fd5b60fd8054906000611beb83613b8f565b9091555050600088815260fe602090815260408083208b815560fc9092529182902054600182015560ff54915163f3de41b560e01b8152600481018b905290916001600160a01b03169063f3de41b590602401602060405180830381865afa158015611c5b573d6000803e3d6000fd5b505050506040513d601f19601f82011682018060405250810190611c7f9190613c24565b60038201556040518981527fdd11eaf2db1c16b640194c05b02faa4b8bc4abf29c61428e990e72c6c15cff779060200160405180910390a1505050505050505050565b611ccc33836124bc565b611ce85760405162461bcd60e51b815260040161089f90613aec565b611cf484848484612c73565b50505050565b80611d048161266c565b611d215760405163b1e4c4d160e01b815260040160405180910390fd5b8133611d2c82610fce565b6001600160a01b031614611d5357604051639a517dab60e01b815260040160405180910390fd5b611d5c8361266c565b611db45760405162461bcd60e51b8152602060048201526024808201527f50726f70657274792077697468207468697320494420646f6573206e6f7420656044820152631e1a5cdd60e21b606482015260840161089f565b611dbd83612ca6565b600083815260fc6020526040812055336001600160a01b03167f8e2f5fcc57c31738b03aa91accdd55b13dc355a4fa1707d953f49c973e18e6e484604051611e0791815260200190565b60405180910390a2505050565b600054610100900460ff1615808015611e345750600054600160ff909116105b80611e4e5750303b158015611e4e575060005460ff166001145b611eb15760405162461bcd60e51b815260206004820152602e60248201527f496e697469616c697a61626c653a20636f6e747261637420697320616c72656160448201526d191e481a5b9a5d1a585b1a5e995960921b606482015260840161089f565b6000805460ff191660011790558015611ed4576000805461ff0019166101001790555b611edc612ce6565b611ee4612d15565b600060fd5560ff80546001600160a01b0319166001600160a01b0384161790558015611aa4576000805461ff0019169055604051600181527f7f26b83ff96e1f2b6a682f133852f6798a09c465da95921460cefb3847402498906020015b60405180910390a15050565b6060611f59826123fe565b600082815260c9602052604081208054611f7290613ab2565b80601f0160208091040260200160405190810160405280929190818152602001828054611f9e90613ab2565b8015611feb5780601f10611fc057610100808354040283529160200191611feb565b820191906000526020600020905b815481529060010190602001808311611fce57829003601f168201915b50505050509050600061200960408051602081019091526000815290565b9050805160000361201b575092915050565b81511561204d578082604051602001612035929190613c3d565b60405160208183030381529060405292505050919050565b61205684612d62565b949350505050565b6001600160a01b039182166000908152609c6020908152604080832093909416825291909152205460ff1690565b612094612af9565b6001600160a01b0381166120f95760405162461bcd60e51b815260206004820152602660248201527f4f776e61626c653a206e6577206f776e657220697320746865207a65726f206160448201526564647265737360d01b606482015260840161089f565b61210281612b53565b50565b600082511161214c5760405162461bcd60e51b81526020600482015260136024820152725552492063616e6e6f7420626520656d70747960681b604482015260640161089f565b60fb805490600061215c83613b8f565b9091555050604080516020808201835283825260fb54600090815260fc90915291909120905190556121903360fb54612dd6565b61219c60fb5483612df0565b60fb5460405190815233907f2728c9d3205d667bbc0eefdfeda366261b4d021949630c047f3e5834b30611ab9060200160405180910390a25050565b816121e28161266c565b6121ff5760405163b1e4c4d160e01b815260040160405180910390fd5b823361220a82610fce565b6001600160a01b03161461223157604051639a517dab60e01b815260040160405180910390fd5b5050600091825260fc602052604090912055565b8261224f8161266c565b61226c5760405163b1e4c4d160e01b815260040160405180910390fd5b600084815260fe602052604090205484906001908214806122a057604051630cdb1f4760e11b815260040160405180910390fd5b811580156122ab5750805b156122c957604051630bbe4b0b60e31b815260040160405180910390fd5b600087815260fe6020526040902060050154879033906001600160a01b03168114612307576040516382e464c960e01b815260040160405180910390fd5b60ff5460405163118f81d360e21b8152600481018c9052602481018b9052604481018a9052606481018990526000916001600160a01b03169063463e074c906084016020604051808303816000875af1158015612368573d6000803e3d6000fd5b505050506040513d601f19601f8201168201806040525081019061238c9190613c24565b60009a8b5260fe6020526040909a206007019990995550505050505050505050565b60006001600160e01b031982166380ac58cd60e01b14806123df57506001600160e01b03198216635b5e139f60e01b145b8061076c57506301ffc9a760e01b6001600160e01b031983161461076c565b6124078161266c565b6121025760405162461bcd60e51b8152602060048201526018602482015277115490cdcc8c4e881a5b9d985b1a59081d1bdad95b88125160421b604482015260640161089f565b6000818152609b6020526040902080546001600160a01b0319166001600160a01b038416908117909155819061248382610fce565b6001600160a01b03167f8c5be1e5ebec7d5bd14f71427d1e84f3dd0314c0f7b2291e5b200ac8c7c3b92560405160405180910390a45050565b6000806124c883610fce565b9050806001600160a01b0316846001600160a01b031614806124ef57506124ef818561205e565b806120565750836001600160a01b031661250884610804565b6001600160a01b031614949350505050565b826001600160a01b031661252d82610fce565b6001600160a01b0316146125535760405162461bcd60e51b815260040161089f90613c6c565b6001600160a01b0382166125b55760405162461bcd60e51b8152602060048201526024808201527f4552433732313a207472616e7366657220746f20746865207a65726f206164646044820152637265737360e01b606482015260840161089f565b826001600160a01b03166125c882610fce565b6001600160a01b0316146125ee5760405162461bcd60e51b815260040161089f90613c6c565b6000818152609b6020908152604080832080546001600160a01b03199081169091556001600160a01b03878116808652609a855283862080546000190190559087168086528386208054600101905586865260999094528285208054909216841790915590518493600080516020613f1f83398151915291a4505050565b6000908152609960205260409020546001600160a01b0316151590565b806126938161266c565b6126b05760405163b1e4c4d160e01b815260040160405180910390fd5b600082815260fe6020526040902060020154829060ff1615806126ea5750600081815260fe6020526040902060020154610100900460ff16155b1561270857604051637c3e890960e11b815260040160405180910390fd5b600083815260fe60205260408120600501546001600160a01b03169061272d85610fce565b600086815260fe60205260408082206006015460ff5491516329818a0760e21b8152600481018a9052939450926001600160a01b039091169063a606281c9060240160e060405180830381865afa15801561278c573d6000803e3d6000fd5b505050506040513d601f19601f820116820180604052508101906127b09190613ba8565b90506003816060015160058111156127ca576127ca613cb1565b036129a05760ff5460405163132fd1b360e11b8152600481018990526000916001600160a01b03169063265fa36690602401602060405180830381865afa158015612819573d6000803e3d6000fd5b505050506040513d601f19601f8201168201806040525081019061283d9190613c24565b9050600061284b8285613b4f565b60ff546040808601519051632820036560e11b81529293506000926001600160a01b039092169163504006ca916128889160040190815260200190565b6040805180830381865afa1580156128a4573d6000803e3d6000fd5b505050506040513d601f19601f820116820180604052508101906128c89190613cc7565b516040519091506001600160a01b0382169084156108fc029085906000818181858888f19350505050158015612902573d6000803e3d6000fd5b506040516001600160a01b0387169083156108fc029084906000818181858888f19350505050158015612939573d6000803e3d6000fd5b5060ff54604051630cb7d90160e41b8152600481018c90526001600160a01b039091169063cb7d901090602401600060405180830381600087803b15801561298057600080fd5b505af1158015612994573d6000803e3d6000fd5b505050505050506129e8565b600087815260fe60205260408082206006015490516001600160a01b0386169282156108fc02929190818181858888f193505050501580156129e6573d6000803e3d6000fd5b505b6129f383858961251a565b60ff54600088815260fe602052604090819020600301549051630c15c77160e01b8152600481018a905260248101919091526001600160a01b0390911690630c15c77190604401600060405180830381600087803b158015612a5457600080fd5b505af1158015612a68573d6000803e3d6000fd5b505050600088815260fe602052604081208181556001810182905560028101805461ffff19169055600381018290559150612aa6600483018261342f565b506005810180546001600160a01b0319169055600060068201819055600790910181905560405188916001600160a01b038781169290871691600080516020613f1f83398151915291a450505050505050565b6033546001600160a01b031633146110c65760405162461bcd60e51b815260206004820181905260248201527f4f776e61626c653a2063616c6c6572206973206e6f7420746865206f776e6572604482015260640161089f565b603380546001600160a01b038381166001600160a01b0319831681179093556040519116919082907f8be0079c531659141344cd1fd0a4f28419497f9722a3daafe3b4186f6b6457e090600090a35050565b816001600160a01b0316836001600160a01b031603612c065760405162461bcd60e51b815260206004820152601960248201527f4552433732313a20617070726f766520746f2063616c6c657200000000000000604482015260640161089f565b6001600160a01b038381166000818152609c6020908152604080832094871680845294825291829020805460ff191686151590811790915591519182527f17307eab39ab6107e8899845ad3d59bd9653f200f220920489ca2b5937696c31910160405180910390a3505050565b612c7e84848461251a565b612c8a84848484612ea5565b611cf45760405162461bcd60e51b815260040161089f90613d1f565b612caf81612fa6565b600081815260c9602052604090208054612cc890613ab2565b15905061210257600081815260c96020526040812061210291613450565b600054610100900460ff16612d0d5760405162461bcd60e51b815260040161089f90613d71565b6110c6613029565b612d5b6040518060400160405280600881526020016750726f706572747960c01b81525060405180604001604052806004815260200163050524f560e41b815250613059565b600060fb55565b6060612d6d826123fe565b6000612d8460408051602081019091526000815290565b90506000815111612da45760405180602001604052806000815250612dcf565b80612dae8461308a565b604051602001612dbf929190613c3d565b6040516020818303038152906040525b9392505050565b611aa482826040518060200160405280600081525061311e565b612df98261266c565b612e5c5760405162461bcd60e51b815260206004820152602e60248201527f45524337323155524953746f726167653a2055524920736574206f66206e6f6e60448201526d32bc34b9ba32b73a103a37b5b2b760911b606482015260840161089f565b600082815260c960205260409020612e748282613e04565b506040518281527ff8e1a15aba9398e019f0b49df1a4fde98ee17ae345cb5f6b5e2c27f5033e8ce790602001611f42565b60006001600160a01b0384163b15612f9b57604051630a85bd0160e11b81526001600160a01b0385169063150b7a0290612ee9903390899088908890600401613ec4565b6020604051808303816000875af1925050508015612f24575060408051601f3d908101601f19168201909252612f2191810190613f01565b60015b612f81573d808015612f52576040519150601f19603f3d011682016040523d82523d6000602084013e612f57565b606091505b508051600003612f795760405162461bcd60e51b815260040161089f90613d1f565b805181602001fd5b6001600160e01b031916630a85bd0160e11b149050612056565b506001949350505050565b6000612fb182610fce565b9050612fbc82610fce565b6000838152609b6020908152604080832080546001600160a01b03199081169091556001600160a01b038516808552609a84528285208054600019019055878552609990935281842080549091169055519293508492600080516020613f1f833981519152908390a45050565b600054610100900460ff166130505760405162461bcd60e51b815260040161089f90613d71565b6110c633612b53565b600054610100900460ff166130805760405162461bcd60e51b815260040161089f90613d71565b611aa48282613151565b6060600061309783613191565b600101905060008167ffffffffffffffff8111156130b7576130b7613869565b6040519080825280601f01601f1916602001820160405280156130e1576020820181803683370190505b5090508181016020015b600019016f181899199a1a9b1b9c1cb0b131b232b360811b600a86061a8153600a85049450846130eb575b509392505050565b6131288383613269565b6131356000848484612ea5565b6109405760405162461bcd60e51b815260040161089f90613d1f565b600054610100900460ff166131785760405162461bcd60e51b815260040161089f90613d71565b60976131848382613e04565b5060986109408282613e04565b60008072184f03e93ff9f4daa797ed6e38ed64bf6a1f0160401b83106131d05772184f03e93ff9f4daa797ed6e38ed64bf6a1f0160401b830492506040015b6d04ee2d6d415b85acef810000000083106131fc576d04ee2d6d415b85acef8100000000830492506020015b662386f26fc10000831061321a57662386f26fc10000830492506010015b6305f5e1008310613232576305f5e100830492506008015b612710831061324657612710830492506004015b60648310613258576064830492506002015b600a831061076c5760010192915050565b6001600160a01b0382166132bf5760405162461bcd60e51b815260206004820181905260248201527f4552433732313a206d696e7420746f20746865207a65726f2061646472657373604482015260640161089f565b6132c88161266c565b156133155760405162461bcd60e51b815260206004820152601c60248201527f4552433732313a20746f6b656e20616c7265616479206d696e74656400000000604482015260640161089f565b61331e8161266c565b1561336b5760405162461bcd60e51b815260206004820152601c60248201527f4552433732313a20746f6b656e20616c7265616479206d696e74656400000000604482015260640161089f565b6001600160a01b0382166000818152609a6020908152604080832080546001019055848352609990915280822080546001600160a01b031916841790555183929190600080516020613f1f833981519152908290a45050565b6040518060e001604052806000815260200160008152602001600015158152602001600015158152602001600081526020016060815260200161342a604051806060016040528060006001600160a01b0316815260200160008152602001600081525090565b905290565b5080546000825560020290600052602060002090810190612102919061348a565b50805461345c90613ab2565b6000825580601f1061346c575050565b601f01602090049060005260206000209081019061210291906134b4565b5b808211156134b05780546001600160a01b03191681556000600182015560020161348b565b5090565b5b808211156134b057600081556001016134b5565b6001600160e01b03198116811461210257600080fd5b6000602082840312156134f157600080fd5b8135612dcf816134c9565b60005b838110156135175781810151838201526020016134ff565b50506000910152565b600081518084526135388160208601602086016134fc565b601f01601f19169290920160200192915050565b602081526000612dcf6020830184613520565b60006020828403121561357157600080fd5b5035919050565b6001600160a01b038116811461210257600080fd5b600080604083850312156135a057600080fd5b82356135ab81613578565b946020939093013593505050565b60006101208084018351855260208085015181870152604080860151151560408801526060860151151560608801526080860151608088015260a08601518460a08901528394508051808552610140890195508382019450600091505b8082101561364857845180516001600160a01b0316875284015184870152948201949383019360019190910190613616565b505050505060c083015161311660c086018280516001600160a01b0316825260208082015190830152604090810151910152565b602081526000612dcf60208301846135b9565b6000806000606084860312156136a457600080fd5b83356136af81613578565b925060208401356136bf81613578565b929592945050506040919091013590565b600080604083850312156136e357600080fd5b50508035926020909101359150565b805182526020810151602083015260006040820151606060408501526120566060850182613520565b602081526000612dcf60208301846136f2565b60006020828403121561374057600080fd5b8135612dcf81613578565b600060208083016020845280855180835260408601915060408160051b87010192506020870160005b828110156137a257603f198886030184526137908583516135b9565b94509285019290850190600101613774565b5092979650505050505050565b600080604083850312156137c257600080fd5b8235915060208301356137d481613578565b809150509250929050565b600060208083016020845280855180835260408601915060408160051b87010192506020870160005b828110156137a257603f198886030184526138248583516136f2565b94509285019290850190600101613808565b6000806040838503121561384957600080fd5b823561385481613578565b9150602083013580151581146137d457600080fd5b634e487b7160e01b600052604160045260246000fd5b60405160e0810167ffffffffffffffff811182821017156138a2576138a2613869565b60405290565b600067ffffffffffffffff808411156138c3576138c3613869565b604051601f8501601f19908116603f011681019082821181831017156138eb576138eb613869565b8160405280935085815286868601111561390457600080fd5b858560208301376000602087830101525050509392505050565b6000806000806080858703121561393457600080fd5b843561393f81613578565b9350602085013561394f81613578565b925060408501359150606085013567ffffffffffffffff81111561397257600080fd5b8501601f8101871361398357600080fd5b613992878235602084016138a8565b91505092959194509250565b86815260208101869052841515604082015283151560608201526080810183905261010081016139ee60a083018480516001600160a01b0316825260208082015190830152604090810151910152565b979650505050505050565b60008060408385031215613a0c57600080fd5b8235613a1781613578565b915060208301356137d481613578565b60008060408385031215613a3a57600080fd5b823567ffffffffffffffff811115613a5157600080fd5b8301601f81018513613a6257600080fd5b613a71858235602084016138a8565b95602094909401359450505050565b60008060008060808587031215613a9657600080fd5b5050823594602084013594506040840135936060013592509050565b600181811c90821680613ac657607f821691505b602082108103613ae657634e487b7160e01b600052602260045260246000fd5b50919050565b6020808252602d908201527f4552433732313a2063616c6c6572206973206e6f7420746f6b656e206f776e6560408201526c1c881bdc88185c1c1c9bdd9959609a1b606082015260800190565b634e487b7160e01b600052601160045260246000fd5b8181038181111561076c5761076c613b39565b634e487b7160e01b600052603260045260246000fd5b600081613b8757613b87613b39565b506000190190565b600060018201613ba157613ba1613b39565b5060010190565b600060e08284031215613bba57600080fd5b613bc261387f565b825181526020830151613bd481613578565b602082015260408381015190820152606083015160068110613bf557600080fd5b806060830152506080830151608082015260a083015160a082015260c083015160c08201528091505092915050565b600060208284031215613c3657600080fd5b5051919050565b60008351613c4f8184602088016134fc565b835190830190613c638183602088016134fc565b01949350505050565b60208082526025908201527f4552433732313a207472616e736665722066726f6d20696e636f72726563742060408201526437bbb732b960d91b606082015260800190565b634e487b7160e01b600052602160045260246000fd5b600060408284031215613cd957600080fd5b6040516040810181811067ffffffffffffffff82111715613cfc57613cfc613869565b6040528251613d0a81613578565b81526020928301519281019290925250919050565b60208082526032908201527f4552433732313a207472616e7366657220746f206e6f6e20455243373231526560408201527131b2b4bb32b91034b6b83632b6b2b73a32b960711b606082015260800190565b6020808252602b908201527f496e697469616c697a61626c653a20636f6e7472616374206973206e6f74206960408201526a6e697469616c697a696e6760a81b606082015260800190565b601f821115610940576000816000526020600020601f850160051c81016020861015613de55750805b601f850160051c820191505b8181101561121c57828155600101613df1565b815167ffffffffffffffff811115613e1e57613e1e613869565b613e3281613e2c8454613ab2565b84613dbc565b602080601f831160018114613e675760008415613e4f5750858301515b600019600386901b1c1916600185901b17855561121c565b600085815260208120601f198616915b82811015613e9657888601518255948401946001909101908401613e77565b5085821015613eb45787850151600019600388901b60f8161c191681555b5050505050600190811b01905550565b6001600160a01b0385811682528416602082015260408101839052608060608201819052600090613ef790830184613520565b9695505050505050565b600060208284031215613f1357600080fd5b8151612dcf816134c956feddf252ad1be2c89b69c2b068fc378daa952ba7f163c4a11628f55a4df523b3efa26469706673582212206499f6b3b3e932a66e3e5fd79eefb6f708504ee7394a20d95c3745b9fd04221d64736f6c63430008170033",
  "linkReferences": {},
  "deployedLinkReferences": {}
}