{
  "_format": "hh-sol-artifact-1",
  "contractName": "PropertyV1",
  "sourceName": "contracts/PropertyV1.sol",
  "abi": [
    {
      "anonymous": false,
      "inputs": [
        {
          "indexed": true,
          "internalType": "address",
          "name": "_owner",
          "type": "address"
        },
        {
          "indexed": false,
          "internalType": "uint256",
          "name": "_propertyId",
          "type": "uint256"
        }
      ],
      "name": "Add",
      "type": "event"
    },
    {
      "anonymous": false,
      "inputs": [
        {
          "indexed": true,
          "internalType": "address",
          "name": "owner",
          "type": "address"
        },
        {
          "indexed": true,
          "internalType": "address",
          "name": "approved",
          "type": "address"
        },
        {
          "indexed": true,
          "internalType": "uint256",
          "name": "tokenId",
          "type": "uint256"
        }
      ],
      "name": "Approval",
      "type": "event"
    },
    {
      "anonymous": false,
      "inputs": [
        {
          "indexed": true,
          "internalType": "address",
          "name": "owner",
          "type": "address"
        },
        {
          "indexed": true,
          "internalType": "address",
          "name": "operator",
          "type": "address"
        },
        {
          "indexed": false,
          "internalType": "bool",
          "name": "approved",
          "type": "bool"
        }
      ],
      "name": "ApprovalForAll",
      "type": "event"
    },
    {
      "anonymous": false,
      "inputs": [
        {
          "indexed": false,
          "internalType": "uint256",
          "name": "_fromTokenId",
          "type": "uint256"
        },
        {
          "indexed": false,
          "internalType": "uint256",
          "name": "_toTokenId",
          "type": "uint256"
        }
      ],
      "name": "BatchMetadataUpdate",
      "type": "event"
    },
    {
      "anonymous": false,
      "inputs": [
        {
          "indexed": false,
          "internalType": "uint8",
          "name": "version",
          "type": "uint8"
        }
      ],
      "name": "Initialized",
      "type": "event"
    },
    {
      "anonymous": false,
      "inputs": [
        {
          "indexed": false,
          "internalType": "uint256",
          "name": "_tokenId",
          "type": "uint256"
        }
      ],
      "name": "MetadataUpdate",
      "type": "event"
    },
    {
      "anonymous": false,
      "inputs": [
        {
          "indexed": true,
          "internalType": "address",
          "name": "previousOwner",
          "type": "address"
        },
        {
          "indexed": true,
          "internalType": "address",
          "name": "newOwner",
          "type": "address"
        }
      ],
      "name": "OwnershipTransferred",
      "type": "event"
    },
    {
      "anonymous": false,
      "inputs": [
        {
          "indexed": true,
          "internalType": "address",
          "name": "_owner",
          "type": "address"
        },
        {
          "indexed": false,
          "internalType": "uint256",
          "name": "_propertyId",
          "type": "uint256"
        }
      ],
      "name": "Remove",
      "type": "event"
    },
    {
      "anonymous": false,
      "inputs": [
        {
          "indexed": true,
          "internalType": "address",
          "name": "from",
          "type": "address"
        },
        {
          "indexed": true,
          "internalType": "address",
          "name": "to",
          "type": "address"
        },
        {
          "indexed": true,
          "internalType": "uint256",
          "name": "tokenId",
          "type": "uint256"
        }
      ],
      "name": "Transfer",
      "type": "event"
    },
    {
      "anonymous": false,
      "inputs": [
        {
          "indexed": true,
          "internalType": "address",
          "name": "_seller",
          "type": "address"
        },
        {
          "indexed": true,
          "internalType": "address",
          "name": "_buyer",
          "type": "address"
        },
        {
          "indexed": false,
          "internalType": "uint256",
          "name": "_propertyId",
          "type": "uint256"
        },
        {
          "indexed": false,
          "internalType": "uint256",
          "name": "_sellPrice",
          "type": "uint256"
        }
      ],
      "name": "Transfer",
      "type": "event"
    },
    {
      "inputs": [
        {
          "internalType": "string",
          "name": "_uri",
          "type": "string"
        },
        {
          "internalType": "uint256",
          "name": "_cost",
          "type": "uint256"
        }
      ],
      "name": "addProperty",
      "outputs": [],
      "stateMutability": "nonpayable",
      "type": "function"
    },
    {
      "inputs": [
        {
          "internalType": "uint256",
          "name": "_propertyId",
          "type": "uint256"
        },
        {
          "internalType": "address",
          "name": "_buyer",
          "type": "address"
        }
      ],
      "name": "agreeOnBuyer",
      "outputs": [],
      "stateMutability": "nonpayable",
      "type": "function"
    },
    {
      "inputs": [
        {
          "internalType": "address",
          "name": "to",
          "type": "address"
        },
        {
          "internalType": "uint256",
          "name": "tokenId",
          "type": "uint256"
        }
      ],
      "name": "approve",
      "outputs": [],
      "stateMutability": "nonpayable",
      "type": "function"
    },
    {
      "inputs": [
        {
          "internalType": "uint256",
          "name": "_propertyId",
          "type": "uint256"
        }
      ],
      "name": "approveTransferAsBuyer",
      "outputs": [],
      "stateMutability": "payable",
      "type": "function"
    },
    {
      "inputs": [
        {
          "internalType": "uint256",
          "name": "_propertyId",
          "type": "uint256"
        }
      ],
      "name": "approveTransferAsSeller",
      "outputs": [],
      "stateMutability": "nonpayable",
      "type": "function"
    },
    {
      "inputs": [
        {
          "internalType": "address",
          "name": "owner",
          "type": "address"
        }
      ],
      "name": "balanceOf",
      "outputs": [
        {
          "internalType": "uint256",
          "name": "",
          "type": "uint256"
        }
      ],
      "stateMutability": "view",
      "type": "function"
    },
    {
      "inputs": [
        {
          "internalType": "uint256",
          "name": "_propertyId",
          "type": "uint256"
        }
      ],
      "name": "cancelPropertySale",
      "outputs": [],
      "stateMutability": "nonpayable",
      "type": "function"
    },
    {
      "inputs": [
        {
          "internalType": "uint256",
          "name": "_propertyId",
          "type": "uint256"
        }
      ],
      "name": "clearAgreedBuyer",
      "outputs": [],
      "stateMutability": "nonpayable",
      "type": "function"
    },
    {
      "inputs": [
        {
          "internalType": "uint256",
          "name": "tokenId",
          "type": "uint256"
        }
      ],
      "name": "getApproved",
      "outputs": [
        {
          "internalType": "address",
          "name": "",
          "type": "address"
        }
      ],
      "stateMutability": "view",
      "type": "function"
    },
    {
      "inputs": [
        {
          "internalType": "address",
          "name": "_owner",
          "type": "address"
        }
      ],
      "name": "getPropertiesByOwner",
      "outputs": [
        {
          "components": [
            {
              "internalType": "uint256",
              "name": "cost",
              "type": "uint256"
            },
            {
              "internalType": "uint256",
              "name": "propertyId",
              "type": "uint256"
            },
            {
              "internalType": "string",
              "name": "uri",
              "type": "string"
            },
            {
              "internalType": "address",
              "name": "buyer",
              "type": "address"
            },
            {
              "internalType": "bool",
              "name": "wantSell",
              "type": "bool"
            },
            {
              "internalType": "bool",
              "name": "buyerApproved",
              "type": "bool"
            },
            {
              "internalType": "bool",
              "name": "sellerApproved",
              "type": "bool"
            }
          ],
          "internalType": "struct PropertyV1.Property[]",
          "name": "",
          "type": "tuple[]"
        }
      ],
      "stateMutability": "view",
      "type": "function"
    },
    {
      "inputs": [],
      "name": "getPropertiesForSale",
      "outputs": [
        {
          "components": [
            {
              "internalType": "uint256",
              "name": "cost",
              "type": "uint256"
            },
            {
              "internalType": "uint256",
              "name": "propertyId",
              "type": "uint256"
            },
            {
              "internalType": "string",
              "name": "uri",
              "type": "string"
            },
            {
              "internalType": "address",
              "name": "buyer",
              "type": "address"
            },
            {
              "internalType": "bool",
              "name": "wantSell",
              "type": "bool"
            },
            {
              "internalType": "bool",
              "name": "buyerApproved",
              "type": "bool"
            },
            {
              "internalType": "bool",
              "name": "sellerApproved",
              "type": "bool"
            }
          ],
          "internalType": "struct PropertyV1.Property[]",
          "name": "",
          "type": "tuple[]"
        }
      ],
      "stateMutability": "view",
      "type": "function"
    },
    {
      "inputs": [],
      "name": "initialize",
      "outputs": [],
      "stateMutability": "nonpayable",
      "type": "function"
    },
    {
      "inputs": [
        {
          "internalType": "address",
          "name": "owner",
          "type": "address"
        },
        {
          "internalType": "address",
          "name": "operator",
          "type": "address"
        }
      ],
      "name": "isApprovedForAll",
      "outputs": [
        {
          "internalType": "bool",
          "name": "",
          "type": "bool"
        }
      ],
      "stateMutability": "view",
      "type": "function"
    },
    {
      "inputs": [
        {
          "internalType": "uint256",
          "name": "_propertyId",
          "type": "uint256"
        }
      ],
      "name": "listPropertyForSale",
      "outputs": [],
      "stateMutability": "nonpayable",
      "type": "function"
    },
    {
      "inputs": [],
      "name": "name",
      "outputs": [
        {
          "internalType": "string",
          "name": "",
          "type": "string"
        }
      ],
      "stateMutability": "view",
      "type": "function"
    },
    {
      "inputs": [],
      "name": "owner",
      "outputs": [
        {
          "internalType": "address",
          "name": "",
          "type": "address"
        }
      ],
      "stateMutability": "view",
      "type": "function"
    },
    {
      "inputs": [
        {
          "internalType": "uint256",
          "name": "tokenId",
          "type": "uint256"
        }
      ],
      "name": "ownerOf",
      "outputs": [
        {
          "internalType": "address",
          "name": "",
          "type": "address"
        }
      ],
      "stateMutability": "view",
      "type": "function"
    },
    {
      "inputs": [
        {
          "internalType": "uint256",
          "name": "",
          "type": "uint256"
        }
      ],
      "name": "properties",
      "outputs": [
        {
          "internalType": "uint256",
          "name": "cost",
          "type": "uint256"
        },
        {
          "internalType": "uint256",
          "name": "propertyId",
          "type": "uint256"
        },
        {
          "internalType": "string",
          "name": "uri",
          "type": "string"
        },
        {
          "internalType": "address",
          "name": "buyer",
          "type": "address"
        },
        {
          "internalType": "bool",
          "name": "wantSell",
          "type": "bool"
        },
        {
          "internalType": "bool",
          "name": "buyerApproved",
          "type": "bool"
        },
        {
          "internalType": "bool",
          "name": "sellerApproved",
          "type": "bool"
        }
      ],
      "stateMutability": "view",
      "type": "function"
    },
    {
      "inputs": [],
      "name": "propertyCount",
      "outputs": [
        {
          "internalType": "uint256",
          "name": "",
          "type": "uint256"
        }
      ],
      "stateMutability": "view",
      "type": "function"
    },
    {
      "inputs": [
        {
          "internalType": "uint256",
          "name": "_propertyId",
          "type": "uint256"
        }
      ],
      "name": "removeProperty",
      "outputs": [],
      "stateMutability": "nonpayable",
      "type": "function"
    },
    {
      "inputs": [],
      "name": "renounceOwnership",
      "outputs": [],
      "stateMutability": "nonpayable",
      "type": "function"
    },
    {
      "inputs": [
        {
          "internalType": "address",
          "name": "from",
          "type": "address"
        },
        {
          "internalType": "address",
          "name": "to",
          "type": "address"
        },
        {
          "internalType": "uint256",
          "name": "tokenId",
          "type": "uint256"
        }
      ],
      "name": "safeTransferFrom",
      "outputs": [],
      "stateMutability": "nonpayable",
      "type": "function"
    },
    {
      "inputs": [
        {
          "internalType": "address",
          "name": "from",
          "type": "address"
        },
        {
          "internalType": "address",
          "name": "to",
          "type": "address"
        },
        {
          "internalType": "uint256",
          "name": "tokenId",
          "type": "uint256"
        },
        {
          "internalType": "bytes",
          "name": "data",
          "type": "bytes"
        }
      ],
      "name": "safeTransferFrom",
      "outputs": [],
      "stateMutability": "nonpayable",
      "type": "function"
    },
    {
      "inputs": [
        {
          "internalType": "address",
          "name": "operator",
          "type": "address"
        },
        {
          "internalType": "bool",
          "name": "approved",
          "type": "bool"
        }
      ],
      "name": "setApprovalForAll",
      "outputs": [],
      "stateMutability": "nonpayable",
      "type": "function"
    },
    {
      "inputs": [
        {
          "internalType": "bytes4",
          "name": "interfaceId",
          "type": "bytes4"
        }
      ],
      "name": "supportsInterface",
      "outputs": [
        {
          "internalType": "bool",
          "name": "",
          "type": "bool"
        }
      ],
      "stateMutability": "view",
      "type": "function"
    },
    {
      "inputs": [],
      "name": "symbol",
      "outputs": [
        {
          "internalType": "string",
          "name": "",
          "type": "string"
        }
      ],
      "stateMutability": "view",
      "type": "function"
    },
    {
      "inputs": [
        {
          "internalType": "uint256",
          "name": "tokenId",
          "type": "uint256"
        }
      ],
      "name": "tokenURI",
      "outputs": [
        {
          "internalType": "string",
          "name": "",
          "type": "string"
        }
      ],
      "stateMutability": "view",
      "type": "function"
    },
    {
      "inputs": [
        {
          "internalType": "address",
          "name": "from",
          "type": "address"
        },
        {
          "internalType": "address",
          "name": "to",
          "type": "address"
        },
        {
          "internalType": "uint256",
          "name": "tokenId",
          "type": "uint256"
        }
      ],
      "name": "transferFrom",
      "outputs": [],
      "stateMutability": "nonpayable",
      "type": "function"
    },
    {
      "inputs": [
        {
          "internalType": "address",
          "name": "newOwner",
          "type": "address"
        }
      ],
      "name": "transferOwnership",
      "outputs": [],
      "stateMutability": "nonpayable",
      "type": "function"
    }
  ],
  "bytecode": "0x608060405234801561001057600080fd5b50613243806100206000396000f3fe6080604052600436106101c25760003560e01c80638129fc1c116100f7578063c2682e9411610095578063e985e9c511610064578063e985e9c5146104ee578063f2fde38b1461050e578063f54e1aef1461052e578063f7b108081461054e57600080fd5b8063c2682e9414610478578063c361a33514610498578063c7b9380a146104ae578063c87b56dd146104ce57600080fd5b80639fcb2748116100d15780639fcb2748146103f8578063a22cb46514610418578063b88d4fde14610438578063bc43d06f1461045857600080fd5b80638129fc1c146103b05780638da5cb5b146103c557806395d89b41146103e357600080fd5b8063480777b1116101645780636352211e1161013e5780636352211e1461032d57806370a082311461034d578063715018a61461037b5780637e6b3bbf1461039057600080fd5b8063480777b1146102d85780635138f19f146102fa5780635419a9561461030d57600080fd5b8063095ea7b3116101a0578063095ea7b31461025657806323b872dd146102785780633bb7579c1461029857806342842e0e146102b857600080fd5b806301ffc9a7146101c757806306fdde03146101fc578063081812fc1461021e575b600080fd5b3480156101d357600080fd5b506101e76101e236600461296b565b610581565b60405190151581526020015b60405180910390f35b34801561020857600080fd5b506102116105ac565b6040516101f391906129d8565b34801561022a57600080fd5b5061023e6102393660046129eb565b61063e565b6040516001600160a01b0390911681526020016101f3565b34801561026257600080fd5b50610276610271366004612a20565b610665565b005b34801561028457600080fd5b50610276610293366004612a4a565b61077f565b3480156102a457600080fd5b506102766102b3366004612a86565b6107b0565b3480156102c457600080fd5b506102766102d3366004612a4a565b610894565b3480156102e457600080fd5b506102ed6108af565b6040516101f39190612ab2565b6102766103083660046129eb565b610ae9565b34801561031957600080fd5b506102766103283660046129eb565b610c94565b34801561033957600080fd5b5061023e6103483660046129eb565b610d87565b34801561035957600080fd5b5061036d610368366004612b6a565b610de7565b6040519081526020016101f3565b34801561038757600080fd5b50610276610e6d565b34801561039c57600080fd5b506102766103ab3660046129eb565b610e81565b3480156103bc57600080fd5b50610276610f3f565b3480156103d157600080fd5b5060c9546001600160a01b031661023e565b3480156103ef57600080fd5b5061021161109a565b34801561040457600080fd5b506102ed610413366004612b6a565b6110a9565b34801561042457600080fd5b50610276610433366004612b85565b6112a1565b34801561044457600080fd5b50610276610453366004612c4d565b6112ac565b34801561046457600080fd5b506102766104733660046129eb565b6112e4565b34801561048457600080fd5b506102766104933660046129eb565b611469565b3480156104a457600080fd5b5061036d60fb5481565b3480156104ba57600080fd5b506102766104c93660046129eb565b6115b2565b3480156104da57600080fd5b506102116104e93660046129eb565b6116f3565b3480156104fa57600080fd5b506101e7610509366004612cc9565b611803565b34801561051a57600080fd5b50610276610529366004612b6a565b611831565b34801561053a57600080fd5b50610276610549366004612cf3565b6118a7565b34801561055a57600080fd5b5061056e6105693660046129eb565b611acf565b6040516101f39796959493929190612d4c565b60006001600160e01b03198216632483248360e11b14806105a657506105a682611baa565b92915050565b6060606580546105bb90612d9c565b80601f01602080910402602001604051908101604052809291908181526020018280546105e790612d9c565b80156106345780601f1061060957610100808354040283529160200191610634565b820191906000526020600020905b81548152906001019060200180831161061757829003601f168201915b5050505050905090565b600061064982611bfa565b506000908152606960205260409020546001600160a01b031690565b600061067082610d87565b9050806001600160a01b0316836001600160a01b0316036106e25760405162461bcd60e51b815260206004820152602160248201527f4552433732313a20617070726f76616c20746f2063757272656e74206f776e656044820152603960f91b60648201526084015b60405180910390fd5b336001600160a01b03821614806106fe57506106fe8133611803565b6107705760405162461bcd60e51b815260206004820152603d60248201527f4552433732313a20617070726f76652063616c6c6572206973206e6f7420746f60448201527f6b656e206f776e6572206f7220617070726f76656420666f7220616c6c00000060648201526084016106d9565b61077a8383611c4a565b505050565b6107893382611cb8565b6107a55760405162461bcd60e51b81526004016106d990612dd6565b61077a838383611d16565b816107ba81611e7a565b6107d65760405162461bcd60e51b81526004016106d990612e23565b336107e082610d87565b6001600160a01b0316146108065760405162461bcd60e51b81526004016106d990612e67565b600083815260fc60205260409020600301546001600160a01b0316156108625760405162461bcd60e51b8152602060048201526011602482015270109d5e595c88185b1c9958591e481cd95d607a1b60448201526064016106d9565b50600091825260fc602052604090912060030180546001600160a01b0319166001600160a01b03909216919091179055565b61077a838383604051806020016040528060008152506112ac565b6060600060015b60fb54811161090057600081815260fc6020526040902060030154600160a01b900460ff16156108ee57816108ea81612ec5565b9250505b806108f881612ec5565b9150506108b6565b5060008167ffffffffffffffff81111561091c5761091c612bc1565b60405190808252806020026020018201604052801561095557816020015b6109426128bb565b81526020019060019003908161093a5790505b509050600060015b60fb54811115801561096e57508382105b15610ae057600081815260fc6020526040902060030154600160a01b900460ff1615610ace5760fc60008281526020019081526020016000206040518060e001604052908160008201548152602001600182015481526020016002820180546109d690612d9c565b80601f0160208091040260200160405190810160405280929190818152602001828054610a0290612d9c565b8015610a4f5780601f10610a2457610100808354040283529160200191610a4f565b820191906000526020600020905b815481529060010190602001808311610a3257829003601f168201915b5050509183525050600391909101546001600160a01b038116602083015260ff600160a01b8204811615156040840152600160a81b8204811615156060840152600160b01b9091041615156080909101528351849084908110610ab457610ab4612ede565b60200260200101819052508180610aca90612ec5565b9250505b80610ad881612ec5565b91505061095d565b50909392505050565b610af281611e7a565b610b0e5760405162461bcd60e51b81526004016106d990612e23565b600081815260fc6020526040902054341015610b635760405162461bcd60e51b8152602060048201526014602482015273125b9cdd59999a58da595b9d081c185e5b595b9d60621b60448201526064016106d9565b600081815260fc60205260409020600301546001600160a01b03163314610bf25760405162461bcd60e51b815260206004820152603860248201527f43616c6c6572206973206e6f74207468652061677265656420617070726f766560448201527f7220666f722074686973206c616e64207472616e73666572000000000000000060648201526084016106d9565b600081815260fc6020526040902060030154600160a81b900460ff1615610c2b5760405162461bcd60e51b81526004016106d990612ef4565b600081815260fc6020526040902060038101805460ff60a81b1916600160a81b1790555433906108fc90610c5f9034612f3a565b6040518115909202916000818181858888f19350505050158015610c87573d6000803e3d6000fd5b50610c9181611e97565b50565b80610c9e81611e7a565b610cba5760405162461bcd60e51b81526004016106d990612e23565b33610cc482610d87565b6001600160a01b031614610cea5760405162461bcd60e51b81526004016106d990612e67565b600082815260fc6020526040902060030154600160a01b900460ff1615610d625760405162461bcd60e51b815260206004820152602660248201527f50726f706572747920697320616c726561647920617661696c61626c6520666f604482015265722073616c6560d01b60648201526084016106d9565b50600090815260fc60205260409020600301805460ff60a01b1916600160a01b179055565b6000818152606760205260408120546001600160a01b0316806105a65760405162461bcd60e51b8152602060048201526018602482015277115490cdcc8c4e881a5b9d985b1a59081d1bdad95b88125160421b60448201526064016106d9565b60006001600160a01b038216610e515760405162461bcd60e51b815260206004820152602960248201527f4552433732313a2061646472657373207a65726f206973206e6f7420612076616044820152683634b21037bbb732b960b91b60648201526084016106d9565b506001600160a01b031660009081526068602052604090205490565b610e7561201b565b610e7f6000612075565b565b80610e8b81611e7a565b610ea75760405162461bcd60e51b81526004016106d990612e23565b33610eb182610d87565b6001600160a01b031614610ed75760405162461bcd60e51b81526004016106d990612e67565b600082815260fc6020526040902060030154600160b01b900460ff1615610f105760405162461bcd60e51b81526004016106d990612f4d565b600082815260fc60205260409020600301805460ff60b01b1916600160b01b179055610f3b82611e97565b5050565b600054610100900460ff1615808015610f5f5750600054600160ff909116105b80610f795750303b158015610f79575060005460ff166001145b610fdc5760405162461bcd60e51b815260206004820152602e60248201527f496e697469616c697a61626c653a20636f6e747261637420697320616c72656160448201526d191e481a5b9a5d1a585b1a5e995960921b60648201526084016106d9565b6000805460ff191660011790558015610fff576000805461ff0019166101001790555b6110456040518060400160405280600881526020016750726f706572747960c01b81525060405180604001604052806004815260200163050524f560e41b8152506120c7565b61104d6120f8565b600060fb558015610c91576000805461ff0019169055604051600181527f7f26b83ff96e1f2b6a682f133852f6798a09c465da95921460cefb38474024989060200160405180910390a150565b6060606680546105bb90612d9c565b606060006110b683610de7565b905060008167ffffffffffffffff8111156110d3576110d3612bc1565b60405190808252806020026020018201604052801561110c57816020015b6110f96128bb565b8152602001906001900390816110f15790505b509050600060015b60fb54811115801561112557508382105b1561129757856001600160a01b031661113d82610d87565b6001600160a01b0316036112855760fc60008281526020019081526020016000206040518060e0016040529081600082015481526020016001820154815260200160028201805461118d90612d9c565b80601f01602080910402602001604051908101604052809291908181526020018280546111b990612d9c565b80156112065780601f106111db57610100808354040283529160200191611206565b820191906000526020600020905b8154815290600101906020018083116111e957829003601f168201915b5050509183525050600391909101546001600160a01b038116602083015260ff600160a01b8204811615156040840152600160a81b8204811615156060840152600160b01b909104161515608090910152835184908490811061126b5761126b612ede565b6020026020010181905250818061128190612ec5565b9250505b8061128f81612ec5565b915050611114565b5090949350505050565b610f3b338383612127565b6112b63383611cb8565b6112d25760405162461bcd60e51b81526004016106d990612dd6565b6112de848484846121ed565b50505050565b806112ee81611e7a565b61130a5760405162461bcd60e51b81526004016106d990612e23565b3361131482610d87565b6001600160a01b03161461133a5760405162461bcd60e51b81526004016106d990612e67565b61134382611e7a565b61135f5760405162461bcd60e51b81526004016106d990612e23565b600082815260fc6020526040902060030154600160a01b900460ff16156113ee5760405162461bcd60e51b815260206004820152603c60248201527f50726f706572747920697320617661696c61626c6520666f722073616c652e2060448201527f506c656173652063616e63656c207468652073616c652066697273740000000060648201526084016106d9565b6113f782612220565b600082815260fc60205260408120818155600181018290559061141d6002830182612907565b5060030180546001600160b81b031916905560405182815233907f8e2f5fcc57c31738b03aa91accdd55b13dc355a4fa1707d953f49c973e18e6e4906020015b60405180910390a25050565b8061147381611e7a565b61148f5760405162461bcd60e51b81526004016106d990612e23565b3361149982610d87565b6001600160a01b0316146114bf5760405162461bcd60e51b81526004016106d990612e67565b600082815260fc6020526040902060030154600160a01b900460ff1615156001146115375760405162461bcd60e51b815260206004820152602260248201527f50726f7065727479206973206e6f7420617661696c61626c6520666f722073616044820152616c6560f01b60648201526084016106d9565b600082815260fc60205260409020600301546001600160a01b0316156115935760405162461bcd60e51b8152602060048201526011602482015270109d5e595c88185b1c9958591e481cd95d607a1b60448201526064016106d9565b50600090815260fc60205260409020600301805460ff60a01b19169055565b806115bc81611e7a565b6115d85760405162461bcd60e51b81526004016106d990612e23565b336115e282610d87565b6001600160a01b0316146116085760405162461bcd60e51b81526004016106d990612e67565b600082815260fc60205260409020600301546001600160a01b031661165f5760405162461bcd60e51b815260206004820152600d60248201526c109d5e595c881b9bdd081cd95d609a1b60448201526064016106d9565b600082815260fc6020526040902060030154600160b01b900460ff16156116985760405162461bcd60e51b81526004016106d990612f4d565b600082815260fc6020526040902060030154600160a81b900460ff16156116d15760405162461bcd60e51b81526004016106d990612ef4565b50600090815260fc6020526040902060030180546001600160a01b0319169055565b60606116fe82611bfa565b6000828152609760205260408120805461171790612d9c565b80601f016020809104026020016040519081016040528092919081815260200182805461174390612d9c565b80156117905780601f1061176557610100808354040283529160200191611790565b820191906000526020600020905b81548152906001019060200180831161177357829003601f168201915b5050505050905060006117ae60408051602081019091526000815290565b905080516000036117c0575092915050565b8151156117f25780826040516020016117da929190612f94565b60405160208183030381529060405292505050919050565b6117fb84612260565b949350505050565b6001600160a01b039182166000908152606a6020908152604080832093909416825291909152205460ff1690565b61183961201b565b6001600160a01b03811661189e5760405162461bcd60e51b815260206004820152602660248201527f4f776e61626c653a206e6577206f776e657220697320746865207a65726f206160448201526564647265737360d01b60648201526084016106d9565b610c9181612075565b60008251116118ee5760405162461bcd60e51b81526020600482015260136024820152725552492063616e6e6f7420626520656d70747960681b60448201526064016106d9565b600081116119345760405162461bcd60e51b8152602060048201526013602482015272436f73742063616e6e6f74206265207a65726f60681b60448201526064016106d9565b60fb805490600061194483612ec5565b90915550506040805160e08101825282815260fb5460208083018281528385018781526000606086018190526080860181905260a0860181905260c0860181905293845260fc9092529390912082518155925160018401555190919060028201906119af9082613011565b50606082015160039091018054608084015160a085015160c0909501511515600160b01b0260ff60b01b19951515600160a81b029590951661ffff60a81b19911515600160a01b026001600160a81b03199093166001600160a01b0390951694909417919091171691909117919091179055611a33611a2b3390565b60fb546122d4565b611a3f60fb54836122ee565b336001600160a01b0316611a5460fb54610d87565b6001600160a01b031614611a9a5760405162461bcd60e51b815260206004820152600d60248201526c13dddb995c881b9bdd081cd95d609a1b60448201526064016106d9565b60fb5460405190815233907f2728c9d3205d667bbc0eefdfeda366261b4d021949630c047f3e5834b30611ab9060200161145d565b60fc6020526000908152604090208054600182015460028301805492939192611af790612d9c565b80601f0160208091040260200160405190810160405280929190818152602001828054611b2390612d9c565b8015611b705780601f10611b4557610100808354040283529160200191611b70565b820191906000526020600020905b815481529060010190602001808311611b5357829003601f168201915b505050600390930154919250506001600160a01b0381169060ff600160a01b8204811691600160a81b8104821691600160b01b9091041687565b60006001600160e01b031982166380ac58cd60e01b1480611bdb57506001600160e01b03198216635b5e139f60e01b145b806105a657506301ffc9a760e01b6001600160e01b03198316146105a6565b611c0381611e7a565b610c915760405162461bcd60e51b8152602060048201526018602482015277115490cdcc8c4e881a5b9d985b1a59081d1bdad95b88125160421b60448201526064016106d9565b600081815260696020526040902080546001600160a01b0319166001600160a01b0384169081179091558190611c7f82610d87565b6001600160a01b03167f8c5be1e5ebec7d5bd14f71427d1e84f3dd0314c0f7b2291e5b200ac8c7c3b92560405160405180910390a45050565b600080611cc483610d87565b9050806001600160a01b0316846001600160a01b03161480611ceb5750611ceb8185611803565b806117fb5750836001600160a01b0316611d048461063e565b6001600160a01b031614949350505050565b826001600160a01b0316611d2982610d87565b6001600160a01b031614611d4f5760405162461bcd60e51b81526004016106d9906130d1565b6001600160a01b038216611db15760405162461bcd60e51b8152602060048201526024808201527f4552433732313a207472616e7366657220746f20746865207a65726f206164646044820152637265737360e01b60648201526084016106d9565b826001600160a01b0316611dc482610d87565b6001600160a01b031614611dea5760405162461bcd60e51b81526004016106d9906130d1565b600081815260696020908152604080832080546001600160a01b03199081169091556001600160a01b0387811680865260688552838620805460001901905590871680865283862080546001019055868652606790945282852080549092168417909155905184937fddf252ad1be2c89b69c2b068fc378daa952ba7f163c4a11628f55a4df523b3ef91a4505050565b6000908152606760205260409020546001600160a01b0316151590565b600081815260fc6020526040902060030154600160a81b900460ff168015611ed75750600081815260fc6020526040902060030154600160b01b900460ff165b15610c9157600081815260fc60205260408120600301546001600160a01b031690611f0183610d87565b600084815260fc60205260408082205490519293506001600160a01b0384169281156108fc0292818181858888f19350505050158015611f45573d6000803e3d6000fd5b50611f51818385611d16565b816001600160a01b0316611f6484610d87565b6001600160a01b031614611fac5760405162461bcd60e51b815260206004820152600f60248201526e151c985b9cd9995c8819985a5b1959608a1b60448201526064016106d9565b600083815260fc60209081526040918290206003810180546001600160b81b0319169055548251868152918201526001600160a01b0384811692908416917f9ed053bb818ff08b8353cd46f78db1f0799f31c9e4458fdb425c10eccd2efc4491015b60405180910390a3505050565b60c9546001600160a01b03163314610e7f5760405162461bcd60e51b815260206004820181905260248201527f4f776e61626c653a2063616c6c6572206973206e6f7420746865206f776e657260448201526064016106d9565b60c980546001600160a01b038381166001600160a01b0319831681179093556040519116919082907f8be0079c531659141344cd1fd0a4f28419497f9722a3daafe3b4186f6b6457e090600090a35050565b600054610100900460ff166120ee5760405162461bcd60e51b81526004016106d990613116565b610f3b82826123aa565b600054610100900460ff1661211f5760405162461bcd60e51b81526004016106d990613116565b610e7f6123ea565b816001600160a01b0316836001600160a01b0316036121885760405162461bcd60e51b815260206004820152601960248201527f4552433732313a20617070726f766520746f2063616c6c65720000000000000060448201526064016106d9565b6001600160a01b038381166000818152606a6020908152604080832094871680845294825291829020805460ff191686151590811790915591519182527f17307eab39ab6107e8899845ad3d59bd9653f200f220920489ca2b5937696c31910161200e565b6121f8848484611d16565b6122048484848461241a565b6112de5760405162461bcd60e51b81526004016106d990613161565b6122298161251b565b6000818152609760205260409020805461224290612d9c565b159050610c91576000818152609760205260408120610c9191612907565b606061226b82611bfa565b600061228260408051602081019091526000815290565b905060008151116122a257604051806020016040528060008152506122cd565b806122ac846125b0565b6040516020016122bd929190612f94565b6040516020818303038152906040525b9392505050565b610f3b828260405180602001604052806000815250612643565b6122f782611e7a565b61235a5760405162461bcd60e51b815260206004820152602e60248201527f45524337323155524953746f726167653a2055524920736574206f66206e6f6e60448201526d32bc34b9ba32b73a103a37b5b2b760911b60648201526084016106d9565b60008281526097602052604090206123728282613011565b506040518281527ff8e1a15aba9398e019f0b49df1a4fde98ee17ae345cb5f6b5e2c27f5033e8ce79060200160405180910390a15050565b600054610100900460ff166123d15760405162461bcd60e51b81526004016106d990613116565b60656123dd8382613011565b50606661077a8282613011565b600054610100900460ff166124115760405162461bcd60e51b81526004016106d990613116565b610e7f33612075565b60006001600160a01b0384163b1561251057604051630a85bd0160e11b81526001600160a01b0385169063150b7a029061245e9033908990889088906004016131b3565b6020604051808303816000875af1925050508015612499575060408051601f3d908101601f19168201909252612496918101906131f0565b60015b6124f6573d8080156124c7576040519150601f19603f3d011682016040523d82523d6000602084013e6124cc565b606091505b5080516000036124ee5760405162461bcd60e51b81526004016106d990613161565b805181602001fd5b6001600160e01b031916630a85bd0160e11b1490506117fb565b506001949350505050565b600061252682610d87565b905061253182610d87565b600083815260696020908152604080832080546001600160a01b03199081169091556001600160a01b0385168085526068845282852080546000190190558785526067909352818420805490911690555192935084927fddf252ad1be2c89b69c2b068fc378daa952ba7f163c4a11628f55a4df523b3ef908390a45050565b606060006125bd83612676565b600101905060008167ffffffffffffffff8111156125dd576125dd612bc1565b6040519080825280601f01601f191660200182016040528015612607576020820181803683370190505b5090508181016020015b600019016f181899199a1a9b1b9c1cb0b131b232b360811b600a86061a8153600a850494508461261157509392505050565b61264d838361274e565b61265a600084848461241a565b61077a5760405162461bcd60e51b81526004016106d990613161565b60008072184f03e93ff9f4daa797ed6e38ed64bf6a1f0160401b83106126b55772184f03e93ff9f4daa797ed6e38ed64bf6a1f0160401b830492506040015b6d04ee2d6d415b85acef810000000083106126e1576d04ee2d6d415b85acef8100000000830492506020015b662386f26fc1000083106126ff57662386f26fc10000830492506010015b6305f5e1008310612717576305f5e100830492506008015b612710831061272b57612710830492506004015b6064831061273d576064830492506002015b600a83106105a65760010192915050565b6001600160a01b0382166127a45760405162461bcd60e51b815260206004820181905260248201527f4552433732313a206d696e7420746f20746865207a65726f206164647265737360448201526064016106d9565b6127ad81611e7a565b156127fa5760405162461bcd60e51b815260206004820152601c60248201527f4552433732313a20746f6b656e20616c7265616479206d696e7465640000000060448201526064016106d9565b61280381611e7a565b156128505760405162461bcd60e51b815260206004820152601c60248201527f4552433732313a20746f6b656e20616c7265616479206d696e7465640000000060448201526064016106d9565b6001600160a01b038216600081815260686020908152604080832080546001019055848352606790915280822080546001600160a01b0319168417905551839291907fddf252ad1be2c89b69c2b068fc378daa952ba7f163c4a11628f55a4df523b3ef908290a45050565b6040518060e0016040528060008152602001600081526020016060815260200160006001600160a01b031681526020016000151581526020016000151581526020016000151581525090565b50805461291390612d9c565b6000825580601f10612923575050565b601f016020900490600052602060002090810190610c9191905b80821115612951576000815560010161293d565b5090565b6001600160e01b031981168114610c9157600080fd5b60006020828403121561297d57600080fd5b81356122cd81612955565b60005b838110156129a357818101518382015260200161298b565b50506000910152565b600081518084526129c4816020860160208601612988565b601f01601f19169290920160200192915050565b6020815260006122cd60208301846129ac565b6000602082840312156129fd57600080fd5b5035919050565b80356001600160a01b0381168114612a1b57600080fd5b919050565b60008060408385031215612a3357600080fd5b612a3c83612a04565b946020939093013593505050565b600080600060608486031215612a5f57600080fd5b612a6884612a04565b9250612a7660208501612a04565b9150604084013590509250925092565b60008060408385031215612a9957600080fd5b82359150612aa960208401612a04565b90509250929050565b60006020808301818452808551808352604092508286019150828160051b87010184880160005b83811015612b5c57603f19898403018552815160e0815185528882015189860152878201518189870152612b0f828701826129ac565b6060848101516001600160a01b03169088015260808085015115159088015260a08085015115159088015260c0938401511515939096019290925250509386019390860190600101612ad9565b509098975050505050505050565b600060208284031215612b7c57600080fd5b6122cd82612a04565b60008060408385031215612b9857600080fd5b612ba183612a04565b915060208301358015158114612bb657600080fd5b809150509250929050565b634e487b7160e01b600052604160045260246000fd5b600067ffffffffffffffff80841115612bf257612bf2612bc1565b604051601f8501601f19908116603f01168101908282118183101715612c1a57612c1a612bc1565b81604052809350858152868686011115612c3357600080fd5b858560208301376000602087830101525050509392505050565b60008060008060808587031215612c6357600080fd5b612c6c85612a04565b9350612c7a60208601612a04565b925060408501359150606085013567ffffffffffffffff811115612c9d57600080fd5b8501601f81018713612cae57600080fd5b612cbd87823560208401612bd7565b91505092959194509250565b60008060408385031215612cdc57600080fd5b612ce583612a04565b9150612aa960208401612a04565b60008060408385031215612d0657600080fd5b823567ffffffffffffffff811115612d1d57600080fd5b8301601f81018513612d2e57600080fd5b612d3d85823560208401612bd7565b95602094909401359450505050565b87815286602082015260e060408201526000612d6b60e08301886129ac565b6001600160a01b0396909616606083015250921515608084015290151560a0830152151560c0909101529392505050565b600181811c90821680612db057607f821691505b602082108103612dd057634e487b7160e01b600052602260045260246000fd5b50919050565b6020808252602d908201527f4552433732313a2063616c6c6572206973206e6f7420746f6b656e206f776e6560408201526c1c881bdc88185c1c1c9bdd9959609a1b606082015260800190565b60208082526024908201527f50726f70657274792077697468207468697320494420646f6573206e6f7420656040820152631e1a5cdd60e21b606082015260800190565b60208082526028908201527f43616c6c6572206973206e6f7420746865206f776e6572206f6620746869732060408201526770726f706572747960c01b606082015260800190565b634e487b7160e01b600052601160045260246000fd5b600060018201612ed757612ed7612eaf565b5060010190565b634e487b7160e01b600052603260045260246000fd5b60208082526026908201527f5472616e7366657220616c726561647920617070726f7665642062792074686560408201526510313abcb2b960d11b606082015260800190565b818103818111156105a6576105a6612eaf565b60208082526027908201527f5472616e7366657220616c726561647920617070726f766564206279207468656040820152661039b2b63632b960c91b606082015260800190565b60008351612fa6818460208801612988565b835190830190612fba818360208801612988565b01949350505050565b601f82111561077a57600081815260208120601f850160051c81016020861015612fea5750805b601f850160051c820191505b8181101561300957828155600101612ff6565b505050505050565b815167ffffffffffffffff81111561302b5761302b612bc1565b61303f816130398454612d9c565b84612fc3565b602080601f831160018114613074576000841561305c5750858301515b600019600386901b1c1916600185901b178555613009565b600085815260208120601f198616915b828110156130a357888601518255948401946001909101908401613084565b50858210156130c15787850151600019600388901b60f8161c191681555b5050505050600190811b01905550565b60208082526025908201527f4552433732313a207472616e736665722066726f6d20696e636f72726563742060408201526437bbb732b960d91b606082015260800190565b6020808252602b908201527f496e697469616c697a61626c653a20636f6e7472616374206973206e6f74206960408201526a6e697469616c697a696e6760a81b606082015260800190565b60208082526032908201527f4552433732313a207472616e7366657220746f206e6f6e20455243373231526560408201527131b2b4bb32b91034b6b83632b6b2b73a32b960711b606082015260800190565b6001600160a01b03858116825284166020820152604081018390526080606082018190526000906131e6908301846129ac565b9695505050505050565b60006020828403121561320257600080fd5b81516122cd8161295556fea2646970667358221220e676cf7bc24b16ed907672633ab61dc8865881b7f4b1898f8453e6c9af1ec02d64736f6c63430008140033",
  "linkReferences": {},
  "deployedLinkReferences": {}
}