{
  "_format": "hh-sol-artifact-1",
  "contractName": "PropertyV1_1",
  "sourceName": "contracts/PropertyV1_1.sol",
  "abi": [
    {
      "anonymous": false,
      "inputs": [
        {
          "indexed": true,
          "internalType": "address",
          "name": "_owner",
          "type": "address"
        },
        {
          "indexed": false,
          "internalType": "uint256",
          "name": "_propertyId",
          "type": "uint256"
        }
      ],
      "name": "Add",
      "type": "event"
    },
    {
      "anonymous": false,
      "inputs": [
        {
          "indexed": true,
          "internalType": "address",
          "name": "owner",
          "type": "address"
        },
        {
          "indexed": true,
          "internalType": "address",
          "name": "approved",
          "type": "address"
        },
        {
          "indexed": true,
          "internalType": "uint256",
          "name": "tokenId",
          "type": "uint256"
        }
      ],
      "name": "Approval",
      "type": "event"
    },
    {
      "anonymous": false,
      "inputs": [
        {
          "indexed": true,
          "internalType": "address",
          "name": "owner",
          "type": "address"
        },
        {
          "indexed": true,
          "internalType": "address",
          "name": "operator",
          "type": "address"
        },
        {
          "indexed": false,
          "internalType": "bool",
          "name": "approved",
          "type": "bool"
        }
      ],
      "name": "ApprovalForAll",
      "type": "event"
    },
    {
      "anonymous": false,
      "inputs": [
        {
          "indexed": false,
          "internalType": "uint256",
          "name": "_fromTokenId",
          "type": "uint256"
        },
        {
          "indexed": false,
          "internalType": "uint256",
          "name": "_toTokenId",
          "type": "uint256"
        }
      ],
      "name": "BatchMetadataUpdate",
      "type": "event"
    },
    {
      "anonymous": false,
      "inputs": [
        {
          "indexed": true,
          "internalType": "address",
          "name": "_from",
          "type": "address"
        },
        {
          "indexed": false,
          "internalType": "uint256",
          "name": "_amount",
          "type": "uint256"
        }
      ],
      "name": "Fund",
      "type": "event"
    },
    {
      "anonymous": false,
      "inputs": [
        {
          "indexed": false,
          "internalType": "uint8",
          "name": "version",
          "type": "uint8"
        }
      ],
      "name": "Initialized",
      "type": "event"
    },
    {
      "anonymous": false,
      "inputs": [
        {
          "indexed": false,
          "internalType": "uint256",
          "name": "_tokenId",
          "type": "uint256"
        }
      ],
      "name": "MetadataUpdate",
      "type": "event"
    },
    {
      "anonymous": false,
      "inputs": [
        {
          "indexed": true,
          "internalType": "address",
          "name": "previousOwner",
          "type": "address"
        },
        {
          "indexed": true,
          "internalType": "address",
          "name": "newOwner",
          "type": "address"
        }
      ],
      "name": "OwnershipTransferred",
      "type": "event"
    },
    {
      "anonymous": false,
      "inputs": [
        {
          "indexed": true,
          "internalType": "address",
          "name": "_owner",
          "type": "address"
        },
        {
          "indexed": false,
          "internalType": "uint256",
          "name": "_propertyId",
          "type": "uint256"
        }
      ],
      "name": "Remove",
      "type": "event"
    },
    {
      "anonymous": false,
      "inputs": [
        {
          "indexed": true,
          "internalType": "address",
          "name": "from",
          "type": "address"
        },
        {
          "indexed": true,
          "internalType": "address",
          "name": "to",
          "type": "address"
        },
        {
          "indexed": true,
          "internalType": "uint256",
          "name": "tokenId",
          "type": "uint256"
        }
      ],
      "name": "Transfer",
      "type": "event"
    },
    {
      "anonymous": false,
      "inputs": [
        {
          "indexed": true,
          "internalType": "address",
          "name": "_seller",
          "type": "address"
        },
        {
          "indexed": true,
          "internalType": "address",
          "name": "_buyer",
          "type": "address"
        },
        {
          "indexed": false,
          "internalType": "uint256",
          "name": "_propertyId",
          "type": "uint256"
        },
        {
          "indexed": false,
          "internalType": "uint256",
          "name": "_sellPrice",
          "type": "uint256"
        }
      ],
      "name": "Transfer",
      "type": "event"
    },
    {
      "inputs": [
        {
          "internalType": "string",
          "name": "_uri",
          "type": "string"
        },
        {
          "internalType": "uint256",
          "name": "_cost",
          "type": "uint256"
        }
      ],
      "name": "addProperty",
      "outputs": [],
      "stateMutability": "nonpayable",
      "type": "function"
    },
    {
      "inputs": [
        {
          "internalType": "uint256",
          "name": "_propertyId",
          "type": "uint256"
        },
        {
          "internalType": "address",
          "name": "_buyer",
          "type": "address"
        }
      ],
      "name": "agreeOnBuyer",
      "outputs": [],
      "stateMutability": "nonpayable",
      "type": "function"
    },
    {
      "inputs": [
        {
          "internalType": "address",
          "name": "to",
          "type": "address"
        },
        {
          "internalType": "uint256",
          "name": "tokenId",
          "type": "uint256"
        }
      ],
      "name": "approve",
      "outputs": [],
      "stateMutability": "nonpayable",
      "type": "function"
    },
    {
      "inputs": [
        {
          "internalType": "uint256",
          "name": "_propertyId",
          "type": "uint256"
        }
      ],
      "name": "approveTransferAsBuyer",
      "outputs": [],
      "stateMutability": "payable",
      "type": "function"
    },
    {
      "inputs": [
        {
          "internalType": "uint256",
          "name": "_propertyId",
          "type": "uint256"
        }
      ],
      "name": "approveTransferAsSeller",
      "outputs": [],
      "stateMutability": "nonpayable",
      "type": "function"
    },
    {
      "inputs": [
        {
          "internalType": "address",
          "name": "owner",
          "type": "address"
        }
      ],
      "name": "balanceOf",
      "outputs": [
        {
          "internalType": "uint256",
          "name": "",
          "type": "uint256"
        }
      ],
      "stateMutability": "view",
      "type": "function"
    },
    {
      "inputs": [
        {
          "internalType": "uint256",
          "name": "_propertyId",
          "type": "uint256"
        }
      ],
      "name": "cancelPropertySale",
      "outputs": [],
      "stateMutability": "nonpayable",
      "type": "function"
    },
    {
      "inputs": [
        {
          "internalType": "uint256",
          "name": "_propertyId",
          "type": "uint256"
        }
      ],
      "name": "clearAgreedBuyer",
      "outputs": [],
      "stateMutability": "nonpayable",
      "type": "function"
    },
    {
      "inputs": [
        {
          "internalType": "uint256",
          "name": "tokenId",
          "type": "uint256"
        }
      ],
      "name": "getApproved",
      "outputs": [
        {
          "internalType": "address",
          "name": "",
          "type": "address"
        }
      ],
      "stateMutability": "view",
      "type": "function"
    },
    {
      "inputs": [
        {
          "internalType": "address",
          "name": "_owner",
          "type": "address"
        }
      ],
      "name": "getPropertiesByOwner",
      "outputs": [
        {
          "components": [
            {
              "internalType": "uint256",
              "name": "cost",
              "type": "uint256"
            },
            {
              "internalType": "uint256",
              "name": "propertyId",
              "type": "uint256"
            },
            {
              "internalType": "string",
              "name": "uri",
              "type": "string"
            },
            {
              "internalType": "address",
              "name": "buyer",
              "type": "address"
            },
            {
              "internalType": "bool",
              "name": "wantSell",
              "type": "bool"
            },
            {
              "internalType": "bool",
              "name": "buyerApproved",
              "type": "bool"
            },
            {
              "internalType": "bool",
              "name": "sellerApproved",
              "type": "bool"
            }
          ],
          "internalType": "struct PropertyV1_1.Property[]",
          "name": "",
          "type": "tuple[]"
        }
      ],
      "stateMutability": "view",
      "type": "function"
    },
    {
      "inputs": [],
      "name": "getPropertiesForSale",
      "outputs": [
        {
          "components": [
            {
              "internalType": "uint256",
              "name": "cost",
              "type": "uint256"
            },
            {
              "internalType": "uint256",
              "name": "propertyId",
              "type": "uint256"
            },
            {
              "internalType": "string",
              "name": "uri",
              "type": "string"
            },
            {
              "internalType": "address",
              "name": "buyer",
              "type": "address"
            },
            {
              "internalType": "bool",
              "name": "wantSell",
              "type": "bool"
            },
            {
              "internalType": "bool",
              "name": "buyerApproved",
              "type": "bool"
            },
            {
              "internalType": "bool",
              "name": "sellerApproved",
              "type": "bool"
            }
          ],
          "internalType": "struct PropertyV1_1.Property[]",
          "name": "",
          "type": "tuple[]"
        }
      ],
      "stateMutability": "view",
      "type": "function"
    },
    {
      "inputs": [],
      "name": "initialize",
      "outputs": [],
      "stateMutability": "nonpayable",
      "type": "function"
    },
    {
      "inputs": [
        {
          "internalType": "address",
          "name": "owner",
          "type": "address"
        },
        {
          "internalType": "address",
          "name": "operator",
          "type": "address"
        }
      ],
      "name": "isApprovedForAll",
      "outputs": [
        {
          "internalType": "bool",
          "name": "",
          "type": "bool"
        }
      ],
      "stateMutability": "view",
      "type": "function"
    },
    {
      "inputs": [
        {
          "internalType": "uint256",
          "name": "_propertyId",
          "type": "uint256"
        }
      ],
      "name": "listPropertyForSale",
      "outputs": [],
      "stateMutability": "nonpayable",
      "type": "function"
    },
    {
      "inputs": [
        {
          "internalType": "uint256",
          "name": "_propertyId",
          "type": "uint256"
        }
      ],
      "name": "makeMortgagePayment",
      "outputs": [],
      "stateMutability": "payable",
      "type": "function"
    },
    {
      "inputs": [
        {
          "internalType": "uint256",
          "name": "_propertyId",
          "type": "uint256"
        },
        {
          "internalType": "uint256",
          "name": "_amount",
          "type": "uint256"
        },
        {
          "internalType": "uint256",
          "name": "_monthlyInterestRate",
          "type": "uint256"
        },
        {
          "internalType": "uint256",
          "name": "_durationInMonths",
          "type": "uint256"
        }
      ],
      "name": "mortgageProperty",
      "outputs": [],
      "stateMutability": "nonpayable",
      "type": "function"
    },
    {
      "inputs": [
        {
          "internalType": "uint256",
          "name": "",
          "type": "uint256"
        }
      ],
      "name": "mortgages",
      "outputs": [
        {
          "internalType": "address",
          "name": "loaner",
          "type": "address"
        },
        {
          "internalType": "uint256",
          "name": "propertyId",
          "type": "uint256"
        },
        {
          "internalType": "uint256",
          "name": "amount",
          "type": "uint256"
        },
        {
          "internalType": "uint256",
          "name": "monthlyInterestRate",
          "type": "uint256"
        },
        {
          "internalType": "uint256",
          "name": "durationInMonths",
          "type": "uint256"
        },
        {
          "internalType": "uint256",
          "name": "monthlyPayment",
          "type": "uint256"
        },
        {
          "internalType": "uint256",
          "name": "paidMonths",
          "type": "uint256"
        }
      ],
      "stateMutability": "view",
      "type": "function"
    },
    {
      "inputs": [],
      "name": "name",
      "outputs": [
        {
          "internalType": "string",
          "name": "",
          "type": "string"
        }
      ],
      "stateMutability": "view",
      "type": "function"
    },
    {
      "inputs": [],
      "name": "owner",
      "outputs": [
        {
          "internalType": "address",
          "name": "",
          "type": "address"
        }
      ],
      "stateMutability": "view",
      "type": "function"
    },
    {
      "inputs": [
        {
          "internalType": "uint256",
          "name": "tokenId",
          "type": "uint256"
        }
      ],
      "name": "ownerOf",
      "outputs": [
        {
          "internalType": "address",
          "name": "",
          "type": "address"
        }
      ],
      "stateMutability": "view",
      "type": "function"
    },
    {
      "inputs": [
        {
          "internalType": "uint256",
          "name": "",
          "type": "uint256"
        }
      ],
      "name": "properties",
      "outputs": [
        {
          "internalType": "uint256",
          "name": "cost",
          "type": "uint256"
        },
        {
          "internalType": "uint256",
          "name": "propertyId",
          "type": "uint256"
        },
        {
          "internalType": "string",
          "name": "uri",
          "type": "string"
        },
        {
          "internalType": "address",
          "name": "buyer",
          "type": "address"
        },
        {
          "internalType": "bool",
          "name": "wantSell",
          "type": "bool"
        },
        {
          "internalType": "bool",
          "name": "buyerApproved",
          "type": "bool"
        },
        {
          "internalType": "bool",
          "name": "sellerApproved",
          "type": "bool"
        }
      ],
      "stateMutability": "view",
      "type": "function"
    },
    {
      "inputs": [],
      "name": "propertyCount",
      "outputs": [
        {
          "internalType": "uint256",
          "name": "",
          "type": "uint256"
        }
      ],
      "stateMutability": "view",
      "type": "function"
    },
    {
      "inputs": [
        {
          "internalType": "uint256",
          "name": "_propertyId",
          "type": "uint256"
        }
      ],
      "name": "removeProperty",
      "outputs": [],
      "stateMutability": "nonpayable",
      "type": "function"
    },
    {
      "inputs": [],
      "name": "renounceOwnership",
      "outputs": [],
      "stateMutability": "nonpayable",
      "type": "function"
    },
    {
      "inputs": [
        {
          "internalType": "address",
          "name": "from",
          "type": "address"
        },
        {
          "internalType": "address",
          "name": "to",
          "type": "address"
        },
        {
          "internalType": "uint256",
          "name": "tokenId",
          "type": "uint256"
        }
      ],
      "name": "safeTransferFrom",
      "outputs": [],
      "stateMutability": "nonpayable",
      "type": "function"
    },
    {
      "inputs": [
        {
          "internalType": "address",
          "name": "from",
          "type": "address"
        },
        {
          "internalType": "address",
          "name": "to",
          "type": "address"
        },
        {
          "internalType": "uint256",
          "name": "tokenId",
          "type": "uint256"
        },
        {
          "internalType": "bytes",
          "name": "data",
          "type": "bytes"
        }
      ],
      "name": "safeTransferFrom",
      "outputs": [],
      "stateMutability": "nonpayable",
      "type": "function"
    },
    {
      "inputs": [
        {
          "internalType": "address",
          "name": "operator",
          "type": "address"
        },
        {
          "internalType": "bool",
          "name": "approved",
          "type": "bool"
        }
      ],
      "name": "setApprovalForAll",
      "outputs": [],
      "stateMutability": "nonpayable",
      "type": "function"
    },
    {
      "inputs": [
        {
          "internalType": "bytes4",
          "name": "interfaceId",
          "type": "bytes4"
        }
      ],
      "name": "supportsInterface",
      "outputs": [
        {
          "internalType": "bool",
          "name": "",
          "type": "bool"
        }
      ],
      "stateMutability": "view",
      "type": "function"
    },
    {
      "inputs": [],
      "name": "symbol",
      "outputs": [
        {
          "internalType": "string",
          "name": "",
          "type": "string"
        }
      ],
      "stateMutability": "view",
      "type": "function"
    },
    {
      "inputs": [
        {
          "internalType": "uint256",
          "name": "tokenId",
          "type": "uint256"
        }
      ],
      "name": "tokenURI",
      "outputs": [
        {
          "internalType": "string",
          "name": "",
          "type": "string"
        }
      ],
      "stateMutability": "view",
      "type": "function"
    },
    {
      "inputs": [
        {
          "internalType": "address",
          "name": "from",
          "type": "address"
        },
        {
          "internalType": "address",
          "name": "to",
          "type": "address"
        },
        {
          "internalType": "uint256",
          "name": "tokenId",
          "type": "uint256"
        }
      ],
      "name": "transferFrom",
      "outputs": [],
      "stateMutability": "nonpayable",
      "type": "function"
    },
    {
      "inputs": [
        {
          "internalType": "address",
          "name": "newOwner",
          "type": "address"
        }
      ],
      "name": "transferOwnership",
      "outputs": [],
      "stateMutability": "nonpayable",
      "type": "function"
    },
    {
      "stateMutability": "payable",
      "type": "receive"
    }
  ],
  "bytecode": "0x608060405234801561001057600080fd5b50613a73806100206000396000f3fe6080604052600436106101e75760003560e01c80638129fc1c11610102578063c2682e9411610095578063e985e9c511610064578063e985e9c514610623578063f2fde38b14610643578063f54e1aef14610663578063f7b108081461068357600080fd5b8063c2682e94146105ad578063c361a335146105cd578063c7b9380a146105e3578063c87b56dd1461060357600080fd5b80639fcb2748116100d15780639fcb27481461052d578063a22cb4651461054d578063b88d4fde1461056d578063bc43d06f1461058d57600080fd5b80638129fc1c146104d25780638da5cb5b146104e7578063939837451461050557806395d89b411461051857600080fd5b80635138f19f1161017a578063715018a611610149578063715018a6146103dc57806375861f27146103f15780637e6b3bbf1461049257806380ac2345146104b257600080fd5b80635138f19f1461035b5780635419a9561461036e5780636352211e1461038e57806370a08231146103ae57600080fd5b806323b872dd116101b657806323b872dd146102d95780633bb7579c146102f957806342842e0e14610319578063480777b11461033957600080fd5b806301ffc9a71461022857806306fdde031461025d578063081812fc1461027f578063095ea7b3146102b757600080fd5b366102235760405134815233907fda8220a878ff7a89474ccffdaa31ea1ed1ffbb0207d5051afccc4fbaf81f9bcd9060200160405180910390a2005b600080fd5b34801561023457600080fd5b50610248610243366004612f7c565b6106b6565b60405190151581526020015b60405180910390f35b34801561026957600080fd5b506102726106e1565b6040516102549190612fe9565b34801561028b57600080fd5b5061029f61029a366004612ffc565b610773565b6040516001600160a01b039091168152602001610254565b3480156102c357600080fd5b506102d76102d2366004613031565b61079a565b005b3480156102e557600080fd5b506102d76102f436600461305b565b6108b4565b34801561030557600080fd5b506102d7610314366004613097565b6108e5565b34801561032557600080fd5b506102d761033436600461305b565b6109a5565b34801561034557600080fd5b5061034e6109c0565b60405161025491906130c3565b6102d7610369366004612ffc565b610bfa565b34801561037a57600080fd5b506102d7610389366004612ffc565b610da5565b34801561039a57600080fd5b5061029f6103a9366004612ffc565b610e98565b3480156103ba57600080fd5b506103ce6103c936600461317b565b610ef8565b604051908152602001610254565b3480156103e857600080fd5b506102d7610f7e565b3480156103fd57600080fd5b5061045361040c366004612ffc565b60fd6020526000908152604090208054600182015460028301546003840154600485015460058601546006909601546001600160a01b039095169593949293919290919087565b604080516001600160a01b0390981688526020880196909652948601939093526060850191909152608084015260a083015260c082015260e001610254565b34801561049e57600080fd5b506102d76104ad366004612ffc565b610f92565b3480156104be57600080fd5b506102d76104cd366004613196565b611050565b3480156104de57600080fd5b506102d761135e565b3480156104f357600080fd5b5060c9546001600160a01b031661029f565b6102d7610513366004612ffc565b6114b9565b34801561052457600080fd5b50610272611747565b34801561053957600080fd5b5061034e61054836600461317b565b611756565b34801561055957600080fd5b506102d76105683660046131c8565b61194e565b34801561057957600080fd5b506102d7610588366004613290565b611959565b34801561059957600080fd5b506102d76105a8366004612ffc565b611991565b3480156105b957600080fd5b506102d76105c8366004612ffc565b611ac0565b3480156105d957600080fd5b506103ce60fb5481565b3480156105ef57600080fd5b506102d76105fe366004612ffc565b611be5565b34801561060f57600080fd5b5061027261061e366004612ffc565b611d26565b34801561062f57600080fd5b5061024861063e36600461330c565b611e36565b34801561064f57600080fd5b506102d761065e36600461317b565b611e64565b34801561066f57600080fd5b506102d761067e366004613336565b611eda565b34801561068f57600080fd5b506106a361069e366004612ffc565b612102565b604051610254979695949392919061338f565b60006001600160e01b03198216632483248360e11b14806106db57506106db826121dd565b92915050565b6060606580546106f0906133df565b80601f016020809104026020016040519081016040528092919081815260200182805461071c906133df565b80156107695780601f1061073e57610100808354040283529160200191610769565b820191906000526020600020905b81548152906001019060200180831161074c57829003601f168201915b5050505050905090565b600061077e8261222d565b506000908152606960205260409020546001600160a01b031690565b60006107a582610e98565b9050806001600160a01b0316836001600160a01b0316036108175760405162461bcd60e51b815260206004820152602160248201527f4552433732313a20617070726f76616c20746f2063757272656e74206f776e656044820152603960f91b60648201526084015b60405180910390fd5b336001600160a01b038216148061083357506108338133611e36565b6108a55760405162461bcd60e51b815260206004820152603d60248201527f4552433732313a20617070726f76652063616c6c6572206973206e6f7420746f60448201527f6b656e206f776e6572206f7220617070726f76656420666f7220616c6c000000606482015260840161080e565b6108af838361227d565b505050565b6108be33826122eb565b6108da5760405162461bcd60e51b815260040161080e90613419565b6108af838383612349565b816108ef816124ad565b61090b5760405162461bcd60e51b815260040161080e90613466565b3361091582610e98565b6001600160a01b03161461093b5760405162461bcd60e51b815260040161080e906134aa565b600083815260fc60205260409020600301546001600160a01b0316156109735760405162461bcd60e51b815260040161080e906134f2565b50600091825260fc602052604090912060030180546001600160a01b0319166001600160a01b03909216919091179055565b6108af83838360405180602001604052806000815250611959565b6060600060015b60fb548111610a1157600081815260fc6020526040902060030154600160a01b900460ff16156109ff57816109fb81613533565b9250505b80610a0981613533565b9150506109c7565b5060008167ffffffffffffffff811115610a2d57610a2d613204565b604051908082528060200260200182016040528015610a6657816020015b610a53612ecc565b815260200190600190039081610a4b5790505b509050600060015b60fb548111158015610a7f57508382105b15610bf157600081815260fc6020526040902060030154600160a01b900460ff1615610bdf5760fc60008281526020019081526020016000206040518060e00160405290816000820154815260200160018201548152602001600282018054610ae7906133df565b80601f0160208091040260200160405190810160405280929190818152602001828054610b13906133df565b8015610b605780601f10610b3557610100808354040283529160200191610b60565b820191906000526020600020905b815481529060010190602001808311610b4357829003601f168201915b5050509183525050600391909101546001600160a01b038116602083015260ff600160a01b8204811615156040840152600160a81b8204811615156060840152600160b01b9091041615156080909101528351849084908110610bc557610bc561354c565b60200260200101819052508180610bdb90613533565b9250505b80610be981613533565b915050610a6e565b50909392505050565b610c03816124ad565b610c1f5760405162461bcd60e51b815260040161080e90613466565b600081815260fc6020526040902054341015610c745760405162461bcd60e51b8152602060048201526014602482015273125b9cdd59999a58da595b9d081c185e5b595b9d60621b604482015260640161080e565b600081815260fc60205260409020600301546001600160a01b03163314610d035760405162461bcd60e51b815260206004820152603860248201527f43616c6c6572206973206e6f74207468652061677265656420617070726f766560448201527f7220666f722074686973206c616e64207472616e736665720000000000000000606482015260840161080e565b600081815260fc6020526040902060030154600160a81b900460ff1615610d3c5760405162461bcd60e51b815260040161080e90613562565b600081815260fc6020526040902060038101805460ff60a81b1916600160a81b1790555433906108fc90610d7090346135a8565b6040518115909202916000818181858888f19350505050158015610d98573d6000803e3d6000fd5b50610da2816124ca565b50565b80610daf816124ad565b610dcb5760405162461bcd60e51b815260040161080e90613466565b33610dd582610e98565b6001600160a01b031614610dfb5760405162461bcd60e51b815260040161080e906134aa565b600082815260fc6020526040902060030154600160a01b900460ff1615610e735760405162461bcd60e51b815260206004820152602660248201527f50726f706572747920697320616c726561647920617661696c61626c6520666f604482015265722073616c6560d01b606482015260840161080e565b50600090815260fc60205260409020600301805460ff60a01b1916600160a01b179055565b6000818152606760205260408120546001600160a01b0316806106db5760405162461bcd60e51b8152602060048201526018602482015277115490cdcc8c4e881a5b9d985b1a59081d1bdad95b88125160421b604482015260640161080e565b60006001600160a01b038216610f625760405162461bcd60e51b815260206004820152602960248201527f4552433732313a2061646472657373207a65726f206973206e6f7420612076616044820152683634b21037bbb732b960b91b606482015260840161080e565b506001600160a01b031660009081526068602052604090205490565b610f8661262c565b610f906000612686565b565b80610f9c816124ad565b610fb85760405162461bcd60e51b815260040161080e90613466565b33610fc282610e98565b6001600160a01b031614610fe85760405162461bcd60e51b815260040161080e906134aa565b600082815260fc6020526040902060030154600160b01b900460ff16156110215760405162461bcd60e51b815260040161080e906135bb565b600082815260fc60205260409020600301805460ff60b01b1916600160b01b17905561104c826124ca565b5050565b8361105a816124ad565b6110765760405162461bcd60e51b815260040161080e90613466565b3361108082610e98565b6001600160a01b0316146110a65760405162461bcd60e51b815260040161080e906134aa565b600085815260fd60205260409020600101548590156110ff5760405162461bcd60e51b8152602060048201526015602482015274141c9bdc195c9d1e481a5cc81b5bdc9d19d859d959605a1b604482015260640161080e565b600086815260fc6020526040902060030154600160a01b900460ff16156111385760405162461bcd60e51b815260040161080e90613602565b600086815260fc60205260409020600301546001600160a01b0316156111705760405162461bcd60e51b815260040161080e906134f2565b600086815260fc6020526040902060030154600160a81b900460ff16156111a95760405162461bcd60e51b815260040161080e90613562565b600086815260fc6020526040902060030154600160b01b900460ff16156111e25760405162461bcd60e51b815260040161080e906135bb565b604051339086156108fc029087906000818181858888f1935050505015801561120f573d6000803e3d6000fd5b5061121b333088612349565b3061122587610e98565b6001600160a01b03161461124b5760405162461bcd60e51b815260040161080e9061365f565b611255338761227d565b6040518060e001604052806112673390565b6001600160a01b0316815260200187815260200186815260200185815260200184815260200160018587600161129d9190613688565b6112a7919061377f565b6112b191906135a8565b856112bd886001613688565b6112c7919061377f565b6112d1908861378b565b6112db91906137a2565b6112e5908861378b565b81526000602091820181905297885260fd8152604097889020825181546001600160a01b0319166001600160a01b03909116178155908201516001820155968101516002880155606081015160038801556080810151600488015560a0810151600588015560c001516006909601959095555050505050565b600054610100900460ff161580801561137e5750600054600160ff909116105b806113985750303b158015611398575060005460ff166001145b6113fb5760405162461bcd60e51b815260206004820152602e60248201527f496e697469616c697a61626c653a20636f6e747261637420697320616c72656160448201526d191e481a5b9a5d1a585b1a5e995960921b606482015260840161080e565b6000805460ff19166001179055801561141e576000805461ff0019166101001790555b6114646040518060400160405280600881526020016750726f706572747960c01b81525060405180604001604052806004815260200163050524f560e41b8152506126d8565b61146c612709565b600060fb558015610da2576000805461ff0019169055604051600181527f7f26b83ff96e1f2b6a682f133852f6798a09c465da95921460cefb38474024989060200160405180910390a150565b600081815260fd60205260409020600101548190811461151b5760405162461bcd60e51b815260206004820152601960248201527f50726f7065727479206973206e6f74206d6f7274676167656400000000000000604482015260640161080e565b600082815260fd60205260409020546001600160a01b0316336001600160a01b0316146115775760405162461bcd60e51b815260206004820152600a6024820152692737ba103637b0b732b960b11b604482015260640161080e565b600082815260fd60205260409020600501543410156115cf5760405162461bcd60e51b8152602060048201526014602482015273125b9cdd59999a58da595b9d081c185e5b595b9d60621b604482015260640161080e565b600082815260fd6020526040902060048101546006909101541061162d5760405162461bcd60e51b8152602060048201526015602482015274135bdc9d19d859d948185b1c9958591e481c185a59605a1b604482015260640161080e565b600082815260fd6020526040812060060180549161164a83613533565b9091555050600082815260fd6020526040902080546005909101546001600160a01b03909116906108fc9061167f90346135a8565b6040518115909202916000818181858888f193505050501580156116a7573d6000803e3d6000fd5b50600082815260fd6020526040902060048101546006909101540361104c576116d1303384612349565b336116db83610e98565b6001600160a01b0316146117015760405162461bcd60e51b815260040161080e9061365f565b50600090815260fd6020526040812080546001600160a01b0319168155600181018290556002810182905560038101829055600481018290556005810182905560060155565b6060606680546106f0906133df565b6060600061176383610ef8565b905060008167ffffffffffffffff81111561178057611780613204565b6040519080825280602002602001820160405280156117b957816020015b6117a6612ecc565b81526020019060019003908161179e5790505b509050600060015b60fb5481111580156117d257508382105b1561194457856001600160a01b03166117ea82610e98565b6001600160a01b0316036119325760fc60008281526020019081526020016000206040518060e0016040529081600082015481526020016001820154815260200160028201805461183a906133df565b80601f0160208091040260200160405190810160405280929190818152602001828054611866906133df565b80156118b35780601f10611888576101008083540402835291602001916118b3565b820191906000526020600020905b81548152906001019060200180831161189657829003601f168201915b5050509183525050600391909101546001600160a01b038116602083015260ff600160a01b8204811615156040840152600160a81b8204811615156060840152600160b01b90910416151560809091015283518490849081106119185761191861354c565b6020026020010181905250818061192e90613533565b9250505b8061193c81613533565b9150506117c1565b5090949350505050565b61104c338383612738565b61196333836122eb565b61197f5760405162461bcd60e51b815260040161080e90613419565b61198b848484846127fe565b50505050565b8061199b816124ad565b6119b75760405162461bcd60e51b815260040161080e90613466565b336119c182610e98565b6001600160a01b0316146119e75760405162461bcd60e51b815260040161080e906134aa565b6119f0826124ad565b611a0c5760405162461bcd60e51b815260040161080e90613466565b600082815260fc6020526040902060030154600160a01b900460ff1615611a455760405162461bcd60e51b815260040161080e90613602565b611a4e82612831565b600082815260fc602052604081208181556001810182905590611a746002830182612f18565b5060030180546001600160b81b031916905560405182815233907f8e2f5fcc57c31738b03aa91accdd55b13dc355a4fa1707d953f49c973e18e6e4906020015b60405180910390a25050565b80611aca816124ad565b611ae65760405162461bcd60e51b815260040161080e90613466565b33611af082610e98565b6001600160a01b031614611b165760405162461bcd60e51b815260040161080e906134aa565b600082815260fc6020526040902060030154600160a01b900460ff161515600114611b8e5760405162461bcd60e51b815260206004820152602260248201527f50726f7065727479206973206e6f7420617661696c61626c6520666f722073616044820152616c6560f01b606482015260840161080e565b600082815260fc60205260409020600301546001600160a01b031615611bc65760405162461bcd60e51b815260040161080e906134f2565b50600090815260fc60205260409020600301805460ff60a01b19169055565b80611bef816124ad565b611c0b5760405162461bcd60e51b815260040161080e90613466565b33611c1582610e98565b6001600160a01b031614611c3b5760405162461bcd60e51b815260040161080e906134aa565b600082815260fc60205260409020600301546001600160a01b0316611c925760405162461bcd60e51b815260206004820152600d60248201526c109d5e595c881b9bdd081cd95d609a1b604482015260640161080e565b600082815260fc6020526040902060030154600160b01b900460ff1615611ccb5760405162461bcd60e51b815260040161080e906135bb565b600082815260fc6020526040902060030154600160a81b900460ff1615611d045760405162461bcd60e51b815260040161080e90613562565b50600090815260fc6020526040902060030180546001600160a01b0319169055565b6060611d318261222d565b60008281526097602052604081208054611d4a906133df565b80601f0160208091040260200160405190810160405280929190818152602001828054611d76906133df565b8015611dc35780601f10611d9857610100808354040283529160200191611dc3565b820191906000526020600020905b815481529060010190602001808311611da657829003601f168201915b505050505090506000611de160408051602081019091526000815290565b90508051600003611df3575092915050565b815115611e25578082604051602001611e0d9291906137c4565b60405160208183030381529060405292505050919050565b611e2e84612871565b949350505050565b6001600160a01b039182166000908152606a6020908152604080832093909416825291909152205460ff1690565b611e6c61262c565b6001600160a01b038116611ed15760405162461bcd60e51b815260206004820152602660248201527f4f776e61626c653a206e6577206f776e657220697320746865207a65726f206160448201526564647265737360d01b606482015260840161080e565b610da281612686565b6000825111611f215760405162461bcd60e51b81526020600482015260136024820152725552492063616e6e6f7420626520656d70747960681b604482015260640161080e565b60008111611f675760405162461bcd60e51b8152602060048201526013602482015272436f73742063616e6e6f74206265207a65726f60681b604482015260640161080e565b60fb8054906000611f7783613533565b90915550506040805160e08101825282815260fb5460208083018281528385018781526000606086018190526080860181905260a0860181905260c0860181905293845260fc909252939091208251815592516001840155519091906002820190611fe29082613841565b50606082015160039091018054608084015160a085015160c0909501511515600160b01b0260ff60b01b19951515600160a81b029590951661ffff60a81b19911515600160a01b026001600160a81b03199093166001600160a01b039095169490941791909117169190911791909117905561206661205e3390565b60fb546128e5565b61207260fb54836128ff565b336001600160a01b031661208760fb54610e98565b6001600160a01b0316146120cd5760405162461bcd60e51b815260206004820152600d60248201526c13dddb995c881b9bdd081cd95d609a1b604482015260640161080e565b60fb5460405190815233907f2728c9d3205d667bbc0eefdfeda366261b4d021949630c047f3e5834b30611ab90602001611ab4565b60fc602052600090815260409020805460018201546002830180549293919261212a906133df565b80601f0160208091040260200160405190810160405280929190818152602001828054612156906133df565b80156121a35780601f10612178576101008083540402835291602001916121a3565b820191906000526020600020905b81548152906001019060200180831161218657829003601f168201915b505050600390930154919250506001600160a01b0381169060ff600160a01b8204811691600160a81b8104821691600160b01b9091041687565b60006001600160e01b031982166380ac58cd60e01b148061220e57506001600160e01b03198216635b5e139f60e01b145b806106db57506301ffc9a760e01b6001600160e01b03198316146106db565b612236816124ad565b610da25760405162461bcd60e51b8152602060048201526018602482015277115490cdcc8c4e881a5b9d985b1a59081d1bdad95b88125160421b604482015260640161080e565b600081815260696020526040902080546001600160a01b0319166001600160a01b03841690811790915581906122b282610e98565b6001600160a01b03167f8c5be1e5ebec7d5bd14f71427d1e84f3dd0314c0f7b2291e5b200ac8c7c3b92560405160405180910390a45050565b6000806122f783610e98565b9050806001600160a01b0316846001600160a01b0316148061231e575061231e8185611e36565b80611e2e5750836001600160a01b031661233784610773565b6001600160a01b031614949350505050565b826001600160a01b031661235c82610e98565b6001600160a01b0316146123825760405162461bcd60e51b815260040161080e90613901565b6001600160a01b0382166123e45760405162461bcd60e51b8152602060048201526024808201527f4552433732313a207472616e7366657220746f20746865207a65726f206164646044820152637265737360e01b606482015260840161080e565b826001600160a01b03166123f782610e98565b6001600160a01b03161461241d5760405162461bcd60e51b815260040161080e90613901565b600081815260696020908152604080832080546001600160a01b03199081169091556001600160a01b0387811680865260688552838620805460001901905590871680865283862080546001019055868652606790945282852080549092168417909155905184937fddf252ad1be2c89b69c2b068fc378daa952ba7f163c4a11628f55a4df523b3ef91a4505050565b6000908152606760205260409020546001600160a01b0316151590565b600081815260fc6020526040902060030154600160a81b900460ff16801561250a5750600081815260fc6020526040902060030154600160b01b900460ff165b15610da257600081815260fc60205260408120600301546001600160a01b03169061253483610e98565b600084815260fc60205260408082205490519293506001600160a01b0384169281156108fc0292818181858888f19350505050158015612578573d6000803e3d6000fd5b50612584818385612349565b816001600160a01b031661259784610e98565b6001600160a01b0316146125bd5760405162461bcd60e51b815260040161080e9061365f565b600083815260fc60209081526040918290206003810180546001600160b81b0319169055548251868152918201526001600160a01b0384811692908416917f9ed053bb818ff08b8353cd46f78db1f0799f31c9e4458fdb425c10eccd2efc4491015b60405180910390a3505050565b60c9546001600160a01b03163314610f905760405162461bcd60e51b815260206004820181905260248201527f4f776e61626c653a2063616c6c6572206973206e6f7420746865206f776e6572604482015260640161080e565b60c980546001600160a01b038381166001600160a01b0319831681179093556040519116919082907f8be0079c531659141344cd1fd0a4f28419497f9722a3daafe3b4186f6b6457e090600090a35050565b600054610100900460ff166126ff5760405162461bcd60e51b815260040161080e90613946565b61104c82826129bb565b600054610100900460ff166127305760405162461bcd60e51b815260040161080e90613946565b610f906129fb565b816001600160a01b0316836001600160a01b0316036127995760405162461bcd60e51b815260206004820152601960248201527f4552433732313a20617070726f766520746f2063616c6c657200000000000000604482015260640161080e565b6001600160a01b038381166000818152606a6020908152604080832094871680845294825291829020805460ff191686151590811790915591519182527f17307eab39ab6107e8899845ad3d59bd9653f200f220920489ca2b5937696c31910161261f565b612809848484612349565b61281584848484612a2b565b61198b5760405162461bcd60e51b815260040161080e90613991565b61283a81612b2c565b60008181526097602052604090208054612853906133df565b159050610da2576000818152609760205260408120610da291612f18565b606061287c8261222d565b600061289360408051602081019091526000815290565b905060008151116128b357604051806020016040528060008152506128de565b806128bd84612bc1565b6040516020016128ce9291906137c4565b6040516020818303038152906040525b9392505050565b61104c828260405180602001604052806000815250612c54565b612908826124ad565b61296b5760405162461bcd60e51b815260206004820152602e60248201527f45524337323155524953746f726167653a2055524920736574206f66206e6f6e60448201526d32bc34b9ba32b73a103a37b5b2b760911b606482015260840161080e565b60008281526097602052604090206129838282613841565b506040518281527ff8e1a15aba9398e019f0b49df1a4fde98ee17ae345cb5f6b5e2c27f5033e8ce79060200160405180910390a15050565b600054610100900460ff166129e25760405162461bcd60e51b815260040161080e90613946565b60656129ee8382613841565b5060666108af8282613841565b600054610100900460ff16612a225760405162461bcd60e51b815260040161080e90613946565b610f9033612686565b60006001600160a01b0384163b15612b2157604051630a85bd0160e11b81526001600160a01b0385169063150b7a0290612a6f9033908990889088906004016139e3565b6020604051808303816000875af1925050508015612aaa575060408051601f3d908101601f19168201909252612aa791810190613a20565b60015b612b07573d808015612ad8576040519150601f19603f3d011682016040523d82523d6000602084013e612add565b606091505b508051600003612aff5760405162461bcd60e51b815260040161080e90613991565b805181602001fd5b6001600160e01b031916630a85bd0160e11b149050611e2e565b506001949350505050565b6000612b3782610e98565b9050612b4282610e98565b600083815260696020908152604080832080546001600160a01b03199081169091556001600160a01b0385168085526068845282852080546000190190558785526067909352818420805490911690555192935084927fddf252ad1be2c89b69c2b068fc378daa952ba7f163c4a11628f55a4df523b3ef908390a45050565b60606000612bce83612c87565b600101905060008167ffffffffffffffff811115612bee57612bee613204565b6040519080825280601f01601f191660200182016040528015612c18576020820181803683370190505b5090508181016020015b600019016f181899199a1a9b1b9c1cb0b131b232b360811b600a86061a8153600a8504945084612c2257509392505050565b612c5e8383612d5f565b612c6b6000848484612a2b565b6108af5760405162461bcd60e51b815260040161080e90613991565b60008072184f03e93ff9f4daa797ed6e38ed64bf6a1f0160401b8310612cc65772184f03e93ff9f4daa797ed6e38ed64bf6a1f0160401b830492506040015b6d04ee2d6d415b85acef81000000008310612cf2576d04ee2d6d415b85acef8100000000830492506020015b662386f26fc100008310612d1057662386f26fc10000830492506010015b6305f5e1008310612d28576305f5e100830492506008015b6127108310612d3c57612710830492506004015b60648310612d4e576064830492506002015b600a83106106db5760010192915050565b6001600160a01b038216612db55760405162461bcd60e51b815260206004820181905260248201527f4552433732313a206d696e7420746f20746865207a65726f2061646472657373604482015260640161080e565b612dbe816124ad565b15612e0b5760405162461bcd60e51b815260206004820152601c60248201527f4552433732313a20746f6b656e20616c7265616479206d696e74656400000000604482015260640161080e565b612e14816124ad565b15612e615760405162461bcd60e51b815260206004820152601c60248201527f4552433732313a20746f6b656e20616c7265616479206d696e74656400000000604482015260640161080e565b6001600160a01b038216600081815260686020908152604080832080546001019055848352606790915280822080546001600160a01b0319168417905551839291907fddf252ad1be2c89b69c2b068fc378daa952ba7f163c4a11628f55a4df523b3ef908290a45050565b6040518060e0016040528060008152602001600081526020016060815260200160006001600160a01b031681526020016000151581526020016000151581526020016000151581525090565b508054612f24906133df565b6000825580601f10612f34575050565b601f016020900490600052602060002090810190610da291905b80821115612f625760008155600101612f4e565b5090565b6001600160e01b031981168114610da257600080fd5b600060208284031215612f8e57600080fd5b81356128de81612f66565b60005b83811015612fb4578181015183820152602001612f9c565b50506000910152565b60008151808452612fd5816020860160208601612f99565b601f01601f19169290920160200192915050565b6020815260006128de6020830184612fbd565b60006020828403121561300e57600080fd5b5035919050565b80356001600160a01b038116811461302c57600080fd5b919050565b6000806040838503121561304457600080fd5b61304d83613015565b946020939093013593505050565b60008060006060848603121561307057600080fd5b61307984613015565b925061308760208501613015565b9150604084013590509250925092565b600080604083850312156130aa57600080fd5b823591506130ba60208401613015565b90509250929050565b60006020808301818452808551808352604092508286019150828160051b87010184880160005b8381101561316d57603f19898403018552815160e081518552888201518986015287820151818987015261312082870182612fbd565b6060848101516001600160a01b03169088015260808085015115159088015260a08085015115159088015260c09384015115159390960192909252505093860193908601906001016130ea565b509098975050505050505050565b60006020828403121561318d57600080fd5b6128de82613015565b600080600080608085870312156131ac57600080fd5b5050823594602084013594506040840135936060013592509050565b600080604083850312156131db57600080fd5b6131e483613015565b9150602083013580151581146131f957600080fd5b809150509250929050565b634e487b7160e01b600052604160045260246000fd5b600067ffffffffffffffff8084111561323557613235613204565b604051601f8501601f19908116603f0116810190828211818310171561325d5761325d613204565b8160405280935085815286868601111561327657600080fd5b858560208301376000602087830101525050509392505050565b600080600080608085870312156132a657600080fd5b6132af85613015565b93506132bd60208601613015565b925060408501359150606085013567ffffffffffffffff8111156132e057600080fd5b8501601f810187136132f157600080fd5b6133008782356020840161321a565b91505092959194509250565b6000806040838503121561331f57600080fd5b61332883613015565b91506130ba60208401613015565b6000806040838503121561334957600080fd5b823567ffffffffffffffff81111561336057600080fd5b8301601f8101851361337157600080fd5b6133808582356020840161321a565b95602094909401359450505050565b87815286602082015260e0604082015260006133ae60e0830188612fbd565b6001600160a01b0396909616606083015250921515608084015290151560a0830152151560c0909101529392505050565b600181811c908216806133f357607f821691505b60208210810361341357634e487b7160e01b600052602260045260246000fd5b50919050565b6020808252602d908201527f4552433732313a2063616c6c6572206973206e6f7420746f6b656e206f776e6560408201526c1c881bdc88185c1c1c9bdd9959609a1b606082015260800190565b60208082526024908201527f50726f70657274792077697468207468697320494420646f6573206e6f7420656040820152631e1a5cdd60e21b606082015260800190565b60208082526028908201527f43616c6c6572206973206e6f7420746865206f776e6572206f6620746869732060408201526770726f706572747960c01b606082015260800190565b602080825260119082015270109d5e595c88185b1c9958591e481cd95d607a1b604082015260600190565b634e487b7160e01b600052601160045260246000fd5b6000600182016135455761354561351d565b5060010190565b634e487b7160e01b600052603260045260246000fd5b60208082526026908201527f5472616e7366657220616c726561647920617070726f7665642062792074686560408201526510313abcb2b960d11b606082015260800190565b818103818111156106db576106db61351d565b60208082526027908201527f5472616e7366657220616c726561647920617070726f766564206279207468656040820152661039b2b63632b960c91b606082015260800190565b6020808252603c908201527f50726f706572747920697320617661696c61626c6520666f722073616c652e2060408201527f506c656173652063616e63656c207468652073616c6520666972737400000000606082015260800190565b6020808252600f908201526e151c985b9cd9995c8819985a5b1959608a1b604082015260600190565b808201808211156106db576106db61351d565b600181815b808511156136d65781600019048211156136bc576136bc61351d565b808516156136c957918102915b93841c93908002906136a0565b509250929050565b6000826136ed575060016106db565b816136fa575060006106db565b8160018114613710576002811461371a57613736565b60019150506106db565b60ff84111561372b5761372b61351d565b50506001821b6106db565b5060208310610133831016604e8410600b8410161715613759575081810a6106db565b613763838361369b565b80600019048211156137775761377761351d565b029392505050565b60006128de83836136de565b80820281158282048414176106db576106db61351d565b6000826137bf57634e487b7160e01b600052601260045260246000fd5b500490565b600083516137d6818460208801612f99565b8351908301906137ea818360208801612f99565b01949350505050565b601f8211156108af57600081815260208120601f850160051c8101602086101561381a5750805b601f850160051c820191505b8181101561383957828155600101613826565b505050505050565b815167ffffffffffffffff81111561385b5761385b613204565b61386f8161386984546133df565b846137f3565b602080601f8311600181146138a4576000841561388c5750858301515b600019600386901b1c1916600185901b178555613839565b600085815260208120601f198616915b828110156138d3578886015182559484019460019091019084016138b4565b50858210156138f15787850151600019600388901b60f8161c191681555b5050505050600190811b01905550565b60208082526025908201527f4552433732313a207472616e736665722066726f6d20696e636f72726563742060408201526437bbb732b960d91b606082015260800190565b6020808252602b908201527f496e697469616c697a61626c653a20636f6e7472616374206973206e6f74206960408201526a6e697469616c697a696e6760a81b606082015260800190565b60208082526032908201527f4552433732313a207472616e7366657220746f206e6f6e20455243373231526560408201527131b2b4bb32b91034b6b83632b6b2b73a32b960711b606082015260800190565b6001600160a01b0385811682528416602082015260408101839052608060608201819052600090613a1690830184612fbd565b9695505050505050565b600060208284031215613a3257600080fd5b81516128de81612f6656fea2646970667358221220ef3ae2bae5db706b3e2c335eed5905c9627faa59ba977f8e631a74d24204286a64736f6c63430008140033",
  "linkReferences": {},
  "deployedLinkReferences": {}
}