{
  "_format": "hh-sol-artifact-1",
  "contractName": "PropertyV1",
  "sourceName": "contracts/PropertyV1.sol",
  "abi": [
    {
      "anonymous": false,
      "inputs": [
        {
          "indexed": true,
          "internalType": "address",
          "name": "_owner",
          "type": "address"
        },
        {
          "indexed": false,
          "internalType": "uint256",
          "name": "_propertyId",
          "type": "uint256"
        }
      ],
      "name": "Add",
      "type": "event"
    },
    {
      "anonymous": false,
      "inputs": [
        {
          "indexed": true,
          "internalType": "address",
          "name": "owner",
          "type": "address"
        },
        {
          "indexed": true,
          "internalType": "address",
          "name": "approved",
          "type": "address"
        },
        {
          "indexed": true,
          "internalType": "uint256",
          "name": "tokenId",
          "type": "uint256"
        }
      ],
      "name": "Approval",
      "type": "event"
    },
    {
      "anonymous": false,
      "inputs": [
        {
          "indexed": true,
          "internalType": "address",
          "name": "owner",
          "type": "address"
        },
        {
          "indexed": true,
          "internalType": "address",
          "name": "operator",
          "type": "address"
        },
        {
          "indexed": false,
          "internalType": "bool",
          "name": "approved",
          "type": "bool"
        }
      ],
      "name": "ApprovalForAll",
      "type": "event"
    },
    {
      "anonymous": false,
      "inputs": [
        {
          "indexed": false,
          "internalType": "uint256",
          "name": "_fromTokenId",
          "type": "uint256"
        },
        {
          "indexed": false,
          "internalType": "uint256",
          "name": "_toTokenId",
          "type": "uint256"
        }
      ],
      "name": "BatchMetadataUpdate",
      "type": "event"
    },
    {
      "anonymous": false,
      "inputs": [
        {
          "indexed": false,
          "internalType": "uint8",
          "name": "version",
          "type": "uint8"
        }
      ],
      "name": "Initialized",
      "type": "event"
    },
    {
      "anonymous": false,
      "inputs": [
        {
          "indexed": false,
          "internalType": "uint256",
          "name": "_tokenId",
          "type": "uint256"
        }
      ],
      "name": "MetadataUpdate",
      "type": "event"
    },
    {
      "anonymous": false,
      "inputs": [
        {
          "indexed": true,
          "internalType": "address",
          "name": "previousOwner",
          "type": "address"
        },
        {
          "indexed": true,
          "internalType": "address",
          "name": "newOwner",
          "type": "address"
        }
      ],
      "name": "OwnershipTransferred",
      "type": "event"
    },
    {
      "anonymous": false,
      "inputs": [
        {
          "indexed": true,
          "internalType": "address",
          "name": "_owner",
          "type": "address"
        },
        {
          "indexed": false,
          "internalType": "uint256",
          "name": "_propertyId",
          "type": "uint256"
        }
      ],
      "name": "Remove",
      "type": "event"
    },
    {
      "anonymous": false,
      "inputs": [
        {
          "indexed": true,
          "internalType": "address",
          "name": "from",
          "type": "address"
        },
        {
          "indexed": true,
          "internalType": "address",
          "name": "to",
          "type": "address"
        },
        {
          "indexed": true,
          "internalType": "uint256",
          "name": "tokenId",
          "type": "uint256"
        }
      ],
      "name": "Transfer",
      "type": "event"
    },
    {
      "anonymous": false,
      "inputs": [
        {
          "indexed": true,
          "internalType": "address",
          "name": "_seller",
          "type": "address"
        },
        {
          "indexed": true,
          "internalType": "address",
          "name": "_buyer",
          "type": "address"
        },
        {
          "indexed": false,
          "internalType": "uint256",
          "name": "_propertyId",
          "type": "uint256"
        },
        {
          "indexed": false,
          "internalType": "uint256",
          "name": "_sellPrice",
          "type": "uint256"
        }
      ],
      "name": "Transfer",
      "type": "event"
    },
    {
      "inputs": [
        {
          "internalType": "address",
          "name": "_owner",
          "type": "address"
        },
        {
          "internalType": "string",
          "name": "_uri",
          "type": "string"
        },
        {
          "internalType": "uint256",
          "name": "_cost",
          "type": "uint256"
        }
      ],
      "name": "addProperty",
      "outputs": [],
      "stateMutability": "nonpayable",
      "type": "function"
    },
    {
      "inputs": [
        {
          "internalType": "uint256",
          "name": "_propertyId",
          "type": "uint256"
        },
        {
          "internalType": "address",
          "name": "_buyer",
          "type": "address"
        }
      ],
      "name": "agreeOnBuyer",
      "outputs": [],
      "stateMutability": "nonpayable",
      "type": "function"
    },
    {
      "inputs": [
        {
          "internalType": "address",
          "name": "to",
          "type": "address"
        },
        {
          "internalType": "uint256",
          "name": "tokenId",
          "type": "uint256"
        }
      ],
      "name": "approve",
      "outputs": [],
      "stateMutability": "nonpayable",
      "type": "function"
    },
    {
      "inputs": [
        {
          "internalType": "uint256",
          "name": "_propertyId",
          "type": "uint256"
        }
      ],
      "name": "approveTransferAsBuyer",
      "outputs": [],
      "stateMutability": "payable",
      "type": "function"
    },
    {
      "inputs": [
        {
          "internalType": "uint256",
          "name": "_propertyId",
          "type": "uint256"
        }
      ],
      "name": "approveTransferAsSeller",
      "outputs": [],
      "stateMutability": "nonpayable",
      "type": "function"
    },
    {
      "inputs": [
        {
          "internalType": "address",
          "name": "owner",
          "type": "address"
        }
      ],
      "name": "balanceOf",
      "outputs": [
        {
          "internalType": "uint256",
          "name": "",
          "type": "uint256"
        }
      ],
      "stateMutability": "view",
      "type": "function"
    },
    {
      "inputs": [
        {
          "internalType": "uint256",
          "name": "_propertyId",
          "type": "uint256"
        }
      ],
      "name": "cancelPropertySale",
      "outputs": [],
      "stateMutability": "nonpayable",
      "type": "function"
    },
    {
      "inputs": [
        {
          "internalType": "uint256",
          "name": "_propertyId",
          "type": "uint256"
        }
      ],
      "name": "clearAgreedBuyer",
      "outputs": [],
      "stateMutability": "nonpayable",
      "type": "function"
    },
    {
      "inputs": [
        {
          "internalType": "uint256",
          "name": "tokenId",
          "type": "uint256"
        }
      ],
      "name": "getApproved",
      "outputs": [
        {
          "internalType": "address",
          "name": "",
          "type": "address"
        }
      ],
      "stateMutability": "view",
      "type": "function"
    },
    {
      "inputs": [],
      "name": "initialize",
      "outputs": [],
      "stateMutability": "nonpayable",
      "type": "function"
    },
    {
      "inputs": [
        {
          "internalType": "address",
          "name": "owner",
          "type": "address"
        },
        {
          "internalType": "address",
          "name": "operator",
          "type": "address"
        }
      ],
      "name": "isApprovedForAll",
      "outputs": [
        {
          "internalType": "bool",
          "name": "",
          "type": "bool"
        }
      ],
      "stateMutability": "view",
      "type": "function"
    },
    {
      "inputs": [
        {
          "internalType": "uint256",
          "name": "_propertyId",
          "type": "uint256"
        }
      ],
      "name": "listPropertyForSale",
      "outputs": [],
      "stateMutability": "nonpayable",
      "type": "function"
    },
    {
      "inputs": [],
      "name": "name",
      "outputs": [
        {
          "internalType": "string",
          "name": "",
          "type": "string"
        }
      ],
      "stateMutability": "view",
      "type": "function"
    },
    {
      "inputs": [],
      "name": "owner",
      "outputs": [
        {
          "internalType": "address",
          "name": "",
          "type": "address"
        }
      ],
      "stateMutability": "view",
      "type": "function"
    },
    {
      "inputs": [
        {
          "internalType": "uint256",
          "name": "tokenId",
          "type": "uint256"
        }
      ],
      "name": "ownerOf",
      "outputs": [
        {
          "internalType": "address",
          "name": "",
          "type": "address"
        }
      ],
      "stateMutability": "view",
      "type": "function"
    },
    {
      "inputs": [
        {
          "internalType": "uint256",
          "name": "",
          "type": "uint256"
        }
      ],
      "name": "properties",
      "outputs": [
        {
          "internalType": "uint256",
          "name": "cost",
          "type": "uint256"
        },
        {
          "internalType": "uint256",
          "name": "propertyId",
          "type": "uint256"
        },
        {
          "internalType": "address",
          "name": "buyer",
          "type": "address"
        },
        {
          "internalType": "bool",
          "name": "wantSell",
          "type": "bool"
        },
        {
          "internalType": "bool",
          "name": "buyerApproved",
          "type": "bool"
        },
        {
          "internalType": "bool",
          "name": "sellerApproved",
          "type": "bool"
        }
      ],
      "stateMutability": "view",
      "type": "function"
    },
    {
      "inputs": [],
      "name": "propertyCount",
      "outputs": [
        {
          "internalType": "uint256",
          "name": "",
          "type": "uint256"
        }
      ],
      "stateMutability": "view",
      "type": "function"
    },
    {
      "inputs": [
        {
          "internalType": "uint256",
          "name": "_propertyId",
          "type": "uint256"
        }
      ],
      "name": "removeProperty",
      "outputs": [],
      "stateMutability": "nonpayable",
      "type": "function"
    },
    {
      "inputs": [],
      "name": "renounceOwnership",
      "outputs": [],
      "stateMutability": "nonpayable",
      "type": "function"
    },
    {
      "inputs": [
        {
          "internalType": "address",
          "name": "from",
          "type": "address"
        },
        {
          "internalType": "address",
          "name": "to",
          "type": "address"
        },
        {
          "internalType": "uint256",
          "name": "tokenId",
          "type": "uint256"
        }
      ],
      "name": "safeTransferFrom",
      "outputs": [],
      "stateMutability": "nonpayable",
      "type": "function"
    },
    {
      "inputs": [
        {
          "internalType": "address",
          "name": "from",
          "type": "address"
        },
        {
          "internalType": "address",
          "name": "to",
          "type": "address"
        },
        {
          "internalType": "uint256",
          "name": "tokenId",
          "type": "uint256"
        },
        {
          "internalType": "bytes",
          "name": "data",
          "type": "bytes"
        }
      ],
      "name": "safeTransferFrom",
      "outputs": [],
      "stateMutability": "nonpayable",
      "type": "function"
    },
    {
      "inputs": [
        {
          "internalType": "address",
          "name": "operator",
          "type": "address"
        },
        {
          "internalType": "bool",
          "name": "approved",
          "type": "bool"
        }
      ],
      "name": "setApprovalForAll",
      "outputs": [],
      "stateMutability": "nonpayable",
      "type": "function"
    },
    {
      "inputs": [
        {
          "internalType": "bytes4",
          "name": "interfaceId",
          "type": "bytes4"
        }
      ],
      "name": "supportsInterface",
      "outputs": [
        {
          "internalType": "bool",
          "name": "",
          "type": "bool"
        }
      ],
      "stateMutability": "view",
      "type": "function"
    },
    {
      "inputs": [],
      "name": "symbol",
      "outputs": [
        {
          "internalType": "string",
          "name": "",
          "type": "string"
        }
      ],
      "stateMutability": "view",
      "type": "function"
    },
    {
      "inputs": [
        {
          "internalType": "uint256",
          "name": "tokenId",
          "type": "uint256"
        }
      ],
      "name": "tokenURI",
      "outputs": [
        {
          "internalType": "string",
          "name": "",
          "type": "string"
        }
      ],
      "stateMutability": "view",
      "type": "function"
    },
    {
      "inputs": [
        {
          "internalType": "address",
          "name": "from",
          "type": "address"
        },
        {
          "internalType": "address",
          "name": "to",
          "type": "address"
        },
        {
          "internalType": "uint256",
          "name": "tokenId",
          "type": "uint256"
        }
      ],
      "name": "transferFrom",
      "outputs": [],
      "stateMutability": "nonpayable",
      "type": "function"
    },
    {
      "inputs": [
        {
          "internalType": "address",
          "name": "newOwner",
          "type": "address"
        }
      ],
      "name": "transferOwnership",
      "outputs": [],
      "stateMutability": "nonpayable",
      "type": "function"
    }
  ],
  "bytecode": "0x608060405234801561001057600080fd5b50612bd2806100206000396000f3fe60806040526004361061019c5760003560e01c80637e6b3bbf116100ec578063c2682e941161008a578063c87b56dd11610064578063c87b56dd14610486578063e985e9c5146104a6578063f2fde38b146104c6578063f7b10808146104e657600080fd5b8063c2682e9414610430578063c361a33514610450578063c7b9380a1461046657600080fd5b806395d89b41116100c657806395d89b41146103bb578063a22cb465146103d0578063b88d4fde146103f0578063bc43d06f1461041057600080fd5b80637e6b3bbf146103685780638129fc1c146103885780638da5cb5b1461039d57600080fd5b80633bb7579c116101595780635419a956116101335780635419a956146102e55780636352211e1461030557806370a0823114610325578063715018a61461035357600080fd5b80633bb7579c1461029257806342842e0e146102b25780635138f19f146102d257600080fd5b806301ffc9a7146101a157806306fdde03146101d6578063081812fc146101f8578063095ea7b3146102305780631a234f411461025257806323b872dd14610272575b600080fd5b3480156101ad57600080fd5b506101c16101bc366004612406565b61058b565b60405190151581526020015b60405180910390f35b3480156101e257600080fd5b506101eb6105b6565b6040516101cd9190612473565b34801561020457600080fd5b50610218610213366004612486565b610648565b6040516001600160a01b0390911681526020016101cd565b34801561023c57600080fd5b5061025061024b3660046124bb565b61066f565b005b34801561025e57600080fd5b5061025061026d366004612571565b610789565b34801561027e57600080fd5b5061025061028d3660046125dc565b6109a2565b34801561029e57600080fd5b506102506102ad366004612618565b6109d3565b3480156102be57600080fd5b506102506102cd3660046125dc565b610ab7565b6102506102e0366004612486565b610ad2565b3480156102f157600080fd5b50610250610300366004612486565b610c7d565b34801561031157600080fd5b50610218610320366004612486565b610d70565b34801561033157600080fd5b50610345610340366004612644565b610dd0565b6040519081526020016101cd565b34801561035f57600080fd5b50610250610e56565b34801561037457600080fd5b50610250610383366004612486565b610e6a565b34801561039457600080fd5b50610250610f28565b3480156103a957600080fd5b5060c9546001600160a01b0316610218565b3480156103c757600080fd5b506101eb611083565b3480156103dc57600080fd5b506102506103eb36600461265f565b611092565b3480156103fc57600080fd5b5061025061040b36600461269b565b61109d565b34801561041c57600080fd5b5061025061042b366004612486565b6110d5565b34801561043c57600080fd5b5061025061044b366004612486565b611253565b34801561045c57600080fd5b5061034560fb5481565b34801561047257600080fd5b50610250610481366004612486565b61139c565b34801561049257600080fd5b506101eb6104a1366004612486565b6114dd565b3480156104b257600080fd5b506101c16104c1366004612717565b6115ed565b3480156104d257600080fd5b506102506104e1366004612644565b61161b565b3480156104f257600080fd5b5061054c610501366004612486565b60fc602052600090815260409020805460018201546002909201549091906001600160a01b0381169060ff600160a01b8204811691600160a81b8104821691600160b01b9091041686565b6040805196875260208701959095526001600160a01b0390931693850193909352151560608401529015156080830152151560a082015260c0016101cd565b60006001600160e01b03198216632483248360e11b14806105b057506105b082611691565b92915050565b6060606580546105c590612741565b80601f01602080910402602001604051908101604052809291908181526020018280546105f190612741565b801561063e5780601f106106135761010080835404028352916020019161063e565b820191906000526020600020905b81548152906001019060200180831161062157829003601f168201915b5050505050905090565b6000610653826116e1565b506000908152606960205260409020546001600160a01b031690565b600061067a82610d70565b9050806001600160a01b0316836001600160a01b0316036106ec5760405162461bcd60e51b815260206004820152602160248201527f4552433732313a20617070726f76616c20746f2063757272656e74206f776e656044820152603960f91b60648201526084015b60405180910390fd5b336001600160a01b0382161480610708575061070881336115ed565b61077a5760405162461bcd60e51b815260206004820152603d60248201527f4552433732313a20617070726f76652063616c6c6572206973206e6f7420746f60448201527f6b656e206f776e6572206f7220617070726f76656420666f7220616c6c00000060648201526084016106e3565b6107848383611731565b505050565b61079161179f565b60008251116107d85760405162461bcd60e51b81526020600482015260136024820152725552492063616e6e6f7420626520656d70747960681b60448201526064016106e3565b6000811161081e5760405162461bcd60e51b8152602060048201526013602482015272436f73742063616e6e6f74206265207a65726f60681b60448201526064016106e3565b60fb805490600061082e83612791565b90915550506040805160c08101825282815260fb805460208084018281526000858701818152606087018281526080880183815260a0890184815296845260fc90955297909120955186559051600186015551600290940180549551915192511515600160b01b0260ff60b01b19931515600160a81b029390931661ffff60a81b19921515600160a01b026001600160a81b03199097166001600160a01b03969096169590951795909517169290921791909117909155546108f19084906117f9565b6108fd60fb5483611813565b826001600160a01b031661091260fb54610d70565b6001600160a01b0316146109585760405162461bcd60e51b815260206004820152600d60248201526c13dddb995c881b9bdd081cd95d609a1b60448201526064016106e3565b826001600160a01b03167f2728c9d3205d667bbc0eefdfeda366261b4d021949630c047f3e5834b30611ab60fb5460405161099591815260200190565b60405180910390a2505050565b6109ac33826118cf565b6109c85760405162461bcd60e51b81526004016106e3906127aa565b61078483838361192d565b816109dd81611a91565b6109f95760405162461bcd60e51b81526004016106e3906127f7565b33610a0382610d70565b6001600160a01b031614610a295760405162461bcd60e51b81526004016106e39061283b565b600083815260fc60205260409020600201546001600160a01b031615610a855760405162461bcd60e51b8152602060048201526011602482015270109d5e595c88185b1c9958591e481cd95d607a1b60448201526064016106e3565b50600091825260fc602052604090912060020180546001600160a01b0319166001600160a01b03909216919091179055565b6107848383836040518060200160405280600081525061109d565b610adb81611a91565b610af75760405162461bcd60e51b81526004016106e3906127f7565b600081815260fc6020526040902054341015610b4c5760405162461bcd60e51b8152602060048201526014602482015273125b9cdd59999a58da595b9d081c185e5b595b9d60621b60448201526064016106e3565b600081815260fc60205260409020600201546001600160a01b03163314610bdb5760405162461bcd60e51b815260206004820152603860248201527f43616c6c6572206973206e6f74207468652061677265656420617070726f766560448201527f7220666f722074686973206c616e64207472616e73666572000000000000000060648201526084016106e3565b600081815260fc6020526040902060020154600160a81b900460ff1615610c145760405162461bcd60e51b81526004016106e390612883565b600081815260fc6020526040902060028101805460ff60a81b1916600160a81b1790555433906108fc90610c4890346128c9565b6040518115909202916000818181858888f19350505050158015610c70573d6000803e3d6000fd5b50610c7a81611aae565b50565b80610c8781611a91565b610ca35760405162461bcd60e51b81526004016106e3906127f7565b33610cad82610d70565b6001600160a01b031614610cd35760405162461bcd60e51b81526004016106e39061283b565b600082815260fc6020526040902060020154600160a01b900460ff1615610d4b5760405162461bcd60e51b815260206004820152602660248201527f50726f706572747920697320616c726561647920617661696c61626c6520666f604482015265722073616c6560d01b60648201526084016106e3565b50600090815260fc60205260409020600201805460ff60a01b1916600160a01b179055565b6000818152606760205260408120546001600160a01b0316806105b05760405162461bcd60e51b8152602060048201526018602482015277115490cdcc8c4e881a5b9d985b1a59081d1bdad95b88125160421b60448201526064016106e3565b60006001600160a01b038216610e3a5760405162461bcd60e51b815260206004820152602960248201527f4552433732313a2061646472657373207a65726f206973206e6f7420612076616044820152683634b21037bbb732b960b91b60648201526084016106e3565b506001600160a01b031660009081526068602052604090205490565b610e5e61179f565b610e686000611c32565b565b80610e7481611a91565b610e905760405162461bcd60e51b81526004016106e3906127f7565b33610e9a82610d70565b6001600160a01b031614610ec05760405162461bcd60e51b81526004016106e39061283b565b600082815260fc6020526040902060020154600160b01b900460ff1615610ef95760405162461bcd60e51b81526004016106e3906128dc565b600082815260fc60205260409020600201805460ff60b01b1916600160b01b179055610f2482611aae565b5050565b600054610100900460ff1615808015610f485750600054600160ff909116105b80610f625750303b158015610f62575060005460ff166001145b610fc55760405162461bcd60e51b815260206004820152602e60248201527f496e697469616c697a61626c653a20636f6e747261637420697320616c72656160448201526d191e481a5b9a5d1a585b1a5e995960921b60648201526084016106e3565b6000805460ff191660011790558015610fe8576000805461ff0019166101001790555b61102e6040518060400160405280600881526020016750726f706572747960c01b81525060405180604001604052806004815260200163050524f560e41b815250611c84565b611036611cb5565b600060fb558015610c7a576000805461ff0019169055604051600181527f7f26b83ff96e1f2b6a682f133852f6798a09c465da95921460cefb38474024989060200160405180910390a150565b6060606680546105c590612741565b610f24338383611ce4565b6110a733836118cf565b6110c35760405162461bcd60e51b81526004016106e3906127aa565b6110cf84848484611daa565b50505050565b806110df81611a91565b6110fb5760405162461bcd60e51b81526004016106e3906127f7565b3361110582610d70565b6001600160a01b03161461112b5760405162461bcd60e51b81526004016106e39061283b565b61113482611a91565b6111505760405162461bcd60e51b81526004016106e3906127f7565b600082815260fc6020526040902060020154600160a01b900460ff16156111df5760405162461bcd60e51b815260206004820152603c60248201527f50726f706572747920697320617661696c61626c6520666f722073616c652e2060448201527f506c656173652063616e63656c207468652073616c652066697273740000000060648201526084016106e3565b6111e882611ddd565b600082815260fc60205260408082208281556001810192909255600290910180546001600160b81b03191690555133907f8e2f5fcc57c31738b03aa91accdd55b13dc355a4fa1707d953f49c973e18e6e4906112479085815260200190565b60405180910390a25050565b8061125d81611a91565b6112795760405162461bcd60e51b81526004016106e3906127f7565b3361128382610d70565b6001600160a01b0316146112a95760405162461bcd60e51b81526004016106e39061283b565b600082815260fc6020526040902060020154600160a01b900460ff1615156001146113215760405162461bcd60e51b815260206004820152602260248201527f50726f7065727479206973206e6f7420617661696c61626c6520666f722073616044820152616c6560f01b60648201526084016106e3565b600082815260fc60205260409020600201546001600160a01b03161561137d5760405162461bcd60e51b8152602060048201526011602482015270109d5e595c88185b1c9958591e481cd95d607a1b60448201526064016106e3565b50600090815260fc60205260409020600201805460ff60a01b19169055565b806113a681611a91565b6113c25760405162461bcd60e51b81526004016106e3906127f7565b336113cc82610d70565b6001600160a01b0316146113f25760405162461bcd60e51b81526004016106e39061283b565b600082815260fc60205260409020600201546001600160a01b03166114495760405162461bcd60e51b815260206004820152600d60248201526c109d5e595c881b9bdd081cd95d609a1b60448201526064016106e3565b600082815260fc6020526040902060020154600160b01b900460ff16156114825760405162461bcd60e51b81526004016106e3906128dc565b600082815260fc6020526040902060020154600160a81b900460ff16156114bb5760405162461bcd60e51b81526004016106e390612883565b50600090815260fc6020526040902060020180546001600160a01b0319169055565b60606114e8826116e1565b6000828152609760205260408120805461150190612741565b80601f016020809104026020016040519081016040528092919081815260200182805461152d90612741565b801561157a5780601f1061154f5761010080835404028352916020019161157a565b820191906000526020600020905b81548152906001019060200180831161155d57829003601f168201915b50505050509050600061159860408051602081019091526000815290565b905080516000036115aa575092915050565b8151156115dc5780826040516020016115c4929190612923565b60405160208183030381529060405292505050919050565b6115e584611e1d565b949350505050565b6001600160a01b039182166000908152606a6020908152604080832093909416825291909152205460ff1690565b61162361179f565b6001600160a01b0381166116885760405162461bcd60e51b815260206004820152602660248201527f4f776e61626c653a206e6577206f776e657220697320746865207a65726f206160448201526564647265737360d01b60648201526084016106e3565b610c7a81611c32565b60006001600160e01b031982166380ac58cd60e01b14806116c257506001600160e01b03198216635b5e139f60e01b145b806105b057506301ffc9a760e01b6001600160e01b03198316146105b0565b6116ea81611a91565b610c7a5760405162461bcd60e51b8152602060048201526018602482015277115490cdcc8c4e881a5b9d985b1a59081d1bdad95b88125160421b60448201526064016106e3565b600081815260696020526040902080546001600160a01b0319166001600160a01b038416908117909155819061176682610d70565b6001600160a01b03167f8c5be1e5ebec7d5bd14f71427d1e84f3dd0314c0f7b2291e5b200ac8c7c3b92560405160405180910390a45050565b60c9546001600160a01b03163314610e685760405162461bcd60e51b815260206004820181905260248201527f4f776e61626c653a2063616c6c6572206973206e6f7420746865206f776e657260448201526064016106e3565b610f24828260405180602001604052806000815250611e91565b61181c82611a91565b61187f5760405162461bcd60e51b815260206004820152602e60248201527f45524337323155524953746f726167653a2055524920736574206f66206e6f6e60448201526d32bc34b9ba32b73a103a37b5b2b760911b60648201526084016106e3565b600082815260976020526040902061189782826129a0565b506040518281527ff8e1a15aba9398e019f0b49df1a4fde98ee17ae345cb5f6b5e2c27f5033e8ce79060200160405180910390a15050565b6000806118db83610d70565b9050806001600160a01b0316846001600160a01b03161480611902575061190281856115ed565b806115e55750836001600160a01b031661191b84610648565b6001600160a01b031614949350505050565b826001600160a01b031661194082610d70565b6001600160a01b0316146119665760405162461bcd60e51b81526004016106e390612a60565b6001600160a01b0382166119c85760405162461bcd60e51b8152602060048201526024808201527f4552433732313a207472616e7366657220746f20746865207a65726f206164646044820152637265737360e01b60648201526084016106e3565b826001600160a01b03166119db82610d70565b6001600160a01b031614611a015760405162461bcd60e51b81526004016106e390612a60565b600081815260696020908152604080832080546001600160a01b03199081169091556001600160a01b0387811680865260688552838620805460001901905590871680865283862080546001019055868652606790945282852080549092168417909155905184937fddf252ad1be2c89b69c2b068fc378daa952ba7f163c4a11628f55a4df523b3ef91a4505050565b6000908152606760205260409020546001600160a01b0316151590565b600081815260fc6020526040902060020154600160a81b900460ff168015611aee5750600081815260fc6020526040902060020154600160b01b900460ff165b15610c7a57600081815260fc60205260408120600201546001600160a01b031690611b1883610d70565b600084815260fc60205260408082205490519293506001600160a01b0384169281156108fc0292818181858888f19350505050158015611b5c573d6000803e3d6000fd5b50611b6881838561192d565b816001600160a01b0316611b7b84610d70565b6001600160a01b031614611bc35760405162461bcd60e51b815260206004820152600f60248201526e151c985b9cd9995c8819985a5b1959608a1b60448201526064016106e3565b600083815260fc60209081526040918290206002810180546001600160b81b0319169055548251868152918201526001600160a01b0384811692908416917f9ed053bb818ff08b8353cd46f78db1f0799f31c9e4458fdb425c10eccd2efc4491015b60405180910390a3505050565b60c980546001600160a01b038381166001600160a01b0319831681179093556040519116919082907f8be0079c531659141344cd1fd0a4f28419497f9722a3daafe3b4186f6b6457e090600090a35050565b600054610100900460ff16611cab5760405162461bcd60e51b81526004016106e390612aa5565b610f248282611ec4565b600054610100900460ff16611cdc5760405162461bcd60e51b81526004016106e390612aa5565b610e68611f04565b816001600160a01b0316836001600160a01b031603611d455760405162461bcd60e51b815260206004820152601960248201527f4552433732313a20617070726f766520746f2063616c6c65720000000000000060448201526064016106e3565b6001600160a01b038381166000818152606a6020908152604080832094871680845294825291829020805460ff191686151590811790915591519182527f17307eab39ab6107e8899845ad3d59bd9653f200f220920489ca2b5937696c319101611c25565b611db584848461192d565b611dc184848484611f34565b6110cf5760405162461bcd60e51b81526004016106e390612af0565b611de681612035565b60008181526097602052604090208054611dff90612741565b159050610c7a576000818152609760205260408120610c7a916123a2565b6060611e28826116e1565b6000611e3f60408051602081019091526000815290565b90506000815111611e5f5760405180602001604052806000815250611e8a565b80611e69846120ca565b604051602001611e7a929190612923565b6040516020818303038152906040525b9392505050565b611e9b838361215d565b611ea86000848484611f34565b6107845760405162461bcd60e51b81526004016106e390612af0565b600054610100900460ff16611eeb5760405162461bcd60e51b81526004016106e390612aa5565b6065611ef783826129a0565b50606661078482826129a0565b600054610100900460ff16611f2b5760405162461bcd60e51b81526004016106e390612aa5565b610e6833611c32565b60006001600160a01b0384163b1561202a57604051630a85bd0160e11b81526001600160a01b0385169063150b7a0290611f78903390899088908890600401612b42565b6020604051808303816000875af1925050508015611fb3575060408051601f3d908101601f19168201909252611fb091810190612b7f565b60015b612010573d808015611fe1576040519150601f19603f3d011682016040523d82523d6000602084013e611fe6565b606091505b5080516000036120085760405162461bcd60e51b81526004016106e390612af0565b805181602001fd5b6001600160e01b031916630a85bd0160e11b1490506115e5565b506001949350505050565b600061204082610d70565b905061204b82610d70565b600083815260696020908152604080832080546001600160a01b03199081169091556001600160a01b0385168085526068845282852080546000190190558785526067909352818420805490911690555192935084927fddf252ad1be2c89b69c2b068fc378daa952ba7f163c4a11628f55a4df523b3ef908390a45050565b606060006120d7836122ca565b600101905060008167ffffffffffffffff8111156120f7576120f76124e5565b6040519080825280601f01601f191660200182016040528015612121576020820181803683370190505b5090508181016020015b600019016f181899199a1a9b1b9c1cb0b131b232b360811b600a86061a8153600a850494508461212b57509392505050565b6001600160a01b0382166121b35760405162461bcd60e51b815260206004820181905260248201527f4552433732313a206d696e7420746f20746865207a65726f206164647265737360448201526064016106e3565b6121bc81611a91565b156122095760405162461bcd60e51b815260206004820152601c60248201527f4552433732313a20746f6b656e20616c7265616479206d696e7465640000000060448201526064016106e3565b61221281611a91565b1561225f5760405162461bcd60e51b815260206004820152601c60248201527f4552433732313a20746f6b656e20616c7265616479206d696e7465640000000060448201526064016106e3565b6001600160a01b038216600081815260686020908152604080832080546001019055848352606790915280822080546001600160a01b0319168417905551839291907fddf252ad1be2c89b69c2b068fc378daa952ba7f163c4a11628f55a4df523b3ef908290a45050565b60008072184f03e93ff9f4daa797ed6e38ed64bf6a1f0160401b83106123095772184f03e93ff9f4daa797ed6e38ed64bf6a1f0160401b830492506040015b6d04ee2d6d415b85acef81000000008310612335576d04ee2d6d415b85acef8100000000830492506020015b662386f26fc10000831061235357662386f26fc10000830492506010015b6305f5e100831061236b576305f5e100830492506008015b612710831061237f57612710830492506004015b60648310612391576064830492506002015b600a83106105b05760010192915050565b5080546123ae90612741565b6000825580601f106123be575050565b601f016020900490600052602060002090810190610c7a91905b808211156123ec57600081556001016123d8565b5090565b6001600160e01b031981168114610c7a57600080fd5b60006020828403121561241857600080fd5b8135611e8a816123f0565b60005b8381101561243e578181015183820152602001612426565b50506000910152565b6000815180845261245f816020860160208601612423565b601f01601f19169290920160200192915050565b602081526000611e8a6020830184612447565b60006020828403121561249857600080fd5b5035919050565b80356001600160a01b03811681146124b657600080fd5b919050565b600080604083850312156124ce57600080fd5b6124d78361249f565b946020939093013593505050565b634e487b7160e01b600052604160045260246000fd5b600067ffffffffffffffff80841115612516576125166124e5565b604051601f8501601f19908116603f0116810190828211818310171561253e5761253e6124e5565b8160405280935085815286868601111561255757600080fd5b858560208301376000602087830101525050509392505050565b60008060006060848603121561258657600080fd5b61258f8461249f565b9250602084013567ffffffffffffffff8111156125ab57600080fd5b8401601f810186136125bc57600080fd5b6125cb868235602084016124fb565b925050604084013590509250925092565b6000806000606084860312156125f157600080fd5b6125fa8461249f565b92506126086020850161249f565b9150604084013590509250925092565b6000806040838503121561262b57600080fd5b8235915061263b6020840161249f565b90509250929050565b60006020828403121561265657600080fd5b611e8a8261249f565b6000806040838503121561267257600080fd5b61267b8361249f565b91506020830135801515811461269057600080fd5b809150509250929050565b600080600080608085870312156126b157600080fd5b6126ba8561249f565b93506126c86020860161249f565b925060408501359150606085013567ffffffffffffffff8111156126eb57600080fd5b8501601f810187136126fc57600080fd5b61270b878235602084016124fb565b91505092959194509250565b6000806040838503121561272a57600080fd5b6127338361249f565b915061263b6020840161249f565b600181811c9082168061275557607f821691505b60208210810361277557634e487b7160e01b600052602260045260246000fd5b50919050565b634e487b7160e01b600052601160045260246000fd5b6000600182016127a3576127a361277b565b5060010190565b6020808252602d908201527f4552433732313a2063616c6c6572206973206e6f7420746f6b656e206f776e6560408201526c1c881bdc88185c1c1c9bdd9959609a1b606082015260800190565b60208082526024908201527f50726f70657274792077697468207468697320494420646f6573206e6f7420656040820152631e1a5cdd60e21b606082015260800190565b60208082526028908201527f43616c6c6572206973206e6f7420746865206f776e6572206f6620746869732060408201526770726f706572747960c01b606082015260800190565b60208082526026908201527f5472616e7366657220616c726561647920617070726f7665642062792074686560408201526510313abcb2b960d11b606082015260800190565b818103818111156105b0576105b061277b565b60208082526027908201527f5472616e7366657220616c726561647920617070726f766564206279207468656040820152661039b2b63632b960c91b606082015260800190565b60008351612935818460208801612423565b835190830190612949818360208801612423565b01949350505050565b601f82111561078457600081815260208120601f850160051c810160208610156129795750805b601f850160051c820191505b8181101561299857828155600101612985565b505050505050565b815167ffffffffffffffff8111156129ba576129ba6124e5565b6129ce816129c88454612741565b84612952565b602080601f831160018114612a0357600084156129eb5750858301515b600019600386901b1c1916600185901b178555612998565b600085815260208120601f198616915b82811015612a3257888601518255948401946001909101908401612a13565b5085821015612a505787850151600019600388901b60f8161c191681555b5050505050600190811b01905550565b60208082526025908201527f4552433732313a207472616e736665722066726f6d20696e636f72726563742060408201526437bbb732b960d91b606082015260800190565b6020808252602b908201527f496e697469616c697a61626c653a20636f6e7472616374206973206e6f74206960408201526a6e697469616c697a696e6760a81b606082015260800190565b60208082526032908201527f4552433732313a207472616e7366657220746f206e6f6e20455243373231526560408201527131b2b4bb32b91034b6b83632b6b2b73a32b960711b606082015260800190565b6001600160a01b0385811682528416602082015260408101839052608060608201819052600090612b7590830184612447565b9695505050505050565b600060208284031215612b9157600080fd5b8151611e8a816123f056fea26469706673582212200bf5b77b8793eab765ac0156dc87137edf7e32063d06f52c524ab2fd3768166d64736f6c63430008140033",
  "linkReferences": {},
  "deployedLinkReferences": {}
}